{
  "contractName": "OrderContract",
  "abi": [
    {
      "inputs": [],
      "stateMutability": "nonpayable",
      "type": "constructor"
    },
    {
      "anonymous": false,
      "inputs": [
        {
          "indexed": false,
          "internalType": "uint256",
          "name": "orderId",
          "type": "uint256"
        },
        {
          "indexed": false,
          "internalType": "address",
          "name": "buyer",
          "type": "address"
        }
      ],
      "name": "DeliveryConfirmed",
      "type": "event"
    },
    {
      "anonymous": false,
      "inputs": [
        {
          "indexed": false,
          "internalType": "uint256",
          "name": "orderId",
          "type": "uint256"
        },
        {
          "indexed": false,
          "internalType": "address",
          "name": "buyer",
          "type": "address"
        },
        {
          "indexed": false,
          "internalType": "uint256",
          "name": "amount",
          "type": "uint256"
        }
      ],
      "name": "OrderCreated",
      "type": "event"
    },
    {
      "anonymous": false,
      "inputs": [
        {
          "indexed": false,
          "internalType": "uint256",
          "name": "orderId",
          "type": "uint256"
        },
        {
          "indexed": false,
          "internalType": "address",
          "name": "buyer",
          "type": "address"
        },
        {
          "indexed": false,
          "internalType": "uint256",
          "name": "amount",
          "type": "uint256"
        }
      ],
      "name": "OrderPaid",
      "type": "event"
    },
    {
      "anonymous": false,
      "inputs": [
        {
          "indexed": false,
          "internalType": "uint256",
          "name": "orderId",
          "type": "uint256"
        },
        {
          "indexed": false,
          "internalType": "enum OrderContract.OrderStatus",
          "name": "status",
          "type": "uint8"
        }
      ],
      "name": "OrderStatusUpdated",
      "type": "event"
    },
    {
      "anonymous": false,
      "inputs": [
        {
          "indexed": false,
          "internalType": "uint256",
          "name": "orderId",
          "type": "uint256"
        },
        {
          "indexed": false,
          "internalType": "address",
          "name": "payer",
          "type": "address"
        },
        {
          "indexed": false,
          "internalType": "uint256",
          "name": "amount",
          "type": "uint256"
        }
      ],
      "name": "PaymentHeld",
      "type": "event"
    },
    {
      "anonymous": false,
      "inputs": [
        {
          "indexed": false,
          "internalType": "address",
          "name": "seller",
          "type": "address"
        },
        {
          "indexed": false,
          "internalType": "bool",
          "name": "allowed",
          "type": "bool"
        }
      ],
      "name": "SellerConfirmAllowed",
      "type": "event"
    },
    {
      "anonymous": false,
      "inputs": [
        {
          "indexed": false,
          "internalType": "uint256",
          "name": "orderId",
          "type": "uint256"
        },
        {
          "indexed": false,
          "internalType": "string",
          "name": "trackingNumber",
          "type": "string"
        }
      ],
      "name": "TrackingNumberUpdated",
      "type": "event"
    },
    {
      "inputs": [],
      "name": "companyName",
      "outputs": [
        {
          "internalType": "string",
          "name": "",
          "type": "string"
        }
      ],
      "stateMutability": "view",
      "type": "function"
    },
    {
      "inputs": [],
      "name": "orderCount",
      "outputs": [
        {
          "internalType": "uint256",
          "name": "",
          "type": "uint256"
        }
      ],
      "stateMutability": "view",
      "type": "function"
    },
    {
      "inputs": [
        {
          "internalType": "uint256",
          "name": "",
          "type": "uint256"
        }
      ],
      "name": "orders",
      "outputs": [
        {
          "internalType": "uint256",
          "name": "orderId",
          "type": "uint256"
        },
        {
          "internalType": "address payable",
          "name": "buyer",
          "type": "address"
        },
        {
          "internalType": "address payable",
          "name": "seller",
          "type": "address"
        },
        {
          "internalType": "string",
          "name": "buyerName",
          "type": "string"
        },
        {
          "internalType": "string",
          "name": "deliveryAddress",
          "type": "string"
        },
        {
          "components": [
            {
              "internalType": "string",
              "name": "name",
              "type": "string"
            },
            {
              "internalType": "uint256",
              "name": "price",
              "type": "uint256"
            },
            {
              "internalType": "string",
              "name": "imageUrl",
              "type": "string"
            },
            {
              "internalType": "string",
              "name": "description",
              "type": "string"
            }
          ],
          "internalType": "struct OrderContract.Product",
          "name": "product",
          "type": "tuple"
        },
        {
          "internalType": "uint256",
          "name": "totalAmount",
          "type": "uint256"
        },
        {
          "internalType": "enum OrderContract.OrderStatus",
          "name": "status",
          "type": "uint8"
        },
        {
          "internalType": "uint256",
          "name": "timestamp",
          "type": "uint256"
        },
        {
          "internalType": "bool",
          "name": "isPaid",
          "type": "bool"
        },
        {
          "internalType": "bool",
          "name": "isReleased",
          "type": "bool"
        },
        {
          "internalType": "uint256",
          "name": "deliveredAt",
          "type": "uint256"
        }
      ],
      "stateMutability": "view",
      "type": "function"
    },
    {
      "inputs": [],
      "name": "owner",
      "outputs": [
        {
          "internalType": "address payable",
          "name": "",
          "type": "address"
        }
      ],
      "stateMutability": "view",
      "type": "function"
    },
    {
      "inputs": [
        {
          "internalType": "address",
          "name": "",
          "type": "address"
        }
      ],
      "name": "sellerConfirmAllowed",
      "outputs": [
        {
          "internalType": "bool",
          "name": "",
          "type": "bool"
        }
      ],
      "stateMutability": "view",
      "type": "function"
    },
    {
      "inputs": [
        {
          "internalType": "uint256",
          "name": "",
          "type": "uint256"
        },
        {
          "internalType": "uint256",
          "name": "",
          "type": "uint256"
        }
      ],
      "name": "trackingHistory",
      "outputs": [
        {
          "internalType": "string",
          "name": "status",
          "type": "string"
        },
        {
          "internalType": "string",
          "name": "description",
          "type": "string"
        },
        {
          "internalType": "uint256",
          "name": "timestamp",
          "type": "uint256"
        }
      ],
      "stateMutability": "view",
      "type": "function"
    },
    {
      "inputs": [
        {
          "internalType": "uint256",
          "name": "",
          "type": "uint256"
        }
      ],
      "name": "trackingNumbers",
      "outputs": [
        {
          "internalType": "string",
          "name": "",
          "type": "string"
        }
      ],
      "stateMutability": "view",
      "type": "function"
    },
    {
      "inputs": [
        {
          "internalType": "address",
          "name": "",
          "type": "address"
        },
        {
          "internalType": "uint256",
          "name": "",
          "type": "uint256"
        }
      ],
      "name": "userOrders",
      "outputs": [
        {
          "internalType": "uint256",
          "name": "",
          "type": "uint256"
        }
      ],
      "stateMutability": "view",
      "type": "function"
    },
    {
      "inputs": [
        {
          "internalType": "address",
          "name": "seller",
          "type": "address"
        },
        {
          "internalType": "bool",
          "name": "allowed",
          "type": "bool"
        }
      ],
      "name": "setSellerConfirmAllowed",
      "outputs": [],
      "stateMutability": "nonpayable",
      "type": "function"
    },
    {
      "inputs": [
        {
          "internalType": "string",
          "name": "_buyerName",
          "type": "string"
        },
        {
          "internalType": "string",
          "name": "_deliveryAddress",
          "type": "string"
        },
        {
          "internalType": "string",
          "name": "_productName",
          "type": "string"
        },
        {
          "internalType": "uint256",
          "name": "_price",
          "type": "uint256"
        },
        {
          "internalType": "string",
          "name": "_imageUrl",
          "type": "string"
        },
        {
          "internalType": "string",
          "name": "_description",
          "type": "string"
        }
      ],
      "name": "createOrder",
      "outputs": [
        {
          "internalType": "uint256",
          "name": "",
          "type": "uint256"
        }
      ],
      "stateMutability": "payable",
      "type": "function"
    },
    {
      "inputs": [
        {
          "internalType": "uint256",
          "name": "_orderId",
          "type": "uint256"
        }
      ],
      "name": "payForOrder",
      "outputs": [],
      "stateMutability": "payable",
      "type": "function"
    },
    {
      "inputs": [
        {
          "internalType": "uint256",
          "name": "_orderId",
          "type": "uint256"
        },
        {
          "internalType": "enum OrderContract.OrderStatus",
          "name": "_status",
          "type": "uint8"
        },
        {
          "internalType": "string",
          "name": "_description",
          "type": "string"
        }
      ],
      "name": "updateOrderStatus",
      "outputs": [],
      "stateMutability": "nonpayable",
      "type": "function"
    },
    {
      "inputs": [
        {
          "internalType": "uint256",
          "name": "_orderId",
          "type": "uint256"
        },
        {
          "internalType": "enum OrderContract.OrderStatus",
          "name": "_status",
          "type": "uint8"
        },
        {
          "internalType": "string",
          "name": "_description",
          "type": "string"
        },
        {
          "internalType": "string",
          "name": "_trackingNumber",
          "type": "string"
        }
      ],
      "name": "updateOrderStatusWithTracking",
      "outputs": [],
      "stateMutability": "nonpayable",
      "type": "function"
    },
    {
      "inputs": [
        {
          "internalType": "uint256",
          "name": "_orderId",
          "type": "uint256"
        },
        {
          "internalType": "bool",
          "name": "_received",
          "type": "bool"
        }
      ],
      "name": "confirmDelivery",
      "outputs": [],
      "stateMutability": "nonpayable",
      "type": "function"
    },
    {
      "inputs": [
        {
          "internalType": "uint256",
          "name": "_orderId",
          "type": "uint256"
        }
      ],
      "name": "getEscrowStatus",
      "outputs": [
        {
          "internalType": "bool",
          "name": "isEscrowed",
          "type": "bool"
        },
        {
          "internalType": "bool",
          "name": "isReleased",
          "type": "bool"
        },
        {
          "internalType": "uint256",
          "name": "amount",
          "type": "uint256"
        }
      ],
      "stateMutability": "view",
      "type": "function"
    },
    {
      "inputs": [
        {
          "internalType": "uint256",
          "name": "_orderId",
          "type": "uint256"
        }
      ],
      "name": "getOrder",
      "outputs": [
        {
          "internalType": "uint256",
          "name": "orderId",
          "type": "uint256"
        },
        {
          "internalType": "address",
          "name": "buyer",
          "type": "address"
        },
        {
          "internalType": "address",
          "name": "seller",
          "type": "address"
        },
        {
          "internalType": "string",
          "name": "buyerName",
          "type": "string"
        },
        {
          "internalType": "string",
          "name": "deliveryAddress",
          "type": "string"
        },
        {
          "internalType": "string",
          "name": "productName",
          "type": "string"
        },
        {
          "internalType": "uint256",
          "name": "price",
          "type": "uint256"
        },
        {
          "internalType": "string",
          "name": "imageUrl",
          "type": "string"
        },
        {
          "internalType": "uint256",
          "name": "totalAmount",
          "type": "uint256"
        },
        {
          "internalType": "enum OrderContract.OrderStatus",
          "name": "status",
          "type": "uint8"
        },
        {
          "internalType": "uint256",
          "name": "timestamp",
          "type": "uint256"
        },
        {
          "internalType": "bool",
          "name": "isPaid",
          "type": "bool"
        },
        {
          "internalType": "bool",
          "name": "isReleased",
          "type": "bool"
        },
        {
          "internalType": "uint256",
          "name": "deliveredAt",
          "type": "uint256"
        }
      ],
      "stateMutability": "view",
      "type": "function"
    },
    {
      "inputs": [
        {
          "internalType": "uint256",
          "name": "_orderId",
          "type": "uint256"
        }
      ],
      "name": "getTrackingHistory",
      "outputs": [
        {
          "components": [
            {
              "internalType": "string",
              "name": "status",
              "type": "string"
            },
            {
              "internalType": "string",
              "name": "description",
              "type": "string"
            },
            {
              "internalType": "uint256",
              "name": "timestamp",
              "type": "uint256"
            }
          ],
          "internalType": "struct OrderContract.TrackingUpdate[]",
          "name": "",
          "type": "tuple[]"
        }
      ],
      "stateMutability": "view",
      "type": "function"
    },
    {
      "inputs": [
        {
          "internalType": "address",
          "name": "_user",
          "type": "address"
        }
      ],
      "name": "getUserOrders",
      "outputs": [
        {
          "internalType": "uint256[]",
          "name": "",
          "type": "uint256[]"
        }
      ],
      "stateMutability": "view",
      "type": "function"
    },
    {
      "inputs": [],
      "name": "getOrderCount",
      "outputs": [
        {
          "internalType": "uint256",
          "name": "",
          "type": "uint256"
        }
      ],
      "stateMutability": "view",
      "type": "function"
    },
    {
      "inputs": [
        {
          "internalType": "uint256",
          "name": "_orderId",
          "type": "uint256"
        }
      ],
      "name": "getFullTrackingInfo",
      "outputs": [
        {
          "internalType": "uint256",
          "name": "orderId",
          "type": "uint256"
        },
        {
          "internalType": "string",
          "name": "productName",
          "type": "string"
        },
        {
          "internalType": "string",
          "name": "currentStatus",
          "type": "string"
        },
        {
          "components": [
            {
              "internalType": "string",
              "name": "status",
              "type": "string"
            },
            {
              "internalType": "string",
              "name": "description",
              "type": "string"
            },
            {
              "internalType": "uint256",
              "name": "timestamp",
              "type": "uint256"
            }
          ],
          "internalType": "struct OrderContract.TrackingUpdate[]",
          "name": "history",
          "type": "tuple[]"
        }
      ],
      "stateMutability": "view",
      "type": "function"
    },
    {
      "inputs": [
        {
          "internalType": "uint256",
          "name": "_orderId",
          "type": "uint256"
        },
        {
          "internalType": "string",
          "name": "_trackingNumber",
          "type": "string"
        }
      ],
      "name": "updateTrackingNumber",
      "outputs": [],
      "stateMutability": "nonpayable",
      "type": "function"
    },
    {
      "inputs": [
        {
          "internalType": "uint256",
          "name": "_orderId",
          "type": "uint256"
        }
      ],
      "name": "getTrackingNumber",
      "outputs": [
        {
          "internalType": "string",
          "name": "",
          "type": "string"
        }
      ],
      "stateMutability": "view",
      "type": "function"
    }
  ],
  "bytecode": "0x60808060405234620000c5576000600181815581548181811c91168015620000ba575b6020821014620000a657601f81116200007a575b50507f4c656769744c61680000000000000000000000000000000000000000000000109055600280546001600160a01b03191633179055612df09081620000cb8239f35b828052601f60208420910160051c8101905b8181106200009b575062000036565b83815582016200008c565b634e487b7160e01b83526022600452602483fd5b90607f169062000022565b600080fdfe6080604052600436101561001257600080fd5b60003560e01c806304ef0781146120535780632453ffa814610cfd578063345460cd14611f43578063534cc1b014611f1757806355bfb5c4146115405780635e52bd9e1461150157806360e1102e146113c557806363c69f08146113115780636e31035b14611009578063738f376014610d73578063856652e914610d1b5780638d0a5fbb14610cfd5780638da5cb5b14610cd45780639b023fec146109b0578063a1e1e6e114610991578063a85c38ef14610846578063ae9cf2f614610749578063c36034e2146106eb578063d09ef241146104e1578063d9c2dcee1461027c578063e097b6b1146101f65763f5ec2eed1461010e57600080fd5b346101f15760003660031901126101f1576040516000805461012f8161249a565b808452906001908181169081156101ca5750600114610171575b61016d8461015981860382612541565b604051918291602083526020830190612608565b0390f35b600080805292507f290decd9548b62a8d60345a988386fc84ba6bc95484008f6362f93160ef3e5635b8284106101b257505050810160200161015982610149565b8054602085870181019190915290930192810161019a565b60ff191660208087019190915292151560051b850190920192506101599150839050610149565b600080fd5b346101f15760403660031901126101f1576024356004356000526005602052604060002080548210156101f15761026491610230916127c6565b5061023a81612562565b90610272600261024c60018401612562565b92015491604051948594606086526060860190612608565b908482036020860152612608565b9060408301520390f35b6020806003193601126101f15760043590811515806104d5575b61029f90612a7a565b6000828152600482526040902060018101546001600160a01b0316330361049b57600c81019081549160ff831661046157600982015434106104255792600080516020612d9b83398151915294926001600a81946040978360ff19809616179055019182541617905582600052600581526103ac84600020855190610323826124d4565b865161032e81612526565b601081526f14185e5b595b9d08149958d95a5d995960821b8582015282528651610357816124d4565b603681527f5061796d656e7420686173206265656e20726563656976656420616e64206f72858201527519195c881a5cc818995a5b99c81c1c9bd8d95cdcd95960521b88820152848301524287830152612806565b83518381523360208201523460408201527fa4678e82fe7b97eb2133ead828ed5d14ebb0c83961617dc347b698964d070b6690606090a183518381523360208201523460408201527f614a638017b56c89c474f25edfe4c35af6a675fe98c78f962dc29c53f706046890606090a18351928352820152a1005b60405162461bcd60e51b8152600481018590526014602482015273125b9cdd59999a58da595b9d081c185e5b595b9d60621b6044820152606490fd5b60405162461bcd60e51b815260048101859052601260248201527113dc99195c88185b1c9958591e481c185a5960721b6044820152606490fd5b60405162461bcd60e51b81526004810183905260126024820152714f6e6c792062757965722063616e2070617960701b6044820152606490fd5b50600154821115610296565b346101f15760203660031901126101f157600435801515806106df575b61050790612a7a565b60005260046020526040600020600d60405191610523836124ef565b8054835260018101546001600160a01b039081166020850152600282015416604084015261055360038201612562565b606084015261056460048201612562565b608084015261057560058201612772565b60a0840152600981015460c084015261059860ff600a8301541660e085016127e2565b600b81015461010084015260ff600c820154818116151561012086015260081c1615156101408401520154610160820152805160018060a01b036020830151169160018060a01b0360408201511660608201519160808101519260a08201519384516040602087015196015160c08501519660e08601519260058410156106c957610100870151946101208801511515966101408901511515986101600151996040519d8e809e81526020015260408d01528b6101c06060819201528c0161065f91612608565b8b810360808d015261067091612608565b8a810360a08c015261068191612608565b9060c08a015288810360e08a015261069891612608565b9561010088015261012087016106ad916127b9565b6101408601526101608501526101808401526101a08301520390f35b634e487b7160e01b600052602160045260246000fd5b506001548111156104fe565b346101f15760203660031901126101f1576004358015158061073d575b61071190612a7a565b600052600560205261016d6107296040600020612b4c565b6040519182916020835260208301906126c0565b50600154811115610708565b346101f15760403660031901126101f1576107626126aa565b61076a61248b565b60025490916001600160a01b03918216330361081457169081156107de57816040917ff03bdf87caad96bae81e04316d6e28f87550d25c5501fed734e6389884a9ad3b9360005260036020526107cf81846000209060ff801983541691151516179055565b825191825215156020820152a1005b60405162461bcd60e51b815260206004820152600e60248201526d24b73b30b634b21039b2b63632b960911b6044820152606490fd5b60405162461bcd60e51b815260206004820152600a60248201526927b7363c9037bbb732b960b11b6044820152606490fd5b346101f15760203660031901126101f157600435600052600460205260406000208054600160a01b600190039182600182015416926002820154166003820161088e90612562565b9161089b60048201612562565b926108a860058301612772565b93600983015494600a84015460ff1691600b85015493600c86015495600d0154966040519a8b9a8b5260208b015260408a01526101808060608b015289016108ef91612608565b88810360808a015261090091612608565b9087820360a08901528051608083526080830161091c91612608565b60208201516020840152604082015190838103604085015261093d91612608565b906060015191808203906060015261095491612608565b9460c087015260e08601610967916127b9565b61010085015260ff8116151561012085015260081c60ff1615156101408401526101608301520390f35b346101f15760203660031901126101f15761016d610159600435612bd6565b346101f15760803660031901126101f15760043560243560058110156101f1576001600160401b036044358181116101f1576109f0903690600401612663565b6064358281116101f157610a08903690600401612663565b9084151580610cc8575b610a1b90612a7a565b8460005260209260048452604060002092610a3986600a86016127ee565b60028614918280610cbe575b610b15575b505092610aae610abb9360409693600080516020612d9b833981519152989660609060018714600014610abe5750509050610a83612b26565b905b86600052600584528760002090885192610a9e846124d4565b8352848301524288830152612806565b84519384528301906127b9565ba1005b15610ad557509050610ace612b03565b905b610a85565b60038603610b015750600d610ae8612ade565b9201805415610af8575b50610a85565b42905589610af2565b915060048503610ad0579050610ace612ab9565b87600052600786526040600020908251908111610ca857610b36825461249a565b601f8111610c62575b5086601f8211600114610bcd5793600080516020612d7b833981519152610bb2610aae95610abb99958560409d9a96600080516020612d9b8339815191529f9d9a600091610bc2575b508160011b916000199060031b1c19161790555b8b519182918c83528d8a8401528d830190612608565b0390a19396985093965093610a4a565b905083015138610b88565b601f1982169083600052886000209160005b818110610c4b5750610aae95610abb9995600186600080516020612d9b8339815191529f9d9a9660409f9c9896600080516020612d7b83398151915297610bb29710610c32575b5050811b019055610b9c565b85015160001960f88460031b161c191690553880610c26565b91928a60018192868a015181550194019201610bdf565b8260005287600020601f830160051c810191898410610c9e575b601f0160051c01905b818110610c925750610b3f565b60008155600101610c85565b9091508190610c7c565b634e487b7160e01b600052604160045260246000fd5b5081511515610a45565b50600154851115610a12565b346101f15760003660031901126101f1576002546040516001600160a01b039091168152602090f35b346101f15760003660031901126101f1576020600154604051908152f35b346101f15760403660031901126101f157610d346126aa565b6001600160a01b03166000908152600660205260409020805460243591908210156101f157602091610d6591612744565b90546040519160031b1c8152f35b346101f1576020806003193601126101f1576004359081151580610ffd575b610d9b90612a7a565b816000526004815260406000209160405192610db6846124ef565b8054845260018101546001600160a01b039081168486019081526002830154821660408701908152909291610ded60038401612562565b6060880152610dfe60048401612562565b608088015280600594610e12868601612772565b9860a08101998a52600986015460c0820152610160600d60ff600a8901541697610e4060e08501998a6127e2565b600b81015461010085015260ff600c820154818116151561012087015260081c161515610140850152015491015251163314918215610fef575b505015610f8f578051828110156106c957600103610ef4575090610ee660809461016d93610ea6612b26565b915b5151936000528552610ed8610ec06040600020612b4c565b93604051978897600089528801526080870190612608565b908582036040870152612608565b9083820360608501526126c0565b8051828110156106c957600203610f1f575090610ee660809461016d93610f19612b03565b91610ea8565b8051828110156106c957600303610f44575090610ee660809461016d93610f19612ade565b91909151828110156106c95760809461016d93610ee692600403610f6a57610f19612ab9565b604051610f7681612526565b600781526650656e64696e6760c81b8782015291610ea8565b60405162461bcd60e51b815260048101859052603260248201527f4f6e6c79206275796572206f722073656c6c65722063616e207669657720747260448201527130b1b5b4b7339034b73337b936b0ba34b7b760711b6064820152608490fd5b909150511633148680610e7a565b50600154821115610d92565b346101f15760403660031901126101f15760246001600160401b0360043582358281116101f15761103e903690600401612663565b81151580611305575b61105090612a7a565b8051156112c1578160005260209260048452604060002060018060a01b038060028301541633149081156112b3575b501561125757600a015460ff166005811015611242576002036111fe57826000526007845260406000209482519182116111ea57506110be855461249a565b601f81116111a4575b5083601f821160011461112d57948161111d9392600080516020612d7b83398151915297600091611122575b508160011b916000199060031b1c19161790555b6040805194859485528401526040830190612608565b0390a1005b9050830151886110f3565b601f1982169086600052856000209160005b81811061118d575092600080516020612d7b83398151915297926001928261111d979610611174575b5050811b019055611107565b85015160001960f88460031b161c191690558880611168565b91928760018192868901518155019401920161113f565b8560005284600020601f830160051c8101918684106111e0575b601f0160051c01905b8181106111d457506110c7565b600081556001016111c7565b90915081906111be565b634e487b7160e01b60009081526041600452fd5b60405162461bcd60e51b815260048101859052601b818701527f4f72646572206d757374206265207368697070656420666972737400000000006044820152606490fd5b85634e487b7160e01b60005260216004526000fd5b60405162461bcd60e51b815260048101869052602f818801527f4f6e6c792073656c6c6572206f72206f776e65722063616e207570646174652060448201526e3a3930b1b5b4b73390373ab6b132b960891b6064820152608490fd5b90506002541633148761107f565b60405162461bcd60e51b815260206004820152601f818601527f547261636b696e67206e756d6265722063616e6e6f7420626520656d707479006044820152606490fd5b50600154821115611047565b346101f1576020806003193601126101f1576001600160a01b036113336126aa565b1660005260068152604060002060405190818382549182815201908192600052846000209060005b868282106113b157868661137182880383612541565b604051928392818401908285525180915260408401929160005b82811061139a57505050500390f35b83518552869550938101939281019260010161138b565b83548552909301926001928301920161135b565b346101f15760603660031901126101f15760043560243560058110156101f157604435916001600160401b0383116101f157610abb60409261148c61141d600080516020612d9b833981519152963690600401612663565b841515806114f5575b61142f90612a7a565b846000526004602052856000209061144a84600a84016127ee565b60606001850361149b5750905061145f612b26565b905b856000526005602052866000209087519261147b846124d4565b835260208301524287830152612806565b835192835260208301906127b9565b600285036114b5575090506114ae612b03565b905b611461565b600385036114e15750600d6114c8612ade565b92018054156114d8575b50611461565b429055886114d2565b9150600484036114b05790506114ae612ab9565b50600154851115611426565b346101f15760203660031901126101f1576001600160a01b036115226126aa565b166000526003602052602060ff604060002054166040519015158152f35b60c03660031901126101f1576004356001600160401b0381116101f15761156b903690600401612663565b6024356001600160401b0381116101f15761158a903690600401612663565b6044356001600160401b0381116101f1576115a9903690600401612663565b906084356001600160401b0381116101f1576115c9903690600401612663565b9160a4356001600160401b0381116101f1576115e9903690600401612663565b916064353410611ed257600154926000198414611ebc576001948585018655604051936116158561250b565b8452606435602085015260408401526060830152838060a01b03600254169460405195611641876124ef565b858501875233602088015260408701526060860152608085015260a084015260643560c0840152600060e0840152426101008401528161012084015260006101408401526000610160840152016000526004602052604060002090805182556001820160018060a01b03602083015116906bffffffffffffffffffffffff60a01b9182825416179055600283019060018060a01b036040840151169082541617905560608101519182516001600160401b038111610ca857611706600383015461249a565b601f8111611e75575b506020601f8211600114611e075781929394600092611dfc575b50508160011b916000199060031b1c19161760038201555b60808201519182516001600160401b038111610ca857611764600484015461249a565b601f8111611db5575b506020601f8211600114611d475781929394600092611d3c575b50508160011b916000199060031b1c19161760048301555b60a08101519081519283516001600160401b038111610ca8576117c5600583015461249a565b601f8111611cf5575b506020601f8211600114611c86578192939495600092611c7b575b50508160011b916000199060031b1c19161760058201555b6020830151600682015560408301519283516001600160401b038111610ca85761182e600784015461249a565b601f8111611c34575b506020601f8211600114611bc15781906060949596600092611bb6575b50508160011b916000199060031b1c19161760078401555b01519182516001600160401b038111610ca85761188c600884015461249a565b601f8111611b6f575b506020601f8211600114611b015781929394600092611af6575b50508160011b916000199060031b1c19161760088301555b60c0810151600983015560e081015160058110156106c957600d916118f261016092600a86016127ee565b610100810151600b850155600c840161191e6101208301511515829060ff801983541691151516179055565b610140820151151561ff0082549160081b169061ff00191617905501519101553360005260066020526040600020600154908054600160401b811015610ca85761196d91600182018155612744565b819291549060031b91821b91600019901b19161790556001546000526005602052611a246040600020604051906119a3826124d4565b6040516119af81612526565b600d81526c13dc99195c8810dc99585d1959609a1b602082015282526040516119d7816124d4565b602a81527f596f7572206f7264657220686173206265656e206372656174656420616e642060208201526969732070656e64696e6760b01b60408201526020830152426040830152612806565b60206001547f28eb86fd03c9bd96a8a83e4a46ab2ad257b70cea893d98ad6d482e96aa25fad060405180611a756064353386846040919493926060820195825260018060a01b031660208201520152565b0390a16040805182815233602082015234918101919091527fa4678e82fe7b97eb2133ead828ed5d14ebb0c83961617dc347b698964d070b6690606090a16040805182815233602082015234918101919091527f614a638017b56c89c474f25edfe4c35af6a675fe98c78f962dc29c53f706046890606090a1604051908152f35b0151905084806118af565b6008840160005260206000209060005b601f1984168110611b575750600193949583601f19811610611b3e575b505050811b0160088301556118c7565b015160001960f88460031b161c19169055848080611b2e565b9091602060018192858a015181550193019101611b11565b600884016000526020600020601f830160051c810160208410611baf575b601f830160051c82018110611ba3575050611895565b60008155600101611b8d565b5080611b8d565b015190508680611854565b6007840160005260206000209560005b601f1984168110611c1c57509582916060959697600194601f19811610611c03575b505050811b01600784015561186c565b015160001960f88460031b161c19169055868080611bf3565b82820151885560019097019660209283019201611bd1565b600784016000526020600020601f830160051c810160208410611c74575b601f830160051c82018110611c68575050611837565b60008155600101611c52565b5080611c52565b0151905085806117e9565b6005830160005260206000209060005b601f1984168110611cdd575060019394959683601f19811610611cc4575b505050811b016005820155611801565b015160001960f88460031b161c19169055858080611cb4565b9091602060018192858b015181550193019101611c96565b600583016000526020600020601f830160051c810160208410611d35575b601f830160051c82018110611d295750506117ce565b60008155600101611d13565b5080611d13565b015190508480611787565b6004840160005260206000209060005b601f1984168110611d9d5750600193949583601f19811610611d84575b505050811b01600483015561179f565b015160001960f88460031b161c19169055848080611d74565b9091602060018192858a015181550193019101611d57565b600484016000526020600020601f830160051c810160208410611df5575b601f830160051c82018110611de957505061176d565b60008155600101611dd3565b5080611dd3565b015190508480611729565b6003830160005260206000209060005b601f1984168110611e5d5750600193949583601f19811610611e44575b505050811b016003820155611741565b015160001960f88460031b161c19169055848080611e34565b9091602060018192858a015181550193019101611e17565b600383016000526020600020601f830160051c810160208410611eb5575b601f830160051c82018110611ea957505061170f565b60008155600101611e93565b5080611e93565b634e487b7160e01b600052601160045260246000fd5b60405162461bcd60e51b815260206004820152601e60248201527f496e73756666696369656e74207061796d656e7420666f72206f7264657200006044820152606490fd5b346101f15760203660031901126101f157600435600052600760205261016d6101596040600020612562565b346101f15760203660031901126101f15760043580151580612047575b611f6990612a7a565b60005260046020526060604060002060405190611f85826124ef565b8054825260018101546001600160a01b0390811660208401526002820154166040830152611fb560038201612562565b83830152611fc560048201612562565b6080830152611fd660058201612772565b60a0830152600981015460c08301908152611ffb60ff600a8401541660e085016127e2565b600b820154610100840152600c82015492610160600d60ff8087161515968761012086015260081c16151594856101408501520154910152519060405192835260208301526040820152f35b50600154811115611f60565b346101f15760403660031901126101f15760043561206f61248b565b8115158061247f575b61208190612a7a565b816000526020906004825260406000209060018060a01b03908160018401541633148015612468575b1561241857600a83019060ff82541660058110156106c9576003036123d3571561233757600c830190815460ff8116156122f25760ff8160081c166122ad57815460ff19908116600417909255166001178155600d83018054156122a4575b508460005260058452612175604060002060405190612127826124d4565b61212f612ab9565b825260405161213d81612526565b601e81527f44656c697665727920636f6e6669726d656420627920637573746f6d657200008882015287830152426040830152612806565b805460ff8160081c161580612297575b6121fe575b5050506009015460408051848152336020820152808201929092527f64a783c6150854ae756454311c7625a965c757996ba8cc1a8c6205380f33725093909290917fa4678e82fe7b97eb2133ead828ed5d14ebb0c83961617dc347b698964d070b6690606090a182519182523390820152a1005b600080938193610100839461ff0019161790556002860154166009860154905af13d15612292573d61222f81612648565b9061223d6040519283612541565b81526000843d92013e5b156122545783808061218a565b60405162461bcd60e51b815260048101839052601660248201527514185e5b595b9d081c995b19585cd94819985a5b195960521b6044820152606490fd5b612247565b5060098401541515612185565b42905585612109565b60405162461bcd60e51b815260048101879052601860248201527f5061796d656e7420616c72656164792072656c656173656400000000000000006044820152606490fd5b60405162461bcd60e51b815260048101879052601a60248201527f5061796d656e74206e6f742068656c6420696e20657363726f770000000000006044820152606490fd5b5050506123d19160005260058152604060002060405191612357836124d4565b60405161236381612526565b601081526f1499599d5b990814995c5d595cdd195960821b8282015283526040519061238e826124d4565b602382527f437573746f6d6572207265706f72746564206974656d206e6f7420726563656981830152621d995960ea1b6040830152830152426040830152612806565b005b60405162461bcd60e51b815260048101869052601760248201527f4f72646572206e6f74207965742064656c6976657265640000000000000000006044820152606490fd5b60405162461bcd60e51b815260048101859052602260248201527f4e6f7420617574686f72697a656420746f20636f6e6669726d2064656c697665604482015261727960f01b6064820152608490fd5b50336000526003845260ff604060002054166120aa565b50600154821115612078565b6024359081151582036101f157565b90600182811c921680156124ca575b60208310146124b457565b634e487b7160e01b600052602260045260246000fd5b91607f16916124a9565b606081019081106001600160401b03821117610ca857604052565b61018081019081106001600160401b03821117610ca857604052565b608081019081106001600160401b03821117610ca857604052565b604081019081106001600160401b03821117610ca857604052565b90601f801991011681019081106001600160401b03821117610ca857604052565b90604051918260008254926125768461249a565b9081845260019485811690816000146125e557506001146125a2575b50506125a092500383612541565b565b9093915060005260209081600020936000915b8183106125cd5750506125a093508201013880612592565b855488840185015294850194879450918301916125b5565b9150506125a094506020925060ff191682840152151560051b8201013880612592565b919082519283825260005b848110612634575050826000602080949584010152601f8019910116010190565b602081830181015184830182015201612613565b6001600160401b038111610ca857601f01601f191660200190565b81601f820112156101f15780359061267a82612648565b926126886040519485612541565b828452602083830101116101f157816000926020809301838601378301015290565b600435906001600160a01b03821682036101f157565b908082519081815260208091019281808460051b8301019501936000915b8483106126ee5750505050505090565b9091929394958480600192601f1985820301865289519061272a61271a83516060808552840190612608565b8484015183820386850152612608565b9160408091015191015298019301930191949392906126de565b805482101561275c5760005260206000200190600090565b634e487b7160e01b600052603260045260246000fd5b9060405161277f8161250b565b60606127b46003839561279181612562565b8552600181015460208601526127a960028201612562565b604086015201612562565b910152565b9060058210156106c95752565b805482101561275c576000526003602060002091020190600090565b60058210156106c95752565b9060058110156106c95760ff80198354169116179055565b908154600160401b811015610ca8576128269060019384820181556127c6565b929092612a64578151908151906001600160401b0391828111610ca8578061284e875461249a565b94601f95868111612a10575b506020908683116001146129ad576000926129a2575b5050600019600383901b1c191690821b1785555b8085019260208501518051938411610ca8576128a0855461249a565b82811161295a575b5060209184116001146128ed579280604095938193600298966000946128e2575b50501b916000199060031b1c19161790555b0151910155565b0151925038806128c9565b90601f9392931983169185600052816000209260005b8181106129445750916002979593918560409896941061292b575b505050811b0190556128db565b015160001960f88460031b161c1916905538808061291e565b8284015185559386019360209384019301612903565b8560005260206000208380870160051c82019260208810612999575b0160051c019084905b82811061298d5750506128a8565b6000815501849061297f565b92508192612976565b015190503880612870565b90849350601f1983169189600052816000209260005b8181106129f8575084116129df575b505050811b018555612884565b015160001960f88460031b161c191690553880806129d2565b828401518555879690940193602093840193016129c3565b9091506000888152602081208780860160051c82019360208710612a5b575b91879187969594930160051c01925b838110612a4d5750505061285a565b828155869550879101612a3e565b93508193612a2f565b634e487b7160e01b600052600060045260246000fd5b15612a8157565b60405162461bcd60e51b815260206004820152601060248201526f125b9d985b1a59081bdc99195c88125160821b6044820152606490fd5b60405190612ac682612526565b600982526810dbdb999a5c9b595960ba1b6020830152565b60405190612aeb82612526565b600982526811195b1a5d995c995960ba1b6020830152565b60405190612b1082612526565b600782526614da1a5c1c195960ca1b6020830152565b60405190612b3382612526565b600a82526950726f63657373696e6760b01b6020830152565b9081546001600160401b038111610ca857604092835193602090612b75828560051b0187612541565b8386526000928352818320908287015b858510612b9457505050505050565b6003846001928451612ba5816124d4565b612bae87612562565b8152612bbb858801612562565b83820152600287015486820152815201930194019391612b85565b80151580612d6e575b612be890612a7a565b600090808252600491826020526040918282208351612c06816124ef565b8154815260018201546001600160a01b03908116602083015260028301541685820152612c3560038301612562565b6060820152612c45868301612562565b6080820152612c5660058301612772565b60a0820152600982015460c0820152610160600d60ff600a8501541693612c8160e0850195866127e2565b600b81015461010085015260ff600c820154818116151561012087015260081c161515610140850152015491015280516005811015612d5b57600214159081612d44575b81612d1c575b50612ce557612ce293508152600760205220612562565b90565b50909182519260208401918483106001600160401b03841117612d09575052815290565b634e487b7160e01b845260419052602483fd5b9050516005811015612d315784141538612ccb565b634e487b7160e01b835260218552602483fd5b809150516005811015612d5b576003141590612cc5565b634e487b7160e01b845260218652602484fd5b50600154811115612bdf56fe1d49be5728f719b9fe6aedbb47b4c99078229864890af28ad5d08fdaebb595dfd9a86b644eb5f5b43cc8a700849852481080361c7a4b00ba646d1b46c5585f95a26469706673582212200305e78c91a31a8221b574f611f70c6e7455b0b48ea6e780b86829eed12e792664736f6c63430008130033",
  "immutableReferences": {},
  "source": "// SPDX-License-Identifier: MIT\r\npragma solidity ^0.8.19;\r\n\r\ncontract OrderContract {\r\n    enum OrderStatus { Pending, Processing, Shipped, Delivered, Confirmed }\r\n    \r\n    string public companyName;\r\n    uint public orderCount;\r\n    address payable public owner;\r\n    mapping(address => bool) public sellerConfirmAllowed;\r\n\r\n    constructor() {\r\n        orderCount = 0;\r\n        companyName = \"LegitLah\";\r\n        owner = payable(msg.sender);\r\n    }\r\n\r\n    struct Product {\r\n        string name;\r\n        uint price;\r\n        string imageUrl;\r\n        string description;\r\n    }\r\n\r\n    struct Order {\r\n        uint orderId;\r\n        address payable buyer;\r\n        address payable seller;\r\n        string buyerName;\r\n        string deliveryAddress;\r\n        Product product;\r\n        uint totalAmount;\r\n        OrderStatus status;\r\n        uint timestamp;\r\n        bool isPaid;\r\n        bool isReleased;\r\n        uint deliveredAt; \r\n    }\r\n\r\n    struct TrackingUpdate {\r\n        string status;\r\n        string description;\r\n        uint timestamp;\r\n    }\r\n\r\n    mapping(uint => Order) public orders;\r\n    mapping(uint => TrackingUpdate[]) public trackingHistory;\r\n    mapping(address => uint[]) public userOrders;\r\n    mapping(uint => string) public trackingNumbers; // Store tracking numbers\r\n\r\n    event OrderCreated(uint orderId, address buyer, uint amount);\r\n    event OrderPaid(uint orderId, address buyer, uint amount);\r\n    event PaymentHeld(uint orderId, address payer, uint amount);\r\n    event OrderStatusUpdated(uint orderId, OrderStatus status);\r\n    event DeliveryConfirmed(uint orderId, address buyer);\r\n    event TrackingNumberUpdated(uint orderId, string trackingNumber);\r\n    event SellerConfirmAllowed(address seller, bool allowed);\r\n\r\n    modifier onlyOwner() {\r\n        require(msg.sender == owner, \"Only owner\");\r\n        _;\r\n    }\r\n\r\n    function setSellerConfirmAllowed(address seller, bool allowed) external onlyOwner {\r\n        require(seller != address(0), \"Invalid seller\");\r\n        sellerConfirmAllowed[seller] = allowed;\r\n        emit SellerConfirmAllowed(seller, allowed);\r\n    }\r\n\r\n    // Create a new order\r\n    function createOrder(\r\n        string memory _buyerName,\r\n        string memory _deliveryAddress,\r\n        string memory _productName,\r\n        uint _price,\r\n        string memory _imageUrl,\r\n        string memory _description\r\n    ) public payable returns (uint) {\r\n        require(msg.value >= _price, \"Insufficient payment for order\");\r\n        \r\n        orderCount++;\r\n        \r\n        Product memory newProduct = Product({\r\n            name: _productName,\r\n            price: _price,\r\n            imageUrl: _imageUrl,\r\n            description: _description\r\n        });\r\n        \r\n        orders[orderCount] = Order({\r\n            orderId: orderCount,\r\n            buyer: payable(msg.sender),\r\n            seller: owner,\r\n            buyerName: _buyerName,\r\n            deliveryAddress: _deliveryAddress,\r\n            product: newProduct,\r\n            totalAmount: _price,\r\n            status: OrderStatus.Pending,\r\n            timestamp: block.timestamp,\r\n            isPaid: true,\r\n            isReleased: false,\r\n            deliveredAt: 0\r\n        });\r\n        \r\n        userOrders[msg.sender].push(orderCount);\r\n        \r\n        // Add initial tracking\r\n        trackingHistory[orderCount].push(TrackingUpdate({\r\n            status: \"Order Created\",\r\n            description: \"Your order has been created and is pending\",\r\n            timestamp: block.timestamp\r\n        }));\r\n        \r\n        emit OrderCreated(orderCount, msg.sender, _price);\r\n        emit OrderPaid(orderCount, msg.sender, msg.value);\r\n        emit PaymentHeld(orderCount, msg.sender, msg.value);\r\n        return orderCount;\r\n    }\r\n\r\n    // Pay for order (kept for backward compatibility)\r\n    function payForOrder(uint _orderId) public payable {\r\n        require(_orderId > 0 && _orderId <= orderCount, \"Invalid order ID\");\r\n        Order storage order = orders[_orderId];\r\n        require(msg.sender == order.buyer, \"Only buyer can pay\");\r\n        require(!order.isPaid, \"Order already paid\");\r\n        require(msg.value >= order.totalAmount, \"Insufficient payment\");\r\n        \r\n        order.isPaid = true;\r\n        order.status = OrderStatus.Processing;\r\n        \r\n        trackingHistory[_orderId].push(TrackingUpdate({\r\n            status: \"Payment Received\",\r\n            description: \"Payment has been received and order is being processed\",\r\n            timestamp: block.timestamp\r\n        }));\r\n        \r\n        emit OrderPaid(_orderId, msg.sender, msg.value);\r\n        emit PaymentHeld(_orderId, msg.sender, msg.value);\r\n        emit OrderStatusUpdated(_orderId, OrderStatus.Processing);\r\n    }\r\n\r\n    // Update order status (only contract owner or authorized parties)\r\n    function updateOrderStatus(uint _orderId, OrderStatus _status, string memory _description) public {\r\n        require(_orderId > 0 && _orderId <= orderCount, \"Invalid order ID\");\r\n        Order storage order = orders[_orderId];\r\n        \r\n        order.status = _status;\r\n        \r\n        string memory statusText;\r\n        if (_status == OrderStatus.Processing) {\r\n            statusText = \"Processing\";\r\n        } else if (_status == OrderStatus.Shipped) {\r\n            statusText = \"Shipped\";\r\n        } else if (_status == OrderStatus.Delivered) {\r\n            statusText = \"Delivered\";\r\n            if (order.deliveredAt == 0) {\r\n                order.deliveredAt = block.timestamp;\r\n            }\r\n        } else if (_status == OrderStatus.Confirmed) {\r\n            statusText = \"Confirmed\";\r\n        }\r\n        \r\n        trackingHistory[_orderId].push(TrackingUpdate({\r\n            status: statusText,\r\n            description: _description,\r\n            timestamp: block.timestamp\r\n        }));\r\n        \r\n        emit OrderStatusUpdated(_orderId, _status);\r\n    }\r\n\r\n    // Update order status with tracking number (for shipping)\r\n    function updateOrderStatusWithTracking(uint _orderId, OrderStatus _status, string memory _description, string memory _trackingNumber) public {\r\n        require(_orderId > 0 && _orderId <= orderCount, \"Invalid order ID\");\r\n        Order storage order = orders[_orderId];\r\n        \r\n        order.status = _status;\r\n        \r\n        // Store tracking number if status is Shipped\r\n        if (_status == OrderStatus.Shipped && bytes(_trackingNumber).length > 0) {\r\n            trackingNumbers[_orderId] = _trackingNumber;\r\n            emit TrackingNumberUpdated(_orderId, _trackingNumber);\r\n        }\r\n        \r\n        string memory statusText;\r\n        if (_status == OrderStatus.Processing) {\r\n            statusText = \"Processing\";\r\n        } else if (_status == OrderStatus.Shipped) {\r\n            statusText = \"Shipped\";\r\n        } else if (_status == OrderStatus.Delivered) {\r\n            statusText = \"Delivered\";\r\n            if (order.deliveredAt == 0) {\r\n                order.deliveredAt = block.timestamp;\r\n            }\r\n        } else if (_status == OrderStatus.Confirmed) {\r\n            statusText = \"Confirmed\";\r\n        }\r\n        \r\n        trackingHistory[_orderId].push(TrackingUpdate({\r\n            status: statusText,\r\n            description: _description,\r\n            timestamp: block.timestamp\r\n        }));\r\n        \r\n        emit OrderStatusUpdated(_orderId, _status);\r\n    }\r\n\r\n    // Confirm delivery by buyer\r\n    function confirmDelivery(uint _orderId, bool _received) public {\r\n        require(_orderId > 0 && _orderId <= orderCount, \"Invalid order ID\");\r\n        Order storage order = orders[_orderId];\r\n        require(\r\n            msg.sender == order.buyer || sellerConfirmAllowed[msg.sender],\r\n            \"Not authorized to confirm delivery\"\r\n        );\r\n        require(order.status == OrderStatus.Delivered, \"Order not yet delivered\");\r\n        \r\n        if (_received) {\r\n            require(order.isPaid, \"Payment not held in escrow\");\r\n            require(!order.isReleased, \"Payment already released\");\r\n            order.status = OrderStatus.Confirmed;\r\n            order.isPaid = true;\r\n            if (order.deliveredAt == 0) {\r\n                order.deliveredAt = block.timestamp;\r\n            }\r\n            \r\n            trackingHistory[_orderId].push(TrackingUpdate({\r\n                status: \"Confirmed\",\r\n                description: \"Delivery confirmed by customer\",\r\n                timestamp: block.timestamp\r\n            }));\r\n\r\n            // Release payment to seller only after buyer confirms delivery\r\n            if (!order.isReleased && order.totalAmount > 0) {\r\n                order.isReleased = true;\r\n                (bool success, ) = order.seller.call{value: order.totalAmount}(\"\");\r\n                require(success, \"Payment release failed\");\r\n            }\r\n            \r\n            emit OrderPaid(_orderId, msg.sender, order.totalAmount);\r\n            emit DeliveryConfirmed(_orderId, msg.sender);\r\n        } else {\r\n            trackingHistory[_orderId].push(TrackingUpdate({\r\n                status: \"Refund Requested\",\r\n                description: \"Customer reported item not received\",\r\n                timestamp: block.timestamp\r\n            }));\r\n        }\r\n    }\r\n\r\n    // View escrow/payment status for an order\r\n    function getEscrowStatus(uint _orderId) public view returns (bool isEscrowed, bool isReleased, uint amount) {\r\n        require(_orderId > 0 && _orderId <= orderCount, \"Invalid order ID\");\r\n        Order memory order = orders[_orderId];\r\n        return (order.isPaid, order.isReleased, order.totalAmount);\r\n    }\r\n\r\n    // Get order details\r\n    function getOrder(uint _orderId) public view returns (\r\n        uint orderId,\r\n        address buyer,\r\n        address seller,\r\n        string memory buyerName,\r\n        string memory deliveryAddress,\r\n        string memory productName,\r\n        uint price,\r\n        string memory imageUrl,\r\n        uint totalAmount,\r\n        OrderStatus status,\r\n        uint timestamp,\r\n        bool isPaid,\r\n        bool isReleased,\r\n        uint deliveredAt\r\n    ) {\r\n        require(_orderId > 0 && _orderId <= orderCount, \"Invalid order ID\");\r\n        Order memory order = orders[_orderId];\r\n        \r\n        return (\r\n            order.orderId,\r\n            order.buyer,\r\n            order.seller,\r\n            order.buyerName,\r\n            order.deliveryAddress,\r\n            order.product.name,\r\n            order.product.price,\r\n            order.product.imageUrl,\r\n            order.totalAmount,\r\n            order.status,\r\n            order.timestamp,\r\n            order.isPaid,\r\n            order.isReleased,\r\n            order.deliveredAt\r\n        );\r\n    }\r\n\r\n    // Get tracking history\r\n    function getTrackingHistory(uint _orderId) public view returns (TrackingUpdate[] memory) {\r\n        require(_orderId > 0 && _orderId <= orderCount, \"Invalid order ID\");\r\n        return trackingHistory[_orderId];\r\n    }\r\n\r\n    // Get user's orders\r\n    function getUserOrders(address _user) public view returns (uint[] memory) {\r\n        return userOrders[_user];\r\n    }\r\n\r\n    // Get order count\r\n    function getOrderCount() public view returns (uint) {\r\n        return orderCount;\r\n    }\r\n\r\n    // Get complete tracking info - accessible by both buyer and seller\r\n    function getFullTrackingInfo(uint _orderId) public view returns (\r\n        uint orderId,\r\n        string memory productName,\r\n        string memory currentStatus,\r\n        TrackingUpdate[] memory history\r\n    ) {\r\n        require(_orderId > 0 && _orderId <= orderCount, \"Invalid order ID\");\r\n        Order memory order = orders[_orderId];\r\n        require(\r\n            msg.sender == order.buyer || msg.sender == order.seller,\r\n            \"Only buyer or seller can view tracking information\"\r\n        );\r\n        \r\n        string memory statusText;\r\n        if (order.status == OrderStatus.Processing) {\r\n            statusText = \"Processing\";\r\n        } else if (order.status == OrderStatus.Shipped) {\r\n            statusText = \"Shipped\";\r\n        } else if (order.status == OrderStatus.Delivered) {\r\n            statusText = \"Delivered\";\r\n        } else if (order.status == OrderStatus.Confirmed) {\r\n            statusText = \"Confirmed\";\r\n        } else {\r\n            statusText = \"Pending\";\r\n        }\r\n        \r\n        return (\r\n            orderId,\r\n            order.product.name,\r\n            statusText,\r\n            trackingHistory[_orderId]\r\n        );\r\n    }\r\n\r\n    // Update tracking number - can be called by seller or admin\r\n    function updateTrackingNumber(uint _orderId, string memory _trackingNumber) public {\r\n        require(_orderId > 0 && _orderId <= orderCount, \"Invalid order ID\");\r\n        require(bytes(_trackingNumber).length > 0, \"Tracking number cannot be empty\");\r\n        \r\n        Order storage order = orders[_orderId];\r\n        require(msg.sender == order.seller || msg.sender == owner, \"Only seller or owner can update tracking number\");\r\n        require(order.status == OrderStatus.Shipped, \"Order must be shipped first\");\r\n        \r\n        trackingNumbers[_orderId] = _trackingNumber;\r\n        \r\n        emit TrackingNumberUpdated(_orderId, _trackingNumber);\r\n    }\r\n\r\n    // Get tracking number - accessible by both buyer and seller\r\n    function getTrackingNumber(uint _orderId) public view returns (string memory) {\r\n        require(_orderId > 0 && _orderId <= orderCount, \"Invalid order ID\");\r\n        Order memory order = orders[_orderId];\r\n        \r\n        // Allow any connected user to view if order exists - access control is lenient for tracking\r\n        // But still check that order is in proper status\r\n        if (order.status != OrderStatus.Shipped && order.status != OrderStatus.Delivered && order.status != OrderStatus.Confirmed) {\r\n            return \"\"; // Return empty string if not shipped yet\r\n        }\r\n        \r\n        return trackingNumbers[_orderId]; // Return tracking number (may be empty if not set)\r\n    }\r\n}\r\n",
  "sourcePath": "C:\\Users\\User\\C373Projects\\Fa_Team3\\contracts\\OrderContract.sol",
  "compiler": {
    "name": "solc",
    "version": "0.8.19+commit.7dd6d404.Emscripten.clang"
  },
  "schemaVersion": "3.4.16",
  "updatedAt": "2026-01-25T14:32:39.875Z",
  "devdoc": {
    "kind": "dev",
    "methods": {},
    "version": 1
  },
  "userdoc": {
    "kind": "user",
    "methods": {},
    "version": 1
  }
}