{
  "contractName": "OrderContract",
  "abi": [
    {
      "inputs": [],
      "stateMutability": "nonpayable",
      "type": "constructor"
    },
    {
      "anonymous": false,
      "inputs": [
        {
          "indexed": false,
          "internalType": "uint256",
          "name": "orderId",
          "type": "uint256"
        },
        {
          "indexed": false,
          "internalType": "address",
          "name": "buyer",
          "type": "address"
        }
      ],
      "name": "DeliveryConfirmed",
      "type": "event"
    },
    {
      "anonymous": false,
      "inputs": [
        {
          "indexed": false,
          "internalType": "uint256",
          "name": "orderId",
          "type": "uint256"
        },
        {
          "indexed": false,
          "internalType": "address",
          "name": "buyer",
          "type": "address"
        },
        {
          "indexed": false,
          "internalType": "uint256",
          "name": "amount",
          "type": "uint256"
        }
      ],
      "name": "OrderCreated",
      "type": "event"
    },
    {
      "anonymous": false,
      "inputs": [
        {
          "indexed": false,
          "internalType": "uint256",
          "name": "orderId",
          "type": "uint256"
        },
        {
          "indexed": false,
          "internalType": "address",
          "name": "buyer",
          "type": "address"
        },
        {
          "indexed": false,
          "internalType": "uint256",
          "name": "amount",
          "type": "uint256"
        }
      ],
      "name": "OrderPaid",
      "type": "event"
    },
    {
      "anonymous": false,
      "inputs": [
        {
          "indexed": false,
          "internalType": "uint256",
          "name": "orderId",
          "type": "uint256"
        },
        {
          "indexed": false,
          "internalType": "enum OrderContract.OrderStatus",
          "name": "status",
          "type": "uint8"
        }
      ],
      "name": "OrderStatusUpdated",
      "type": "event"
    },
    {
      "anonymous": false,
      "inputs": [
        {
          "indexed": false,
          "internalType": "uint256",
          "name": "orderId",
          "type": "uint256"
        },
        {
          "indexed": false,
          "internalType": "string",
          "name": "trackingNumber",
          "type": "string"
        }
      ],
      "name": "TrackingNumberUpdated",
      "type": "event"
    },
    {
      "inputs": [],
      "name": "companyName",
      "outputs": [
        {
          "internalType": "string",
          "name": "",
          "type": "string"
        }
      ],
      "stateMutability": "view",
      "type": "function",
      "constant": true
    },
    {
      "inputs": [],
      "name": "orderCount",
      "outputs": [
        {
          "internalType": "uint256",
          "name": "",
          "type": "uint256"
        }
      ],
      "stateMutability": "view",
      "type": "function",
      "constant": true
    },
    {
      "inputs": [
        {
          "internalType": "uint256",
          "name": "",
          "type": "uint256"
        }
      ],
      "name": "orders",
      "outputs": [
        {
          "internalType": "uint256",
          "name": "orderId",
          "type": "uint256"
        },
        {
          "internalType": "address payable",
          "name": "buyer",
          "type": "address"
        },
        {
          "internalType": "address payable",
          "name": "seller",
          "type": "address"
        },
        {
          "internalType": "string",
          "name": "buyerName",
          "type": "string"
        },
        {
          "internalType": "string",
          "name": "deliveryAddress",
          "type": "string"
        },
        {
          "components": [
            {
              "internalType": "string",
              "name": "name",
              "type": "string"
            },
            {
              "internalType": "uint256",
              "name": "price",
              "type": "uint256"
            },
            {
              "internalType": "string",
              "name": "imageUrl",
              "type": "string"
            },
            {
              "internalType": "string",
              "name": "description",
              "type": "string"
            }
          ],
          "internalType": "struct OrderContract.Product",
          "name": "product",
          "type": "tuple"
        },
        {
          "internalType": "uint256",
          "name": "totalAmount",
          "type": "uint256"
        },
        {
          "internalType": "enum OrderContract.OrderStatus",
          "name": "status",
          "type": "uint8"
        },
        {
          "internalType": "uint256",
          "name": "timestamp",
          "type": "uint256"
        },
        {
          "internalType": "bool",
          "name": "isPaid",
          "type": "bool"
        },
        {
          "internalType": "bool",
          "name": "isReleased",
          "type": "bool"
        }
      ],
      "stateMutability": "view",
      "type": "function",
      "constant": true
    },
    {
      "inputs": [],
      "name": "owner",
      "outputs": [
        {
          "internalType": "address payable",
          "name": "",
          "type": "address"
        }
      ],
      "stateMutability": "view",
      "type": "function",
      "constant": true
    },
    {
      "inputs": [
        {
          "internalType": "uint256",
          "name": "",
          "type": "uint256"
        },
        {
          "internalType": "uint256",
          "name": "",
          "type": "uint256"
        }
      ],
      "name": "trackingHistory",
      "outputs": [
        {
          "internalType": "string",
          "name": "status",
          "type": "string"
        },
        {
          "internalType": "string",
          "name": "description",
          "type": "string"
        },
        {
          "internalType": "uint256",
          "name": "timestamp",
          "type": "uint256"
        }
      ],
      "stateMutability": "view",
      "type": "function",
      "constant": true
    },
    {
      "inputs": [
        {
          "internalType": "uint256",
          "name": "",
          "type": "uint256"
        }
      ],
      "name": "trackingNumbers",
      "outputs": [
        {
          "internalType": "string",
          "name": "",
          "type": "string"
        }
      ],
      "stateMutability": "view",
      "type": "function",
      "constant": true
    },
    {
      "inputs": [
        {
          "internalType": "address",
          "name": "",
          "type": "address"
        },
        {
          "internalType": "uint256",
          "name": "",
          "type": "uint256"
        }
      ],
      "name": "userOrders",
      "outputs": [
        {
          "internalType": "uint256",
          "name": "",
          "type": "uint256"
        }
      ],
      "stateMutability": "view",
      "type": "function",
      "constant": true
    },
    {
      "inputs": [
        {
          "internalType": "string",
          "name": "_buyerName",
          "type": "string"
        },
        {
          "internalType": "string",
          "name": "_deliveryAddress",
          "type": "string"
        },
        {
          "internalType": "string",
          "name": "_productName",
          "type": "string"
        },
        {
          "internalType": "uint256",
          "name": "_price",
          "type": "uint256"
        },
        {
          "internalType": "string",
          "name": "_imageUrl",
          "type": "string"
        },
        {
          "internalType": "string",
          "name": "_description",
          "type": "string"
        }
      ],
      "name": "createOrder",
      "outputs": [
        {
          "internalType": "uint256",
          "name": "",
          "type": "uint256"
        }
      ],
      "stateMutability": "payable",
      "type": "function",
      "payable": true
    },
    {
      "inputs": [
        {
          "internalType": "uint256",
          "name": "_orderId",
          "type": "uint256"
        }
      ],
      "name": "payForOrder",
      "outputs": [],
      "stateMutability": "payable",
      "type": "function",
      "payable": true
    },
    {
      "inputs": [
        {
          "internalType": "uint256",
          "name": "_orderId",
          "type": "uint256"
        },
        {
          "internalType": "enum OrderContract.OrderStatus",
          "name": "_status",
          "type": "uint8"
        },
        {
          "internalType": "string",
          "name": "_description",
          "type": "string"
        }
      ],
      "name": "updateOrderStatus",
      "outputs": [],
      "stateMutability": "nonpayable",
      "type": "function"
    },
    {
      "inputs": [
        {
          "internalType": "uint256",
          "name": "_orderId",
          "type": "uint256"
        },
        {
          "internalType": "enum OrderContract.OrderStatus",
          "name": "_status",
          "type": "uint8"
        },
        {
          "internalType": "string",
          "name": "_description",
          "type": "string"
        },
        {
          "internalType": "string",
          "name": "_trackingNumber",
          "type": "string"
        }
      ],
      "name": "updateOrderStatusWithTracking",
      "outputs": [],
      "stateMutability": "nonpayable",
      "type": "function"
    },
    {
      "inputs": [
        {
          "internalType": "uint256",
          "name": "_orderId",
          "type": "uint256"
        },
        {
          "internalType": "bool",
          "name": "_received",
          "type": "bool"
        }
      ],
      "name": "confirmDelivery",
      "outputs": [],
      "stateMutability": "nonpayable",
      "type": "function"
    },
    {
      "inputs": [
        {
          "internalType": "uint256",
          "name": "_orderId",
          "type": "uint256"
        }
      ],
      "name": "getOrder",
      "outputs": [
        {
          "internalType": "uint256",
          "name": "orderId",
          "type": "uint256"
        },
        {
          "internalType": "address",
          "name": "buyer",
          "type": "address"
        },
        {
          "internalType": "address",
          "name": "seller",
          "type": "address"
        },
        {
          "internalType": "string",
          "name": "buyerName",
          "type": "string"
        },
        {
          "internalType": "string",
          "name": "deliveryAddress",
          "type": "string"
        },
        {
          "internalType": "string",
          "name": "productName",
          "type": "string"
        },
        {
          "internalType": "uint256",
          "name": "price",
          "type": "uint256"
        },
        {
          "internalType": "string",
          "name": "imageUrl",
          "type": "string"
        },
        {
          "internalType": "uint256",
          "name": "totalAmount",
          "type": "uint256"
        },
        {
          "internalType": "enum OrderContract.OrderStatus",
          "name": "status",
          "type": "uint8"
        },
        {
          "internalType": "uint256",
          "name": "timestamp",
          "type": "uint256"
        },
        {
          "internalType": "bool",
          "name": "isPaid",
          "type": "bool"
        },
        {
          "internalType": "bool",
          "name": "isReleased",
          "type": "bool"
        }
      ],
      "stateMutability": "view",
      "type": "function",
      "constant": true
    },
    {
      "inputs": [
        {
          "internalType": "uint256",
          "name": "_orderId",
          "type": "uint256"
        }
      ],
      "name": "getTrackingHistory",
      "outputs": [
        {
          "components": [
            {
              "internalType": "string",
              "name": "status",
              "type": "string"
            },
            {
              "internalType": "string",
              "name": "description",
              "type": "string"
            },
            {
              "internalType": "uint256",
              "name": "timestamp",
              "type": "uint256"
            }
          ],
          "internalType": "struct OrderContract.TrackingUpdate[]",
          "name": "",
          "type": "tuple[]"
        }
      ],
      "stateMutability": "view",
      "type": "function",
      "constant": true
    },
    {
      "inputs": [
        {
          "internalType": "address",
          "name": "_user",
          "type": "address"
        }
      ],
      "name": "getUserOrders",
      "outputs": [
        {
          "internalType": "uint256[]",
          "name": "",
          "type": "uint256[]"
        }
      ],
      "stateMutability": "view",
      "type": "function",
      "constant": true
    },
    {
      "inputs": [],
      "name": "getOrderCount",
      "outputs": [
        {
          "internalType": "uint256",
          "name": "",
          "type": "uint256"
        }
      ],
      "stateMutability": "view",
      "type": "function",
      "constant": true
    },
    {
      "inputs": [
        {
          "internalType": "uint256",
          "name": "_orderId",
          "type": "uint256"
        }
      ],
      "name": "getFullTrackingInfo",
      "outputs": [
        {
          "internalType": "uint256",
          "name": "orderId",
          "type": "uint256"
        },
        {
          "internalType": "string",
          "name": "productName",
          "type": "string"
        },
        {
          "internalType": "string",
          "name": "currentStatus",
          "type": "string"
        },
        {
          "components": [
            {
              "internalType": "string",
              "name": "status",
              "type": "string"
            },
            {
              "internalType": "string",
              "name": "description",
              "type": "string"
            },
            {
              "internalType": "uint256",
              "name": "timestamp",
              "type": "uint256"
            }
          ],
          "internalType": "struct OrderContract.TrackingUpdate[]",
          "name": "history",
          "type": "tuple[]"
        }
      ],
      "stateMutability": "view",
      "type": "function",
      "constant": true
    },
    {
      "inputs": [
        {
          "internalType": "uint256",
          "name": "_orderId",
          "type": "uint256"
        },
        {
          "internalType": "string",
          "name": "_trackingNumber",
          "type": "string"
        }
      ],
      "name": "updateTrackingNumber",
      "outputs": [],
      "stateMutability": "nonpayable",
      "type": "function"
    },
    {
      "inputs": [
        {
          "internalType": "uint256",
          "name": "_orderId",
          "type": "uint256"
        }
      ],
      "name": "getTrackingNumber",
      "outputs": [
        {
          "internalType": "string",
          "name": "",
          "type": "string"
        }
      ],
      "stateMutability": "view",
      "type": "function",
      "constant": true
    }
  ],
  "bytecode": "0x60808060405234620000b2576000600181815581548181811c91168015620000a7575b60208210146200009357601f811162000067575b5050600e66098caced298c2d60cb1b019055600280546001600160a01b031916331790556129839081620000b88239f35b828052601f60208420910160051c8101905b81811062000088575062000036565b838155820162000079565b634e487b7160e01b83526022600452602483fd5b90607f169062000022565b600080fdfe6080604052600436101561001257600080fd5b60003560e01c806304ef078114611cda5780632453ffa814610b5e578063534cc1b014611cae57806355bfb5c41461133457806360e1102e1461121a57806363c69f08146111665780636e31035b14610e5e578063738f376014610bd4578063856652e914610b7c5780638d0a5fbb14610b5e5780638da5cb5b14610b355780639b023fec14610836578063a1e1e6e114610817578063a85c38ef146106d9578063c36034e21461067b578063d09ef24114610489578063d9c2dcee1461025b578063e097b6b1146101d55763f5ec2eed146100ed57600080fd5b346101d05760003660031901126101d0576040516000805461010e81612037565b808452906001908181169081156101a95750600114610150575b61014c84610138818603826120de565b6040519182916020835260208301906121a5565b0390f35b600080805292507f290decd9548b62a8d60345a988386fc84ba6bc95484008f6362f93160ef3e5635b82841061019157505050810160200161013882610128565b80546020858701810191909152909301928101610179565b60ff191660208087019190915292151560051b850190920192506101389150839050610128565b600080fd5b346101d05760403660031901126101d0576024356004356000526004602052604060002080548210156101d0576102439161020f91612363565b50610219816120ff565b90610251600261022b600184016120ff565b920154916040519485946060865260608601906121a5565b9084820360208601526121a5565b9060408301520390f35b6020806003193601126101d057600435908115158061047d575b61027e90612617565b6000828152600382526040902060018101546001600160a01b0316330361044357600c81019081549160ff831661040957600982015434106103cd579260008051602061292e83398151915294926001600a81946040978360ff198096161790550191825416179055826000526004815261038b8460002085519061030282612071565b865161030d816120c3565b601081526f14185e5b595b9d08149958d95a5d995960821b858201528252865161033681612071565b603681527f5061796d656e7420686173206265656e20726563656976656420616e64206f72858201527519195c881a5cc818995a5b99c81c1c9bd8d95cdcd95960521b888201528483015242878301526123a3565b83518381523360208201523460408201527fa4678e82fe7b97eb2133ead828ed5d14ebb0c83961617dc347b698964d070b6690606090a18351928352820152a1005b60405162461bcd60e51b8152600481018590526014602482015273125b9cdd59999a58da595b9d081c185e5b595b9d60621b6044820152606490fd5b60405162461bcd60e51b815260048101859052601260248201527113dc99195c88185b1c9958591e481c185a5960721b6044820152606490fd5b60405162461bcd60e51b81526004810183905260126024820152714f6e6c792062757965722063616e2070617960701b6044820152606490fd5b50600154821115610275565b346101d05760203660031901126101d0576004358015158061066f575b6104af90612617565b6000526003602052604060002060ff600c604051926104cd846120a7565b8054845260018101546001600160a01b03908116602086015260028201541660408501526104fd600382016120ff565b606085015261050e600482016120ff565b608085015261051f6005820161230f565b60a0850152600981015460c085015261054183600a8301541660e0860161237f565b600b8101546101008501520154818116151561012084015260081c161515610140820152805160018060a01b036020830151169160018060a01b0360408201511660608201519160808101519260a082015193845194604060208201519101519060c08501519660e0860151936005851015610659576101008701519561012088015115159761014001511515986040519c8d9c8d5260208d015260408c01526101a08060608d01528b016105f5916121a5565b8a810360808c0152610606916121a5565b89810360a08b0152610617916121a5565b9060c089015287810360e089015261062e916121a5565b94610100870152610120860161064391612356565b6101408501526101608401526101808301520390f35b634e487b7160e01b600052602160045260246000fd5b506001548111156104a6565b346101d05760203660031901126101d057600435801515806106cd575b6106a190612617565b600052600460205261014c6106b960406000206126e9565b60405191829160208352602083019061225d565b50600154811115610698565b346101d05760203660031901126101d057600435600052600360205260406000208054600160a01b6001900391826001820154169260028201541660038201610721906120ff565b9161072e600482016120ff565b9261073b6005830161230f565b600983015494600a84015460ff1692600b85015494600c015495604051998a998a5260208a015260408901526101608060608a0152880161077b916121a5565b878103608089015261078c916121a5565b9086820360a0880152805160808352608083016107a8916121a5565b6020820151602084015260408201519083810360408501526107c9916121a5565b90606001519180820390606001526107e0916121a5565b9360c086015260e085016107f391612356565b61010084015260ff8116151561012084015260081c60ff1615156101408301520390f35b346101d05760203660031901126101d05761014c610138600435612773565b346101d05760803660031901126101d05760043560243560058110156101d0576001600160401b036044358181116101d057610876903690600401612200565b6064358281116101d05761088e903690600401612200565b9184151580610b29575b6108a190612617565b84600052602092600384526108bd85600a60406000200161238b565b60028514918280610b1f575b610978575b50509260008051602061292e833981519152949261092f61093c936040966060906001861460001461093f5750506109046126c3565b905b8660005260048452876000209088519261091f84612071565b83528483015242888301526123a3565b8451938452830190612356565ba1005b15610954575061094d6126a0565b905b610906565b60038503610965575061094d61267b565b906004850361094f57905061094d612656565b86600052600685526040600020908251908111610b09576109998254612037565b601f8111610ac3575b5085601f8211600114610a30579360008051602061290e833981519152610a1460008051602061292e8339815191529a989561092f958561093c9a9660409d9a600091610a25575b508160011b916000199060031b1c19161790555b8a519182918b83528c898401528c8301906121a5565b0390a19396509350819496506108ce565b90508301518f6109ea565b601f1982169083600052876000209160005b818110610aac575060008051602061292e8339815191529a989561092f9560018660409d9a9660008051602061290e8339815191529661093c9d99610a149710610a93575b5050811b0190556109fe565b85015160001960f88460031b161c191690558f80610a87565b91928960018192868a015181550194019201610a42565b8260005286600020601f830160051c810191888410610aff575b601f0160051c01905b818110610af357506109a2565b60008155600101610ae6565b9091508190610add565b634e487b7160e01b600052604160045260246000fd5b50815115156108c9565b50600154851115610898565b346101d05760003660031901126101d0576002546040516001600160a01b039091168152602090f35b346101d05760003660031901126101d0576020600154604051908152f35b346101d05760403660031901126101d057610b95612247565b6001600160a01b03166000908152600560205260409020805460243591908210156101d057602091610bc6916122e1565b90546040519160031b1c8152f35b346101d0576020806003193601126101d0576004359081151580610e52575b610bfc90612617565b8160005260038152604060002060405190610c16826120a7565b8054825260018101546001600160a01b03908116848401908152600283015482166040850190815291908190610c4e600386016120ff565b6060870152610c5f600486016120ff565b6080870152610c706005860161230f565b9560a08101968752600986015460c082015261014060ff600c81600a8a01541698610c9f60e086019a8b61237f565b600b8101546101008601520154818116151561012085015260081c16151591015251163314918215610e44575b505015610de4578051600581101561065957600103610d485750608092610d3a61014c92610cf86126c3565b905b51519260005260048552610d2c610d1460406000206126e9565b936040519788976000895288015260808701906121a5565b9085820360408701526121a5565b90838203606085015261225d565b8051600581101561065957600203610d735750608092610d3a61014c92610d6d6126a0565b90610cfa565b8051600581101561065957600303610d985750608092610d3a61014c92610d6d61267b565b5192600584101561065957610d3a61014c92600460809614600014610dbf57610d6d612656565b604051610dcb816120c3565b600781526650656e64696e6760c81b8682015290610cfa565b60405162461bcd60e51b815260048101849052603260248201527f4f6e6c79206275796572206f722073656c6c65722063616e207669657720747260448201527130b1b5b4b7339034b73337b936b0ba34b7b760711b6064820152608490fd5b909150511633148580610ccc565b50600154821115610bf3565b346101d05760403660031901126101d05760246001600160401b0360043582358281116101d057610e93903690600401612200565b8115158061115a575b610ea590612617565b805115611116578160005260209260038452604060002060018060a01b03806002830154163314908115611108575b50156110ac57600a015460ff16600581101561109757600203611053578260005260068452604060002094825191821161103f5750610f138554612037565b601f8111610ff9575b5083601f8211600114610f82579481610f72939260008051602061290e83398151915297600091610f77575b508160011b916000199060031b1c19161790555b60408051948594855284015260408301906121a5565b0390a1005b905083015188610f48565b601f1982169086600052856000209160005b818110610fe257509260008051602061290e833981519152979260019282610f72979610610fc9575b5050811b019055610f5c565b85015160001960f88460031b161c191690558880610fbd565b919287600181928689015181550194019201610f94565b8560005284600020601f830160051c810191868410611035575b601f0160051c01905b8181106110295750610f1c565b6000815560010161101c565b9091508190611013565b634e487b7160e01b60009081526041600452fd5b60405162461bcd60e51b815260048101859052601b818701527f4f72646572206d757374206265207368697070656420666972737400000000006044820152606490fd5b85634e487b7160e01b60005260216004526000fd5b60405162461bcd60e51b815260048101869052602f818801527f4f6e6c792073656c6c6572206f72206f776e65722063616e207570646174652060448201526e3a3930b1b5b4b73390373ab6b132b960891b6064820152608490fd5b905060025416331487610ed4565b60405162461bcd60e51b815260206004820152601f818601527f547261636b696e67206e756d6265722063616e6e6f7420626520656d707479006044820152606490fd5b50600154821115610e9c565b346101d0576020806003193601126101d0576001600160a01b03611188612247565b1660005260058152604060002060405190818382549182815201908192600052846000209060005b868282106112065786866111c6828803836120de565b604051928392818401908285525180915260408401929160005b8281106111ef57505050500390f35b8351855286955093810193928101926001016111e0565b8354855290930192600192830192016111b0565b346101d05760603660031901126101d05760043560243560058110156101d057604435916001600160401b0383116101d05761093c6040926112dd61127260008051602061292e833981519152963690600401612200565b84151580611328575b61128490612617565b84600052600360205261129d83600a886000200161238b565b6060600184036112ec57506112b06126c3565b905b85600052600460205286600020908751926112cc84612071565b8352602083015242878301526123a3565b83519283526020830190612356565b6002840361130457506112fd6126a0565b905b6112b2565b6003840361131557506112fd61267b565b90600484036112ff5790506112fd612656565b5060015485111561127b565b60c03660031901126101d0576004356001600160401b0381116101d05761135f903690600401612200565b6024356001600160401b0381116101d05761137e903690600401612200565b6044356001600160401b0381116101d05761139d903690600401612200565b906084356001600160401b0381116101d0576113bd903690600401612200565b9160a4356001600160401b0381116101d0576113dd903690600401612200565b916064353410611c6957600154926000198414611c53576001948585018655604051936114098561208c565b8452606435602085015260408401526060830152838060a01b03600254169460405195611435876120a7565b858501875233602088015260408701526060860152608085015260a084015260643560c0840152600060e084015242610100840152600061012084015260006101408401520160005260036020526040600020815181556001810160018060a01b03602084015116906bffffffffffffffffffffffff60a01b9182825416179055600282019060018060a01b036040850151169082541617905560608201519182516001600160401b038111610b09576114f26003840154612037565b601f8111611c0c575b506020601f8211600114611b9e5781929394600092611b93575b50508160011b916000199060031b1c19161760038301555b60808101519182516001600160401b038111610b09576115506004830154612037565b601f8111611b4c575b506020601f8211600114611ade5781929394600092611ad3575b50508160011b916000199060031b1c19161760048201555b60a08201519081519283516001600160401b038111610b09576115b16005840154612037565b601f8111611a8c575b506020601f8211600114611a1d578192939495600092611a12575b50508160011b916000199060031b1c19161760058301555b6020830151600683015560408301519283516001600160401b038111610b095761161a6007850154612037565b601f81116119cb575b506020601f8211600114611958578190606094959660009261194d575b50508160011b916000199060031b1c19161760078501555b01519182516001600160401b038111610b09576116786008830154612037565b601f8111611906575b506020601f8211600114611898578192939460009261188d575b50508160011b916000199060031b1c19161760088201555b60c0820151600982015560e0820151906005821015610659576116db600c92600a830161238b565b610100830151600b820155019061012081015115159060ff61ff006101408554930151151560081b1692169061ffff1916171790553360005260056020526040600020600154908054600160401b811015610b095761173f916001820181556122e1565b819291549060031b91821b91600019901b191617905560015460005260046020526117f660406000206040519061177582612071565b604051611781816120c3565b600d81526c13dc99195c8810dc99585d1959609a1b602082015282526040516117a981612071565b602a81527f596f7572206f7264657220686173206265656e206372656174656420616e642060208201526969732070656e64696e6760b01b604082015260208301524260408301526123a3565b60206001547f28eb86fd03c9bd96a8a83e4a46ab2ad257b70cea893d98ad6d482e96aa25fad0604051806118476064353386846040919493926060820195825260018060a01b031660208201520152565b0390a16040805182815233602082015234918101919091527fa4678e82fe7b97eb2133ead828ed5d14ebb0c83961617dc347b698964d070b6690606090a1604051908152f35b01519050848061169b565b6008830160005260206000209060005b601f19841681106118ee5750600193949583601f198116106118d5575b505050811b0160088201556116b3565b015160001960f88460031b161c191690558480806118c5565b9091602060018192858a0151815501930191016118a8565b600883016000526020600020601f830160051c810160208410611946575b601f830160051c8201811061193a575050611681565b60008155600101611924565b5080611924565b015190508680611640565b6007850160005260206000209560005b601f19841681106119b357509582916060959697600194601f1981161061199a575b505050811b016007850155611658565b015160001960f88460031b161c1916905586808061198a565b82820151885560019097019660209283019201611968565b600785016000526020600020601f830160051c810160208410611a0b575b601f830160051c820181106119ff575050611623565b600081556001016119e9565b50806119e9565b0151905085806115d5565b6005840160005260206000209060005b601f1984168110611a74575060019394959683601f19811610611a5b575b505050811b0160058301556115ed565b015160001960f88460031b161c19169055858080611a4b565b9091602060018192858b015181550193019101611a2d565b600584016000526020600020601f830160051c810160208410611acc575b601f830160051c82018110611ac05750506115ba565b60008155600101611aaa565b5080611aaa565b015190508480611573565b6004830160005260206000209060005b601f1984168110611b345750600193949583601f19811610611b1b575b505050811b01600482015561158b565b015160001960f88460031b161c19169055848080611b0b565b9091602060018192858a015181550193019101611aee565b600483016000526020600020601f830160051c810160208410611b8c575b601f830160051c82018110611b80575050611559565b60008155600101611b6a565b5080611b6a565b015190508480611515565b6003840160005260206000209060005b601f1984168110611bf45750600193949583601f19811610611bdb575b505050811b01600383015561152d565b015160001960f88460031b161c19169055848080611bcb565b9091602060018192858a015181550193019101611bae565b600384016000526020600020601f830160051c810160208410611c4c575b601f830160051c82018110611c405750506114fb565b60008155600101611c2a565b5080611c2a565b634e487b7160e01b600052601160045260246000fd5b60405162461bcd60e51b815260206004820152601e60248201527f496e73756666696369656e74207061796d656e7420666f72206f7264657200006044820152606490fd5b346101d05760203660031901126101d057600435600052600660205261014c61013860406000206120ff565b346101d05760403660031901126101d05760043560243580151581036101d0578115158061202b575b611d0c90612617565b816000526020906003825260406000209060018060a01b0390816001840154163303611fe657600a83019060ff825416600581101561065957600303611fa15715611f055760ff19906004828254161790556001600c8401918254161781558460005260048452611dd6604060002060405190611d8882612071565b611d90612656565b8252604051611d9e816120c3565b601e81527f44656c697665727920636f6e6669726d656420627920637573746f6d6572000088820152878301524260408301526123a3565b805460ff8160081c161580611ef8575b611e5f575b5050506009015460408051848152336020820152808201929092527f64a783c6150854ae756454311c7625a965c757996ba8cc1a8c6205380f33725093909290917fa4678e82fe7b97eb2133ead828ed5d14ebb0c83961617dc347b698964d070b6690606090a182519182523390820152a1005b600080938193610100839461ff0019161790556002860154166009860154905af13d15611ef3573d611e90816121e5565b90611e9e60405192836120de565b81526000843d92013e5b15611eb557838080611deb565b60405162461bcd60e51b815260048101839052601660248201527514185e5b595b9d081c995b19585cd94819985a5b195960521b6044820152606490fd5b611ea8565b5060098401541515611de6565b505050611f9f9160005260048152604060002060405191611f2583612071565b604051611f31816120c3565b601081526f1499599d5b990814995c5d595cdd195960821b82820152835260405190611f5c82612071565b602382527f437573746f6d6572207265706f72746564206974656d206e6f7420726563656981830152621d995960ea1b60408301528301524260408301526123a3565b005b60405162461bcd60e51b815260048101869052601760248201527f4f72646572206e6f74207965742064656c6976657265640000000000000000006044820152606490fd5b60405162461bcd60e51b815260048101859052601f60248201527f4f6e6c792062757965722063616e20636f6e6669726d2064656c6976657279006044820152606490fd5b50600154821115611d03565b90600182811c92168015612067575b602083101461205157565b634e487b7160e01b600052602260045260246000fd5b91607f1691612046565b606081019081106001600160401b03821117610b0957604052565b608081019081106001600160401b03821117610b0957604052565b61016081019081106001600160401b03821117610b0957604052565b604081019081106001600160401b03821117610b0957604052565b90601f801991011681019081106001600160401b03821117610b0957604052565b906040519182600082549261211384612037565b908184526001948581169081600014612182575060011461213f575b505061213d925003836120de565b565b9093915060005260209081600020936000915b81831061216a57505061213d9350820101388061212f565b85548884018501529485019487945091830191612152565b91505061213d94506020925060ff191682840152151560051b820101388061212f565b919082519283825260005b8481106121d1575050826000602080949584010152601f8019910116010190565b6020818301810151848301820152016121b0565b6001600160401b038111610b0957601f01601f191660200190565b81601f820112156101d057803590612217826121e5565b9261222560405194856120de565b828452602083830101116101d057816000926020809301838601378301015290565b600435906001600160a01b03821682036101d057565b908082519081815260208091019281808460051b8301019501936000915b84831061228b5750505050505090565b9091929394958480600192601f198582030186528951906122c76122b7835160608085528401906121a5565b84840151838203868501526121a5565b91604080910151910152980193019301919493929061227b565b80548210156122f95760005260206000200190600090565b634e487b7160e01b600052603260045260246000fd5b9060405161231c8161208c565b60606123516003839561232e816120ff565b855260018101546020860152612346600282016120ff565b6040860152016120ff565b910152565b9060058210156106595752565b80548210156122f9576000526003602060002091020190600090565b60058210156106595752565b9060058110156106595760ff80198354169116179055565b908154600160401b811015610b09576123c3906001938482018155612363565b929092612601578151908151906001600160401b0391828111610b0957806123eb8754612037565b94601f958681116125ad575b5060209086831160011461254a5760009261253f575b5050600019600383901b1c191690821b1785555b8085019260208501518051938411610b095761243d8554612037565b8281116124f7575b50602091841160011461248a5792806040959381936002989660009461247f575b50501b916000199060031b1c19161790555b0151910155565b015192503880612466565b90601f9392931983169185600052816000209260005b8181106124e1575091600297959391856040989694106124c8575b505050811b019055612478565b015160001960f88460031b161c191690553880806124bb565b82840151855593860193602093840193016124a0565b8560005260206000208380870160051c82019260208810612536575b0160051c019084905b82811061252a575050612445565b6000815501849061251c565b92508192612513565b01519050388061240d565b90849350601f1983169189600052816000209260005b8181106125955750841161257c575b505050811b018555612421565b015160001960f88460031b161c1916905538808061256f565b82840151855587969094019360209384019301612560565b9091506000888152602081208780860160051c820193602087106125f8575b91879187969594930160051c01925b8381106125ea575050506123f7565b8281558695508791016125db565b935081936125cc565b634e487b7160e01b600052600060045260246000fd5b1561261e57565b60405162461bcd60e51b815260206004820152601060248201526f125b9d985b1a59081bdc99195c88125160821b6044820152606490fd5b60405190612663826120c3565b600982526810dbdb999a5c9b595960ba1b6020830152565b60405190612688826120c3565b600982526811195b1a5d995c995960ba1b6020830152565b604051906126ad826120c3565b600782526614da1a5c1c195960ca1b6020830152565b604051906126d0826120c3565b600a82526950726f63657373696e6760b01b6020830152565b9081546001600160401b038111610b0957604092835193602090612712828560051b01876120de565b8386526000928352818320908287015b85851061273157505050505050565b600384600192845161274281612071565b61274b876120ff565b81526127588588016120ff565b83820152600287015486820152815201930194019391612722565b80151580612901575b61278590612617565b60008181526003602052604090818120928251936127a2856120a7565b8054855260018101546001600160a01b039081166020870152600282015416848601526127d1600382016120ff565b60608601526004946127e48683016120ff565b60808201526127f56005830161230f565b60a0820152600982015460c082015261014060ff600c81600a860154169461282160e08601968761237f565b600b8101546101008601520154818116151561012085015260081c161515910152805160058110156128ee576002141590816128d7575b816128af575b5061287857612875935081526006602052206120ff565b90565b50909182519260208401918483106001600160401b0384111761289c575052815290565b634e487b7160e01b845260419052602483fd5b90505160058110156128c4578414153861285e565b634e487b7160e01b835260218552602483fd5b8091505160058110156128ee576003141590612858565b634e487b7160e01b845260218652602484fd5b5060015481111561277c56fe1d49be5728f719b9fe6aedbb47b4c99078229864890af28ad5d08fdaebb595dfd9a86b644eb5f5b43cc8a700849852481080361c7a4b00ba646d1b46c5585f95a26469706673582212209da33e4e510bb73922b4444635f884f41aa8d519c29b9ca8f0b7f24972bf8b5c64736f6c63430008130033",
  "immutableReferences": {},
  "source": "// SPDX-License-Identifier: MIT\r\npragma solidity ^0.8.19;\r\n\r\ncontract OrderContract {\r\n    enum OrderStatus { Pending, Processing, Shipped, Delivered, Confirmed }\r\n    \r\n    string public companyName;\r\n    uint public orderCount;\r\n    address payable public owner;\r\n\r\n    constructor() {\r\n        orderCount = 0;\r\n        companyName = \"LegiLah\";\r\n        owner = payable(msg.sender);\r\n    }\r\n\r\n    struct Product {\r\n        string name;\r\n        uint price;\r\n        string imageUrl;\r\n        string description;\r\n    }\r\n\r\n    struct Order {\r\n        uint orderId;\r\n        address payable buyer;\r\n        address payable seller;\r\n        string buyerName;\r\n        string deliveryAddress;\r\n        Product product;\r\n        uint totalAmount;\r\n        OrderStatus status;\r\n        uint timestamp;\r\n        bool isPaid;\r\n        bool isReleased;\r\n    }\r\n\r\n    struct TrackingUpdate {\r\n        string status;\r\n        string description;\r\n        uint timestamp;\r\n    }\r\n\r\n    mapping(uint => Order) public orders;\r\n    mapping(uint => TrackingUpdate[]) public trackingHistory;\r\n    mapping(address => uint[]) public userOrders;\r\n    mapping(uint => string) public trackingNumbers; // Store tracking numbers\r\n\r\n    event OrderCreated(uint orderId, address buyer, uint amount);\r\n    event OrderPaid(uint orderId, address buyer, uint amount);\r\n    event OrderStatusUpdated(uint orderId, OrderStatus status);\r\n    event DeliveryConfirmed(uint orderId, address buyer);\r\n    event TrackingNumberUpdated(uint orderId, string trackingNumber);\r\n\r\n    // Create a new order\r\n    function createOrder(\r\n        string memory _buyerName,\r\n        string memory _deliveryAddress,\r\n        string memory _productName,\r\n        uint _price,\r\n        string memory _imageUrl,\r\n        string memory _description\r\n    ) public payable returns (uint) {\r\n        require(msg.value >= _price, \"Insufficient payment for order\");\r\n        \r\n        orderCount++;\r\n        \r\n        Product memory newProduct = Product({\r\n            name: _productName,\r\n            price: _price,\r\n            imageUrl: _imageUrl,\r\n            description: _description\r\n        });\r\n        \r\n        orders[orderCount] = Order({\r\n            orderId: orderCount,\r\n            buyer: payable(msg.sender),\r\n            seller: owner,\r\n            buyerName: _buyerName,\r\n            deliveryAddress: _deliveryAddress,\r\n            product: newProduct,\r\n            totalAmount: _price,\r\n            status: OrderStatus.Pending,\r\n            timestamp: block.timestamp,\r\n            isPaid: false,\r\n            isReleased: false\r\n        });\r\n        \r\n        userOrders[msg.sender].push(orderCount);\r\n        \r\n        // Add initial tracking\r\n        trackingHistory[orderCount].push(TrackingUpdate({\r\n            status: \"Order Created\",\r\n            description: \"Your order has been created and is pending\",\r\n            timestamp: block.timestamp\r\n        }));\r\n        \r\n        emit OrderCreated(orderCount, msg.sender, _price);\r\n        emit OrderPaid(orderCount, msg.sender, msg.value);\r\n        return orderCount;\r\n    }\r\n\r\n    // Pay for order (kept for backward compatibility)\r\n    function payForOrder(uint _orderId) public payable {\r\n        require(_orderId > 0 && _orderId <= orderCount, \"Invalid order ID\");\r\n        Order storage order = orders[_orderId];\r\n        require(msg.sender == order.buyer, \"Only buyer can pay\");\r\n        require(!order.isPaid, \"Order already paid\");\r\n        require(msg.value >= order.totalAmount, \"Insufficient payment\");\r\n        \r\n        order.isPaid = true;\r\n        order.status = OrderStatus.Processing;\r\n        \r\n        trackingHistory[_orderId].push(TrackingUpdate({\r\n            status: \"Payment Received\",\r\n            description: \"Payment has been received and order is being processed\",\r\n            timestamp: block.timestamp\r\n        }));\r\n        \r\n        emit OrderPaid(_orderId, msg.sender, msg.value);\r\n        emit OrderStatusUpdated(_orderId, OrderStatus.Processing);\r\n    }\r\n\r\n    // Update order status (only contract owner or authorized parties)\r\n    function updateOrderStatus(uint _orderId, OrderStatus _status, string memory _description) public {\r\n        require(_orderId > 0 && _orderId <= orderCount, \"Invalid order ID\");\r\n        Order storage order = orders[_orderId];\r\n        \r\n        order.status = _status;\r\n        \r\n        string memory statusText;\r\n        if (_status == OrderStatus.Processing) {\r\n            statusText = \"Processing\";\r\n        } else if (_status == OrderStatus.Shipped) {\r\n            statusText = \"Shipped\";\r\n        } else if (_status == OrderStatus.Delivered) {\r\n            statusText = \"Delivered\";\r\n        } else if (_status == OrderStatus.Confirmed) {\r\n            statusText = \"Confirmed\";\r\n        }\r\n        \r\n        trackingHistory[_orderId].push(TrackingUpdate({\r\n            status: statusText,\r\n            description: _description,\r\n            timestamp: block.timestamp\r\n        }));\r\n        \r\n        emit OrderStatusUpdated(_orderId, _status);\r\n    }\r\n\r\n    // Update order status with tracking number (for shipping)\r\n    function updateOrderStatusWithTracking(uint _orderId, OrderStatus _status, string memory _description, string memory _trackingNumber) public {\r\n        require(_orderId > 0 && _orderId <= orderCount, \"Invalid order ID\");\r\n        Order storage order = orders[_orderId];\r\n        \r\n        order.status = _status;\r\n        \r\n        // Store tracking number if status is Shipped\r\n        if (_status == OrderStatus.Shipped && bytes(_trackingNumber).length > 0) {\r\n            trackingNumbers[_orderId] = _trackingNumber;\r\n            emit TrackingNumberUpdated(_orderId, _trackingNumber);\r\n        }\r\n        \r\n        string memory statusText;\r\n        if (_status == OrderStatus.Processing) {\r\n            statusText = \"Processing\";\r\n        } else if (_status == OrderStatus.Shipped) {\r\n            statusText = \"Shipped\";\r\n        } else if (_status == OrderStatus.Delivered) {\r\n            statusText = \"Delivered\";\r\n        } else if (_status == OrderStatus.Confirmed) {\r\n            statusText = \"Confirmed\";\r\n        }\r\n        \r\n        trackingHistory[_orderId].push(TrackingUpdate({\r\n            status: statusText,\r\n            description: _description,\r\n            timestamp: block.timestamp\r\n        }));\r\n        \r\n        emit OrderStatusUpdated(_orderId, _status);\r\n    }\r\n\r\n    // Confirm delivery by buyer\r\n    function confirmDelivery(uint _orderId, bool _received) public {\r\n        require(_orderId > 0 && _orderId <= orderCount, \"Invalid order ID\");\r\n        Order storage order = orders[_orderId];\r\n        require(msg.sender == order.buyer, \"Only buyer can confirm delivery\");\r\n        require(order.status == OrderStatus.Delivered, \"Order not yet delivered\");\r\n        \r\n        if (_received) {\r\n            order.status = OrderStatus.Confirmed;\r\n            order.isPaid = true;\r\n            \r\n            trackingHistory[_orderId].push(TrackingUpdate({\r\n                status: \"Confirmed\",\r\n                description: \"Delivery confirmed by customer\",\r\n                timestamp: block.timestamp\r\n            }));\r\n\r\n            // Release payment to seller only after buyer confirms delivery\r\n            if (!order.isReleased && order.totalAmount > 0) {\r\n                order.isReleased = true;\r\n                (bool success, ) = order.seller.call{value: order.totalAmount}(\"\");\r\n                require(success, \"Payment release failed\");\r\n            }\r\n            \r\n            emit OrderPaid(_orderId, msg.sender, order.totalAmount);\r\n            emit DeliveryConfirmed(_orderId, msg.sender);\r\n        } else {\r\n            trackingHistory[_orderId].push(TrackingUpdate({\r\n                status: \"Refund Requested\",\r\n                description: \"Customer reported item not received\",\r\n                timestamp: block.timestamp\r\n            }));\r\n        }\r\n    }\r\n\r\n    // Get order details\r\n    function getOrder(uint _orderId) public view returns (\r\n        uint orderId,\r\n        address buyer,\r\n        address seller,\r\n        string memory buyerName,\r\n        string memory deliveryAddress,\r\n        string memory productName,\r\n        uint price,\r\n        string memory imageUrl,\r\n        uint totalAmount,\r\n        OrderStatus status,\r\n        uint timestamp,\r\n        bool isPaid,\r\n        bool isReleased\r\n    ) {\r\n        require(_orderId > 0 && _orderId <= orderCount, \"Invalid order ID\");\r\n        Order memory order = orders[_orderId];\r\n        \r\n        return (\r\n            order.orderId,\r\n            order.buyer,\r\n            order.seller,\r\n            order.buyerName,\r\n            order.deliveryAddress,\r\n            order.product.name,\r\n            order.product.price,\r\n            order.product.imageUrl,\r\n            order.totalAmount,\r\n            order.status,\r\n            order.timestamp,\r\n            order.isPaid,\r\n            order.isReleased\r\n        );\r\n    }\r\n\r\n    // Get tracking history\r\n    function getTrackingHistory(uint _orderId) public view returns (TrackingUpdate[] memory) {\r\n        require(_orderId > 0 && _orderId <= orderCount, \"Invalid order ID\");\r\n        return trackingHistory[_orderId];\r\n    }\r\n\r\n    // Get user's orders\r\n    function getUserOrders(address _user) public view returns (uint[] memory) {\r\n        return userOrders[_user];\r\n    }\r\n\r\n    // Get order count\r\n    function getOrderCount() public view returns (uint) {\r\n        return orderCount;\r\n    }\r\n\r\n    // Get complete tracking info - accessible by both buyer and seller\r\n    function getFullTrackingInfo(uint _orderId) public view returns (\r\n        uint orderId,\r\n        string memory productName,\r\n        string memory currentStatus,\r\n        TrackingUpdate[] memory history\r\n    ) {\r\n        require(_orderId > 0 && _orderId <= orderCount, \"Invalid order ID\");\r\n        Order memory order = orders[_orderId];\r\n        require(\r\n            msg.sender == order.buyer || msg.sender == order.seller,\r\n            \"Only buyer or seller can view tracking information\"\r\n        );\r\n        \r\n        string memory statusText;\r\n        if (order.status == OrderStatus.Processing) {\r\n            statusText = \"Processing\";\r\n        } else if (order.status == OrderStatus.Shipped) {\r\n            statusText = \"Shipped\";\r\n        } else if (order.status == OrderStatus.Delivered) {\r\n            statusText = \"Delivered\";\r\n        } else if (order.status == OrderStatus.Confirmed) {\r\n            statusText = \"Confirmed\";\r\n        } else {\r\n            statusText = \"Pending\";\r\n        }\r\n        \r\n        return (\r\n            orderId,\r\n            order.product.name,\r\n            statusText,\r\n            trackingHistory[_orderId]\r\n        );\r\n    }\r\n\r\n    // Update tracking number - can be called by seller or admin\r\n    function updateTrackingNumber(uint _orderId, string memory _trackingNumber) public {\r\n        require(_orderId > 0 && _orderId <= orderCount, \"Invalid order ID\");\r\n        require(bytes(_trackingNumber).length > 0, \"Tracking number cannot be empty\");\r\n        \r\n        Order storage order = orders[_orderId];\r\n        require(msg.sender == order.seller || msg.sender == owner, \"Only seller or owner can update tracking number\");\r\n        require(order.status == OrderStatus.Shipped, \"Order must be shipped first\");\r\n        \r\n        trackingNumbers[_orderId] = _trackingNumber;\r\n        \r\n        emit TrackingNumberUpdated(_orderId, _trackingNumber);\r\n    }\r\n\r\n    // Get tracking number - accessible by both buyer and seller\r\n    function getTrackingNumber(uint _orderId) public view returns (string memory) {\r\n        require(_orderId > 0 && _orderId <= orderCount, \"Invalid order ID\");\r\n        Order memory order = orders[_orderId];\r\n        \r\n        // Allow any connected user to view if order exists - access control is lenient for tracking\r\n        // But still check that order is in proper status\r\n        if (order.status != OrderStatus.Shipped && order.status != OrderStatus.Delivered && order.status != OrderStatus.Confirmed) {\r\n            return \"\"; // Return empty string if not shipped yet\r\n        }\r\n        \r\n        return trackingNumbers[_orderId]; // Return tracking number (may be empty if not set)\r\n    }\r\n}\r\n",
  "sourcePath": "C:\\Users\\User\\C373Projects\\Fa_Team3\\contracts\\OrderContract.sol",
  "compiler": {
    "name": "solc",
    "version": "0.8.19+commit.7dd6d404.Emscripten.clang"
  },
  "schemaVersion": "3.4.16",
  "updatedAt": "2026-01-23T12:46:47.446Z",
  "networkType": "ethereum",
  "devdoc": {
    "kind": "dev",
    "methods": {},
    "version": 1
  },
  "userdoc": {
    "kind": "user",
    "methods": {},
    "version": 1
  }
}