{
  "contractName": "OrderContract",
  "abi": [
    {
      "inputs": [],
      "stateMutability": "nonpayable",
      "type": "constructor"
    },
    {
      "anonymous": false,
      "inputs": [
        {
          "indexed": false,
          "internalType": "uint256",
          "name": "orderId",
          "type": "uint256"
        },
        {
          "indexed": false,
          "internalType": "address",
          "name": "buyer",
          "type": "address"
        }
      ],
      "name": "DeliveryConfirmed",
      "type": "event"
    },
    {
      "anonymous": false,
      "inputs": [
        {
          "indexed": false,
          "internalType": "uint256",
          "name": "orderId",
          "type": "uint256"
        },
        {
          "indexed": false,
          "internalType": "address",
          "name": "buyer",
          "type": "address"
        },
        {
          "indexed": false,
          "internalType": "uint256",
          "name": "amount",
          "type": "uint256"
        }
      ],
      "name": "OrderCreated",
      "type": "event"
    },
    {
      "anonymous": false,
      "inputs": [
        {
          "indexed": false,
          "internalType": "uint256",
          "name": "orderId",
          "type": "uint256"
        },
        {
          "indexed": false,
          "internalType": "address",
          "name": "buyer",
          "type": "address"
        },
        {
          "indexed": false,
          "internalType": "uint256",
          "name": "amount",
          "type": "uint256"
        }
      ],
      "name": "OrderPaid",
      "type": "event"
    },
    {
      "anonymous": false,
      "inputs": [
        {
          "indexed": false,
          "internalType": "uint256",
          "name": "orderId",
          "type": "uint256"
        },
        {
          "indexed": false,
          "internalType": "enum OrderContract.OrderStatus",
          "name": "status",
          "type": "uint8"
        }
      ],
      "name": "OrderStatusUpdated",
      "type": "event"
    },
    {
      "inputs": [],
      "name": "companyName",
      "outputs": [
        {
          "internalType": "string",
          "name": "",
          "type": "string"
        }
      ],
      "stateMutability": "view",
      "type": "function",
      "constant": true
    },
    {
      "inputs": [],
      "name": "orderCount",
      "outputs": [
        {
          "internalType": "uint256",
          "name": "",
          "type": "uint256"
        }
      ],
      "stateMutability": "view",
      "type": "function",
      "constant": true
    },
    {
      "inputs": [
        {
          "internalType": "uint256",
          "name": "",
          "type": "uint256"
        }
      ],
      "name": "orders",
      "outputs": [
        {
          "internalType": "uint256",
          "name": "orderId",
          "type": "uint256"
        },
        {
          "internalType": "address payable",
          "name": "buyer",
          "type": "address"
        },
        {
          "internalType": "address payable",
          "name": "seller",
          "type": "address"
        },
        {
          "internalType": "string",
          "name": "buyerName",
          "type": "string"
        },
        {
          "internalType": "string",
          "name": "deliveryAddress",
          "type": "string"
        },
        {
          "components": [
            {
              "internalType": "string",
              "name": "name",
              "type": "string"
            },
            {
              "internalType": "uint256",
              "name": "price",
              "type": "uint256"
            },
            {
              "internalType": "string",
              "name": "imageUrl",
              "type": "string"
            },
            {
              "internalType": "string",
              "name": "description",
              "type": "string"
            }
          ],
          "internalType": "struct OrderContract.Product",
          "name": "product",
          "type": "tuple"
        },
        {
          "internalType": "uint256",
          "name": "totalAmount",
          "type": "uint256"
        },
        {
          "internalType": "enum OrderContract.OrderStatus",
          "name": "status",
          "type": "uint8"
        },
        {
          "internalType": "uint256",
          "name": "timestamp",
          "type": "uint256"
        },
        {
          "internalType": "bool",
          "name": "isPaid",
          "type": "bool"
        },
        {
          "internalType": "bool",
          "name": "isReleased",
          "type": "bool"
        }
      ],
      "stateMutability": "view",
      "type": "function",
      "constant": true
    },
    {
      "inputs": [],
      "name": "owner",
      "outputs": [
        {
          "internalType": "address payable",
          "name": "",
          "type": "address"
        }
      ],
      "stateMutability": "view",
      "type": "function",
      "constant": true
    },
    {
      "inputs": [
        {
          "internalType": "uint256",
          "name": "",
          "type": "uint256"
        },
        {
          "internalType": "uint256",
          "name": "",
          "type": "uint256"
        }
      ],
      "name": "trackingHistory",
      "outputs": [
        {
          "internalType": "string",
          "name": "status",
          "type": "string"
        },
        {
          "internalType": "string",
          "name": "description",
          "type": "string"
        },
        {
          "internalType": "uint256",
          "name": "timestamp",
          "type": "uint256"
        }
      ],
      "stateMutability": "view",
      "type": "function",
      "constant": true
    },
    {
      "inputs": [
        {
          "internalType": "address",
          "name": "",
          "type": "address"
        },
        {
          "internalType": "uint256",
          "name": "",
          "type": "uint256"
        }
      ],
      "name": "userOrders",
      "outputs": [
        {
          "internalType": "uint256",
          "name": "",
          "type": "uint256"
        }
      ],
      "stateMutability": "view",
      "type": "function",
      "constant": true
    },
    {
      "inputs": [
        {
          "internalType": "string",
          "name": "_buyerName",
          "type": "string"
        },
        {
          "internalType": "string",
          "name": "_deliveryAddress",
          "type": "string"
        },
        {
          "internalType": "string",
          "name": "_productName",
          "type": "string"
        },
        {
          "internalType": "uint256",
          "name": "_price",
          "type": "uint256"
        },
        {
          "internalType": "string",
          "name": "_imageUrl",
          "type": "string"
        },
        {
          "internalType": "string",
          "name": "_description",
          "type": "string"
        }
      ],
      "name": "createOrder",
      "outputs": [
        {
          "internalType": "uint256",
          "name": "",
          "type": "uint256"
        }
      ],
      "stateMutability": "payable",
      "type": "function",
      "payable": true
    },
    {
      "inputs": [
        {
          "internalType": "uint256",
          "name": "_orderId",
          "type": "uint256"
        }
      ],
      "name": "payForOrder",
      "outputs": [],
      "stateMutability": "payable",
      "type": "function",
      "payable": true
    },
    {
      "inputs": [
        {
          "internalType": "uint256",
          "name": "_orderId",
          "type": "uint256"
        },
        {
          "internalType": "enum OrderContract.OrderStatus",
          "name": "_status",
          "type": "uint8"
        },
        {
          "internalType": "string",
          "name": "_description",
          "type": "string"
        }
      ],
      "name": "updateOrderStatus",
      "outputs": [],
      "stateMutability": "nonpayable",
      "type": "function"
    },
    {
      "inputs": [
        {
          "internalType": "uint256",
          "name": "_orderId",
          "type": "uint256"
        },
        {
          "internalType": "bool",
          "name": "_received",
          "type": "bool"
        }
      ],
      "name": "confirmDelivery",
      "outputs": [],
      "stateMutability": "nonpayable",
      "type": "function"
    },
    {
      "inputs": [
        {
          "internalType": "uint256",
          "name": "_orderId",
          "type": "uint256"
        }
      ],
      "name": "getOrder",
      "outputs": [
        {
          "internalType": "uint256",
          "name": "orderId",
          "type": "uint256"
        },
        {
          "internalType": "address",
          "name": "buyer",
          "type": "address"
        },
        {
          "internalType": "address",
          "name": "seller",
          "type": "address"
        },
        {
          "internalType": "string",
          "name": "buyerName",
          "type": "string"
        },
        {
          "internalType": "string",
          "name": "deliveryAddress",
          "type": "string"
        },
        {
          "internalType": "string",
          "name": "productName",
          "type": "string"
        },
        {
          "internalType": "uint256",
          "name": "price",
          "type": "uint256"
        },
        {
          "internalType": "string",
          "name": "imageUrl",
          "type": "string"
        },
        {
          "internalType": "uint256",
          "name": "totalAmount",
          "type": "uint256"
        },
        {
          "internalType": "enum OrderContract.OrderStatus",
          "name": "status",
          "type": "uint8"
        },
        {
          "internalType": "uint256",
          "name": "timestamp",
          "type": "uint256"
        },
        {
          "internalType": "bool",
          "name": "isPaid",
          "type": "bool"
        },
        {
          "internalType": "bool",
          "name": "isReleased",
          "type": "bool"
        }
      ],
      "stateMutability": "view",
      "type": "function",
      "constant": true
    },
    {
      "inputs": [
        {
          "internalType": "uint256",
          "name": "_orderId",
          "type": "uint256"
        }
      ],
      "name": "getTrackingHistory",
      "outputs": [
        {
          "components": [
            {
              "internalType": "string",
              "name": "status",
              "type": "string"
            },
            {
              "internalType": "string",
              "name": "description",
              "type": "string"
            },
            {
              "internalType": "uint256",
              "name": "timestamp",
              "type": "uint256"
            }
          ],
          "internalType": "struct OrderContract.TrackingUpdate[]",
          "name": "",
          "type": "tuple[]"
        }
      ],
      "stateMutability": "view",
      "type": "function",
      "constant": true
    },
    {
      "inputs": [
        {
          "internalType": "address",
          "name": "_user",
          "type": "address"
        }
      ],
      "name": "getUserOrders",
      "outputs": [
        {
          "internalType": "uint256[]",
          "name": "",
          "type": "uint256[]"
        }
      ],
      "stateMutability": "view",
      "type": "function",
      "constant": true
    },
    {
      "inputs": [],
      "name": "getOrderCount",
      "outputs": [
        {
          "internalType": "uint256",
          "name": "",
          "type": "uint256"
        }
      ],
      "stateMutability": "view",
      "type": "function",
      "constant": true
    }
  ],
  "bytecode": "0x60808060405234620000b2576000600181815581548181811c91168015620000a7575b60208210146200009357601f811162000067575b5050600e66098caced298c2d60cb1b019055600280546001600160a01b03191633179055611e6d9081620000b88239f35b828052601f60208420910160051c8101905b81811062000088575062000036565b838155820162000079565b634e487b7160e01b83526022600452602483fd5b90607f169062000022565b600080fdfe6080604052600436101561001257600080fd5b60003560e01c806304ef0781146115265780632453ffa81461090257806355bfb5c414610bac57806360e1102e14610a2c57806363c69f0814610978578063856652e9146109205780638d0a5fbb146109025780638da5cb5b146108d9578063a85c38ef1461079b578063c36034e214610635578063d09ef24114610464578063d9c2dcee14610224578063e097b6b11461019e5763f5ec2eed146100b657600080fd5b3461019957600036600319011261019957604051600080546100d7816119b7565b808452906001908181169081156101725750600114610119575b61011584610101818603826118f0565b604051918291602083526020830190611ade565b0390f35b600080805292507f290decd9548b62a8d60345a988386fc84ba6bc95484008f6362f93160ef3e5635b82841061015a575050508101602001610101826100f1565b80546020858701810191909152909301928101610142565b60ff191660208087019190915292151560051b8501909201925061010191508390506100f1565b600080fd5b34610199576040366003190112610199576024356004356000526004602052604060002080548210156101995761020c916101d891611b2b565b506101e2816119f1565b9061021a60026101f4600184016119f1565b92015491604051948594606086526060860190611ade565b908482036020860152611ade565b9060408301520390f35b602080600319360112610199576004359081151580610458575b61024790611dd3565b6000828152600382526040902060018101546001600160a01b0316330361041e57600c81019081549160ff83166103e457600982015434106103a857927fd9a86b644eb5f5b43cc8a700849852481080361c7a4b00ba646d1b46c5585f9594926001600a81946040978360ff1980961617905501918254161790558260005260048152610366846000208551906102dd82611883565b86516102e8816118d5565b601081526f14185e5b595b9d08149958d95a5d995960821b858201528252865161031181611883565b603681527f5061796d656e7420686173206265656e20726563656976656420616e64206f72858201527519195c881a5cc818995a5b99c81c1c9bd8d95cdcd95960521b88820152848301524287830152611b5f565b83518381523360208201523460408201527fa4678e82fe7b97eb2133ead828ed5d14ebb0c83961617dc347b698964d070b6690606090a18351928352820152a1005b60405162461bcd60e51b8152600481018590526014602482015273125b9cdd59999a58da595b9d081c185e5b595b9d60621b6044820152606490fd5b60405162461bcd60e51b815260048101859052601260248201527113dc99195c88185b1c9958591e481c185a5960721b6044820152606490fd5b60405162461bcd60e51b81526004810183905260126024820152714f6e6c792062757965722063616e2070617960701b6044820152606490fd5b5060015482111561023e565b346101995760203660031901126101995760043580151580610629575b61048a90611dd3565b600052600360205260406000206040516104a3816118b9565b8154815260018201546001600160a01b03908116602083019081526002840154821660408401908152939092906104dc600382016119f1565b92606083019384526104f0600483016119f1565b6080840190815261050360058401611a97565b60a0850190815260098401549160c0860192835260ff600a86015416936005851015610613578460e088015280600b87015496876101008a0152600c01549760ff891615156101208201528860081c60ff1615156101408201525199511699511696519051915191825191602084015193604001519451986040519b8c9b8c5260208c015260408b01526101a08060608c01528a016105a191611ade565b89810360808b01526105b291611ade565b88810360a08a01526105c391611ade565b9060c088015286810360e08801526105da91611ade565b9361010086015261012085016105ef91611b1e565b61014084015260ff8116151561016084015260081c60ff1615156101808301520390f35b634e487b7160e01b600052602160045260246000fd5b50600154811115610481565b3461019957602080600319360112610199576004358015158061078f575b61065c90611dd3565b6000526004815260406000208054906001600160401b0382116107795782906040519261068e838260051b01856118f0565b8084528284018092600052836000206000915b83831061072f5750505050604051918083019381845251809452604083019360408160051b85010192916000955b8287106106dc5785850386f35b909192938280600192603f1989820301855287519060408061071961070985516060808752860190611ade565b8686015185820388870152611ade565b93015191015296019201960195929190926106cf565b60038660019260409998995161074481611883565b61074d866119f1565b815261075a8587016119f1565b83820152600286015460408201528152019201920191909594956106a1565b634e487b7160e01b600052604160045260246000fd5b50600154811115610653565b3461019957602036600319011261019957600435600052600360205260406000208054600160a01b60019003918260018201541692600282015416600382016107e3906119f1565b916107f0600482016119f1565b926107fd60058301611a97565b600983015494600a84015460ff1692600b85015494600c015495604051998a998a5260208a015260408901526101608060608a0152880161083d91611ade565b878103608089015261084e91611ade565b9086820360a08801528051608083526080830161086a91611ade565b60208201516020840152604082015190838103604085015261088b91611ade565b90606001519180820390606001526108a291611ade565b9360c086015260e085016108b591611b1e565b61010084015260ff8116151561012084015260081c60ff1615156101408301520390f35b34610199576000366003190112610199576002546040516001600160a01b039091168152602090f35b34610199576000366003190112610199576020600154604051908152f35b3461019957604036600319011261019957610939611973565b6001600160a01b03166000908152600560205260409020805460243591908210156101995760209161096a91611989565b90546040519160031b1c8152f35b3461019957602080600319360112610199576001600160a01b0361099a611973565b1660005260058152604060002060405190818382549182815201908192600052846000209060005b86828210610a185786866109d8828803836118f0565b604051928392818401908285525180915260408401929160005b828110610a0157505050500390f35b8351855286955093810193928101926001016109f2565b8354855290930192600192830192016109c2565b3461019957606036600319011261019957600435602435600581101561019957604435916001600160401b03831161019957610b27604092610a937fd9a86b644eb5f5b43cc8a700849852481080361c7a4b00ba646d1b46c5585f9595369060040161192c565b83151580610ba0575b610aa590611dd3565b83600052610b1a60209160038352610ac384600a8960002001611b47565b606060018503610b2a57508651610ad9816118d5565b600a81526950726f63657373696e6760b01b84820152905b86600052600484528760002090885192610b0a84611883565b8352848301524288830152611b5f565b8451938452830190611b1e565ba1005b60028503610b5857508651610b3e816118d5565b600781526614da1a5c1c195960ca1b84820152905b610af1565b60038503610b8757508651610b6c816118d5565b600981526811195b1a5d995c995960ba1b8482015290610af1565b9060048503610b53579050610b9a611e12565b90610af1565b50600154841115610a9c565b60c0366003190112610199576004356001600160401b03811161019957610bd790369060040161192c565b6024356001600160401b03811161019957610bf690369060040161192c565b6044356001600160401b03811161019957610c1590369060040161192c565b906084356001600160401b03811161019957610c3590369060040161192c565b9160a4356001600160401b03811161019957610c5590369060040161192c565b9160643534106114e1576001549260001984146114cb57600194858501865560405193610c818561189e565b8452606435602085015260408401526060830152838060a01b03600254169460405195610cad876118b9565b858501875233602088015260408701526060860152608085015260a084015260643560c0840152600060e084015242610100840152600061012084015260006101408401520160005260036020526040600020815181556001810160018060a01b03602084015116906bffffffffffffffffffffffff60a01b9182825416179055600282019060018060a01b036040850151169082541617905560608201519182516001600160401b03811161077957610d6a60038401546119b7565b601f8111611484575b506020601f8211600114611416578192939460009261140b575b50508160011b916000199060031b1c19161760038301555b60808101519182516001600160401b03811161077957610dc860048301546119b7565b601f81116113c4575b506020601f8211600114611356578192939460009261134b575b50508160011b916000199060031b1c19161760048201555b60a08201519081519283516001600160401b03811161077957610e2960058401546119b7565b601f8111611304575b506020601f821160011461129557819293949560009261128a575b50508160011b916000199060031b1c19161760058301555b6020830151600683015560408301519283516001600160401b03811161077957610e9260078501546119b7565b601f8111611243575b506020601f82116001146111d057819060609495966000926111c5575b50508160011b916000199060031b1c19161760078501555b01519182516001600160401b03811161077957610ef060088301546119b7565b601f811161117e575b506020601f82116001146111105781929394600092611105575b50508160011b916000199060031b1c19161760088201555b60c0820151600982015560e082015190600582101561061357610f53600c92600a8301611b47565b610100830151600b820155019061012081015115159060ff61ff006101408554930151151560081b1692169061ffff1916171790553360005260056020526040600020600154908054600160401b81101561077957610fb791600182018155611989565b819291549060031b91821b91600019901b1916179055600154600052600460205261106e604060002060405190610fed82611883565b604051610ff9816118d5565b600d81526c13dc99195c8810dc99585d1959609a1b6020820152825260405161102181611883565b602a81527f596f7572206f7264657220686173206265656e206372656174656420616e642060208201526969732070656e64696e6760b01b60408201526020830152426040830152611b5f565b60206001547f28eb86fd03c9bd96a8a83e4a46ab2ad257b70cea893d98ad6d482e96aa25fad0604051806110bf6064353386846040919493926060820195825260018060a01b031660208201520152565b0390a16040805182815233602082015234918101919091527fa4678e82fe7b97eb2133ead828ed5d14ebb0c83961617dc347b698964d070b6690606090a1604051908152f35b015190508480610f13565b6008830160005260206000209060005b601f19841681106111665750600193949583601f1981161061114d575b505050811b016008820155610f2b565b015160001960f88460031b161c1916905584808061113d565b9091602060018192858a015181550193019101611120565b600883016000526020600020601f830160051c8101602084106111be575b601f830160051c820181106111b2575050610ef9565b6000815560010161119c565b508061119c565b015190508680610eb8565b6007850160005260206000209560005b601f198416811061122b57509582916060959697600194601f19811610611212575b505050811b016007850155610ed0565b015160001960f88460031b161c19169055868080611202565b828201518855600190970196602092830192016111e0565b600785016000526020600020601f830160051c810160208410611283575b601f830160051c82018110611277575050610e9b565b60008155600101611261565b5080611261565b015190508580610e4d565b6005840160005260206000209060005b601f19841681106112ec575060019394959683601f198116106112d3575b505050811b016005830155610e65565b015160001960f88460031b161c191690558580806112c3565b9091602060018192858b0151815501930191016112a5565b600584016000526020600020601f830160051c810160208410611344575b601f830160051c82018110611338575050610e32565b60008155600101611322565b5080611322565b015190508480610deb565b6004830160005260206000209060005b601f19841681106113ac5750600193949583601f19811610611393575b505050811b016004820155610e03565b015160001960f88460031b161c19169055848080611383565b9091602060018192858a015181550193019101611366565b600483016000526020600020601f830160051c810160208410611404575b601f830160051c820181106113f8575050610dd1565b600081556001016113e2565b50806113e2565b015190508480610d8d565b6003840160005260206000209060005b601f198416811061146c5750600193949583601f19811610611453575b505050811b016003830155610da5565b015160001960f88460031b161c19169055848080611443565b9091602060018192858a015181550193019101611426565b600384016000526020600020601f830160051c8101602084106114c4575b601f830160051c820181106114b8575050610d73565b600081556001016114a2565b50806114a2565b634e487b7160e01b600052601160045260246000fd5b60405162461bcd60e51b815260206004820152601e60248201527f496e73756666696369656e74207061796d656e7420666f72206f7264657200006044820152606490fd5b346101995760403660031901126101995760043560243580151581036101995781151580611877575b61155890611dd3565b816000526020906003825260406000209060018060a01b039081600184015416330361183257600a83019060ff8254166005811015610613576003036117ed57156117515760ff19906004828254161790556001600c84019182541617815584600052600484526116226040600020604051906115d482611883565b6115dc611e12565b82526040516115ea816118d5565b601e81527f44656c697665727920636f6e6669726d656420627920637573746f6d657200008882015287830152426040830152611b5f565b805460ff8160081c161580611744575b6116ab575b5050506009015460408051848152336020820152808201929092527f64a783c6150854ae756454311c7625a965c757996ba8cc1a8c6205380f33725093909290917fa4678e82fe7b97eb2133ead828ed5d14ebb0c83961617dc347b698964d070b6690606090a182519182523390820152a1005b600080938193610100839461ff0019161790556002860154166009860154905af13d1561173f573d6116dc81611911565b906116ea60405192836118f0565b81526000843d92013e5b1561170157838080611637565b60405162461bcd60e51b815260048101839052601660248201527514185e5b595b9d081c995b19585cd94819985a5b195960521b6044820152606490fd5b6116f4565b5060098401541515611632565b5050506117eb916000526004815260406000206040519161177183611883565b60405161177d816118d5565b601081526f1499599d5b990814995c5d595cdd195960821b828201528352604051906117a882611883565b602382527f437573746f6d6572207265706f72746564206974656d206e6f7420726563656981830152621d995960ea1b6040830152830152426040830152611b5f565b005b60405162461bcd60e51b815260048101869052601760248201527f4f72646572206e6f74207965742064656c6976657265640000000000000000006044820152606490fd5b60405162461bcd60e51b815260048101859052601f60248201527f4f6e6c792062757965722063616e20636f6e6669726d2064656c6976657279006044820152606490fd5b5060015482111561154f565b606081019081106001600160401b0382111761077957604052565b608081019081106001600160401b0382111761077957604052565b61016081019081106001600160401b0382111761077957604052565b604081019081106001600160401b0382111761077957604052565b90601f801991011681019081106001600160401b0382111761077957604052565b6001600160401b03811161077957601f01601f191660200190565b81601f820112156101995780359061194382611911565b9261195160405194856118f0565b8284526020838301011161019957816000926020809301838601378301015290565b600435906001600160a01b038216820361019957565b80548210156119a15760005260206000200190600090565b634e487b7160e01b600052603260045260246000fd5b90600182811c921680156119e7575b60208310146119d157565b634e487b7160e01b600052602260045260246000fd5b91607f16916119c6565b9060405191826000825492611a05846119b7565b908184526001948581169081600014611a745750600114611a31575b5050611a2f925003836118f0565b565b9093915060005260209081600020936000915b818310611a5c575050611a2f93508201013880611a21565b85548884018501529485019487945091830191611a44565b915050611a2f94506020925060ff191682840152151560051b8201013880611a21565b90604051611aa48161189e565b6060611ad960038395611ab6816119f1565b855260018101546020860152611ace600282016119f1565b6040860152016119f1565b910152565b919082519283825260005b848110611b0a575050826000602080949584010152601f8019910116010190565b602081830181015184830182015201611ae9565b9060058210156106135752565b80548210156119a1576000526003602060002091020190600090565b9060058110156106135760ff80198354169116179055565b908154600160401b81101561077957611b7f906001938482018155611b2b565b929092611dbd578151908151906001600160401b03918281116107795780611ba787546119b7565b94601f95868111611d69575b50602090868311600114611d0657600092611cfb575b5050600019600383901b1c191690821b1785555b808501926020850151805193841161077957611bf985546119b7565b828111611cb3575b506020918411600114611c4657928060409593819360029896600094611c3b575b50501b916000199060031b1c19161790555b0151910155565b015192503880611c22565b90601f9392931983169185600052816000209260005b818110611c9d57509160029795939185604098969410611c84575b505050811b019055611c34565b015160001960f88460031b161c19169055388080611c77565b8284015185559386019360209384019301611c5c565b8560005260206000208380870160051c82019260208810611cf2575b0160051c019084905b828110611ce6575050611c01565b60008155018490611cd8565b92508192611ccf565b015190503880611bc9565b90849350601f1983169189600052816000209260005b818110611d5157508411611d38575b505050811b018555611bdd565b015160001960f88460031b161c19169055388080611d2b565b82840151855587969094019360209384019301611d1c565b9091506000888152602081208780860160051c82019360208710611db4575b91879187969594930160051c01925b838110611da657505050611bb3565b828155869550879101611d97565b93508193611d88565b634e487b7160e01b600052600060045260246000fd5b15611dda57565b60405162461bcd60e51b815260206004820152601060248201526f125b9d985b1a59081bdc99195c88125160821b6044820152606490fd5b60405190611e1f826118d5565b600982526810dbdb999a5c9b595960ba1b602083015256fea26469706673582212209f242407c71fd566019c15bdcd0c68ee7b43c09fae810fa72240c556f89fe0e464736f6c63430008130033",
  "immutableReferences": {},
  "source": "// SPDX-License-Identifier: MIT\r\npragma solidity ^0.8.19;\r\n\r\ncontract OrderContract {\r\n    enum OrderStatus { Pending, Processing, Shipped, Delivered, Confirmed }\r\n    \r\n    string public companyName;\r\n    uint public orderCount;\r\n    address payable public owner;\r\n\r\n    constructor() {\r\n        orderCount = 0;\r\n        companyName = \"LegiLah\";\r\n        owner = payable(msg.sender);\r\n    }\r\n\r\n    struct Product {\r\n        string name;\r\n        uint price;\r\n        string imageUrl;\r\n        string description;\r\n    }\r\n\r\n    struct Order {\r\n        uint orderId;\r\n        address payable buyer;\r\n        address payable seller;\r\n        string buyerName;\r\n        string deliveryAddress;\r\n        Product product;\r\n        uint totalAmount;\r\n        OrderStatus status;\r\n        uint timestamp;\r\n        bool isPaid;\r\n        bool isReleased;\r\n    }\r\n\r\n    struct TrackingUpdate {\r\n        string status;\r\n        string description;\r\n        uint timestamp;\r\n    }\r\n\r\n    mapping(uint => Order) public orders;\r\n    mapping(uint => TrackingUpdate[]) public trackingHistory;\r\n    mapping(address => uint[]) public userOrders;\r\n\r\n    event OrderCreated(uint orderId, address buyer, uint amount);\r\n    event OrderPaid(uint orderId, address buyer, uint amount);\r\n    event OrderStatusUpdated(uint orderId, OrderStatus status);\r\n    event DeliveryConfirmed(uint orderId, address buyer);\r\n\r\n    // Create a new order\r\n    function createOrder(\r\n        string memory _buyerName,\r\n        string memory _deliveryAddress,\r\n        string memory _productName,\r\n        uint _price,\r\n        string memory _imageUrl,\r\n        string memory _description\r\n    ) public payable returns (uint) {\r\n        require(msg.value >= _price, \"Insufficient payment for order\");\r\n        \r\n        orderCount++;\r\n        \r\n        Product memory newProduct = Product({\r\n            name: _productName,\r\n            price: _price,\r\n            imageUrl: _imageUrl,\r\n            description: _description\r\n        });\r\n        \r\n        orders[orderCount] = Order({\r\n            orderId: orderCount,\r\n            buyer: payable(msg.sender),\r\n            seller: owner,\r\n            buyerName: _buyerName,\r\n            deliveryAddress: _deliveryAddress,\r\n            product: newProduct,\r\n            totalAmount: _price,\r\n            status: OrderStatus.Pending,\r\n            timestamp: block.timestamp,\r\n            isPaid: false,\r\n            isReleased: false\r\n        });\r\n        \r\n        userOrders[msg.sender].push(orderCount);\r\n        \r\n        // Add initial tracking\r\n        trackingHistory[orderCount].push(TrackingUpdate({\r\n            status: \"Order Created\",\r\n            description: \"Your order has been created and is pending\",\r\n            timestamp: block.timestamp\r\n        }));\r\n        \r\n        emit OrderCreated(orderCount, msg.sender, _price);\r\n        emit OrderPaid(orderCount, msg.sender, msg.value);\r\n        return orderCount;\r\n    }\r\n\r\n    // Pay for order (kept for backward compatibility)\r\n    function payForOrder(uint _orderId) public payable {\r\n        require(_orderId > 0 && _orderId <= orderCount, \"Invalid order ID\");\r\n        Order storage order = orders[_orderId];\r\n        require(msg.sender == order.buyer, \"Only buyer can pay\");\r\n        require(!order.isPaid, \"Order already paid\");\r\n        require(msg.value >= order.totalAmount, \"Insufficient payment\");\r\n        \r\n        order.isPaid = true;\r\n        order.status = OrderStatus.Processing;\r\n        \r\n        trackingHistory[_orderId].push(TrackingUpdate({\r\n            status: \"Payment Received\",\r\n            description: \"Payment has been received and order is being processed\",\r\n            timestamp: block.timestamp\r\n        }));\r\n        \r\n        emit OrderPaid(_orderId, msg.sender, msg.value);\r\n        emit OrderStatusUpdated(_orderId, OrderStatus.Processing);\r\n    }\r\n\r\n    // Update order status (only contract owner or authorized parties)\r\n    function updateOrderStatus(uint _orderId, OrderStatus _status, string memory _description) public {\r\n        require(_orderId > 0 && _orderId <= orderCount, \"Invalid order ID\");\r\n        Order storage order = orders[_orderId];\r\n        \r\n        order.status = _status;\r\n        \r\n        string memory statusText;\r\n        if (_status == OrderStatus.Processing) {\r\n            statusText = \"Processing\";\r\n        } else if (_status == OrderStatus.Shipped) {\r\n            statusText = \"Shipped\";\r\n        } else if (_status == OrderStatus.Delivered) {\r\n            statusText = \"Delivered\";\r\n        } else if (_status == OrderStatus.Confirmed) {\r\n            statusText = \"Confirmed\";\r\n        }\r\n        \r\n        trackingHistory[_orderId].push(TrackingUpdate({\r\n            status: statusText,\r\n            description: _description,\r\n            timestamp: block.timestamp\r\n        }));\r\n        \r\n        emit OrderStatusUpdated(_orderId, _status);\r\n    }\r\n\r\n    // Confirm delivery by buyer\r\n    function confirmDelivery(uint _orderId, bool _received) public {\r\n        require(_orderId > 0 && _orderId <= orderCount, \"Invalid order ID\");\r\n        Order storage order = orders[_orderId];\r\n        require(msg.sender == order.buyer, \"Only buyer can confirm delivery\");\r\n        require(order.status == OrderStatus.Delivered, \"Order not yet delivered\");\r\n        \r\n        if (_received) {\r\n            order.status = OrderStatus.Confirmed;\r\n            order.isPaid = true;\r\n            \r\n            trackingHistory[_orderId].push(TrackingUpdate({\r\n                status: \"Confirmed\",\r\n                description: \"Delivery confirmed by customer\",\r\n                timestamp: block.timestamp\r\n            }));\r\n\r\n            // Release payment to seller only after buyer confirms delivery\r\n            if (!order.isReleased && order.totalAmount > 0) {\r\n                order.isReleased = true;\r\n                (bool success, ) = order.seller.call{value: order.totalAmount}(\"\");\r\n                require(success, \"Payment release failed\");\r\n            }\r\n            \r\n            emit OrderPaid(_orderId, msg.sender, order.totalAmount);\r\n            emit DeliveryConfirmed(_orderId, msg.sender);\r\n        } else {\r\n            trackingHistory[_orderId].push(TrackingUpdate({\r\n                status: \"Refund Requested\",\r\n                description: \"Customer reported item not received\",\r\n                timestamp: block.timestamp\r\n            }));\r\n        }\r\n    }\r\n\r\n    // Get order details\r\n    function getOrder(uint _orderId) public view returns (\r\n        uint orderId,\r\n        address buyer,\r\n        address seller,\r\n        string memory buyerName,\r\n        string memory deliveryAddress,\r\n        string memory productName,\r\n        uint price,\r\n        string memory imageUrl,\r\n        uint totalAmount,\r\n        OrderStatus status,\r\n        uint timestamp,\r\n        bool isPaid,\r\n        bool isReleased\r\n    ) {\r\n        require(_orderId > 0 && _orderId <= orderCount, \"Invalid order ID\");\r\n        Order memory order = orders[_orderId];\r\n        \r\n        return (\r\n            order.orderId,\r\n            order.buyer,\r\n            order.seller,\r\n            order.buyerName,\r\n            order.deliveryAddress,\r\n            order.product.name,\r\n            order.product.price,\r\n            order.product.imageUrl,\r\n            order.totalAmount,\r\n            order.status,\r\n            order.timestamp,\r\n            order.isPaid,\r\n            order.isReleased\r\n        );\r\n    }\r\n\r\n    // Get tracking history\r\n    function getTrackingHistory(uint _orderId) public view returns (TrackingUpdate[] memory) {\r\n        require(_orderId > 0 && _orderId <= orderCount, \"Invalid order ID\");\r\n        return trackingHistory[_orderId];\r\n    }\r\n\r\n    // Get user's orders\r\n    function getUserOrders(address _user) public view returns (uint[] memory) {\r\n        return userOrders[_user];\r\n    }\r\n\r\n    // Get order count\r\n    function getOrderCount() public view returns (uint) {\r\n        return orderCount;\r\n    }\r\n}\r\n",
  "sourcePath": "C:\\Users\\User\\C373Projects\\Fa_Team3\\contracts\\OrderContract.sol",
  "compiler": {
    "name": "solc",
    "version": "0.8.19+commit.7dd6d404.Emscripten.clang"
  },
  "schemaVersion": "3.4.16",
  "updatedAt": "2026-01-23T09:38:05.778Z",
  "networkType": "ethereum",
  "devdoc": {
    "kind": "dev",
    "methods": {},
    "version": 1
  },
  "userdoc": {
    "kind": "user",
    "methods": {},
    "version": 1
  }
}