{
  "contractName": "OrderContract",
  "abi": [
    {
      "inputs": [],
      "stateMutability": "nonpayable",
      "type": "constructor"
    },
    {
      "anonymous": false,
      "inputs": [
        {
          "indexed": false,
          "internalType": "uint256",
          "name": "orderId",
          "type": "uint256"
        },
        {
          "indexed": false,
          "internalType": "address",
          "name": "buyer",
          "type": "address"
        }
      ],
      "name": "DeliveryConfirmed",
      "type": "event"
    },
    {
      "anonymous": false,
      "inputs": [
        {
          "indexed": false,
          "internalType": "uint256",
          "name": "orderId",
          "type": "uint256"
        },
        {
          "indexed": false,
          "internalType": "address",
          "name": "buyer",
          "type": "address"
        },
        {
          "indexed": false,
          "internalType": "uint256",
          "name": "amount",
          "type": "uint256"
        }
      ],
      "name": "OrderCreated",
      "type": "event"
    },
    {
      "anonymous": false,
      "inputs": [
        {
          "indexed": false,
          "internalType": "uint256",
          "name": "orderId",
          "type": "uint256"
        },
        {
          "indexed": false,
          "internalType": "address",
          "name": "buyer",
          "type": "address"
        },
        {
          "indexed": false,
          "internalType": "uint256",
          "name": "amount",
          "type": "uint256"
        }
      ],
      "name": "OrderPaid",
      "type": "event"
    },
    {
      "anonymous": false,
      "inputs": [
        {
          "indexed": false,
          "internalType": "uint256",
          "name": "orderId",
          "type": "uint256"
        },
        {
          "indexed": false,
          "internalType": "enum OrderContract.OrderStatus",
          "name": "status",
          "type": "uint8"
        }
      ],
      "name": "OrderStatusUpdated",
      "type": "event"
    },
    {
      "anonymous": false,
      "inputs": [
        {
          "indexed": false,
          "internalType": "uint256",
          "name": "orderId",
          "type": "uint256"
        },
        {
          "indexed": false,
          "internalType": "string",
          "name": "trackingNumber",
          "type": "string"
        }
      ],
      "name": "TrackingNumberUpdated",
      "type": "event"
    },
    {
      "inputs": [],
      "name": "companyName",
      "outputs": [
        {
          "internalType": "string",
          "name": "",
          "type": "string"
        }
      ],
      "stateMutability": "view",
      "type": "function",
      "constant": true
    },
    {
      "inputs": [],
      "name": "orderCount",
      "outputs": [
        {
          "internalType": "uint256",
          "name": "",
          "type": "uint256"
        }
      ],
      "stateMutability": "view",
      "type": "function",
      "constant": true
    },
    {
      "inputs": [
        {
          "internalType": "uint256",
          "name": "",
          "type": "uint256"
        }
      ],
      "name": "orders",
      "outputs": [
        {
          "internalType": "uint256",
          "name": "orderId",
          "type": "uint256"
        },
        {
          "internalType": "address payable",
          "name": "buyer",
          "type": "address"
        },
        {
          "internalType": "address payable",
          "name": "seller",
          "type": "address"
        },
        {
          "internalType": "string",
          "name": "buyerName",
          "type": "string"
        },
        {
          "internalType": "string",
          "name": "deliveryAddress",
          "type": "string"
        },
        {
          "components": [
            {
              "internalType": "string",
              "name": "name",
              "type": "string"
            },
            {
              "internalType": "uint256",
              "name": "price",
              "type": "uint256"
            },
            {
              "internalType": "string",
              "name": "imageUrl",
              "type": "string"
            },
            {
              "internalType": "string",
              "name": "description",
              "type": "string"
            }
          ],
          "internalType": "struct OrderContract.Product",
          "name": "product",
          "type": "tuple"
        },
        {
          "internalType": "uint256",
          "name": "totalAmount",
          "type": "uint256"
        },
        {
          "internalType": "enum OrderContract.OrderStatus",
          "name": "status",
          "type": "uint8"
        },
        {
          "internalType": "uint256",
          "name": "timestamp",
          "type": "uint256"
        },
        {
          "internalType": "bool",
          "name": "isPaid",
          "type": "bool"
        },
        {
          "internalType": "bool",
          "name": "isReleased",
          "type": "bool"
        },
        {
          "internalType": "uint256",
          "name": "deliveredAt",
          "type": "uint256"
        }
      ],
      "stateMutability": "view",
      "type": "function",
      "constant": true
    },
    {
      "inputs": [],
      "name": "owner",
      "outputs": [
        {
          "internalType": "address payable",
          "name": "",
          "type": "address"
        }
      ],
      "stateMutability": "view",
      "type": "function",
      "constant": true
    },
    {
      "inputs": [
        {
          "internalType": "uint256",
          "name": "",
          "type": "uint256"
        },
        {
          "internalType": "uint256",
          "name": "",
          "type": "uint256"
        }
      ],
      "name": "trackingHistory",
      "outputs": [
        {
          "internalType": "string",
          "name": "status",
          "type": "string"
        },
        {
          "internalType": "string",
          "name": "description",
          "type": "string"
        },
        {
          "internalType": "uint256",
          "name": "timestamp",
          "type": "uint256"
        }
      ],
      "stateMutability": "view",
      "type": "function",
      "constant": true
    },
    {
      "inputs": [
        {
          "internalType": "uint256",
          "name": "",
          "type": "uint256"
        }
      ],
      "name": "trackingNumbers",
      "outputs": [
        {
          "internalType": "string",
          "name": "",
          "type": "string"
        }
      ],
      "stateMutability": "view",
      "type": "function",
      "constant": true
    },
    {
      "inputs": [
        {
          "internalType": "address",
          "name": "",
          "type": "address"
        },
        {
          "internalType": "uint256",
          "name": "",
          "type": "uint256"
        }
      ],
      "name": "userOrders",
      "outputs": [
        {
          "internalType": "uint256",
          "name": "",
          "type": "uint256"
        }
      ],
      "stateMutability": "view",
      "type": "function",
      "constant": true
    },
    {
      "inputs": [
        {
          "internalType": "string",
          "name": "_buyerName",
          "type": "string"
        },
        {
          "internalType": "string",
          "name": "_deliveryAddress",
          "type": "string"
        },
        {
          "internalType": "string",
          "name": "_productName",
          "type": "string"
        },
        {
          "internalType": "uint256",
          "name": "_price",
          "type": "uint256"
        },
        {
          "internalType": "string",
          "name": "_imageUrl",
          "type": "string"
        },
        {
          "internalType": "string",
          "name": "_description",
          "type": "string"
        }
      ],
      "name": "createOrder",
      "outputs": [
        {
          "internalType": "uint256",
          "name": "",
          "type": "uint256"
        }
      ],
      "stateMutability": "payable",
      "type": "function",
      "payable": true
    },
    {
      "inputs": [
        {
          "internalType": "uint256",
          "name": "_orderId",
          "type": "uint256"
        }
      ],
      "name": "payForOrder",
      "outputs": [],
      "stateMutability": "payable",
      "type": "function",
      "payable": true
    },
    {
      "inputs": [
        {
          "internalType": "uint256",
          "name": "_orderId",
          "type": "uint256"
        },
        {
          "internalType": "enum OrderContract.OrderStatus",
          "name": "_status",
          "type": "uint8"
        },
        {
          "internalType": "string",
          "name": "_description",
          "type": "string"
        }
      ],
      "name": "updateOrderStatus",
      "outputs": [],
      "stateMutability": "nonpayable",
      "type": "function"
    },
    {
      "inputs": [
        {
          "internalType": "uint256",
          "name": "_orderId",
          "type": "uint256"
        },
        {
          "internalType": "enum OrderContract.OrderStatus",
          "name": "_status",
          "type": "uint8"
        },
        {
          "internalType": "string",
          "name": "_description",
          "type": "string"
        },
        {
          "internalType": "string",
          "name": "_trackingNumber",
          "type": "string"
        }
      ],
      "name": "updateOrderStatusWithTracking",
      "outputs": [],
      "stateMutability": "nonpayable",
      "type": "function"
    },
    {
      "inputs": [
        {
          "internalType": "uint256",
          "name": "_orderId",
          "type": "uint256"
        },
        {
          "internalType": "bool",
          "name": "_received",
          "type": "bool"
        }
      ],
      "name": "confirmDelivery",
      "outputs": [],
      "stateMutability": "nonpayable",
      "type": "function"
    },
    {
      "inputs": [
        {
          "internalType": "uint256",
          "name": "_orderId",
          "type": "uint256"
        }
      ],
      "name": "getOrder",
      "outputs": [
        {
          "internalType": "uint256",
          "name": "orderId",
          "type": "uint256"
        },
        {
          "internalType": "address",
          "name": "buyer",
          "type": "address"
        },
        {
          "internalType": "address",
          "name": "seller",
          "type": "address"
        },
        {
          "internalType": "string",
          "name": "buyerName",
          "type": "string"
        },
        {
          "internalType": "string",
          "name": "deliveryAddress",
          "type": "string"
        },
        {
          "internalType": "string",
          "name": "productName",
          "type": "string"
        },
        {
          "internalType": "uint256",
          "name": "price",
          "type": "uint256"
        },
        {
          "internalType": "string",
          "name": "imageUrl",
          "type": "string"
        },
        {
          "internalType": "uint256",
          "name": "totalAmount",
          "type": "uint256"
        },
        {
          "internalType": "enum OrderContract.OrderStatus",
          "name": "status",
          "type": "uint8"
        },
        {
          "internalType": "uint256",
          "name": "timestamp",
          "type": "uint256"
        },
        {
          "internalType": "bool",
          "name": "isPaid",
          "type": "bool"
        },
        {
          "internalType": "bool",
          "name": "isReleased",
          "type": "bool"
        },
        {
          "internalType": "uint256",
          "name": "deliveredAt",
          "type": "uint256"
        }
      ],
      "stateMutability": "view",
      "type": "function",
      "constant": true
    },
    {
      "inputs": [
        {
          "internalType": "uint256",
          "name": "_orderId",
          "type": "uint256"
        }
      ],
      "name": "getTrackingHistory",
      "outputs": [
        {
          "components": [
            {
              "internalType": "string",
              "name": "status",
              "type": "string"
            },
            {
              "internalType": "string",
              "name": "description",
              "type": "string"
            },
            {
              "internalType": "uint256",
              "name": "timestamp",
              "type": "uint256"
            }
          ],
          "internalType": "struct OrderContract.TrackingUpdate[]",
          "name": "",
          "type": "tuple[]"
        }
      ],
      "stateMutability": "view",
      "type": "function",
      "constant": true
    },
    {
      "inputs": [
        {
          "internalType": "address",
          "name": "_user",
          "type": "address"
        }
      ],
      "name": "getUserOrders",
      "outputs": [
        {
          "internalType": "uint256[]",
          "name": "",
          "type": "uint256[]"
        }
      ],
      "stateMutability": "view",
      "type": "function",
      "constant": true
    },
    {
      "inputs": [],
      "name": "getOrderCount",
      "outputs": [
        {
          "internalType": "uint256",
          "name": "",
          "type": "uint256"
        }
      ],
      "stateMutability": "view",
      "type": "function",
      "constant": true
    },
    {
      "inputs": [
        {
          "internalType": "uint256",
          "name": "_orderId",
          "type": "uint256"
        }
      ],
      "name": "getFullTrackingInfo",
      "outputs": [
        {
          "internalType": "uint256",
          "name": "orderId",
          "type": "uint256"
        },
        {
          "internalType": "string",
          "name": "productName",
          "type": "string"
        },
        {
          "internalType": "string",
          "name": "currentStatus",
          "type": "string"
        },
        {
          "components": [
            {
              "internalType": "string",
              "name": "status",
              "type": "string"
            },
            {
              "internalType": "string",
              "name": "description",
              "type": "string"
            },
            {
              "internalType": "uint256",
              "name": "timestamp",
              "type": "uint256"
            }
          ],
          "internalType": "struct OrderContract.TrackingUpdate[]",
          "name": "history",
          "type": "tuple[]"
        }
      ],
      "stateMutability": "view",
      "type": "function",
      "constant": true
    },
    {
      "inputs": [
        {
          "internalType": "uint256",
          "name": "_orderId",
          "type": "uint256"
        },
        {
          "internalType": "string",
          "name": "_trackingNumber",
          "type": "string"
        }
      ],
      "name": "updateTrackingNumber",
      "outputs": [],
      "stateMutability": "nonpayable",
      "type": "function"
    },
    {
      "inputs": [
        {
          "internalType": "uint256",
          "name": "_orderId",
          "type": "uint256"
        }
      ],
      "name": "getTrackingNumber",
      "outputs": [
        {
          "internalType": "string",
          "name": "",
          "type": "string"
        }
      ],
      "stateMutability": "view",
      "type": "function",
      "constant": true
    }
  ],
  "bytecode": "0x60808060405234620000c5576000600181815581548181811c91168015620000ba575b6020821014620000a657601f81116200007a575b50507f4c656769744c61680000000000000000000000000000000000000000000000109055600280546001600160a01b03191633179055612a2f9081620000cb8239f35b828052601f60208420910160051c8101905b8181106200009b575062000036565b83815582016200008c565b634e487b7160e01b83526022600452602483fd5b90607f169062000022565b600080fdfe6080604052600436101561001257600080fd5b60003560e01c806304ef078114611d645780632453ffa814610ba8578063534cc1b014611d3857806355bfb5c4146113ac57806360e1102e1461127057806363c69f08146111bc5780636e31035b14610eb4578063738f376014610c1e578063856652e914610bc65780638d0a5fbb14610ba85780638da5cb5b14610b7f5780639b023fec1461085b578063a1e1e6e11461083c578063a85c38ef146106f1578063c36034e214610693578063d09ef24114610489578063d9c2dcee1461025b578063e097b6b1146101d55763f5ec2eed146100ed57600080fd5b346101d05760003660031901126101d0576040516000805461010e816120d7565b808452906001908181169081156101a95750600114610150575b61014c846101388186038261217e565b604051918291602083526020830190612245565b0390f35b600080805292507f290decd9548b62a8d60345a988386fc84ba6bc95484008f6362f93160ef3e5635b82841061019157505050810160200161013882610128565b80546020858701810191909152909301928101610179565b60ff191660208087019190915292151560051b850190920192506101389150839050610128565b600080fd5b346101d05760403660031901126101d0576024356004356000526004602052604060002080548210156101d0576102439161020f91612403565b506102198161219f565b90610251600261022b6001840161219f565b92015491604051948594606086526060860190612245565b908482036020860152612245565b9060408301520390f35b6020806003193601126101d057600435908115158061047d575b61027e906126b7565b6000828152600382526040902060018101546001600160a01b0316330361044357600c81019081549160ff831661040957600982015434106103cd57926000805160206129da83398151915294926001600a81946040978360ff198096161790550191825416179055826000526004815261038b8460002085519061030282612111565b865161030d81612163565b601081526f14185e5b595b9d08149958d95a5d995960821b858201528252865161033681612111565b603681527f5061796d656e7420686173206265656e20726563656976656420616e64206f72858201527519195c881a5cc818995a5b99c81c1c9bd8d95cdcd95960521b88820152848301524287830152612443565b83518381523360208201523460408201527fa4678e82fe7b97eb2133ead828ed5d14ebb0c83961617dc347b698964d070b6690606090a18351928352820152a1005b60405162461bcd60e51b8152600481018590526014602482015273125b9cdd59999a58da595b9d081c185e5b595b9d60621b6044820152606490fd5b60405162461bcd60e51b815260048101859052601260248201527113dc99195c88185b1c9958591e481c185a5960721b6044820152606490fd5b60405162461bcd60e51b81526004810183905260126024820152714f6e6c792062757965722063616e2070617960701b6044820152606490fd5b50600154821115610275565b346101d05760203660031901126101d05760043580151580610687575b6104af906126b7565b60005260036020526040600020600d604051916104cb83612147565b8054835260018101546001600160a01b03908116602085015260028201541660408401526104fb6003820161219f565b606084015261050c6004820161219f565b608084015261051d600582016123af565b60a0840152600981015460c084015261054060ff600a8301541660e0850161241f565b600b81015461010084015260ff600c820154818116151561012086015260081c1615156101408401520154610160820152805160018060a01b036020830151169160018060a01b0360408201511660608201519160808101519260a08201519384516040602087015196015160c08501519660e086015192600584101561067157610100870151946101208801511515966101408901511515986101600151996040519d8e809e81526020015260408d01528b6101c06060819201528c0161060791612245565b8b810360808d015261061891612245565b8a810360a08c015261062991612245565b9060c08a015288810360e08a015261064091612245565b956101008801526101208701610655916123f6565b6101408601526101608501526101808401526101a08301520390f35b634e487b7160e01b600052602160045260246000fd5b506001548111156104a6565b346101d05760203660031901126101d057600435801515806106e5575b6106b9906126b7565b600052600460205261014c6106d16040600020612789565b6040519182916020835260208301906122fd565b506001548111156106b0565b346101d05760203660031901126101d057600435600052600360205260406000208054600160a01b60019003918260018201541692600282015416600382016107399061219f565b916107466004820161219f565b92610753600583016123af565b93600983015494600a84015460ff1691600b85015493600c86015495600d0154966040519a8b9a8b5260208b015260408a01526101808060608b0152890161079a91612245565b88810360808a01526107ab91612245565b9087820360a0890152805160808352608083016107c791612245565b6020820151602084015260408201519083810360408501526107e891612245565b90606001519180820390606001526107ff91612245565b9460c087015260e08601610812916123f6565b61010085015260ff8116151561012085015260081c60ff1615156101408401526101608301520390f35b346101d05760203660031901126101d05761014c610138600435612813565b346101d05760803660031901126101d05760043560243560058110156101d0576001600160401b036044358181116101d05761089b9036906004016122a0565b6064358281116101d0576108b39036906004016122a0565b9084151580610b73575b6108c6906126b7565b84600052602092600384526040600020926108e486600a860161242b565b60028614918280610b69575b6109c0575b50509261095961096693604096936000805160206129da833981519152989660609060018714600014610969575050905061092e612763565b905b8660005260048452876000209088519261094984612111565b8352848301524288830152612443565b84519384528301906123f6565ba1005b1561098057509050610979612740565b905b610930565b600386036109ac5750600d61099361271b565b92018054156109a3575b50610930565b4290558961099d565b91506004850361097b5790506109796126f6565b87600052600686526040600020908251908111610b53576109e182546120d7565b601f8111610b0d575b5086601f8211600114610a7857936000805160206129ba833981519152610a5d6109599561096699958560409d9a966000805160206129da8339815191529f9d9a600091610a6d575b508160011b916000199060031b1c19161790555b8b519182918c83528d8a8401528d830190612245565b0390a193969850939650936108f5565b905083015138610a33565b601f1982169083600052886000209160005b818110610af657506109599561096699956001866000805160206129da8339815191529f9d9a9660409f9c98966000805160206129ba83398151915297610a5d9710610add575b5050811b019055610a47565b85015160001960f88460031b161c191690553880610ad1565b91928a60018192868a015181550194019201610a8a565b8260005287600020601f830160051c810191898410610b49575b601f0160051c01905b818110610b3d57506109ea565b60008155600101610b30565b9091508190610b27565b634e487b7160e01b600052604160045260246000fd5b50815115156108f0565b506001548511156108bd565b346101d05760003660031901126101d0576002546040516001600160a01b039091168152602090f35b346101d05760003660031901126101d0576020600154604051908152f35b346101d05760403660031901126101d057610bdf6122e7565b6001600160a01b03166000908152600560205260409020805460243591908210156101d057602091610c1091612381565b90546040519160031b1c8152f35b346101d0576020806003193601126101d0576004359081151580610ea8575b610c46906126b7565b8160005260038152604060002060405190610c6082612147565b8054825260018101546001600160a01b03908116848401908152600283015482166040850190815291908190610c986003860161219f565b6060870152610ca96004860161219f565b6080870152610cba600586016123af565b9560a08101968752600986015460c0820152610160600d60ff600a8901541697610ce860e08501998a61241f565b600b81015461010085015260ff600c820154818116151561012087015260081c161515610140850152015491015251163314918215610e9a575b505015610e3a578051600581101561067157600103610d9e5750608092610d9061014c92610d4e612763565b905b51519260005260048552610d82610d6a6040600020612789565b93604051978897600089528801526080870190612245565b908582036040870152612245565b9083820360608501526122fd565b8051600581101561067157600203610dc95750608092610d9061014c92610dc3612740565b90610d50565b8051600581101561067157600303610dee5750608092610d9061014c92610dc361271b565b5192600584101561067157610d9061014c92600460809614600014610e1557610dc36126f6565b604051610e2181612163565b600781526650656e64696e6760c81b8682015290610d50565b60405162461bcd60e51b815260048101849052603260248201527f4f6e6c79206275796572206f722073656c6c65722063616e207669657720747260448201527130b1b5b4b7339034b73337b936b0ba34b7b760711b6064820152608490fd5b909150511633148580610d22565b50600154821115610c3d565b346101d05760403660031901126101d05760246001600160401b0360043582358281116101d057610ee99036906004016122a0565b811515806111b0575b610efb906126b7565b80511561116c578160005260209260038452604060002060018060a01b0380600283015416331490811561115e575b501561110257600a015460ff1660058110156110ed576002036110a957826000526006845260406000209482519182116110955750610f6985546120d7565b601f811161104f575b5083601f8211600114610fd8579481610fc893926000805160206129ba83398151915297600091610fcd575b508160011b916000199060031b1c19161790555b6040805194859485528401526040830190612245565b0390a1005b905083015188610f9e565b601f1982169086600052856000209160005b8181106110385750926000805160206129ba833981519152979260019282610fc897961061101f575b5050811b019055610fb2565b85015160001960f88460031b161c191690558880611013565b919287600181928689015181550194019201610fea565b8560005284600020601f830160051c81019186841061108b575b601f0160051c01905b81811061107f5750610f72565b60008155600101611072565b9091508190611069565b634e487b7160e01b60009081526041600452fd5b60405162461bcd60e51b815260048101859052601b818701527f4f72646572206d757374206265207368697070656420666972737400000000006044820152606490fd5b85634e487b7160e01b60005260216004526000fd5b60405162461bcd60e51b815260048101869052602f818801527f4f6e6c792073656c6c6572206f72206f776e65722063616e207570646174652060448201526e3a3930b1b5b4b73390373ab6b132b960891b6064820152608490fd5b905060025416331487610f2a565b60405162461bcd60e51b815260206004820152601f818601527f547261636b696e67206e756d6265722063616e6e6f7420626520656d707479006044820152606490fd5b50600154821115610ef2565b346101d0576020806003193601126101d0576001600160a01b036111de6122e7565b1660005260058152604060002060405190818382549182815201908192600052846000209060005b8682821061125c57868661121c8288038361217e565b604051928392818401908285525180915260408401929160005b82811061124557505050500390f35b835185528695509381019392810192600101611236565b835485529093019260019283019201611206565b346101d05760603660031901126101d05760043560243560058110156101d057604435916001600160401b0383116101d0576109666040926113376112c86000805160206129da8339815191529636906004016122a0565b841515806113a0575b6112da906126b7565b84600052600360205285600020906112f584600a840161242b565b6060600185036113465750905061130a612763565b905b856000526004602052866000209087519261132684612111565b835260208301524287830152612443565b835192835260208301906123f6565b6002850361136057509050611359612740565b905b61130c565b6003850361138c5750600d61137361271b565b9201805415611383575b5061130c565b4290558861137d565b91506004840361135b5790506113596126f6565b506001548511156112d1565b60c03660031901126101d0576004356001600160401b0381116101d0576113d79036906004016122a0565b6024356001600160401b0381116101d0576113f69036906004016122a0565b6044356001600160401b0381116101d0576114159036906004016122a0565b906084356001600160401b0381116101d0576114359036906004016122a0565b9160a4356001600160401b0381116101d0576114559036906004016122a0565b916064353410611cf357600154926000198414611cdd576001948585018655604051936114818561212c565b8452606435602085015260408401526060830152838060a01b036002541694604051956114ad87612147565b858501875233602088015260408701526060860152608085015260a084015260643560c0840152600060e084015242610100840152600061012084015260006101408401526000610160840152016000526003602052604060002090805182556001820160018060a01b03602083015116906bffffffffffffffffffffffff60a01b9182825416179055600283019060018060a01b036040840151169082541617905560608101519182516001600160401b038111610b535761157360038301546120d7565b601f8111611c96575b506020601f8211600114611c285781929394600092611c1d575b50508160011b916000199060031b1c19161760038201555b60808201519182516001600160401b038111610b53576115d160048401546120d7565b601f8111611bd6575b506020601f8211600114611b685781929394600092611b5d575b50508160011b916000199060031b1c19161760048301555b60a08101519081519283516001600160401b038111610b535761163260058301546120d7565b601f8111611b16575b506020601f8211600114611aa7578192939495600092611a9c575b50508160011b916000199060031b1c19161760058201555b6020830151600682015560408301519283516001600160401b038111610b535761169b60078401546120d7565b601f8111611a55575b506020601f82116001146119e257819060609495966000926119d7575b50508160011b916000199060031b1c19161760078401555b01519182516001600160401b038111610b53576116f960088401546120d7565b601f8111611990575b506020601f82116001146119225781929394600092611917575b50508160011b916000199060031b1c19161760088301555b60c0810151600983015560e0810151600581101561067157600d9161175f61016092600a860161242b565b610100810151600b850155600c84016101208201511515815460ff61ff00610140860151151560081b1692169061ffff19161717905501519101553360005260056020526040600020600154908054600160401b811015610b53576117c991600182018155612381565b819291549060031b91821b91600019901b191617905560015460005260046020526118806040600020604051906117ff82612111565b60405161180b81612163565b600d81526c13dc99195c8810dc99585d1959609a1b6020820152825260405161183381612111565b602a81527f596f7572206f7264657220686173206265656e206372656174656420616e642060208201526969732070656e64696e6760b01b60408201526020830152426040830152612443565b60206001547f28eb86fd03c9bd96a8a83e4a46ab2ad257b70cea893d98ad6d482e96aa25fad0604051806118d16064353386846040919493926060820195825260018060a01b031660208201520152565b0390a16040805182815233602082015234918101919091527fa4678e82fe7b97eb2133ead828ed5d14ebb0c83961617dc347b698964d070b6690606090a1604051908152f35b01519050848061171c565b6008840160005260206000209060005b601f19841681106119785750600193949583601f1981161061195f575b505050811b016008830155611734565b015160001960f88460031b161c1916905584808061194f565b9091602060018192858a015181550193019101611932565b600884016000526020600020601f830160051c8101602084106119d0575b601f830160051c820181106119c4575050611702565b600081556001016119ae565b50806119ae565b0151905086806116c1565b6007840160005260206000209560005b601f1984168110611a3d57509582916060959697600194601f19811610611a24575b505050811b0160078401556116d9565b015160001960f88460031b161c19169055868080611a14565b828201518855600190970196602092830192016119f2565b600784016000526020600020601f830160051c810160208410611a95575b601f830160051c82018110611a895750506116a4565b60008155600101611a73565b5080611a73565b015190508580611656565b6005830160005260206000209060005b601f1984168110611afe575060019394959683601f19811610611ae5575b505050811b01600582015561166e565b015160001960f88460031b161c19169055858080611ad5565b9091602060018192858b015181550193019101611ab7565b600583016000526020600020601f830160051c810160208410611b56575b601f830160051c82018110611b4a57505061163b565b60008155600101611b34565b5080611b34565b0151905084806115f4565b6004840160005260206000209060005b601f1984168110611bbe5750600193949583601f19811610611ba5575b505050811b01600483015561160c565b015160001960f88460031b161c19169055848080611b95565b9091602060018192858a015181550193019101611b78565b600484016000526020600020601f830160051c810160208410611c16575b601f830160051c82018110611c0a5750506115da565b60008155600101611bf4565b5080611bf4565b015190508480611596565b6003830160005260206000209060005b601f1984168110611c7e5750600193949583601f19811610611c65575b505050811b0160038201556115ae565b015160001960f88460031b161c19169055848080611c55565b9091602060018192858a015181550193019101611c38565b600383016000526020600020601f830160051c810160208410611cd6575b601f830160051c82018110611cca57505061157c565b60008155600101611cb4565b5080611cb4565b634e487b7160e01b600052601160045260246000fd5b60405162461bcd60e51b815260206004820152601e60248201527f496e73756666696369656e74207061796d656e7420666f72206f7264657200006044820152606490fd5b346101d05760203660031901126101d057600435600052600660205261014c610138604060002061219f565b346101d05760403660031901126101d05760043560243580151581036101d057811515806120cb575b611d96906126b7565b816000526020906003825260406000209060018060a01b039081600184015416330361208657600a83019060ff8254166005811015610671576003036120415715611fa55760ff19906004828254161790556001600c840191825416178155600d8301805415611f9c575b508460005260048452611e6d604060002060405190611e1f82612111565b611e276126f6565b8252604051611e3581612163565b601e81527f44656c697665727920636f6e6669726d656420627920637573746f6d657200008882015287830152426040830152612443565b805460ff8160081c161580611f8f575b611ef6575b5050506009015460408051848152336020820152808201929092527f64a783c6150854ae756454311c7625a965c757996ba8cc1a8c6205380f33725093909290917fa4678e82fe7b97eb2133ead828ed5d14ebb0c83961617dc347b698964d070b6690606090a182519182523390820152a1005b600080938193610100839461ff0019161790556002860154166009860154905af13d15611f8a573d611f2781612285565b90611f35604051928361217e565b81526000843d92013e5b15611f4c57838080611e82565b60405162461bcd60e51b815260048101839052601660248201527514185e5b595b9d081c995b19585cd94819985a5b195960521b6044820152606490fd5b611f3f565b5060098401541515611e7d565b42905585611e01565b50505061203f9160005260048152604060002060405191611fc583612111565b604051611fd181612163565b601081526f1499599d5b990814995c5d595cdd195960821b82820152835260405190611ffc82612111565b602382527f437573746f6d6572207265706f72746564206974656d206e6f7420726563656981830152621d995960ea1b6040830152830152426040830152612443565b005b60405162461bcd60e51b815260048101869052601760248201527f4f72646572206e6f74207965742064656c6976657265640000000000000000006044820152606490fd5b60405162461bcd60e51b815260048101859052601f60248201527f4f6e6c792062757965722063616e20636f6e6669726d2064656c6976657279006044820152606490fd5b50600154821115611d8d565b90600182811c92168015612107575b60208310146120f157565b634e487b7160e01b600052602260045260246000fd5b91607f16916120e6565b606081019081106001600160401b03821117610b5357604052565b608081019081106001600160401b03821117610b5357604052565b61018081019081106001600160401b03821117610b5357604052565b604081019081106001600160401b03821117610b5357604052565b90601f801991011681019081106001600160401b03821117610b5357604052565b90604051918260008254926121b3846120d7565b90818452600194858116908160001461222257506001146121df575b50506121dd9250038361217e565b565b9093915060005260209081600020936000915b81831061220a5750506121dd935082010138806121cf565b855488840185015294850194879450918301916121f2565b9150506121dd94506020925060ff191682840152151560051b82010138806121cf565b919082519283825260005b848110612271575050826000602080949584010152601f8019910116010190565b602081830181015184830182015201612250565b6001600160401b038111610b5357601f01601f191660200190565b81601f820112156101d0578035906122b782612285565b926122c5604051948561217e565b828452602083830101116101d057816000926020809301838601378301015290565b600435906001600160a01b03821682036101d057565b908082519081815260208091019281808460051b8301019501936000915b84831061232b5750505050505090565b9091929394958480600192601f1985820301865289519061236761235783516060808552840190612245565b8484015183820386850152612245565b91604080910151910152980193019301919493929061231b565b80548210156123995760005260206000200190600090565b634e487b7160e01b600052603260045260246000fd5b906040516123bc8161212c565b60606123f1600383956123ce8161219f565b8552600181015460208601526123e66002820161219f565b60408601520161219f565b910152565b9060058210156106715752565b8054821015612399576000526003602060002091020190600090565b60058210156106715752565b9060058110156106715760ff80198354169116179055565b908154600160401b811015610b5357612463906001938482018155612403565b9290926126a1578151908151906001600160401b0391828111610b53578061248b87546120d7565b94601f9586811161264d575b506020908683116001146125ea576000926125df575b5050600019600383901b1c191690821b1785555b8085019260208501518051938411610b53576124dd85546120d7565b828111612597575b50602091841160011461252a5792806040959381936002989660009461251f575b50501b916000199060031b1c19161790555b0151910155565b015192503880612506565b90601f9392931983169185600052816000209260005b81811061258157509160029795939185604098969410612568575b505050811b019055612518565b015160001960f88460031b161c1916905538808061255b565b8284015185559386019360209384019301612540565b8560005260206000208380870160051c820192602088106125d6575b0160051c019084905b8281106125ca5750506124e5565b600081550184906125bc565b925081926125b3565b0151905038806124ad565b90849350601f1983169189600052816000209260005b8181106126355750841161261c575b505050811b0185556124c1565b015160001960f88460031b161c1916905538808061260f565b82840151855587969094019360209384019301612600565b9091506000888152602081208780860160051c82019360208710612698575b91879187969594930160051c01925b83811061268a57505050612497565b82815586955087910161267b565b9350819361266c565b634e487b7160e01b600052600060045260246000fd5b156126be57565b60405162461bcd60e51b815260206004820152601060248201526f125b9d985b1a59081bdc99195c88125160821b6044820152606490fd5b6040519061270382612163565b600982526810dbdb999a5c9b595960ba1b6020830152565b6040519061272882612163565b600982526811195b1a5d995c995960ba1b6020830152565b6040519061274d82612163565b600782526614da1a5c1c195960ca1b6020830152565b6040519061277082612163565b600a82526950726f63657373696e6760b01b6020830152565b9081546001600160401b038111610b53576040928351936020906127b2828560051b018761217e565b8386526000928352818320908287015b8585106127d157505050505050565b60038460019284516127e281612111565b6127eb8761219f565b81526127f885880161219f565b838201526002870154868201528152019301940193916127c2565b801515806129ad575b612825906126b7565b600081815260036020526040908181209282519361284285612147565b8054855260018101546001600160a01b039081166020870152600282015416848601526128716003820161219f565b606086015260049461288486830161219f565b6080820152612895600583016123af565b60a0820152600982015460c0820152610160600d60ff600a85015416936128c060e08501958661241f565b600b81015461010085015260ff600c820154818116151561012087015260081c16151561014085015201549101528051600581101561299a57600214159081612983575b8161295b575b50612924576129219350815260066020522061219f565b90565b50909182519260208401918483106001600160401b03841117612948575052815290565b634e487b7160e01b845260419052602483fd5b9050516005811015612970578414153861290a565b634e487b7160e01b835260218552602483fd5b80915051600581101561299a576003141590612904565b634e487b7160e01b845260218652602484fd5b5060015481111561281c56fe1d49be5728f719b9fe6aedbb47b4c99078229864890af28ad5d08fdaebb595dfd9a86b644eb5f5b43cc8a700849852481080361c7a4b00ba646d1b46c5585f95a2646970667358221220f910d85b10ca9cae774da7e10f963d06a534f7510cddda74472f7f94b05579cc64736f6c63430008130033",
  "immutableReferences": {},
  "source": "// SPDX-License-Identifier: MIT\r\npragma solidity ^0.8.19;\r\n\r\ncontract OrderContract {\r\n    enum OrderStatus { Pending, Processing, Shipped, Delivered, Confirmed }\r\n    \r\n    string public companyName;\r\n    uint public orderCount;\r\n    address payable public owner;\r\n\r\n    constructor() {\r\n        orderCount = 0;\r\n        companyName = \"LegitLah\";\r\n        owner = payable(msg.sender);\r\n    }\r\n\r\n    struct Product {\r\n        string name;\r\n        uint price;\r\n        string imageUrl;\r\n        string description;\r\n    }\r\n\r\n    struct Order {\r\n        uint orderId;\r\n        address payable buyer;\r\n        address payable seller;\r\n        string buyerName;\r\n        string deliveryAddress;\r\n        Product product;\r\n        uint totalAmount;\r\n        OrderStatus status;\r\n        uint timestamp;\r\n        bool isPaid;\r\n        bool isReleased;\r\n        uint deliveredAt; \r\n    }\r\n\r\n    struct TrackingUpdate {\r\n        string status;\r\n        string description;\r\n        uint timestamp;\r\n    }\r\n\r\n    mapping(uint => Order) public orders;\r\n    mapping(uint => TrackingUpdate[]) public trackingHistory;\r\n    mapping(address => uint[]) public userOrders;\r\n    mapping(uint => string) public trackingNumbers; // Store tracking numbers\r\n\r\n    event OrderCreated(uint orderId, address buyer, uint amount);\r\n    event OrderPaid(uint orderId, address buyer, uint amount);\r\n    event OrderStatusUpdated(uint orderId, OrderStatus status);\r\n    event DeliveryConfirmed(uint orderId, address buyer);\r\n    event TrackingNumberUpdated(uint orderId, string trackingNumber);\r\n\r\n    // Create a new order\r\n    function createOrder(\r\n        string memory _buyerName,\r\n        string memory _deliveryAddress,\r\n        string memory _productName,\r\n        uint _price,\r\n        string memory _imageUrl,\r\n        string memory _description\r\n    ) public payable returns (uint) {\r\n        require(msg.value >= _price, \"Insufficient payment for order\");\r\n        \r\n        orderCount++;\r\n        \r\n        Product memory newProduct = Product({\r\n            name: _productName,\r\n            price: _price,\r\n            imageUrl: _imageUrl,\r\n            description: _description\r\n        });\r\n        \r\n        orders[orderCount] = Order({\r\n            orderId: orderCount,\r\n            buyer: payable(msg.sender),\r\n            seller: owner,\r\n            buyerName: _buyerName,\r\n            deliveryAddress: _deliveryAddress,\r\n            product: newProduct,\r\n            totalAmount: _price,\r\n            status: OrderStatus.Pending,\r\n            timestamp: block.timestamp,\r\n            isPaid: false,\r\n            isReleased: false,\r\n            deliveredAt: 0\r\n        });\r\n        \r\n        userOrders[msg.sender].push(orderCount);\r\n        \r\n        // Add initial tracking\r\n        trackingHistory[orderCount].push(TrackingUpdate({\r\n            status: \"Order Created\",\r\n            description: \"Your order has been created and is pending\",\r\n            timestamp: block.timestamp\r\n        }));\r\n        \r\n        emit OrderCreated(orderCount, msg.sender, _price);\r\n        emit OrderPaid(orderCount, msg.sender, msg.value);\r\n        return orderCount;\r\n    }\r\n\r\n    // Pay for order (kept for backward compatibility)\r\n    function payForOrder(uint _orderId) public payable {\r\n        require(_orderId > 0 && _orderId <= orderCount, \"Invalid order ID\");\r\n        Order storage order = orders[_orderId];\r\n        require(msg.sender == order.buyer, \"Only buyer can pay\");\r\n        require(!order.isPaid, \"Order already paid\");\r\n        require(msg.value >= order.totalAmount, \"Insufficient payment\");\r\n        \r\n        order.isPaid = true;\r\n        order.status = OrderStatus.Processing;\r\n        \r\n        trackingHistory[_orderId].push(TrackingUpdate({\r\n            status: \"Payment Received\",\r\n            description: \"Payment has been received and order is being processed\",\r\n            timestamp: block.timestamp\r\n        }));\r\n        \r\n        emit OrderPaid(_orderId, msg.sender, msg.value);\r\n        emit OrderStatusUpdated(_orderId, OrderStatus.Processing);\r\n    }\r\n\r\n    // Update order status (only contract owner or authorized parties)\r\n    function updateOrderStatus(uint _orderId, OrderStatus _status, string memory _description) public {\r\n        require(_orderId > 0 && _orderId <= orderCount, \"Invalid order ID\");\r\n        Order storage order = orders[_orderId];\r\n        \r\n        order.status = _status;\r\n        \r\n        string memory statusText;\r\n        if (_status == OrderStatus.Processing) {\r\n            statusText = \"Processing\";\r\n        } else if (_status == OrderStatus.Shipped) {\r\n            statusText = \"Shipped\";\r\n        } else if (_status == OrderStatus.Delivered) {\r\n            statusText = \"Delivered\";\r\n            if (order.deliveredAt == 0) {\r\n                order.deliveredAt = block.timestamp;\r\n            }\r\n        } else if (_status == OrderStatus.Confirmed) {\r\n            statusText = \"Confirmed\";\r\n        }\r\n        \r\n        trackingHistory[_orderId].push(TrackingUpdate({\r\n            status: statusText,\r\n            description: _description,\r\n            timestamp: block.timestamp\r\n        }));\r\n        \r\n        emit OrderStatusUpdated(_orderId, _status);\r\n    }\r\n\r\n    // Update order status with tracking number (for shipping)\r\n    function updateOrderStatusWithTracking(uint _orderId, OrderStatus _status, string memory _description, string memory _trackingNumber) public {\r\n        require(_orderId > 0 && _orderId <= orderCount, \"Invalid order ID\");\r\n        Order storage order = orders[_orderId];\r\n        \r\n        order.status = _status;\r\n        \r\n        // Store tracking number if status is Shipped\r\n        if (_status == OrderStatus.Shipped && bytes(_trackingNumber).length > 0) {\r\n            trackingNumbers[_orderId] = _trackingNumber;\r\n            emit TrackingNumberUpdated(_orderId, _trackingNumber);\r\n        }\r\n        \r\n        string memory statusText;\r\n        if (_status == OrderStatus.Processing) {\r\n            statusText = \"Processing\";\r\n        } else if (_status == OrderStatus.Shipped) {\r\n            statusText = \"Shipped\";\r\n        } else if (_status == OrderStatus.Delivered) {\r\n            statusText = \"Delivered\";\r\n            if (order.deliveredAt == 0) {\r\n                order.deliveredAt = block.timestamp;\r\n            }\r\n        } else if (_status == OrderStatus.Confirmed) {\r\n            statusText = \"Confirmed\";\r\n        }\r\n        \r\n        trackingHistory[_orderId].push(TrackingUpdate({\r\n            status: statusText,\r\n            description: _description,\r\n            timestamp: block.timestamp\r\n        }));\r\n        \r\n        emit OrderStatusUpdated(_orderId, _status);\r\n    }\r\n\r\n    // Confirm delivery by buyer\r\n    function confirmDelivery(uint _orderId, bool _received) public {\r\n        require(_orderId > 0 && _orderId <= orderCount, \"Invalid order ID\");\r\n        Order storage order = orders[_orderId];\r\n        require(msg.sender == order.buyer, \"Only buyer can confirm delivery\");\r\n        require(order.status == OrderStatus.Delivered, \"Order not yet delivered\");\r\n        \r\n        if (_received) {\r\n            order.status = OrderStatus.Confirmed;\r\n            order.isPaid = true;\r\n            if (order.deliveredAt == 0) {\r\n                order.deliveredAt = block.timestamp;\r\n            }\r\n            \r\n            trackingHistory[_orderId].push(TrackingUpdate({\r\n                status: \"Confirmed\",\r\n                description: \"Delivery confirmed by customer\",\r\n                timestamp: block.timestamp\r\n            }));\r\n\r\n            // Release payment to seller only after buyer confirms delivery\r\n            if (!order.isReleased && order.totalAmount > 0) {\r\n                order.isReleased = true;\r\n                (bool success, ) = order.seller.call{value: order.totalAmount}(\"\");\r\n                require(success, \"Payment release failed\");\r\n            }\r\n            \r\n            emit OrderPaid(_orderId, msg.sender, order.totalAmount);\r\n            emit DeliveryConfirmed(_orderId, msg.sender);\r\n        } else {\r\n            trackingHistory[_orderId].push(TrackingUpdate({\r\n                status: \"Refund Requested\",\r\n                description: \"Customer reported item not received\",\r\n                timestamp: block.timestamp\r\n            }));\r\n        }\r\n    }\r\n\r\n    // Get order details\r\n    function getOrder(uint _orderId) public view returns (\r\n        uint orderId,\r\n        address buyer,\r\n        address seller,\r\n        string memory buyerName,\r\n        string memory deliveryAddress,\r\n        string memory productName,\r\n        uint price,\r\n        string memory imageUrl,\r\n        uint totalAmount,\r\n        OrderStatus status,\r\n        uint timestamp,\r\n        bool isPaid,\r\n        bool isReleased,\r\n        uint deliveredAt\r\n    ) {\r\n        require(_orderId > 0 && _orderId <= orderCount, \"Invalid order ID\");\r\n        Order memory order = orders[_orderId];\r\n        \r\n        return (\r\n            order.orderId,\r\n            order.buyer,\r\n            order.seller,\r\n            order.buyerName,\r\n            order.deliveryAddress,\r\n            order.product.name,\r\n            order.product.price,\r\n            order.product.imageUrl,\r\n            order.totalAmount,\r\n            order.status,\r\n            order.timestamp,\r\n            order.isPaid,\r\n            order.isReleased,\r\n            order.deliveredAt\r\n        );\r\n    }\r\n\r\n    // Get tracking history\r\n    function getTrackingHistory(uint _orderId) public view returns (TrackingUpdate[] memory) {\r\n        require(_orderId > 0 && _orderId <= orderCount, \"Invalid order ID\");\r\n        return trackingHistory[_orderId];\r\n    }\r\n\r\n    // Get user's orders\r\n    function getUserOrders(address _user) public view returns (uint[] memory) {\r\n        return userOrders[_user];\r\n    }\r\n\r\n    // Get order count\r\n    function getOrderCount() public view returns (uint) {\r\n        return orderCount;\r\n    }\r\n\r\n    // Get complete tracking info - accessible by both buyer and seller\r\n    function getFullTrackingInfo(uint _orderId) public view returns (\r\n        uint orderId,\r\n        string memory productName,\r\n        string memory currentStatus,\r\n        TrackingUpdate[] memory history\r\n    ) {\r\n        require(_orderId > 0 && _orderId <= orderCount, \"Invalid order ID\");\r\n        Order memory order = orders[_orderId];\r\n        require(\r\n            msg.sender == order.buyer || msg.sender == order.seller,\r\n            \"Only buyer or seller can view tracking information\"\r\n        );\r\n        \r\n        string memory statusText;\r\n        if (order.status == OrderStatus.Processing) {\r\n            statusText = \"Processing\";\r\n        } else if (order.status == OrderStatus.Shipped) {\r\n            statusText = \"Shipped\";\r\n        } else if (order.status == OrderStatus.Delivered) {\r\n            statusText = \"Delivered\";\r\n        } else if (order.status == OrderStatus.Confirmed) {\r\n            statusText = \"Confirmed\";\r\n        } else {\r\n            statusText = \"Pending\";\r\n        }\r\n        \r\n        return (\r\n            orderId,\r\n            order.product.name,\r\n            statusText,\r\n            trackingHistory[_orderId]\r\n        );\r\n    }\r\n\r\n    // Update tracking number - can be called by seller or admin\r\n    function updateTrackingNumber(uint _orderId, string memory _trackingNumber) public {\r\n        require(_orderId > 0 && _orderId <= orderCount, \"Invalid order ID\");\r\n        require(bytes(_trackingNumber).length > 0, \"Tracking number cannot be empty\");\r\n        \r\n        Order storage order = orders[_orderId];\r\n        require(msg.sender == order.seller || msg.sender == owner, \"Only seller or owner can update tracking number\");\r\n        require(order.status == OrderStatus.Shipped, \"Order must be shipped first\");\r\n        \r\n        trackingNumbers[_orderId] = _trackingNumber;\r\n        \r\n        emit TrackingNumberUpdated(_orderId, _trackingNumber);\r\n    }\r\n\r\n    // Get tracking number - accessible by both buyer and seller\r\n    function getTrackingNumber(uint _orderId) public view returns (string memory) {\r\n        require(_orderId > 0 && _orderId <= orderCount, \"Invalid order ID\");\r\n        Order memory order = orders[_orderId];\r\n        \r\n        // Allow any connected user to view if order exists - access control is lenient for tracking\r\n        // But still check that order is in proper status\r\n        if (order.status != OrderStatus.Shipped && order.status != OrderStatus.Delivered && order.status != OrderStatus.Confirmed) {\r\n            return \"\"; // Return empty string if not shipped yet\r\n        }\r\n        \r\n        return trackingNumbers[_orderId]; // Return tracking number (may be empty if not set)\r\n    }\r\n}\r\n",
  "sourcePath": "C:\\Users\\User\\C373Projects\\Fa_Team3\\contracts\\OrderContract.sol",
  "compiler": {
    "name": "solc",
    "version": "0.8.19+commit.7dd6d404.Emscripten.clang"
  },
  "schemaVersion": "3.4.16",
  "updatedAt": "2026-01-24T09:38:14.606Z",
  "networkType": "ethereum",
  "devdoc": {
    "kind": "dev",
    "methods": {},
    "version": 1
  },
  "userdoc": {
    "kind": "user",
    "methods": {},
    "version": 1
  }
}