{
  "contractName": "OrderContract",
  "abi": [
    {
      "inputs": [],
      "stateMutability": "nonpayable",
      "type": "constructor"
    },
    {
      "anonymous": false,
      "inputs": [
        {
          "indexed": false,
          "internalType": "uint256",
          "name": "orderId",
          "type": "uint256"
        },
        {
          "indexed": false,
          "internalType": "address",
          "name": "buyer",
          "type": "address"
        }
      ],
      "name": "DeliveryConfirmed",
      "type": "event"
    },
    {
      "anonymous": false,
      "inputs": [
        {
          "indexed": false,
          "internalType": "uint256",
          "name": "orderId",
          "type": "uint256"
        },
        {
          "indexed": false,
          "internalType": "address",
          "name": "buyer",
          "type": "address"
        },
        {
          "indexed": false,
          "internalType": "uint256",
          "name": "amount",
          "type": "uint256"
        }
      ],
      "name": "OrderCreated",
      "type": "event"
    },
    {
      "anonymous": false,
      "inputs": [
        {
          "indexed": false,
          "internalType": "uint256",
          "name": "orderId",
          "type": "uint256"
        },
        {
          "indexed": false,
          "internalType": "address",
          "name": "buyer",
          "type": "address"
        },
        {
          "indexed": false,
          "internalType": "uint256",
          "name": "amount",
          "type": "uint256"
        }
      ],
      "name": "OrderPaid",
      "type": "event"
    },
    {
      "anonymous": false,
      "inputs": [
        {
          "indexed": false,
          "internalType": "uint256",
          "name": "orderId",
          "type": "uint256"
        },
        {
          "indexed": false,
          "internalType": "enum OrderContract.OrderStatus",
          "name": "status",
          "type": "uint8"
        }
      ],
      "name": "OrderStatusUpdated",
      "type": "event"
    },
    {
      "inputs": [],
      "name": "companyName",
      "outputs": [
        {
          "internalType": "string",
          "name": "",
          "type": "string"
        }
      ],
      "stateMutability": "view",
      "type": "function",
      "constant": true
    },
    {
      "inputs": [],
      "name": "orderCount",
      "outputs": [
        {
          "internalType": "uint256",
          "name": "",
          "type": "uint256"
        }
      ],
      "stateMutability": "view",
      "type": "function",
      "constant": true
    },
    {
      "inputs": [
        {
          "internalType": "uint256",
          "name": "",
          "type": "uint256"
        }
      ],
      "name": "orders",
      "outputs": [
        {
          "internalType": "uint256",
          "name": "orderId",
          "type": "uint256"
        },
        {
          "internalType": "address payable",
          "name": "buyer",
          "type": "address"
        },
        {
          "internalType": "address payable",
          "name": "seller",
          "type": "address"
        },
        {
          "internalType": "string",
          "name": "buyerName",
          "type": "string"
        },
        {
          "components": [
            {
              "internalType": "string",
              "name": "name",
              "type": "string"
            },
            {
              "internalType": "uint256",
              "name": "price",
              "type": "uint256"
            },
            {
              "internalType": "string",
              "name": "imageUrl",
              "type": "string"
            },
            {
              "internalType": "string",
              "name": "description",
              "type": "string"
            }
          ],
          "internalType": "struct OrderContract.Product",
          "name": "product",
          "type": "tuple"
        },
        {
          "internalType": "uint256",
          "name": "totalAmount",
          "type": "uint256"
        },
        {
          "internalType": "enum OrderContract.OrderStatus",
          "name": "status",
          "type": "uint8"
        },
        {
          "internalType": "uint256",
          "name": "timestamp",
          "type": "uint256"
        },
        {
          "internalType": "bool",
          "name": "isPaid",
          "type": "bool"
        },
        {
          "internalType": "bool",
          "name": "isReleased",
          "type": "bool"
        }
      ],
      "stateMutability": "view",
      "type": "function",
      "constant": true
    },
    {
      "inputs": [],
      "name": "owner",
      "outputs": [
        {
          "internalType": "address payable",
          "name": "",
          "type": "address"
        }
      ],
      "stateMutability": "view",
      "type": "function",
      "constant": true
    },
    {
      "inputs": [
        {
          "internalType": "uint256",
          "name": "",
          "type": "uint256"
        },
        {
          "internalType": "uint256",
          "name": "",
          "type": "uint256"
        }
      ],
      "name": "trackingHistory",
      "outputs": [
        {
          "internalType": "string",
          "name": "status",
          "type": "string"
        },
        {
          "internalType": "string",
          "name": "description",
          "type": "string"
        },
        {
          "internalType": "uint256",
          "name": "timestamp",
          "type": "uint256"
        }
      ],
      "stateMutability": "view",
      "type": "function",
      "constant": true
    },
    {
      "inputs": [
        {
          "internalType": "address",
          "name": "",
          "type": "address"
        },
        {
          "internalType": "uint256",
          "name": "",
          "type": "uint256"
        }
      ],
      "name": "userOrders",
      "outputs": [
        {
          "internalType": "uint256",
          "name": "",
          "type": "uint256"
        }
      ],
      "stateMutability": "view",
      "type": "function",
      "constant": true
    },
    {
      "inputs": [
        {
          "internalType": "string",
          "name": "_buyerName",
          "type": "string"
        },
        {
          "internalType": "string",
          "name": "_productName",
          "type": "string"
        },
        {
          "internalType": "uint256",
          "name": "_price",
          "type": "uint256"
        },
        {
          "internalType": "string",
          "name": "_imageUrl",
          "type": "string"
        },
        {
          "internalType": "string",
          "name": "_description",
          "type": "string"
        }
      ],
      "name": "createOrder",
      "outputs": [
        {
          "internalType": "uint256",
          "name": "",
          "type": "uint256"
        }
      ],
      "stateMutability": "nonpayable",
      "type": "function"
    },
    {
      "inputs": [
        {
          "internalType": "uint256",
          "name": "_orderId",
          "type": "uint256"
        }
      ],
      "name": "payForOrder",
      "outputs": [],
      "stateMutability": "payable",
      "type": "function",
      "payable": true
    },
    {
      "inputs": [
        {
          "internalType": "uint256",
          "name": "_orderId",
          "type": "uint256"
        },
        {
          "internalType": "enum OrderContract.OrderStatus",
          "name": "_status",
          "type": "uint8"
        },
        {
          "internalType": "string",
          "name": "_description",
          "type": "string"
        }
      ],
      "name": "updateOrderStatus",
      "outputs": [],
      "stateMutability": "nonpayable",
      "type": "function"
    },
    {
      "inputs": [
        {
          "internalType": "uint256",
          "name": "_orderId",
          "type": "uint256"
        },
        {
          "internalType": "bool",
          "name": "_received",
          "type": "bool"
        }
      ],
      "name": "confirmDelivery",
      "outputs": [],
      "stateMutability": "nonpayable",
      "type": "function"
    },
    {
      "inputs": [
        {
          "internalType": "uint256",
          "name": "_orderId",
          "type": "uint256"
        }
      ],
      "name": "getOrder",
      "outputs": [
        {
          "internalType": "uint256",
          "name": "orderId",
          "type": "uint256"
        },
        {
          "internalType": "address",
          "name": "buyer",
          "type": "address"
        },
        {
          "internalType": "address",
          "name": "seller",
          "type": "address"
        },
        {
          "internalType": "string",
          "name": "buyerName",
          "type": "string"
        },
        {
          "internalType": "string",
          "name": "productName",
          "type": "string"
        },
        {
          "internalType": "uint256",
          "name": "price",
          "type": "uint256"
        },
        {
          "internalType": "string",
          "name": "imageUrl",
          "type": "string"
        },
        {
          "internalType": "uint256",
          "name": "totalAmount",
          "type": "uint256"
        },
        {
          "internalType": "enum OrderContract.OrderStatus",
          "name": "status",
          "type": "uint8"
        },
        {
          "internalType": "uint256",
          "name": "timestamp",
          "type": "uint256"
        },
        {
          "internalType": "bool",
          "name": "isPaid",
          "type": "bool"
        },
        {
          "internalType": "bool",
          "name": "isReleased",
          "type": "bool"
        }
      ],
      "stateMutability": "view",
      "type": "function",
      "constant": true
    },
    {
      "inputs": [
        {
          "internalType": "uint256",
          "name": "_orderId",
          "type": "uint256"
        }
      ],
      "name": "getTrackingHistory",
      "outputs": [
        {
          "components": [
            {
              "internalType": "string",
              "name": "status",
              "type": "string"
            },
            {
              "internalType": "string",
              "name": "description",
              "type": "string"
            },
            {
              "internalType": "uint256",
              "name": "timestamp",
              "type": "uint256"
            }
          ],
          "internalType": "struct OrderContract.TrackingUpdate[]",
          "name": "",
          "type": "tuple[]"
        }
      ],
      "stateMutability": "view",
      "type": "function",
      "constant": true
    },
    {
      "inputs": [
        {
          "internalType": "address",
          "name": "_user",
          "type": "address"
        }
      ],
      "name": "getUserOrders",
      "outputs": [
        {
          "internalType": "uint256[]",
          "name": "",
          "type": "uint256[]"
        }
      ],
      "stateMutability": "view",
      "type": "function",
      "constant": true
    },
    {
      "inputs": [],
      "name": "getOrderCount",
      "outputs": [
        {
          "internalType": "uint256",
          "name": "",
          "type": "uint256"
        }
      ],
      "stateMutability": "view",
      "type": "function",
      "constant": true
    }
  ],
  "bytecode": "0x608080604052346100aa576000600181815581548181811c911680156100a0575b602082101461008c57601f8111610063575b5050600e66098caced298c2d60cb1b019055600280546001600160a01b03191633179055611c019081620000b08239f35b828052601f60208420910160051c8101905b8181106100825750610032565b8381558201610075565b634e487b7160e01b83526022600452602483fd5b90607f1690610020565b600080fdfe6080604052600436101561001257600080fd5b60003560e01c806304ef0781146112f25780632453ffa8146108a957806360e1102e1461117257806363c69f08146110be5780637c93f6641461091f578063856652e9146108c75780638d0a5fbb146108a95780638da5cb5b14610880578063a85c38ef14610769578063c36034e214610603578063d09ef24114610464578063d9c2dcee14610224578063e097b6b11461019e5763f5ec2eed146100b657600080fd5b3461019957600036600319011261019957604051600080546100d78161174b565b808452906001908181169081156101725750600114610119575b6101158461010181860382611684565b604051918291602083526020830190611872565b0390f35b600080805292507f290decd9548b62a8d60345a988386fc84ba6bc95484008f6362f93160ef3e5635b82841061015a575050508101602001610101826100f1565b80546020858701810191909152909301928101610142565b60ff191660208087019190915292151560051b8501909201925061010191508390506100f1565b600080fd5b34610199576040366003190112610199576024356004356000526004602052604060002080548210156101995761020c916101d8916118bf565b506101e281611785565b9061021a60026101f460018401611785565b92015491604051948594606086526060860190611872565b908482036020860152611872565b9060408301520390f35b602080600319360112610199576004359081151580610458575b61024790611b67565b6000828152600382526040902060018101546001600160a01b0316330361041e57600b81019081549160ff83166103e457600882015434106103a857927fd9a86b644eb5f5b43cc8a700849852481080361c7a4b00ba646d1b46c5585f9594926001600981946040978360ff1980961617905501918254161790558260005260048152610366846000208551906102dd82611617565b86516102e881611669565b601081526f14185e5b595b9d08149958d95a5d995960821b858201528252865161031181611617565b603681527f5061796d656e7420686173206265656e20726563656976656420616e64206f72858201527519195c881a5cc818995a5b99c81c1c9bd8d95cdcd95960521b888201528483015242878301526118f3565b83518381523360208201523460408201527fa4678e82fe7b97eb2133ead828ed5d14ebb0c83961617dc347b698964d070b6690606090a18351928352820152a1005b60405162461bcd60e51b8152600481018590526014602482015273125b9cdd59999a58da595b9d081c185e5b595b9d60621b6044820152606490fd5b60405162461bcd60e51b815260048101859052601260248201527113dc99195c88185b1c9958591e481c185a5960721b6044820152606490fd5b60405162461bcd60e51b81526004810183905260126024820152714f6e6c792062757965722063616e2070617960701b6044820152606490fd5b5060015482111561023e565b3461019957602036600319011261019957600435801515806105f7575b61048a90611b67565b60005260036020526040600020604051906104a48261164d565b8054825260018101546001600160a01b0390811660208401908152600283015482166040850190815293909291906104de60038401611785565b92606082019384526104f26004820161182b565b9160808101928352600882015460a0820190815260ff6009840154169060058210156105e1578160c0840152600a840154938460e0850152600b01549060ff821615159561010092878487015260081c60ff1615159780610120968a88820152519b51169b511698519051908151906020830151926040015193519a6040519d8e809e81526020015260408d01528b6101806060819201528c0161059591611872565b8b810360808d01526105a691611872565b9060a08b015289810360c08b01526105bd91611872565b9660e089015287016105ce916118b2565b8501526101408401526101608301520390f35b634e487b7160e01b600052602160045260246000fd5b50600154811115610481565b3461019957602080600319360112610199576004358015158061075d575b61062a90611b67565b6000526004815260406000208054906001600160401b0382116107475782906040519261065c838260051b0185611684565b8084528284018092600052836000206000915b8383106106fd5750505050604051918083019381845251809452604083019360408160051b85010192916000955b8287106106aa5785850386f35b909192938280600192603f198982030185528751906040806106e76106d785516060808752860190611872565b8686015185820388870152611872565b930151910152960192019601959291909261069d565b60038660019260409998995161071281611617565b61071b86611785565b8152610728858701611785565b838201526002860154604082015281520192019201919095949561066f565b634e487b7160e01b600052604160045260246000fd5b50600154811115610621565b346101995760203660031901126101995760043560005260036020526040600020805460018060a01b039160ff83600183015416936002830154166107b060038401611785565b926108606107c06004830161182b565b946108506008840154966108038760098701541693600b600a880154970154976040519c8d9c8d5260208d015260408c01526101408060608d01528b0190611872565b89810360808b0152606061083f6108238451608085526080850190611872565b6020850151602085015260408501518482036040860152611872565b920151906060818403910152611872565b9560a088015260c08701906118b2565b60e0850152818116151561010085015260081c1615156101208301520390f35b34610199576000366003190112610199576002546040516001600160a01b039091168152602090f35b34610199576000366003190112610199576020600154604051908152f35b34610199576040366003190112610199576108e0611707565b6001600160a01b0316600090815260056020526040902080546024359190821015610199576020916109119161171d565b90546040519160031b1c8152f35b346101995760a0366003190112610199576004356001600160401b0381116101995761094f9036906004016116c0565b6024356001600160401b0381116101995761096e9036906004016116c0565b6064356001600160401b0381116101995761098d9036906004016116c0565b906084356001600160401b038111610199576109ad9036906004016116c0565b600154919060001983146110a8576001938484018555604051926109d084611632565b8352604435602084015260408301526060820152828060a01b036002541693604051946109fc8661164d565b848401865233602087015260408601526060850152608084015260443560a0840152600060c08401524260e084015260006101008401526000610120840152016000526003602052604060002090805182556001820160018060a01b03602083015116906bffffffffffffffffffffffff60a01b9182825416179055600283019060018060a01b036040840151169082541617905560608101519182516001600160401b03811161074757610ab4600383015461174b565b601f8111611061575b506020601f8211600114610ff35781929394600092610fe8575b50508160011b916000199060031b1c19161760038201555b60808201519081519283516001600160401b03811161074757610b15600484015461174b565b601f8111610fa1575b506020601f8211600114610f32578192939495600092610f27575b50508160011b916000199060031b1c19161760048301555b6020830151600583015560408301519283516001600160401b03811161074757610b7e600685015461174b565b601f8111610ee0575b506020601f8211600114610e6d5781906060949596600092610e62575b50508160011b916000199060031b1c19161760068501555b01519182516001600160401b03811161074757610bdc600783015461174b565b601f8111610e1b575b506020601f8211600114610dad5781929394600092610da2575b50508160011b916000199060031b1c19161760078201555b60a0820151600882015560c08201519060058210156105e157610c3f600b92600983016118db565b60e0830151600a820155019061010081015115159060ff61ff006101208554930151151560081b1692169061ffff1916171790553360005260056020526040600020600154908054600160401b81101561074757610ca29160018201815561171d565b819291549060031b91821b91600019901b19161790556001546000526004602052610d46604060002060405190610cd882611617565b604051610ce481611669565b600d81526c13dc99195c8810dc99585d1959609a1b60208201528252604051610d0c81611669565b601b81527f596f7572206f7264657220686173206265656e20637265617465640000000000602082015260208301524260408301526118f3565b60206001547f28eb86fd03c9bd96a8a83e4a46ab2ad257b70cea893d98ad6d482e96aa25fad060405180610d976044353386846040919493926060820195825260018060a01b031660208201520152565b0390a1604051908152f35b015190508480610bff565b6007830160005260206000209060005b601f1984168110610e035750600193949583601f19811610610dea575b505050811b016007820155610c17565b015160001960f88460031b161c19169055848080610dda565b9091602060018192858a015181550193019101610dbd565b600783016000526020600020601f830160051c810160208410610e5b575b601f830160051c82018110610e4f575050610be5565b60008155600101610e39565b5080610e39565b015190508680610ba4565b6006850160005260206000209560005b601f1984168110610ec857509582916060959697600194601f19811610610eaf575b505050811b016006850155610bbc565b015160001960f88460031b161c19169055868080610e9f565b82820151885560019097019660209283019201610e7d565b600685016000526020600020601f830160051c810160208410610f20575b601f830160051c82018110610f14575050610b87565b60008155600101610efe565b5080610efe565b015190508580610b39565b6004840160005260206000209060005b601f1984168110610f89575060019394959683601f19811610610f70575b505050811b016004830155610b51565b015160001960f88460031b161c19169055858080610f60565b9091602060018192858b015181550193019101610f42565b600484016000526020600020601f830160051c810160208410610fe1575b601f830160051c82018110610fd5575050610b1e565b60008155600101610fbf565b5080610fbf565b015190508480610ad7565b6003830160005260206000209060005b601f19841681106110495750600193949583601f19811610611030575b505050811b016003820155610aef565b015160001960f88460031b161c19169055848080611020565b9091602060018192858a015181550193019101611003565b600383016000526020600020601f830160051c8101602084106110a1575b601f830160051c82018110611095575050610abd565b6000815560010161107f565b508061107f565b634e487b7160e01b600052601160045260246000fd5b3461019957602080600319360112610199576001600160a01b036110e0611707565b1660005260058152604060002060405190818382549182815201908192600052846000209060005b8682821061115e57868661111e82880383611684565b604051928392818401908285525180915260408401929160005b82811061114757505050500390f35b835185528695509381019392810192600101611138565b835485529093019260019283019201611108565b3461019957606036600319011261019957600435602435600581101561019957604435916001600160401b0383116101995761126d6040926111d97fd9a86b644eb5f5b43cc8a700849852481080361c7a4b00ba646d1b46c5585f959536906004016116c0565b831515806112e6575b6111eb90611b67565b836000526112606020916003835261120984600989600020016118db565b6060600185036112705750865161121f81611669565b600a81526950726f63657373696e6760b01b84820152905b8660005260048452876000209088519261125084611617565b83528483015242888301526118f3565b84519384528301906118b2565ba1005b6002850361129e5750865161128481611669565b600781526614da1a5c1c195960ca1b84820152905b611237565b600385036112cd575086516112b281611669565b600981526811195b1a5d995c995960ba1b8482015290611237565b90600485036112995790506112e0611ba6565b90611237565b506001548411156111e2565b34610199576040366003190112610199576004356024358015158103610199578115158061160b575b61132490611b67565b816000526020906003825260406000209060018060a01b03908160018401541633036115c657600983019060ff82541660058110156105e15760030361158157156114e557600460ff1982541617905583600052600483526113df60406000206040519061139182611617565b611399611ba6565b82526040516113a781611669565b601e81527f44656c697665727920636f6e6669726d656420627920637573746f6d6572000087820152868301524260408301526118f3565b600b8201805460ff8116806114d7575b806114ca575b611430575b505050507f64a783c6150854ae756454311c7625a965c757996ba8cc1a8c6205380f3372509160409182519182523390820152a1005b600093600885948594610100869561ff001916179055600283015416910154905af13d156114c5573d611462816116a5565b906114706040519283611684565b81526000833d92013e5b1561148857828080806113fa565b6064906040519062461bcd60e51b82526004820152601660248201527514185e5b595b9d081c995b19585cd94819985a5b195960521b6044820152fd5b61147a565b50600884015415156113f5565b5060ff8160081c16156113ef565b50505061157f916000526004815260406000206040519161150583611617565b60405161151181611669565b601081526f1499599d5b990814995c5d595cdd195960821b8282015283526040519061153c82611617565b602382527f437573746f6d6572207265706f72746564206974656d206e6f7420726563656981830152621d995960ea1b60408301528301524260408301526118f3565b005b60405162461bcd60e51b815260048101869052601760248201527f4f72646572206e6f74207965742064656c6976657265640000000000000000006044820152606490fd5b60405162461bcd60e51b815260048101859052601f60248201527f4f6e6c792062757965722063616e20636f6e6669726d2064656c6976657279006044820152606490fd5b5060015482111561131b565b606081019081106001600160401b0382111761074757604052565b608081019081106001600160401b0382111761074757604052565b61014081019081106001600160401b0382111761074757604052565b604081019081106001600160401b0382111761074757604052565b90601f801991011681019081106001600160401b0382111761074757604052565b6001600160401b03811161074757601f01601f191660200190565b81601f82011215610199578035906116d7826116a5565b926116e56040519485611684565b8284526020838301011161019957816000926020809301838601378301015290565b600435906001600160a01b038216820361019957565b80548210156117355760005260206000200190600090565b634e487b7160e01b600052603260045260246000fd5b90600182811c9216801561177b575b602083101461176557565b634e487b7160e01b600052602260045260246000fd5b91607f169161175a565b90604051918260008254926117998461174b565b90818452600194858116908160001461180857506001146117c5575b50506117c392500383611684565b565b9093915060005260209081600020936000915b8183106117f05750506117c3935082010138806117b5565b855488840185015294850194879450918301916117d8565b9150506117c394506020925060ff191682840152151560051b82010138806117b5565b9060405161183881611632565b606061186d6003839561184a81611785565b85526001810154602086015261186260028201611785565b604086015201611785565b910152565b919082519283825260005b84811061189e575050826000602080949584010152601f8019910116010190565b60208183018101518483018201520161187d565b9060058210156105e15752565b8054821015611735576000526003602060002091020190600090565b9060058110156105e15760ff80198354169116179055565b908154600160401b811015610747576119139060019384820181556118bf565b929092611b51578151908151906001600160401b0391828111610747578061193b875461174b565b94601f95868111611afd575b50602090868311600114611a9a57600092611a8f575b5050600019600383901b1c191690821b1785555b80850192602085015180519384116107475761198d855461174b565b828111611a47575b5060209184116001146119da579280604095938193600298966000946119cf575b50501b916000199060031b1c19161790555b0151910155565b0151925038806119b6565b90601f9392931983169185600052816000209260005b818110611a3157509160029795939185604098969410611a18575b505050811b0190556119c8565b015160001960f88460031b161c19169055388080611a0b565b82840151855593860193602093840193016119f0565b8560005260206000208380870160051c82019260208810611a86575b0160051c019084905b828110611a7a575050611995565b60008155018490611a6c565b92508192611a63565b01519050388061195d565b90849350601f1983169189600052816000209260005b818110611ae557508411611acc575b505050811b018555611971565b015160001960f88460031b161c19169055388080611abf565b82840151855587969094019360209384019301611ab0565b9091506000888152602081208780860160051c82019360208710611b48575b91879187969594930160051c01925b838110611b3a57505050611947565b828155869550879101611b2b565b93508193611b1c565b634e487b7160e01b600052600060045260246000fd5b15611b6e57565b60405162461bcd60e51b815260206004820152601060248201526f125b9d985b1a59081bdc99195c88125160821b6044820152606490fd5b60405190611bb382611669565b600982526810dbdb999a5c9b595960ba1b602083015256fea2646970667358221220f6d1f7cb9fecc902b7d2cbef49e8b037ca9b37ac27d28ef3eb8b83201cf6bfcd64736f6c63430008130033",
  "immutableReferences": {},
  "source": "// SPDX-License-Identifier: MIT\r\npragma solidity ^0.8.19;\r\n\r\ncontract OrderContract {\r\n    enum OrderStatus { Pending, Processing, Shipped, Delivered, Confirmed }\r\n    \r\n    string public companyName;\r\n    uint public orderCount;\r\n    address payable public owner;\r\n\r\n    constructor() {\r\n        orderCount = 0;\r\n        companyName = \"LegiLah\";\r\n        owner = payable(msg.sender);\r\n    }\r\n\r\n    struct Product {\r\n        string name;\r\n        uint price;\r\n        string imageUrl;\r\n        string description;\r\n    }\r\n\r\n    struct Order {\r\n        uint orderId;\r\n        address payable buyer;\r\n        address payable seller;\r\n        string buyerName;\r\n        Product product;\r\n        uint totalAmount;\r\n        OrderStatus status;\r\n        uint timestamp;\r\n        bool isPaid;\r\n        bool isReleased;\r\n    }\r\n\r\n    struct TrackingUpdate {\r\n        string status;\r\n        string description;\r\n        uint timestamp;\r\n    }\r\n\r\n    mapping(uint => Order) public orders;\r\n    mapping(uint => TrackingUpdate[]) public trackingHistory;\r\n    mapping(address => uint[]) public userOrders;\r\n\r\n    event OrderCreated(uint orderId, address buyer, uint amount);\r\n    event OrderPaid(uint orderId, address buyer, uint amount);\r\n    event OrderStatusUpdated(uint orderId, OrderStatus status);\r\n    event DeliveryConfirmed(uint orderId, address buyer);\r\n\r\n    // Create a new order\r\n    function createOrder(\r\n        string memory _buyerName,\r\n        string memory _productName,\r\n        uint _price,\r\n        string memory _imageUrl,\r\n        string memory _description\r\n    ) public returns (uint) {\r\n        orderCount++;\r\n        \r\n        Product memory newProduct = Product({\r\n            name: _productName,\r\n            price: _price,\r\n            imageUrl: _imageUrl,\r\n            description: _description\r\n        });\r\n        \r\n        orders[orderCount] = Order({\r\n            orderId: orderCount,\r\n            buyer: payable(msg.sender),\r\n            seller: owner,\r\n            buyerName: _buyerName,\r\n            product: newProduct,\r\n            totalAmount: _price,\r\n            status: OrderStatus.Pending,\r\n            timestamp: block.timestamp,\r\n            isPaid: false,\r\n            isReleased: false\r\n        });\r\n        \r\n        userOrders[msg.sender].push(orderCount);\r\n        \r\n        // Add initial tracking\r\n        trackingHistory[orderCount].push(TrackingUpdate({\r\n            status: \"Order Created\",\r\n            description: \"Your order has been created\",\r\n            timestamp: block.timestamp\r\n        }));\r\n        \r\n        emit OrderCreated(orderCount, msg.sender, _price);\r\n        return orderCount;\r\n    }\r\n\r\n    // Pay for order\r\n    function payForOrder(uint _orderId) public payable {\r\n        require(_orderId > 0 && _orderId <= orderCount, \"Invalid order ID\");\r\n        Order storage order = orders[_orderId];\r\n        require(msg.sender == order.buyer, \"Only buyer can pay\");\r\n        require(!order.isPaid, \"Order already paid\");\r\n        require(msg.value >= order.totalAmount, \"Insufficient payment\");\r\n        \r\n        order.isPaid = true;\r\n        order.status = OrderStatus.Processing;\r\n        \r\n        trackingHistory[_orderId].push(TrackingUpdate({\r\n            status: \"Payment Received\",\r\n            description: \"Payment has been received and order is being processed\",\r\n            timestamp: block.timestamp\r\n        }));\r\n        \r\n        emit OrderPaid(_orderId, msg.sender, msg.value);\r\n        emit OrderStatusUpdated(_orderId, OrderStatus.Processing);\r\n    }\r\n\r\n    // Update order status (only contract owner or authorized parties)\r\n    function updateOrderStatus(uint _orderId, OrderStatus _status, string memory _description) public {\r\n        require(_orderId > 0 && _orderId <= orderCount, \"Invalid order ID\");\r\n        Order storage order = orders[_orderId];\r\n        \r\n        order.status = _status;\r\n        \r\n        string memory statusText;\r\n        if (_status == OrderStatus.Processing) {\r\n            statusText = \"Processing\";\r\n        } else if (_status == OrderStatus.Shipped) {\r\n            statusText = \"Shipped\";\r\n        } else if (_status == OrderStatus.Delivered) {\r\n            statusText = \"Delivered\";\r\n        } else if (_status == OrderStatus.Confirmed) {\r\n            statusText = \"Confirmed\";\r\n        }\r\n        \r\n        trackingHistory[_orderId].push(TrackingUpdate({\r\n            status: statusText,\r\n            description: _description,\r\n            timestamp: block.timestamp\r\n        }));\r\n        \r\n        emit OrderStatusUpdated(_orderId, _status);\r\n    }\r\n\r\n    // Confirm delivery by buyer\r\n    function confirmDelivery(uint _orderId, bool _received) public {\r\n        require(_orderId > 0 && _orderId <= orderCount, \"Invalid order ID\");\r\n        Order storage order = orders[_orderId];\r\n        require(msg.sender == order.buyer, \"Only buyer can confirm delivery\");\r\n        require(order.status == OrderStatus.Delivered, \"Order not yet delivered\");\r\n        \r\n        if (_received) {\r\n            order.status = OrderStatus.Confirmed;\r\n            \r\n            trackingHistory[_orderId].push(TrackingUpdate({\r\n                status: \"Confirmed\",\r\n                description: \"Delivery confirmed by customer\",\r\n                timestamp: block.timestamp\r\n            }));\r\n\r\n            // Release payment to seller only after buyer confirms delivery\r\n            if (order.isPaid && !order.isReleased && order.totalAmount > 0) {\r\n                order.isReleased = true;\r\n                (bool success, ) = order.seller.call{value: order.totalAmount}(\"\");\r\n                require(success, \"Payment release failed\");\r\n            }\r\n            \r\n            emit DeliveryConfirmed(_orderId, msg.sender);\r\n        } else {\r\n            trackingHistory[_orderId].push(TrackingUpdate({\r\n                status: \"Refund Requested\",\r\n                description: \"Customer reported item not received\",\r\n                timestamp: block.timestamp\r\n            }));\r\n        }\r\n    }\r\n\r\n    // Get order details\r\n    function getOrder(uint _orderId) public view returns (\r\n        uint orderId,\r\n        address buyer,\r\n        address seller,\r\n        string memory buyerName,\r\n        string memory productName,\r\n        uint price,\r\n        string memory imageUrl,\r\n        uint totalAmount,\r\n        OrderStatus status,\r\n        uint timestamp,\r\n        bool isPaid,\r\n        bool isReleased\r\n    ) {\r\n        require(_orderId > 0 && _orderId <= orderCount, \"Invalid order ID\");\r\n        Order memory order = orders[_orderId];\r\n        \r\n        return (\r\n            order.orderId,\r\n            order.buyer,\r\n            order.seller,\r\n            order.buyerName,\r\n            order.product.name,\r\n            order.product.price,\r\n            order.product.imageUrl,\r\n            order.totalAmount,\r\n            order.status,\r\n            order.timestamp,\r\n            order.isPaid,\r\n            order.isReleased\r\n        );\r\n    }\r\n\r\n    // Get tracking history\r\n    function getTrackingHistory(uint _orderId) public view returns (TrackingUpdate[] memory) {\r\n        require(_orderId > 0 && _orderId <= orderCount, \"Invalid order ID\");\r\n        return trackingHistory[_orderId];\r\n    }\r\n\r\n    // Get user's orders\r\n    function getUserOrders(address _user) public view returns (uint[] memory) {\r\n        return userOrders[_user];\r\n    }\r\n\r\n    // Get order count\r\n    function getOrderCount() public view returns (uint) {\r\n        return orderCount;\r\n    }\r\n}\r\n",
  "sourcePath": "C:\\Users\\User\\C373Projects\\Fa_Team3\\contracts\\OrderContract.sol",
  "compiler": {
    "name": "solc",
    "version": "0.8.19+commit.7dd6d404.Emscripten.clang"
  },
  "schemaVersion": "3.4.16",
  "updatedAt": "2026-01-23T05:40:04.847Z",
  "networkType": "ethereum",
  "devdoc": {
    "kind": "dev",
    "methods": {},
    "version": 1
  },
  "userdoc": {
    "kind": "user",
    "methods": {},
    "version": 1
  }
}