{
  "contractName": "OrderContract",
  "abi": [
    {
      "inputs": [],
      "stateMutability": "nonpayable",
      "type": "constructor"
    },
    {
      "anonymous": false,
      "inputs": [
        {
          "indexed": false,
          "internalType": "uint256",
          "name": "orderId",
          "type": "uint256"
        },
        {
          "indexed": false,
          "internalType": "address",
          "name": "buyer",
          "type": "address"
        }
      ],
      "name": "DeliveryConfirmed",
      "type": "event"
    },
    {
      "anonymous": false,
      "inputs": [
        {
          "indexed": false,
          "internalType": "uint256",
          "name": "orderId",
          "type": "uint256"
        },
        {
          "indexed": false,
          "internalType": "address",
          "name": "buyer",
          "type": "address"
        },
        {
          "indexed": false,
          "internalType": "uint256",
          "name": "amount",
          "type": "uint256"
        }
      ],
      "name": "OrderCreated",
      "type": "event"
    },
    {
      "anonymous": false,
      "inputs": [
        {
          "indexed": false,
          "internalType": "uint256",
          "name": "orderId",
          "type": "uint256"
        },
        {
          "indexed": false,
          "internalType": "address",
          "name": "buyer",
          "type": "address"
        },
        {
          "indexed": false,
          "internalType": "uint256",
          "name": "amount",
          "type": "uint256"
        }
      ],
      "name": "OrderPaid",
      "type": "event"
    },
    {
      "anonymous": false,
      "inputs": [
        {
          "indexed": false,
          "internalType": "uint256",
          "name": "orderId",
          "type": "uint256"
        },
        {
          "indexed": false,
          "internalType": "enum OrderContract.OrderStatus",
          "name": "status",
          "type": "uint8"
        }
      ],
      "name": "OrderStatusUpdated",
      "type": "event"
    },
    {
      "inputs": [],
      "name": "companyName",
      "outputs": [
        {
          "internalType": "string",
          "name": "",
          "type": "string"
        }
      ],
      "stateMutability": "view",
      "type": "function",
      "constant": true
    },
    {
      "inputs": [],
      "name": "orderCount",
      "outputs": [
        {
          "internalType": "uint256",
          "name": "",
          "type": "uint256"
        }
      ],
      "stateMutability": "view",
      "type": "function",
      "constant": true
    },
    {
      "inputs": [
        {
          "internalType": "uint256",
          "name": "",
          "type": "uint256"
        }
      ],
      "name": "orders",
      "outputs": [
        {
          "internalType": "uint256",
          "name": "orderId",
          "type": "uint256"
        },
        {
          "internalType": "address payable",
          "name": "buyer",
          "type": "address"
        },
        {
          "internalType": "string",
          "name": "buyerName",
          "type": "string"
        },
        {
          "components": [
            {
              "internalType": "string",
              "name": "name",
              "type": "string"
            },
            {
              "internalType": "uint256",
              "name": "price",
              "type": "uint256"
            },
            {
              "internalType": "string",
              "name": "imageUrl",
              "type": "string"
            },
            {
              "internalType": "string",
              "name": "description",
              "type": "string"
            }
          ],
          "internalType": "struct OrderContract.Product",
          "name": "product",
          "type": "tuple"
        },
        {
          "internalType": "uint256",
          "name": "totalAmount",
          "type": "uint256"
        },
        {
          "internalType": "enum OrderContract.OrderStatus",
          "name": "status",
          "type": "uint8"
        },
        {
          "internalType": "uint256",
          "name": "timestamp",
          "type": "uint256"
        },
        {
          "internalType": "bool",
          "name": "isPaid",
          "type": "bool"
        }
      ],
      "stateMutability": "view",
      "type": "function",
      "constant": true
    },
    {
      "inputs": [
        {
          "internalType": "uint256",
          "name": "",
          "type": "uint256"
        },
        {
          "internalType": "uint256",
          "name": "",
          "type": "uint256"
        }
      ],
      "name": "trackingHistory",
      "outputs": [
        {
          "internalType": "string",
          "name": "status",
          "type": "string"
        },
        {
          "internalType": "string",
          "name": "description",
          "type": "string"
        },
        {
          "internalType": "uint256",
          "name": "timestamp",
          "type": "uint256"
        }
      ],
      "stateMutability": "view",
      "type": "function",
      "constant": true
    },
    {
      "inputs": [
        {
          "internalType": "address",
          "name": "",
          "type": "address"
        },
        {
          "internalType": "uint256",
          "name": "",
          "type": "uint256"
        }
      ],
      "name": "userOrders",
      "outputs": [
        {
          "internalType": "uint256",
          "name": "",
          "type": "uint256"
        }
      ],
      "stateMutability": "view",
      "type": "function",
      "constant": true
    },
    {
      "inputs": [
        {
          "internalType": "string",
          "name": "_buyerName",
          "type": "string"
        },
        {
          "internalType": "string",
          "name": "_productName",
          "type": "string"
        },
        {
          "internalType": "uint256",
          "name": "_price",
          "type": "uint256"
        },
        {
          "internalType": "string",
          "name": "_imageUrl",
          "type": "string"
        },
        {
          "internalType": "string",
          "name": "_description",
          "type": "string"
        }
      ],
      "name": "createOrder",
      "outputs": [
        {
          "internalType": "uint256",
          "name": "",
          "type": "uint256"
        }
      ],
      "stateMutability": "nonpayable",
      "type": "function"
    },
    {
      "inputs": [
        {
          "internalType": "uint256",
          "name": "_orderId",
          "type": "uint256"
        }
      ],
      "name": "payForOrder",
      "outputs": [],
      "stateMutability": "payable",
      "type": "function",
      "payable": true
    },
    {
      "inputs": [
        {
          "internalType": "uint256",
          "name": "_orderId",
          "type": "uint256"
        },
        {
          "internalType": "enum OrderContract.OrderStatus",
          "name": "_status",
          "type": "uint8"
        },
        {
          "internalType": "string",
          "name": "_description",
          "type": "string"
        }
      ],
      "name": "updateOrderStatus",
      "outputs": [],
      "stateMutability": "nonpayable",
      "type": "function"
    },
    {
      "inputs": [
        {
          "internalType": "uint256",
          "name": "_orderId",
          "type": "uint256"
        },
        {
          "internalType": "bool",
          "name": "_received",
          "type": "bool"
        }
      ],
      "name": "confirmDelivery",
      "outputs": [],
      "stateMutability": "nonpayable",
      "type": "function"
    },
    {
      "inputs": [
        {
          "internalType": "uint256",
          "name": "_orderId",
          "type": "uint256"
        }
      ],
      "name": "getOrder",
      "outputs": [
        {
          "internalType": "uint256",
          "name": "orderId",
          "type": "uint256"
        },
        {
          "internalType": "address",
          "name": "buyer",
          "type": "address"
        },
        {
          "internalType": "string",
          "name": "buyerName",
          "type": "string"
        },
        {
          "internalType": "string",
          "name": "productName",
          "type": "string"
        },
        {
          "internalType": "uint256",
          "name": "price",
          "type": "uint256"
        },
        {
          "internalType": "string",
          "name": "imageUrl",
          "type": "string"
        },
        {
          "internalType": "uint256",
          "name": "totalAmount",
          "type": "uint256"
        },
        {
          "internalType": "enum OrderContract.OrderStatus",
          "name": "status",
          "type": "uint8"
        },
        {
          "internalType": "uint256",
          "name": "timestamp",
          "type": "uint256"
        },
        {
          "internalType": "bool",
          "name": "isPaid",
          "type": "bool"
        }
      ],
      "stateMutability": "view",
      "type": "function",
      "constant": true
    },
    {
      "inputs": [
        {
          "internalType": "uint256",
          "name": "_orderId",
          "type": "uint256"
        }
      ],
      "name": "getTrackingHistory",
      "outputs": [
        {
          "components": [
            {
              "internalType": "string",
              "name": "status",
              "type": "string"
            },
            {
              "internalType": "string",
              "name": "description",
              "type": "string"
            },
            {
              "internalType": "uint256",
              "name": "timestamp",
              "type": "uint256"
            }
          ],
          "internalType": "struct OrderContract.TrackingUpdate[]",
          "name": "",
          "type": "tuple[]"
        }
      ],
      "stateMutability": "view",
      "type": "function",
      "constant": true
    },
    {
      "inputs": [
        {
          "internalType": "address",
          "name": "_user",
          "type": "address"
        }
      ],
      "name": "getUserOrders",
      "outputs": [
        {
          "internalType": "uint256[]",
          "name": "",
          "type": "uint256[]"
        }
      ],
      "stateMutability": "view",
      "type": "function",
      "constant": true
    },
    {
      "inputs": [],
      "name": "getOrderCount",
      "outputs": [
        {
          "internalType": "uint256",
          "name": "",
          "type": "uint256"
        }
      ],
      "stateMutability": "view",
      "type": "function",
      "constant": true
    }
  ],
  "bytecode": "0x60806040523480156200001157600080fd5b5060006001819055506040518060400160405280600781526020017f4c6567694c61680000000000000000000000000000000000000000000000000081525060009081620000609190620002e1565b50620003c8565b600081519050919050565b7f4e487b7100000000000000000000000000000000000000000000000000000000600052604160045260246000fd5b7f4e487b7100000000000000000000000000000000000000000000000000000000600052602260045260246000fd5b60006002820490506001821680620000e957607f821691505b602082108103620000ff57620000fe620000a1565b5b50919050565b60008190508160005260206000209050919050565b60006020601f8301049050919050565b600082821b905092915050565b600060088302620001697fffffffffffffffffffffffffffffffffffffffffffffffffffffffffffffffff826200012a565b6200017586836200012a565b95508019841693508086168417925050509392505050565b6000819050919050565b6000819050919050565b6000620001c2620001bc620001b6846200018d565b62000197565b6200018d565b9050919050565b6000819050919050565b620001de83620001a1565b620001f6620001ed82620001c9565b84845462000137565b825550505050565b600090565b6200020d620001fe565b6200021a818484620001d3565b505050565b5b8181101562000242576200023660008262000203565b60018101905062000220565b5050565b601f82111562000291576200025b8162000105565b62000266846200011a565b8101602085101562000276578190505b6200028e62000285856200011a565b8301826200021f565b50505b505050565b600082821c905092915050565b6000620002b66000198460080262000296565b1980831691505092915050565b6000620002d18383620002a3565b9150826002028217905092915050565b620002ec8262000067565b67ffffffffffffffff81111562000308576200030762000072565b5b620003148254620000d0565b6200032182828562000246565b600060209050601f83116001811462000359576000841562000344578287015190505b620003508582620002c3565b865550620003c0565b601f198416620003698662000105565b60005b8281101562000393578489015182556001820191506020850194506020810190506200036c565b86831015620003b35784890151620003af601f891682620002a3565b8355505b6001600288020188555050505b505050505050565b612e1d80620003d86000396000f3fe6080604052600436106100c25760003560e01c80638d0a5fbb1161007f578063d09ef24111610059578063d09ef241146102a7578063d9c2dcee146102ed578063e097b6b114610309578063f5ec2eed14610348576100c2565b80638d0a5fbb146101fb578063a85c38ef14610226578063c36034e21461026a576100c2565b806304ef0781146100c75780632453ffa8146100f057806360e1102e1461011b57806363c69f08146101445780637c93f66414610181578063856652e9146101be575b600080fd5b3480156100d357600080fd5b506100ee60048036038101906100e99190611d12565b610373565b005b3480156100fc57600080fd5b50610105610731565b6040516101129190611d61565b60405180910390f35b34801561012757600080fd5b50610142600480360381019061013d9190611ee7565b610737565b005b34801561015057600080fd5b5061016b60048036038101906101669190611fb4565b610a3e565b604051610178919061209f565b60405180910390f35b34801561018d57600080fd5b506101a860048036038101906101a391906120c1565b610ad5565b6040516101b59190611d61565b60405180910390f35b3480156101ca57600080fd5b506101e560048036038101906101e091906121ac565b610e65565b6040516101f29190611d61565b60405180910390f35b34801561020757600080fd5b50610210610e96565b60405161021d9190611d61565b60405180910390f35b34801561023257600080fd5b5061024d600480360381019061024891906121ec565b610ea0565b6040516102619897969594939291906123fa565b60405180910390f35b34801561027657600080fd5b50610291600480360381019061028c91906121ec565b611174565b60405161029e919061259f565b60405180910390f35b3480156102b357600080fd5b506102ce60048036038101906102c991906121ec565b611365565b6040516102e49a999897969594939291906125d0565b60405180910390f35b610307600480360381019061030291906121ec565b611779565b005b34801561031557600080fd5b50610330600480360381019061032b9190612681565b611aab565b60405161033f939291906126c1565b60405180910390f35b34801561035457600080fd5b5061035d611c02565b60405161036a9190612706565b60405180910390f35b60008211801561038557506001548211155b6103c4576040517f08c379a00000000000000000000000000000000000000000000000000000000081526004016103bb90612774565b60405180910390fd5b60006002600084815260200190815260200160002090508060010160009054906101000a900473ffffffffffffffffffffffffffffffffffffffff1673ffffffffffffffffffffffffffffffffffffffff163373ffffffffffffffffffffffffffffffffffffffff161461046d576040517f08c379a0000000000000000000000000000000000000000000000000000000008152600401610464906127e0565b60405180910390fd5b6003600481111561048157610480612374565b5b8160080160009054906101000a900460ff1660048111156104a5576104a4612374565b5b146104e5576040517f08c379a00000000000000000000000000000000000000000000000000000000081526004016104dc9061284c565b60405180910390fd5b811561064f5760048160080160006101000a81548160ff0219169083600481111561051357610512612374565b5b02179055506003600084815260200190815260200160002060405180606001604052806040518060400160405280600981526020017f436f6e6669726d6564000000000000000000000000000000000000000000000081525081526020016040518060400160405280601e81526020017f44656c697665727920636f6e6669726d656420627920637573746f6d65720000815250815260200142815250908060018154018082558091505060019003906000526020600020906003020160009091909190915060008201518160000190816105ee9190612a78565b5060208201518160010190816106049190612a78565b506040820151816002015550507f64a783c6150854ae756454311c7625a965c757996ba8cc1a8c6205380f3372508333604051610642929190612b4a565b60405180910390a161072c565b6003600084815260200190815260200160002060405180606001604052806040518060400160405280601081526020017f526566756e6420526571756573746564000000000000000000000000000000008152508152602001604051806060016040528060238152602001612dc560239139815260200142815250908060018154018082558091505060019003906000526020600020906003020160009091909190915060008201518160000190816107089190612a78565b50602082015181600101908161071e9190612a78565b506040820151816002015550505b505050565b60015481565b60008311801561074957506001548311155b610788576040517f08c379a000000000000000000000000000000000000000000000000000000000815260040161077f90612774565b60405180910390fd5b6000600260008581526020019081526020016000209050828160080160006101000a81548160ff021916908360048111156107c6576107c5612374565b5b02179055506060600160048111156107e1576107e0612374565b5b8460048111156107f4576107f3612374565b5b03610836576040518060400160405280600a81526020017f50726f63657373696e6700000000000000000000000000000000000000000000815250905061096f565b6002600481111561084a57610849612374565b5b84600481111561085d5761085c612374565b5b0361089f576040518060400160405280600781526020017f5368697070656400000000000000000000000000000000000000000000000000815250905061096e565b600360048111156108b3576108b2612374565b5b8460048111156108c6576108c5612374565b5b03610908576040518060400160405280600981526020017f44656c6976657265640000000000000000000000000000000000000000000000815250905061096d565b60048081111561091b5761091a612374565b5b84600481111561092e5761092d612374565b5b0361096c576040518060400160405280600981526020017f436f6e6669726d6564000000000000000000000000000000000000000000000081525090505b5b5b5b60036000868152602001908152602001600020604051806060016040528083815260200185815260200142815250908060018154018082558091505060019003906000526020600020906003020160009091909190915060008201518160000190816109db9190612a78565b5060208201518160010190816109f19190612a78565b506040820151816002015550507fd9a86b644eb5f5b43cc8a700849852481080361c7a4b00ba646d1b46c5585f958585604051610a2f929190612b73565b60405180910390a15050505050565b6060600460008373ffffffffffffffffffffffffffffffffffffffff1673ffffffffffffffffffffffffffffffffffffffff168152602001908152602001600020805480602002602001604051908101604052809291908181526020018280548015610ac957602002820191906000526020600020905b815481526020019060010190808311610ab5575b50505050509050919050565b600060016000815480929190610aea90612bcb565b91905055506000604051806080016040528087815260200186815260200185815260200184815250905060405180610100016040528060015481526020013373ffffffffffffffffffffffffffffffffffffffff16815260200188815260200182815260200186815260200160006004811115610b6a57610b69612374565b5b8152602001428152602001600015158152506002600060015481526020019081526020016000206000820151816000015560208201518160010160006101000a81548173ffffffffffffffffffffffffffffffffffffffff021916908373ffffffffffffffffffffffffffffffffffffffff1602179055506040820151816002019081610bf79190612a78565b506060820151816003016000820151816000019081610c169190612a78565b50602082015181600101556040820151816002019081610c369190612a78565b506060820151816003019081610c4c9190612a78565b5050506080820151816007015560a08201518160080160006101000a81548160ff02191690836004811115610c8457610c83612374565b5b021790555060c0820151816009015560e082015181600a0160006101000a81548160ff021916908315150217905550905050600460003373ffffffffffffffffffffffffffffffffffffffff1673ffffffffffffffffffffffffffffffffffffffff168152602001908152602001600020600154908060018154018082558091505060019003906000526020600020016000909190919091505560036000600154815260200190815260200160002060405180606001604052806040518060400160405280600d81526020017f4f7264657220437265617465640000000000000000000000000000000000000081525081526020016040518060400160405280601b81526020017f596f7572206f7264657220686173206265656e2063726561746564000000000081525081526020014281525090806001815401808255809150506001900390600052602060002090600302016000909190919091506000820151816000019081610df69190612a78565b506020820151816001019081610e0c9190612a78565b506040820151816002015550507f28eb86fd03c9bd96a8a83e4a46ab2ad257b70cea893d98ad6d482e96aa25fad06001543387604051610e4e93929190612c13565b60405180910390a160015491505095945050505050565b60046020528160005260406000208181548110610e8157600080fd5b90600052602060002001600091509150505481565b6000600154905090565b60026020528060005260406000206000915090508060000154908060010160009054906101000a900473ffffffffffffffffffffffffffffffffffffffff1690806002018054610eef9061289b565b80601f0160208091040260200160405190810160405280929190818152602001828054610f1b9061289b565b8015610f685780601f10610f3d57610100808354040283529160200191610f68565b820191906000526020600020905b815481529060010190602001808311610f4b57829003601f168201915b50505050509080600301604051806080016040529081600082018054610f8d9061289b565b80601f0160208091040260200160405190810160405280929190818152602001828054610fb99061289b565b80156110065780601f10610fdb57610100808354040283529160200191611006565b820191906000526020600020905b815481529060010190602001808311610fe957829003601f168201915b50505050508152602001600182015481526020016002820180546110299061289b565b80601f01602080910402602001604051908101604052809291908181526020018280546110559061289b565b80156110a25780601f10611077576101008083540402835291602001916110a2565b820191906000526020600020905b81548152906001019060200180831161108557829003601f168201915b505050505081526020016003820180546110bb9061289b565b80601f01602080910402602001604051908101604052809291908181526020018280546110e79061289b565b80156111345780601f1061110957610100808354040283529160200191611134565b820191906000526020600020905b81548152906001019060200180831161111757829003601f168201915b505050505081525050908060070154908060080160009054906101000a900460ff169080600901549080600a0160009054906101000a900460ff16905088565b606060008211801561118857506001548211155b6111c7576040517f08c379a00000000000000000000000000000000000000000000000000000000081526004016111be90612774565b60405180910390fd5b60036000838152602001908152602001600020805480602002602001604051908101604052809291908181526020016000905b8282101561135a578382906000526020600020906003020160405180606001604052908160008201805461122d9061289b565b80601f01602080910402602001604051908101604052809291908181526020018280546112599061289b565b80156112a65780601f1061127b576101008083540402835291602001916112a6565b820191906000526020600020905b81548152906001019060200180831161128957829003601f168201915b505050505081526020016001820180546112bf9061289b565b80601f01602080910402602001604051908101604052809291908181526020018280546112eb9061289b565b80156113385780601f1061130d57610100808354040283529160200191611338565b820191906000526020600020905b81548152906001019060200180831161131b57829003601f168201915b50505050508152602001600282015481525050815260200190600101906111fa565b505050509050919050565b6000806060806000606060008060008060008b11801561138757506001548b11155b6113c6576040517f08c379a00000000000000000000000000000000000000000000000000000000081526004016113bd90612774565b60405180910390fd5b6000600260008d815260200190815260200160002060405180610100016040529081600082015481526020016001820160009054906101000a900473ffffffffffffffffffffffffffffffffffffffff1673ffffffffffffffffffffffffffffffffffffffff1673ffffffffffffffffffffffffffffffffffffffff1681526020016002820180546114579061289b565b80601f01602080910402602001604051908101604052809291908181526020018280546114839061289b565b80156114d05780601f106114a5576101008083540402835291602001916114d0565b820191906000526020600020905b8154815290600101906020018083116114b357829003601f168201915b50505050508152602001600382016040518060800160405290816000820180546114f99061289b565b80601f01602080910402602001604051908101604052809291908181526020018280546115259061289b565b80156115725780601f1061154757610100808354040283529160200191611572565b820191906000526020600020905b81548152906001019060200180831161155557829003601f168201915b50505050508152602001600182015481526020016002820180546115959061289b565b80601f01602080910402602001604051908101604052809291908181526020018280546115c19061289b565b801561160e5780601f106115e35761010080835404028352916020019161160e565b820191906000526020600020905b8154815290600101906020018083116115f157829003601f168201915b505050505081526020016003820180546116279061289b565b80601f01602080910402602001604051908101604052809291908181526020018280546116539061289b565b80156116a05780601f10611675576101008083540402835291602001916116a0565b820191906000526020600020905b81548152906001019060200180831161168357829003601f168201915b5050505050815250508152602001600782015481526020016008820160009054906101000a900460ff1660048111156116dc576116db612374565b5b60048111156116ee576116ed612374565b5b815260200160098201548152602001600a820160009054906101000a900460ff161515151581525050905080600001518160200151826040015183606001516000015184606001516020015185606001516040015186608001518760a001518860c001518960e001519a509a509a509a509a509a509a509a509a509a50509193959799509193959799565b60008111801561178b57506001548111155b6117ca576040517f08c379a00000000000000000000000000000000000000000000000000000000081526004016117c190612774565b60405180910390fd5b60006002600083815260200190815260200160002090508060010160009054906101000a900473ffffffffffffffffffffffffffffffffffffffff1673ffffffffffffffffffffffffffffffffffffffff163373ffffffffffffffffffffffffffffffffffffffff1614611873576040517f08c379a000000000000000000000000000000000000000000000000000000000815260040161186a90612c96565b60405180910390fd5b80600a0160009054906101000a900460ff16156118c5576040517f08c379a00000000000000000000000000000000000000000000000000000000081526004016118bc90612d02565b60405180910390fd5b806007015434101561190c576040517f08c379a000000000000000000000000000000000000000000000000000000000815260040161190390612d6e565b60405180910390fd5b600181600a0160006101000a81548160ff02191690831515021790555060018160080160006101000a81548160ff0219169083600481111561195157611950612374565b5b02179055506003600083815260200190815260200160002060405180606001604052806040518060400160405280601081526020017f5061796d656e74205265636569766564000000000000000000000000000000008152508152602001604051806060016040528060368152602001612d8f6036913981526020014281525090806001815401808255809150506001900390600052602060002090600302016000909190919091506000820151816000019081611a0f9190612a78565b506020820151816001019081611a259190612a78565b506040820151816002015550507fa4678e82fe7b97eb2133ead828ed5d14ebb0c83961617dc347b698964d070b66823334604051611a6593929190612c13565b60405180910390a17fd9a86b644eb5f5b43cc8a700849852481080361c7a4b00ba646d1b46c5585f95826001604051611a9f929190612b73565b60405180910390a15050565b60036020528160005260406000208181548110611ac757600080fd5b906000526020600020906003020160009150915050806000018054611aeb9061289b565b80601f0160208091040260200160405190810160405280929190818152602001828054611b179061289b565b8015611b645780601f10611b3957610100808354040283529160200191611b64565b820191906000526020600020905b815481529060010190602001808311611b4757829003601f168201915b505050505090806001018054611b799061289b565b80601f0160208091040260200160405190810160405280929190818152602001828054611ba59061289b565b8015611bf25780601f10611bc757610100808354040283529160200191611bf2565b820191906000526020600020905b815481529060010190602001808311611bd557829003601f168201915b5050505050908060020154905083565b60008054611c0f9061289b565b80601f0160208091040260200160405190810160405280929190818152602001828054611c3b9061289b565b8015611c885780601f10611c5d57610100808354040283529160200191611c88565b820191906000526020600020905b815481529060010190602001808311611c6b57829003601f168201915b505050505081565b6000604051905090565b600080fd5b600080fd5b6000819050919050565b611cb781611ca4565b8114611cc257600080fd5b50565b600081359050611cd481611cae565b92915050565b60008115159050919050565b611cef81611cda565b8114611cfa57600080fd5b50565b600081359050611d0c81611ce6565b92915050565b60008060408385031215611d2957611d28611c9a565b5b6000611d3785828601611cc5565b9250506020611d4885828601611cfd565b9150509250929050565b611d5b81611ca4565b82525050565b6000602082019050611d766000830184611d52565b92915050565b60058110611d8957600080fd5b50565b600081359050611d9b81611d7c565b92915050565b600080fd5b600080fd5b6000601f19601f8301169050919050565b7f4e487b7100000000000000000000000000000000000000000000000000000000600052604160045260246000fd5b611df482611dab565b810181811067ffffffffffffffff82111715611e1357611e12611dbc565b5b80604052505050565b6000611e26611c90565b9050611e328282611deb565b919050565b600067ffffffffffffffff821115611e5257611e51611dbc565b5b611e5b82611dab565b9050602081019050919050565b82818337600083830152505050565b6000611e8a611e8584611e37565b611e1c565b905082815260208101848484011115611ea657611ea5611da6565b5b611eb1848285611e68565b509392505050565b600082601f830112611ece57611ecd611da1565b5b8135611ede848260208601611e77565b91505092915050565b600080600060608486031215611f0057611eff611c9a565b5b6000611f0e86828701611cc5565b9350506020611f1f86828701611d8c565b925050604084013567ffffffffffffffff811115611f4057611f3f611c9f565b5b611f4c86828701611eb9565b9150509250925092565b600073ffffffffffffffffffffffffffffffffffffffff82169050919050565b6000611f8182611f56565b9050919050565b611f9181611f76565b8114611f9c57600080fd5b50565b600081359050611fae81611f88565b92915050565b600060208284031215611fca57611fc9611c9a565b5b6000611fd884828501611f9f565b91505092915050565b600081519050919050565b600082825260208201905092915050565b6000819050602082019050919050565b61201681611ca4565b82525050565b6000612028838361200d565b60208301905092915050565b6000602082019050919050565b600061204c82611fe1565b6120568185611fec565b935061206183611ffd565b8060005b83811015612092578151612079888261201c565b975061208483612034565b925050600181019050612065565b5085935050505092915050565b600060208201905081810360008301526120b98184612041565b905092915050565b600080600080600060a086880312156120dd576120dc611c9a565b5b600086013567ffffffffffffffff8111156120fb576120fa611c9f565b5b61210788828901611eb9565b955050602086013567ffffffffffffffff81111561212857612127611c9f565b5b61213488828901611eb9565b945050604061214588828901611cc5565b935050606086013567ffffffffffffffff81111561216657612165611c9f565b5b61217288828901611eb9565b925050608086013567ffffffffffffffff81111561219357612192611c9f565b5b61219f88828901611eb9565b9150509295509295909350565b600080604083850312156121c3576121c2611c9a565b5b60006121d185828601611f9f565b92505060206121e285828601611cc5565b9150509250929050565b60006020828403121561220257612201611c9a565b5b600061221084828501611cc5565b91505092915050565b600061222482611f56565b9050919050565b61223481612219565b82525050565b600081519050919050565b600082825260208201905092915050565b60005b83811015612274578082015181840152602081019050612259565b60008484015250505050565b600061228b8261223a565b6122958185612245565b93506122a5818560208601612256565b6122ae81611dab565b840191505092915050565b600082825260208201905092915050565b60006122d58261223a565b6122df81856122b9565b93506122ef818560208601612256565b6122f881611dab565b840191505092915050565b6000608083016000830151848203600086015261232082826122ca565b9150506020830151612335602086018261200d565b506040830151848203604086015261234d82826122ca565b9150506060830151848203606086015261236782826122ca565b9150508091505092915050565b7f4e487b7100000000000000000000000000000000000000000000000000000000600052602160045260246000fd5b600581106123b4576123b3612374565b5b50565b60008190506123c5826123a3565b919050565b60006123d5826123b7565b9050919050565b6123e5816123ca565b82525050565b6123f481611cda565b82525050565b600061010082019050612410600083018b611d52565b61241d602083018a61222b565b818103604083015261242f8189612280565b905081810360608301526124438188612303565b90506124526080830187611d52565b61245f60a08301866123dc565b61246c60c0830185611d52565b61247960e08301846123eb565b9998505050505050505050565b600081519050919050565b600082825260208201905092915050565b6000819050602082019050919050565b600060608301600083015184820360008601526124cf82826122ca565b915050602083015184820360208601526124e982826122ca565b91505060408301516124fe604086018261200d565b508091505092915050565b600061251583836124b2565b905092915050565b6000602082019050919050565b600061253582612486565b61253f8185612491565b935083602082028501612551856124a2565b8060005b8581101561258d578484038952815161256e8582612509565b94506125798361251d565b925060208a01995050600181019050612555565b50829750879550505050505092915050565b600060208201905081810360008301526125b9818461252a565b905092915050565b6125ca81611f76565b82525050565b6000610140820190506125e6600083018d611d52565b6125f3602083018c6125c1565b8181036040830152612605818b612280565b90508181036060830152612619818a612280565b90506126286080830189611d52565b81810360a083015261263a8188612280565b905061264960c0830187611d52565b61265660e08301866123dc565b612664610100830185611d52565b6126726101208301846123eb565b9b9a5050505050505050505050565b6000806040838503121561269857612697611c9a565b5b60006126a685828601611cc5565b92505060206126b785828601611cc5565b9150509250929050565b600060608201905081810360008301526126db8186612280565b905081810360208301526126ef8185612280565b90506126fe6040830184611d52565b949350505050565b600060208201905081810360008301526127208184612280565b905092915050565b7f496e76616c6964206f7264657220494400000000000000000000000000000000600082015250565b600061275e601083612245565b915061276982612728565b602082019050919050565b6000602082019050818103600083015261278d81612751565b9050919050565b7f4f6e6c792062757965722063616e20636f6e6669726d2064656c697665727900600082015250565b60006127ca601f83612245565b91506127d582612794565b602082019050919050565b600060208201905081810360008301526127f9816127bd565b9050919050565b7f4f72646572206e6f74207965742064656c697665726564000000000000000000600082015250565b6000612836601783612245565b915061284182612800565b602082019050919050565b6000602082019050818103600083015261286581612829565b9050919050565b7f4e487b7100000000000000000000000000000000000000000000000000000000600052602260045260246000fd5b600060028204905060018216806128b357607f821691505b6020821081036128c6576128c561286c565b5b50919050565b60008190508160005260206000209050919050565b60006020601f8301049050919050565b600082821b905092915050565b60006008830261292e7fffffffffffffffffffffffffffffffffffffffffffffffffffffffffffffffff826128f1565b61293886836128f1565b95508019841693508086168417925050509392505050565b6000819050919050565b600061297561297061296b84611ca4565b612950565b611ca4565b9050919050565b6000819050919050565b61298f8361295a565b6129a361299b8261297c565b8484546128fe565b825550505050565b600090565b6129b86129ab565b6129c3818484612986565b505050565b5b818110156129e7576129dc6000826129b0565b6001810190506129c9565b5050565b601f821115612a2c576129fd816128cc565b612a06846128e1565b81016020851015612a15578190505b612a29612a21856128e1565b8301826129c8565b50505b505050565b600082821c905092915050565b6000612a4f60001984600802612a31565b1980831691505092915050565b6000612a688383612a3e565b9150826002028217905092915050565b612a818261223a565b67ffffffffffffffff811115612a9a57612a99611dbc565b5b612aa4825461289b565b612aaf8282856129eb565b600060209050601f831160018114612ae25760008415612ad0578287015190505b612ada8582612a5c565b865550612b42565b601f198416612af0866128cc565b60005b82811015612b1857848901518255600182019150602085019450602081019050612af3565b86831015612b355784890151612b31601f891682612a3e565b8355505b6001600288020188555050505b505050505050565b6000604082019050612b5f6000830185611d52565b612b6c60208301846125c1565b9392505050565b6000604082019050612b886000830185611d52565b612b9560208301846123dc565b9392505050565b7f4e487b7100000000000000000000000000000000000000000000000000000000600052601160045260246000fd5b6000612bd682611ca4565b91507fffffffffffffffffffffffffffffffffffffffffffffffffffffffffffffffff8203612c0857612c07612b9c565b5b600182019050919050565b6000606082019050612c286000830186611d52565b612c3560208301856125c1565b612c426040830184611d52565b949350505050565b7f4f6e6c792062757965722063616e207061790000000000000000000000000000600082015250565b6000612c80601283612245565b9150612c8b82612c4a565b602082019050919050565b60006020820190508181036000830152612caf81612c73565b9050919050565b7f4f7264657220616c726561647920706169640000000000000000000000000000600082015250565b6000612cec601283612245565b9150612cf782612cb6565b602082019050919050565b60006020820190508181036000830152612d1b81612cdf565b9050919050565b7f496e73756666696369656e74207061796d656e74000000000000000000000000600082015250565b6000612d58601483612245565b9150612d6382612d22565b602082019050919050565b60006020820190508181036000830152612d8781612d4b565b905091905056fe5061796d656e7420686173206265656e20726563656976656420616e64206f72646572206973206265696e672070726f636573736564437573746f6d6572207265706f72746564206974656d206e6f74207265636569766564a264697066735822122074ddf40d2bda309ee5fc71a686d3a5fdbf6b9807b76f15b7c47f293323555d9564736f6c63430008130033",
  "immutableReferences": {},
  "source": "// SPDX-License-Identifier: MIT\r\npragma solidity ^0.8.19;\r\n\r\ncontract OrderContract {\r\n    enum OrderStatus { Pending, Processing, Shipped, Delivered, Confirmed }\r\n    \r\n    string public companyName;\r\n    uint public orderCount;\r\n\r\n    constructor() {\r\n        orderCount = 0;\r\n        companyName = \"LegiLah\";\r\n    }\r\n\r\n    struct Product {\r\n        string name;\r\n        uint price;\r\n        string imageUrl;\r\n        string description;\r\n    }\r\n\r\n    struct Order {\r\n        uint orderId;\r\n        address payable buyer;\r\n        string buyerName;\r\n        Product product;\r\n        uint totalAmount;\r\n        OrderStatus status;\r\n        uint timestamp;\r\n        bool isPaid;\r\n    }\r\n\r\n    struct TrackingUpdate {\r\n        string status;\r\n        string description;\r\n        uint timestamp;\r\n    }\r\n\r\n    mapping(uint => Order) public orders;\r\n    mapping(uint => TrackingUpdate[]) public trackingHistory;\r\n    mapping(address => uint[]) public userOrders;\r\n\r\n    event OrderCreated(uint orderId, address buyer, uint amount);\r\n    event OrderPaid(uint orderId, address buyer, uint amount);\r\n    event OrderStatusUpdated(uint orderId, OrderStatus status);\r\n    event DeliveryConfirmed(uint orderId, address buyer);\r\n\r\n    // Create a new order\r\n    function createOrder(\r\n        string memory _buyerName,\r\n        string memory _productName,\r\n        uint _price,\r\n        string memory _imageUrl,\r\n        string memory _description\r\n    ) public returns (uint) {\r\n        orderCount++;\r\n        \r\n        Product memory newProduct = Product({\r\n            name: _productName,\r\n            price: _price,\r\n            imageUrl: _imageUrl,\r\n            description: _description\r\n        });\r\n        \r\n        orders[orderCount] = Order({\r\n            orderId: orderCount,\r\n            buyer: payable(msg.sender),\r\n            buyerName: _buyerName,\r\n            product: newProduct,\r\n            totalAmount: _price,\r\n            status: OrderStatus.Pending,\r\n            timestamp: block.timestamp,\r\n            isPaid: false\r\n        });\r\n        \r\n        userOrders[msg.sender].push(orderCount);\r\n        \r\n        // Add initial tracking\r\n        trackingHistory[orderCount].push(TrackingUpdate({\r\n            status: \"Order Created\",\r\n            description: \"Your order has been created\",\r\n            timestamp: block.timestamp\r\n        }));\r\n        \r\n        emit OrderCreated(orderCount, msg.sender, _price);\r\n        return orderCount;\r\n    }\r\n\r\n    // Pay for order\r\n    function payForOrder(uint _orderId) public payable {\r\n        require(_orderId > 0 && _orderId <= orderCount, \"Invalid order ID\");\r\n        Order storage order = orders[_orderId];\r\n        require(msg.sender == order.buyer, \"Only buyer can pay\");\r\n        require(!order.isPaid, \"Order already paid\");\r\n        require(msg.value >= order.totalAmount, \"Insufficient payment\");\r\n        \r\n        order.isPaid = true;\r\n        order.status = OrderStatus.Processing;\r\n        \r\n        trackingHistory[_orderId].push(TrackingUpdate({\r\n            status: \"Payment Received\",\r\n            description: \"Payment has been received and order is being processed\",\r\n            timestamp: block.timestamp\r\n        }));\r\n        \r\n        emit OrderPaid(_orderId, msg.sender, msg.value);\r\n        emit OrderStatusUpdated(_orderId, OrderStatus.Processing);\r\n    }\r\n\r\n    // Update order status (only contract owner or authorized parties)\r\n    function updateOrderStatus(uint _orderId, OrderStatus _status, string memory _description) public {\r\n        require(_orderId > 0 && _orderId <= orderCount, \"Invalid order ID\");\r\n        Order storage order = orders[_orderId];\r\n        \r\n        order.status = _status;\r\n        \r\n        string memory statusText;\r\n        if (_status == OrderStatus.Processing) {\r\n            statusText = \"Processing\";\r\n        } else if (_status == OrderStatus.Shipped) {\r\n            statusText = \"Shipped\";\r\n        } else if (_status == OrderStatus.Delivered) {\r\n            statusText = \"Delivered\";\r\n        } else if (_status == OrderStatus.Confirmed) {\r\n            statusText = \"Confirmed\";\r\n        }\r\n        \r\n        trackingHistory[_orderId].push(TrackingUpdate({\r\n            status: statusText,\r\n            description: _description,\r\n            timestamp: block.timestamp\r\n        }));\r\n        \r\n        emit OrderStatusUpdated(_orderId, _status);\r\n    }\r\n\r\n    // Confirm delivery by buyer\r\n    function confirmDelivery(uint _orderId, bool _received) public {\r\n        require(_orderId > 0 && _orderId <= orderCount, \"Invalid order ID\");\r\n        Order storage order = orders[_orderId];\r\n        require(msg.sender == order.buyer, \"Only buyer can confirm delivery\");\r\n        require(order.status == OrderStatus.Delivered, \"Order not yet delivered\");\r\n        \r\n        if (_received) {\r\n            order.status = OrderStatus.Confirmed;\r\n            \r\n            trackingHistory[_orderId].push(TrackingUpdate({\r\n                status: \"Confirmed\",\r\n                description: \"Delivery confirmed by customer\",\r\n                timestamp: block.timestamp\r\n            }));\r\n            \r\n            emit DeliveryConfirmed(_orderId, msg.sender);\r\n        } else {\r\n            trackingHistory[_orderId].push(TrackingUpdate({\r\n                status: \"Refund Requested\",\r\n                description: \"Customer reported item not received\",\r\n                timestamp: block.timestamp\r\n            }));\r\n        }\r\n    }\r\n\r\n    // Get order details\r\n    function getOrder(uint _orderId) public view returns (\r\n        uint orderId,\r\n        address buyer,\r\n        string memory buyerName,\r\n        string memory productName,\r\n        uint price,\r\n        string memory imageUrl,\r\n        uint totalAmount,\r\n        OrderStatus status,\r\n        uint timestamp,\r\n        bool isPaid\r\n    ) {\r\n        require(_orderId > 0 && _orderId <= orderCount, \"Invalid order ID\");\r\n        Order memory order = orders[_orderId];\r\n        \r\n        return (\r\n            order.orderId,\r\n            order.buyer,\r\n            order.buyerName,\r\n            order.product.name,\r\n            order.product.price,\r\n            order.product.imageUrl,\r\n            order.totalAmount,\r\n            order.status,\r\n            order.timestamp,\r\n            order.isPaid\r\n        );\r\n    }\r\n\r\n    // Get tracking history\r\n    function getTrackingHistory(uint _orderId) public view returns (TrackingUpdate[] memory) {\r\n        require(_orderId > 0 && _orderId <= orderCount, \"Invalid order ID\");\r\n        return trackingHistory[_orderId];\r\n    }\r\n\r\n    // Get user's orders\r\n    function getUserOrders(address _user) public view returns (uint[] memory) {\r\n        return userOrders[_user];\r\n    }\r\n\r\n    // Get order count\r\n    function getOrderCount() public view returns (uint) {\r\n        return orderCount;\r\n    }\r\n}\r\n",
  "sourcePath": "C:\\Users\\User\\C373Projects\\Fa_Team3\\contracts\\OrderContract.sol",
  "compiler": {
    "name": "solc",
    "version": "0.8.19+commit.7dd6d404.Emscripten.clang"
  },
  "schemaVersion": "3.4.16",
  "updatedAt": "2026-01-19T04:43:51.604Z",
  "networkType": "ethereum",
  "devdoc": {
    "kind": "dev",
    "methods": {},
    "version": 1
  },
  "userdoc": {
    "kind": "user",
    "methods": {},
    "version": 1
  }
}