{
  "contractName": "OrderContract",
  "abi": [
    {
      "inputs": [],
      "stateMutability": "nonpayable",
      "type": "constructor"
    },
    {
      "anonymous": false,
      "inputs": [
        {
          "indexed": false,
          "internalType": "uint256",
          "name": "orderId",
          "type": "uint256"
        },
        {
          "indexed": false,
          "internalType": "address",
          "name": "buyer",
          "type": "address"
        }
      ],
      "name": "DeliveryConfirmed",
      "type": "event"
    },
    {
      "anonymous": false,
      "inputs": [
        {
          "indexed": false,
          "internalType": "uint256",
          "name": "orderId",
          "type": "uint256"
        },
        {
          "indexed": false,
          "internalType": "address",
          "name": "buyer",
          "type": "address"
        },
        {
          "indexed": false,
          "internalType": "uint256",
          "name": "amount",
          "type": "uint256"
        }
      ],
      "name": "OrderCreated",
      "type": "event"
    },
    {
      "anonymous": false,
      "inputs": [
        {
          "indexed": false,
          "internalType": "uint256",
          "name": "orderId",
          "type": "uint256"
        },
        {
          "indexed": false,
          "internalType": "address",
          "name": "buyer",
          "type": "address"
        },
        {
          "indexed": false,
          "internalType": "uint256",
          "name": "amount",
          "type": "uint256"
        }
      ],
      "name": "OrderPaid",
      "type": "event"
    },
    {
      "anonymous": false,
      "inputs": [
        {
          "indexed": false,
          "internalType": "uint256",
          "name": "orderId",
          "type": "uint256"
        },
        {
          "indexed": false,
          "internalType": "enum OrderContract.OrderStatus",
          "name": "status",
          "type": "uint8"
        }
      ],
      "name": "OrderStatusUpdated",
      "type": "event"
    },
    {
      "inputs": [],
      "name": "companyName",
      "outputs": [
        {
          "internalType": "string",
          "name": "",
          "type": "string"
        }
      ],
      "stateMutability": "view",
      "type": "function",
      "constant": true
    },
    {
      "inputs": [],
      "name": "orderCount",
      "outputs": [
        {
          "internalType": "uint256",
          "name": "",
          "type": "uint256"
        }
      ],
      "stateMutability": "view",
      "type": "function",
      "constant": true
    },
    {
      "inputs": [
        {
          "internalType": "uint256",
          "name": "",
          "type": "uint256"
        }
      ],
      "name": "orders",
      "outputs": [
        {
          "internalType": "uint256",
          "name": "orderId",
          "type": "uint256"
        },
        {
          "internalType": "address payable",
          "name": "buyer",
          "type": "address"
        },
        {
          "internalType": "address payable",
          "name": "seller",
          "type": "address"
        },
        {
          "internalType": "string",
          "name": "buyerName",
          "type": "string"
        },
        {
          "internalType": "string",
          "name": "deliveryAddress",
          "type": "string"
        },
        {
          "components": [
            {
              "internalType": "string",
              "name": "name",
              "type": "string"
            },
            {
              "internalType": "uint256",
              "name": "price",
              "type": "uint256"
            },
            {
              "internalType": "string",
              "name": "imageUrl",
              "type": "string"
            },
            {
              "internalType": "string",
              "name": "description",
              "type": "string"
            }
          ],
          "internalType": "struct OrderContract.Product",
          "name": "product",
          "type": "tuple"
        },
        {
          "internalType": "uint256",
          "name": "totalAmount",
          "type": "uint256"
        },
        {
          "internalType": "enum OrderContract.OrderStatus",
          "name": "status",
          "type": "uint8"
        },
        {
          "internalType": "uint256",
          "name": "timestamp",
          "type": "uint256"
        },
        {
          "internalType": "bool",
          "name": "isPaid",
          "type": "bool"
        },
        {
          "internalType": "bool",
          "name": "isReleased",
          "type": "bool"
        }
      ],
      "stateMutability": "view",
      "type": "function",
      "constant": true
    },
    {
      "inputs": [],
      "name": "owner",
      "outputs": [
        {
          "internalType": "address payable",
          "name": "",
          "type": "address"
        }
      ],
      "stateMutability": "view",
      "type": "function",
      "constant": true
    },
    {
      "inputs": [
        {
          "internalType": "uint256",
          "name": "",
          "type": "uint256"
        },
        {
          "internalType": "uint256",
          "name": "",
          "type": "uint256"
        }
      ],
      "name": "trackingHistory",
      "outputs": [
        {
          "internalType": "string",
          "name": "status",
          "type": "string"
        },
        {
          "internalType": "string",
          "name": "description",
          "type": "string"
        },
        {
          "internalType": "uint256",
          "name": "timestamp",
          "type": "uint256"
        }
      ],
      "stateMutability": "view",
      "type": "function",
      "constant": true
    },
    {
      "inputs": [
        {
          "internalType": "address",
          "name": "",
          "type": "address"
        },
        {
          "internalType": "uint256",
          "name": "",
          "type": "uint256"
        }
      ],
      "name": "userOrders",
      "outputs": [
        {
          "internalType": "uint256",
          "name": "",
          "type": "uint256"
        }
      ],
      "stateMutability": "view",
      "type": "function",
      "constant": true
    },
    {
      "inputs": [
        {
          "internalType": "string",
          "name": "_buyerName",
          "type": "string"
        },
        {
          "internalType": "string",
          "name": "_deliveryAddress",
          "type": "string"
        },
        {
          "internalType": "string",
          "name": "_productName",
          "type": "string"
        },
        {
          "internalType": "uint256",
          "name": "_price",
          "type": "uint256"
        },
        {
          "internalType": "string",
          "name": "_imageUrl",
          "type": "string"
        },
        {
          "internalType": "string",
          "name": "_description",
          "type": "string"
        }
      ],
      "name": "createOrder",
      "outputs": [
        {
          "internalType": "uint256",
          "name": "",
          "type": "uint256"
        }
      ],
      "stateMutability": "nonpayable",
      "type": "function"
    },
    {
      "inputs": [
        {
          "internalType": "uint256",
          "name": "_orderId",
          "type": "uint256"
        }
      ],
      "name": "payForOrder",
      "outputs": [],
      "stateMutability": "payable",
      "type": "function",
      "payable": true
    },
    {
      "inputs": [
        {
          "internalType": "uint256",
          "name": "_orderId",
          "type": "uint256"
        },
        {
          "internalType": "enum OrderContract.OrderStatus",
          "name": "_status",
          "type": "uint8"
        },
        {
          "internalType": "string",
          "name": "_description",
          "type": "string"
        }
      ],
      "name": "updateOrderStatus",
      "outputs": [],
      "stateMutability": "nonpayable",
      "type": "function"
    },
    {
      "inputs": [
        {
          "internalType": "uint256",
          "name": "_orderId",
          "type": "uint256"
        },
        {
          "internalType": "bool",
          "name": "_received",
          "type": "bool"
        }
      ],
      "name": "confirmDelivery",
      "outputs": [],
      "stateMutability": "nonpayable",
      "type": "function"
    },
    {
      "inputs": [
        {
          "internalType": "uint256",
          "name": "_orderId",
          "type": "uint256"
        }
      ],
      "name": "getOrder",
      "outputs": [
        {
          "internalType": "uint256",
          "name": "orderId",
          "type": "uint256"
        },
        {
          "internalType": "address",
          "name": "buyer",
          "type": "address"
        },
        {
          "internalType": "address",
          "name": "seller",
          "type": "address"
        },
        {
          "internalType": "string",
          "name": "buyerName",
          "type": "string"
        },
        {
          "internalType": "string",
          "name": "productName",
          "type": "string"
        },
        {
          "internalType": "uint256",
          "name": "price",
          "type": "uint256"
        },
        {
          "internalType": "string",
          "name": "imageUrl",
          "type": "string"
        },
        {
          "internalType": "uint256",
          "name": "totalAmount",
          "type": "uint256"
        },
        {
          "internalType": "enum OrderContract.OrderStatus",
          "name": "status",
          "type": "uint8"
        },
        {
          "internalType": "uint256",
          "name": "timestamp",
          "type": "uint256"
        },
        {
          "internalType": "bool",
          "name": "isPaid",
          "type": "bool"
        },
        {
          "internalType": "bool",
          "name": "isReleased",
          "type": "bool"
        }
      ],
      "stateMutability": "view",
      "type": "function",
      "constant": true
    },
    {
      "inputs": [
        {
          "internalType": "uint256",
          "name": "_orderId",
          "type": "uint256"
        }
      ],
      "name": "getTrackingHistory",
      "outputs": [
        {
          "components": [
            {
              "internalType": "string",
              "name": "status",
              "type": "string"
            },
            {
              "internalType": "string",
              "name": "description",
              "type": "string"
            },
            {
              "internalType": "uint256",
              "name": "timestamp",
              "type": "uint256"
            }
          ],
          "internalType": "struct OrderContract.TrackingUpdate[]",
          "name": "",
          "type": "tuple[]"
        }
      ],
      "stateMutability": "view",
      "type": "function",
      "constant": true
    },
    {
      "inputs": [
        {
          "internalType": "address",
          "name": "_user",
          "type": "address"
        }
      ],
      "name": "getUserOrders",
      "outputs": [
        {
          "internalType": "uint256[]",
          "name": "",
          "type": "uint256[]"
        }
      ],
      "stateMutability": "view",
      "type": "function",
      "constant": true
    },
    {
      "inputs": [],
      "name": "getOrderCount",
      "outputs": [
        {
          "internalType": "uint256",
          "name": "",
          "type": "uint256"
        }
      ],
      "stateMutability": "view",
      "type": "function",
      "constant": true
    }
  ],
  "bytecode": "0x60808060405234620000b2576000600181815581548181811c91168015620000a7575b60208210146200009357601f811162000067575b5050600e66098caced298c2d60cb1b019055600280546001600160a01b03191633179055611d889081620000b88239f35b828052601f60208420910160051c8101905b81811062000088575062000036565b838155820162000079565b634e487b7160e01b83526022600452602483fd5b90607f169062000022565b600080fdfe6080604052600436101561001257600080fd5b60003560e01c806304ef0781146114795780632453ffa8146108ec57806355bfb5c414610b9657806360e1102e14610a1657806363c69f0814610962578063856652e91461090a5780638d0a5fbb146108ec5780638da5cb5b146108c3578063a85c38ef14610785578063c36034e21461061f578063d09ef24114610464578063d9c2dcee14610224578063e097b6b11461019e5763f5ec2eed146100b657600080fd5b3461019957600036600319011261019957604051600080546100d7816118d2565b808452906001908181169081156101725750600114610119575b610115846101018186038261180b565b6040519182916020835260208301906119f9565b0390f35b600080805292507f290decd9548b62a8d60345a988386fc84ba6bc95484008f6362f93160ef3e5635b82841061015a575050508101602001610101826100f1565b80546020858701810191909152909301928101610142565b60ff191660208087019190915292151560051b8501909201925061010191508390506100f1565b600080fd5b34610199576040366003190112610199576024356004356000526004602052604060002080548210156101995761020c916101d891611a46565b506101e28161190c565b9061021a60026101f46001840161190c565b920154916040519485946060865260608601906119f9565b9084820360208601526119f9565b9060408301520390f35b602080600319360112610199576004359081151580610458575b61024790611cee565b6000828152600382526040902060018101546001600160a01b0316330361041e57600c81019081549160ff83166103e457600982015434106103a857927fd9a86b644eb5f5b43cc8a700849852481080361c7a4b00ba646d1b46c5585f9594926001600a81946040978360ff1980961617905501918254161790558260005260048152610366846000208551906102dd8261179e565b86516102e8816117f0565b601081526f14185e5b595b9d08149958d95a5d995960821b85820152825286516103118161179e565b603681527f5061796d656e7420686173206265656e20726563656976656420616e64206f72858201527519195c881a5cc818995a5b99c81c1c9bd8d95cdcd95960521b88820152848301524287830152611a7a565b83518381523360208201523460408201527fa4678e82fe7b97eb2133ead828ed5d14ebb0c83961617dc347b698964d070b6690606090a18351928352820152a1005b60405162461bcd60e51b8152600481018590526014602482015273125b9cdd59999a58da595b9d081c185e5b595b9d60621b6044820152606490fd5b60405162461bcd60e51b815260048101859052601260248201527113dc99195c88185b1c9958591e481c185a5960721b6044820152606490fd5b60405162461bcd60e51b81526004810183905260126024820152714f6e6c792062757965722063616e2070617960701b6044820152606490fd5b5060015482111561023e565b346101995760203660031901126101995760043580151580610613575b61048a90611cee565b600052600360205260406000206040516104a3816117d4565b8154815260018201546001600160a01b03908116602083019081526002840154821660408401908152939092906104dc6003820161190c565b92606083019384526104f06004830161190c565b6080840152610501600583016119b2565b60a0840190815260098301549060c0850191825260ff600a850154169260058410156105fd578360e087015280600b8601549586610100890152600c01549660ff881615156101208201528760081c60ff161515610140820152519851169851169551905190815190602083015192604001519351976040519a8b9a8b5260208b015260408a01526101808060608b0152890161059d916119f9565b88810360808a01526105ae916119f9565b9060a088015286810360c08801526105c5916119f9565b9360e086015261010085016105d991611a39565b61012084015260ff8116151561014084015260081c60ff1615156101608301520390f35b634e487b7160e01b600052602160045260246000fd5b50600154811115610481565b34610199576020806003193601126101995760043580151580610779575b61064690611cee565b6000526004815260406000208054906001600160401b03821161076357829060405192610678838260051b018561180b565b8084528284018092600052836000206000915b8383106107195750505050604051918083019381845251809452604083019360408160051b85010192916000955b8287106106c65785850386f35b909192938280600192603f198982030185528751906040806107036106f3855160608087528601906119f9565b86860151858203888701526119f9565b93015191015296019201960195929190926106b9565b60038660019260409998995161072e8161179e565b6107378661190c565b815261074485870161190c565b838201526002860154604082015281520192019201919095949561068b565b634e487b7160e01b600052604160045260246000fd5b5060015481111561063d565b3461019957602036600319011261019957600435600052600360205260406000208054600160a01b60019003918260018201541692600282015416600382016107cd9061190c565b916107da6004820161190c565b926107e7600583016119b2565b600983015494600a84015460ff1692600b85015494600c015495604051998a998a5260208a015260408901526101608060608a01528801610827916119f9565b8781036080890152610838916119f9565b9086820360a088015280516080835260808301610854916119f9565b602082015160208401526040820151908381036040850152610875916119f9565b906060015191808203906060015261088c916119f9565b9360c086015260e0850161089f91611a39565b61010084015260ff8116151561012084015260081c60ff1615156101408301520390f35b34610199576000366003190112610199576002546040516001600160a01b039091168152602090f35b34610199576000366003190112610199576020600154604051908152f35b346101995760403660031901126101995761092361188e565b6001600160a01b031660009081526005602052604090208054602435919082101561019957602091610954916118a4565b90546040519160031b1c8152f35b3461019957602080600319360112610199576001600160a01b0361098461188e565b1660005260058152604060002060405190818382549182815201908192600052846000209060005b86828210610a025786866109c28288038361180b565b604051928392818401908285525180915260408401929160005b8281106109eb57505050500390f35b8351855286955093810193928101926001016109dc565b8354855290930192600192830192016109ac565b3461019957606036600319011261019957600435602435600581101561019957604435916001600160401b03831161019957610b11604092610a7d7fd9a86b644eb5f5b43cc8a700849852481080361c7a4b00ba646d1b46c5585f95953690600401611847565b83151580610b8a575b610a8f90611cee565b83600052610b0460209160038352610aad84600a8960002001611a62565b606060018503610b1457508651610ac3816117f0565b600a81526950726f63657373696e6760b01b84820152905b86600052600484528760002090885192610af48461179e565b8352848301524288830152611a7a565b8451938452830190611a39565ba1005b60028503610b4257508651610b28816117f0565b600781526614da1a5c1c195960ca1b84820152905b610adb565b60038503610b7157508651610b56816117f0565b600981526811195b1a5d995c995960ba1b8482015290610adb565b9060048503610b3d579050610b84611d2d565b90610adb565b50600154841115610a86565b346101995760c0366003190112610199576004356001600160401b03811161019957610bc6903690600401611847565b6024356001600160401b03811161019957610be5903690600401611847565b6044356001600160401b03811161019957610c04903690600401611847565b906084356001600160401b03811161019957610c24903690600401611847565b9160a4356001600160401b03811161019957610c44903690600401611847565b6001549290600019841461146357600194858501865560405193610c67856117b9565b8452606435602085015260408401526060830152838060a01b03600254169460405195610c93876117d4565b858501875233602088015260408701526060860152608085015260a084015260643560c0840152600060e084015242610100840152600061012084015260006101408401520160005260036020526040600020815181556001810160018060a01b03602084015116906bffffffffffffffffffffffff60a01b9182825416179055600282019060018060a01b036040850151169082541617905560608201519182516001600160401b03811161076357610d5060038401546118d2565b601f811161141c575b506020601f82116001146113ae57819293946000926113a3575b50508160011b916000199060031b1c19161760038301555b60808101519182516001600160401b03811161076357610dae60048301546118d2565b601f811161135c575b506020601f82116001146112ee57819293946000926112e3575b50508160011b916000199060031b1c19161760048201555b60a08201519081519283516001600160401b03811161076357610e0f60058401546118d2565b601f811161129c575b506020601f821160011461122d578192939495600092611222575b50508160011b916000199060031b1c19161760058301555b6020830151600683015560408301519283516001600160401b03811161076357610e7860078501546118d2565b601f81116111db575b506020601f8211600114611168578190606094959660009261115d575b50508160011b916000199060031b1c19161760078501555b01519182516001600160401b03811161076357610ed660088301546118d2565b601f8111611116575b506020601f82116001146110a8578192939460009261109d575b50508160011b916000199060031b1c19161760088201555b60c0820151600982015560e08201519060058210156105fd57610f39600c92600a8301611a62565b610100830151600b820155019061012081015115159060ff61ff006101408554930151151560081b1692169061ffff1916171790553360005260056020526040600020600154908054600160401b81101561076357610f9d916001820181556118a4565b819291549060031b91821b91600019901b19161790556001546000526004602052611041604060002060405190610fd38261179e565b604051610fdf816117f0565b600d81526c13dc99195c8810dc99585d1959609a1b60208201528252604051611007816117f0565b601b81527f596f7572206f7264657220686173206265656e2063726561746564000000000060208201526020830152426040830152611a7a565b60206001547f28eb86fd03c9bd96a8a83e4a46ab2ad257b70cea893d98ad6d482e96aa25fad0604051806110926064353386846040919493926060820195825260018060a01b031660208201520152565b0390a1604051908152f35b015190508480610ef9565b6008830160005260206000209060005b601f19841681106110fe5750600193949583601f198116106110e5575b505050811b016008820155610f11565b015160001960f88460031b161c191690558480806110d5565b9091602060018192858a0151815501930191016110b8565b600883016000526020600020601f830160051c810160208410611156575b601f830160051c8201811061114a575050610edf565b60008155600101611134565b5080611134565b015190508680610e9e565b6007850160005260206000209560005b601f19841681106111c357509582916060959697600194601f198116106111aa575b505050811b016007850155610eb6565b015160001960f88460031b161c1916905586808061119a565b82820151885560019097019660209283019201611178565b600785016000526020600020601f830160051c81016020841061121b575b601f830160051c8201811061120f575050610e81565b600081556001016111f9565b50806111f9565b015190508580610e33565b6005840160005260206000209060005b601f1984168110611284575060019394959683601f1981161061126b575b505050811b016005830155610e4b565b015160001960f88460031b161c1916905585808061125b565b9091602060018192858b01518155019301910161123d565b600584016000526020600020601f830160051c8101602084106112dc575b601f830160051c820181106112d0575050610e18565b600081556001016112ba565b50806112ba565b015190508480610dd1565b6004830160005260206000209060005b601f19841681106113445750600193949583601f1981161061132b575b505050811b016004820155610de9565b015160001960f88460031b161c1916905584808061131b565b9091602060018192858a0151815501930191016112fe565b600483016000526020600020601f830160051c81016020841061139c575b601f830160051c82018110611390575050610db7565b6000815560010161137a565b508061137a565b015190508480610d73565b6003840160005260206000209060005b601f19841681106114045750600193949583601f198116106113eb575b505050811b016003830155610d8b565b015160001960f88460031b161c191690558480806113db565b9091602060018192858a0151815501930191016113be565b600384016000526020600020601f830160051c81016020841061145c575b601f830160051c82018110611450575050610d59565b6000815560010161143a565b508061143a565b634e487b7160e01b600052601160045260246000fd5b346101995760403660031901126101995760043560243580151581036101995781151580611792575b6114ab90611cee565b816000526020906003825260406000209060018060a01b039081600184015416330361174d57600a83019060ff82541660058110156105fd57600303611708571561166c57600460ff1982541617905583600052600483526115666040600020604051906115188261179e565b611520611d2d565b825260405161152e816117f0565b601e81527f44656c697665727920636f6e6669726d656420627920637573746f6d657200008782015286830152426040830152611a7a565b600c8201805460ff81168061165e575b80611651575b6115b7575b505050507f64a783c6150854ae756454311c7625a965c757996ba8cc1a8c6205380f3372509160409182519182523390820152a1005b600093600985948594610100869561ff001916179055600283015416910154905af13d1561164c573d6115e98161182c565b906115f7604051928361180b565b81526000833d92013e5b1561160f5782808080611581565b6064906040519062461bcd60e51b82526004820152601660248201527514185e5b595b9d081c995b19585cd94819985a5b195960521b6044820152fd5b611601565b506009840154151561157c565b5060ff8160081c1615611576565b505050611706916000526004815260406000206040519161168c8361179e565b604051611698816117f0565b601081526f1499599d5b990814995c5d595cdd195960821b828201528352604051906116c38261179e565b602382527f437573746f6d6572207265706f72746564206974656d206e6f7420726563656981830152621d995960ea1b6040830152830152426040830152611a7a565b005b60405162461bcd60e51b815260048101869052601760248201527f4f72646572206e6f74207965742064656c6976657265640000000000000000006044820152606490fd5b60405162461bcd60e51b815260048101859052601f60248201527f4f6e6c792062757965722063616e20636f6e6669726d2064656c6976657279006044820152606490fd5b506001548211156114a2565b606081019081106001600160401b0382111761076357604052565b608081019081106001600160401b0382111761076357604052565b61016081019081106001600160401b0382111761076357604052565b604081019081106001600160401b0382111761076357604052565b90601f801991011681019081106001600160401b0382111761076357604052565b6001600160401b03811161076357601f01601f191660200190565b81601f820112156101995780359061185e8261182c565b9261186c604051948561180b565b8284526020838301011161019957816000926020809301838601378301015290565b600435906001600160a01b038216820361019957565b80548210156118bc5760005260206000200190600090565b634e487b7160e01b600052603260045260246000fd5b90600182811c92168015611902575b60208310146118ec57565b634e487b7160e01b600052602260045260246000fd5b91607f16916118e1565b9060405191826000825492611920846118d2565b90818452600194858116908160001461198f575060011461194c575b505061194a9250038361180b565b565b9093915060005260209081600020936000915b81831061197757505061194a9350820101388061193c565b8554888401850152948501948794509183019161195f565b91505061194a94506020925060ff191682840152151560051b820101388061193c565b906040516119bf816117b9565b60606119f4600383956119d18161190c565b8552600181015460208601526119e96002820161190c565b60408601520161190c565b910152565b919082519283825260005b848110611a25575050826000602080949584010152601f8019910116010190565b602081830181015184830182015201611a04565b9060058210156105fd5752565b80548210156118bc576000526003602060002091020190600090565b9060058110156105fd5760ff80198354169116179055565b908154600160401b81101561076357611a9a906001938482018155611a46565b929092611cd8578151908151906001600160401b03918281116107635780611ac287546118d2565b94601f95868111611c84575b50602090868311600114611c2157600092611c16575b5050600019600383901b1c191690821b1785555b808501926020850151805193841161076357611b1485546118d2565b828111611bce575b506020918411600114611b6157928060409593819360029896600094611b56575b50501b916000199060031b1c19161790555b0151910155565b015192503880611b3d565b90601f9392931983169185600052816000209260005b818110611bb857509160029795939185604098969410611b9f575b505050811b019055611b4f565b015160001960f88460031b161c19169055388080611b92565b8284015185559386019360209384019301611b77565b8560005260206000208380870160051c82019260208810611c0d575b0160051c019084905b828110611c01575050611b1c565b60008155018490611bf3565b92508192611bea565b015190503880611ae4565b90849350601f1983169189600052816000209260005b818110611c6c57508411611c53575b505050811b018555611af8565b015160001960f88460031b161c19169055388080611c46565b82840151855587969094019360209384019301611c37565b9091506000888152602081208780860160051c82019360208710611ccf575b91879187969594930160051c01925b838110611cc157505050611ace565b828155869550879101611cb2565b93508193611ca3565b634e487b7160e01b600052600060045260246000fd5b15611cf557565b60405162461bcd60e51b815260206004820152601060248201526f125b9d985b1a59081bdc99195c88125160821b6044820152606490fd5b60405190611d3a826117f0565b600982526810dbdb999a5c9b595960ba1b602083015256fea26469706673582212209d1780cfa36eeaf50a571a6766355275e2a7d518390bba621b25a3d0172164af64736f6c63430008130033",
  "immutableReferences": {},
  "source": "// SPDX-License-Identifier: MIT\r\npragma solidity ^0.8.19;\r\n\r\ncontract OrderContract {\r\n    enum OrderStatus { Pending, Processing, Shipped, Delivered, Confirmed }\r\n    \r\n    string public companyName;\r\n    uint public orderCount;\r\n    address payable public owner;\r\n\r\n    constructor() {\r\n        orderCount = 0;\r\n        companyName = \"LegiLah\";\r\n        owner = payable(msg.sender);\r\n    }\r\n\r\n    struct Product {\r\n        string name;\r\n        uint price;\r\n        string imageUrl;\r\n        string description;\r\n    }\r\n\r\n    struct Order {\r\n        uint orderId;\r\n        address payable buyer;\r\n        address payable seller;\r\n        string buyerName;\r\n        string deliveryAddress;\r\n        Product product;\r\n        uint totalAmount;\r\n        OrderStatus status;\r\n        uint timestamp;\r\n        bool isPaid;\r\n        bool isReleased;\r\n    }\r\n\r\n    struct TrackingUpdate {\r\n        string status;\r\n        string description;\r\n        uint timestamp;\r\n    }\r\n\r\n    mapping(uint => Order) public orders;\r\n    mapping(uint => TrackingUpdate[]) public trackingHistory;\r\n    mapping(address => uint[]) public userOrders;\r\n\r\n    event OrderCreated(uint orderId, address buyer, uint amount);\r\n    event OrderPaid(uint orderId, address buyer, uint amount);\r\n    event OrderStatusUpdated(uint orderId, OrderStatus status);\r\n    event DeliveryConfirmed(uint orderId, address buyer);\r\n\r\n    // Create a new order\r\n    function createOrder(\r\n        string memory _buyerName,\r\n        string memory _deliveryAddress,\r\n        string memory _productName,\r\n        uint _price,\r\n        string memory _imageUrl,\r\n        string memory _description\r\n    ) public returns (uint) {\r\n        orderCount++;\r\n        \r\n        Product memory newProduct = Product({\r\n            name: _productName,\r\n            price: _price,\r\n            imageUrl: _imageUrl,\r\n            description: _description\r\n        });\r\n        \r\n        orders[orderCount] = Order({\r\n            orderId: orderCount,\r\n            buyer: payable(msg.sender),\r\n            seller: owner,\r\n            buyerName: _buyerName,\r\n            deliveryAddress: _deliveryAddress,\r\n            product: newProduct,\r\n            totalAmount: _price,\r\n            status: OrderStatus.Pending,\r\n            timestamp: block.timestamp,\r\n            isPaid: false,\r\n            isReleased: false\r\n        });\r\n        \r\n        userOrders[msg.sender].push(orderCount);\r\n        \r\n        // Add initial tracking\r\n        trackingHistory[orderCount].push(TrackingUpdate({\r\n            status: \"Order Created\",\r\n            description: \"Your order has been created\",\r\n            timestamp: block.timestamp\r\n        }));\r\n        \r\n        emit OrderCreated(orderCount, msg.sender, _price);\r\n        return orderCount;\r\n    }\r\n\r\n    // Pay for order\r\n    function payForOrder(uint _orderId) public payable {\r\n        require(_orderId > 0 && _orderId <= orderCount, \"Invalid order ID\");\r\n        Order storage order = orders[_orderId];\r\n        require(msg.sender == order.buyer, \"Only buyer can pay\");\r\n        require(!order.isPaid, \"Order already paid\");\r\n        require(msg.value >= order.totalAmount, \"Insufficient payment\");\r\n        \r\n        order.isPaid = true;\r\n        order.status = OrderStatus.Processing;\r\n        \r\n        trackingHistory[_orderId].push(TrackingUpdate({\r\n            status: \"Payment Received\",\r\n            description: \"Payment has been received and order is being processed\",\r\n            timestamp: block.timestamp\r\n        }));\r\n        \r\n        emit OrderPaid(_orderId, msg.sender, msg.value);\r\n        emit OrderStatusUpdated(_orderId, OrderStatus.Processing);\r\n    }\r\n\r\n    // Update order status (only contract owner or authorized parties)\r\n    function updateOrderStatus(uint _orderId, OrderStatus _status, string memory _description) public {\r\n        require(_orderId > 0 && _orderId <= orderCount, \"Invalid order ID\");\r\n        Order storage order = orders[_orderId];\r\n        \r\n        order.status = _status;\r\n        \r\n        string memory statusText;\r\n        if (_status == OrderStatus.Processing) {\r\n            statusText = \"Processing\";\r\n        } else if (_status == OrderStatus.Shipped) {\r\n            statusText = \"Shipped\";\r\n        } else if (_status == OrderStatus.Delivered) {\r\n            statusText = \"Delivered\";\r\n        } else if (_status == OrderStatus.Confirmed) {\r\n            statusText = \"Confirmed\";\r\n        }\r\n        \r\n        trackingHistory[_orderId].push(TrackingUpdate({\r\n            status: statusText,\r\n            description: _description,\r\n            timestamp: block.timestamp\r\n        }));\r\n        \r\n        emit OrderStatusUpdated(_orderId, _status);\r\n    }\r\n\r\n    // Confirm delivery by buyer\r\n    function confirmDelivery(uint _orderId, bool _received) public {\r\n        require(_orderId > 0 && _orderId <= orderCount, \"Invalid order ID\");\r\n        Order storage order = orders[_orderId];\r\n        require(msg.sender == order.buyer, \"Only buyer can confirm delivery\");\r\n        require(order.status == OrderStatus.Delivered, \"Order not yet delivered\");\r\n        \r\n        if (_received) {\r\n            order.status = OrderStatus.Confirmed;\r\n            \r\n            trackingHistory[_orderId].push(TrackingUpdate({\r\n                status: \"Confirmed\",\r\n                description: \"Delivery confirmed by customer\",\r\n                timestamp: block.timestamp\r\n            }));\r\n\r\n            // Release payment to seller only after buyer confirms delivery\r\n            if (order.isPaid && !order.isReleased && order.totalAmount > 0) {\r\n                order.isReleased = true;\r\n                (bool success, ) = order.seller.call{value: order.totalAmount}(\"\");\r\n                require(success, \"Payment release failed\");\r\n            }\r\n            \r\n            emit DeliveryConfirmed(_orderId, msg.sender);\r\n        } else {\r\n            trackingHistory[_orderId].push(TrackingUpdate({\r\n                status: \"Refund Requested\",\r\n                description: \"Customer reported item not received\",\r\n                timestamp: block.timestamp\r\n            }));\r\n        }\r\n    }\r\n\r\n    // Get order details\r\n    function getOrder(uint _orderId) public view returns (\r\n        uint orderId,\r\n        address buyer,\r\n        address seller,\r\n        string memory buyerName,\r\n        string memory productName,\r\n        uint price,\r\n        string memory imageUrl,\r\n        uint totalAmount,\r\n        OrderStatus status,\r\n        uint timestamp,\r\n        bool isPaid,\r\n        bool isReleased\r\n    ) {\r\n        require(_orderId > 0 && _orderId <= orderCount, \"Invalid order ID\");\r\n        Order memory order = orders[_orderId];\r\n        \r\n        return (\r\n            order.orderId,\r\n            order.buyer,\r\n            order.seller,\r\n            order.buyerName,\r\n            order.product.name,\r\n            order.product.price,\r\n            order.product.imageUrl,\r\n            order.totalAmount,\r\n            order.status,\r\n            order.timestamp,\r\n            order.isPaid,\r\n            order.isReleased\r\n        );\r\n    }\r\n\r\n    // Get tracking history\r\n    function getTrackingHistory(uint _orderId) public view returns (TrackingUpdate[] memory) {\r\n        require(_orderId > 0 && _orderId <= orderCount, \"Invalid order ID\");\r\n        return trackingHistory[_orderId];\r\n    }\r\n\r\n    // Get user's orders\r\n    function getUserOrders(address _user) public view returns (uint[] memory) {\r\n        return userOrders[_user];\r\n    }\r\n\r\n    // Get order count\r\n    function getOrderCount() public view returns (uint) {\r\n        return orderCount;\r\n    }\r\n}\r\n",
  "sourcePath": "C:\\Users\\User\\C373Projects\\Fa_Team3\\contracts\\OrderContract.sol",
  "compiler": {
    "name": "solc",
    "version": "0.8.19+commit.7dd6d404.Emscripten.clang"
  },
  "schemaVersion": "3.4.16",
  "updatedAt": "2026-01-23T07:42:10.547Z",
  "networkType": "ethereum",
  "devdoc": {
    "kind": "dev",
    "methods": {},
    "version": 1
  },
  "userdoc": {
    "kind": "user",
    "methods": {},
    "version": 1
  }
}