{
  "contractName": "OrderContract",
  "abi": [
    {
      "inputs": [],
      "stateMutability": "nonpayable",
      "type": "constructor"
    },
    {
      "anonymous": false,
      "inputs": [
        {
          "indexed": false,
          "internalType": "uint256",
          "name": "orderId",
          "type": "uint256"
        },
        {
          "indexed": false,
          "internalType": "address",
          "name": "buyer",
          "type": "address"
        }
      ],
      "name": "DeliveryConfirmed",
      "type": "event"
    },
    {
      "anonymous": false,
      "inputs": [
        {
          "indexed": false,
          "internalType": "uint256",
          "name": "orderId",
          "type": "uint256"
        },
        {
          "indexed": false,
          "internalType": "address",
          "name": "buyer",
          "type": "address"
        },
        {
          "indexed": false,
          "internalType": "uint256",
          "name": "amount",
          "type": "uint256"
        }
      ],
      "name": "OrderCreated",
      "type": "event"
    },
    {
      "anonymous": false,
      "inputs": [
        {
          "indexed": false,
          "internalType": "uint256",
          "name": "orderId",
          "type": "uint256"
        },
        {
          "indexed": false,
          "internalType": "address",
          "name": "buyer",
          "type": "address"
        },
        {
          "indexed": false,
          "internalType": "uint256",
          "name": "amount",
          "type": "uint256"
        }
      ],
      "name": "OrderPaid",
      "type": "event"
    },
    {
      "anonymous": false,
      "inputs": [
        {
          "indexed": false,
          "internalType": "uint256",
          "name": "orderId",
          "type": "uint256"
        },
        {
          "indexed": false,
          "internalType": "enum OrderContract.OrderStatus",
          "name": "status",
          "type": "uint8"
        }
      ],
      "name": "OrderStatusUpdated",
      "type": "event"
    },
    {
      "anonymous": false,
      "inputs": [
        {
          "indexed": false,
          "internalType": "uint256",
          "name": "orderId",
          "type": "uint256"
        },
        {
          "indexed": false,
          "internalType": "address",
          "name": "payer",
          "type": "address"
        },
        {
          "indexed": false,
          "internalType": "uint256",
          "name": "amount",
          "type": "uint256"
        }
      ],
      "name": "PaymentHeld",
      "type": "event"
    },
    {
      "anonymous": false,
      "inputs": [
        {
          "indexed": false,
          "internalType": "uint256",
          "name": "orderId",
          "type": "uint256"
        },
        {
          "indexed": false,
          "internalType": "string",
          "name": "trackingNumber",
          "type": "string"
        }
      ],
      "name": "TrackingNumberUpdated",
      "type": "event"
    },
    {
      "inputs": [],
      "name": "companyName",
      "outputs": [
        {
          "internalType": "string",
          "name": "",
          "type": "string"
        }
      ],
      "stateMutability": "view",
      "type": "function",
      "constant": true
    },
    {
      "inputs": [],
      "name": "orderCount",
      "outputs": [
        {
          "internalType": "uint256",
          "name": "",
          "type": "uint256"
        }
      ],
      "stateMutability": "view",
      "type": "function",
      "constant": true
    },
    {
      "inputs": [
        {
          "internalType": "uint256",
          "name": "",
          "type": "uint256"
        }
      ],
      "name": "orders",
      "outputs": [
        {
          "internalType": "uint256",
          "name": "orderId",
          "type": "uint256"
        },
        {
          "internalType": "address payable",
          "name": "buyer",
          "type": "address"
        },
        {
          "internalType": "address payable",
          "name": "seller",
          "type": "address"
        },
        {
          "internalType": "string",
          "name": "buyerName",
          "type": "string"
        },
        {
          "internalType": "string",
          "name": "deliveryAddress",
          "type": "string"
        },
        {
          "components": [
            {
              "internalType": "string",
              "name": "name",
              "type": "string"
            },
            {
              "internalType": "uint256",
              "name": "price",
              "type": "uint256"
            },
            {
              "internalType": "string",
              "name": "imageUrl",
              "type": "string"
            },
            {
              "internalType": "string",
              "name": "description",
              "type": "string"
            }
          ],
          "internalType": "struct OrderContract.Product",
          "name": "product",
          "type": "tuple"
        },
        {
          "internalType": "uint256",
          "name": "totalAmount",
          "type": "uint256"
        },
        {
          "internalType": "enum OrderContract.OrderStatus",
          "name": "status",
          "type": "uint8"
        },
        {
          "internalType": "uint256",
          "name": "timestamp",
          "type": "uint256"
        },
        {
          "internalType": "bool",
          "name": "isPaid",
          "type": "bool"
        },
        {
          "internalType": "bool",
          "name": "isReleased",
          "type": "bool"
        },
        {
          "internalType": "uint256",
          "name": "deliveredAt",
          "type": "uint256"
        }
      ],
      "stateMutability": "view",
      "type": "function",
      "constant": true
    },
    {
      "inputs": [],
      "name": "owner",
      "outputs": [
        {
          "internalType": "address payable",
          "name": "",
          "type": "address"
        }
      ],
      "stateMutability": "view",
      "type": "function",
      "constant": true
    },
    {
      "inputs": [
        {
          "internalType": "uint256",
          "name": "",
          "type": "uint256"
        },
        {
          "internalType": "uint256",
          "name": "",
          "type": "uint256"
        }
      ],
      "name": "trackingHistory",
      "outputs": [
        {
          "internalType": "string",
          "name": "status",
          "type": "string"
        },
        {
          "internalType": "string",
          "name": "description",
          "type": "string"
        },
        {
          "internalType": "uint256",
          "name": "timestamp",
          "type": "uint256"
        }
      ],
      "stateMutability": "view",
      "type": "function",
      "constant": true
    },
    {
      "inputs": [
        {
          "internalType": "uint256",
          "name": "",
          "type": "uint256"
        }
      ],
      "name": "trackingNumbers",
      "outputs": [
        {
          "internalType": "string",
          "name": "",
          "type": "string"
        }
      ],
      "stateMutability": "view",
      "type": "function",
      "constant": true
    },
    {
      "inputs": [
        {
          "internalType": "address",
          "name": "",
          "type": "address"
        },
        {
          "internalType": "uint256",
          "name": "",
          "type": "uint256"
        }
      ],
      "name": "userOrders",
      "outputs": [
        {
          "internalType": "uint256",
          "name": "",
          "type": "uint256"
        }
      ],
      "stateMutability": "view",
      "type": "function",
      "constant": true
    },
    {
      "inputs": [
        {
          "internalType": "string",
          "name": "_buyerName",
          "type": "string"
        },
        {
          "internalType": "string",
          "name": "_deliveryAddress",
          "type": "string"
        },
        {
          "internalType": "string",
          "name": "_productName",
          "type": "string"
        },
        {
          "internalType": "uint256",
          "name": "_price",
          "type": "uint256"
        },
        {
          "internalType": "string",
          "name": "_imageUrl",
          "type": "string"
        },
        {
          "internalType": "string",
          "name": "_description",
          "type": "string"
        }
      ],
      "name": "createOrder",
      "outputs": [
        {
          "internalType": "uint256",
          "name": "",
          "type": "uint256"
        }
      ],
      "stateMutability": "payable",
      "type": "function",
      "payable": true
    },
    {
      "inputs": [
        {
          "internalType": "uint256",
          "name": "_orderId",
          "type": "uint256"
        }
      ],
      "name": "payForOrder",
      "outputs": [],
      "stateMutability": "payable",
      "type": "function",
      "payable": true
    },
    {
      "inputs": [
        {
          "internalType": "uint256",
          "name": "_orderId",
          "type": "uint256"
        },
        {
          "internalType": "enum OrderContract.OrderStatus",
          "name": "_status",
          "type": "uint8"
        },
        {
          "internalType": "string",
          "name": "_description",
          "type": "string"
        }
      ],
      "name": "updateOrderStatus",
      "outputs": [],
      "stateMutability": "nonpayable",
      "type": "function"
    },
    {
      "inputs": [
        {
          "internalType": "uint256",
          "name": "_orderId",
          "type": "uint256"
        },
        {
          "internalType": "enum OrderContract.OrderStatus",
          "name": "_status",
          "type": "uint8"
        },
        {
          "internalType": "string",
          "name": "_description",
          "type": "string"
        },
        {
          "internalType": "string",
          "name": "_trackingNumber",
          "type": "string"
        }
      ],
      "name": "updateOrderStatusWithTracking",
      "outputs": [],
      "stateMutability": "nonpayable",
      "type": "function"
    },
    {
      "inputs": [
        {
          "internalType": "uint256",
          "name": "_orderId",
          "type": "uint256"
        },
        {
          "internalType": "bool",
          "name": "_received",
          "type": "bool"
        }
      ],
      "name": "confirmDelivery",
      "outputs": [],
      "stateMutability": "nonpayable",
      "type": "function"
    },
    {
      "inputs": [
        {
          "internalType": "uint256",
          "name": "_orderId",
          "type": "uint256"
        }
      ],
      "name": "getEscrowStatus",
      "outputs": [
        {
          "internalType": "bool",
          "name": "isEscrowed",
          "type": "bool"
        },
        {
          "internalType": "bool",
          "name": "isReleased",
          "type": "bool"
        },
        {
          "internalType": "uint256",
          "name": "amount",
          "type": "uint256"
        }
      ],
      "stateMutability": "view",
      "type": "function",
      "constant": true
    },
    {
      "inputs": [
        {
          "internalType": "uint256",
          "name": "_orderId",
          "type": "uint256"
        }
      ],
      "name": "getOrder",
      "outputs": [
        {
          "internalType": "uint256",
          "name": "orderId",
          "type": "uint256"
        },
        {
          "internalType": "address",
          "name": "buyer",
          "type": "address"
        },
        {
          "internalType": "address",
          "name": "seller",
          "type": "address"
        },
        {
          "internalType": "string",
          "name": "buyerName",
          "type": "string"
        },
        {
          "internalType": "string",
          "name": "deliveryAddress",
          "type": "string"
        },
        {
          "internalType": "string",
          "name": "productName",
          "type": "string"
        },
        {
          "internalType": "uint256",
          "name": "price",
          "type": "uint256"
        },
        {
          "internalType": "string",
          "name": "imageUrl",
          "type": "string"
        },
        {
          "internalType": "uint256",
          "name": "totalAmount",
          "type": "uint256"
        },
        {
          "internalType": "enum OrderContract.OrderStatus",
          "name": "status",
          "type": "uint8"
        },
        {
          "internalType": "uint256",
          "name": "timestamp",
          "type": "uint256"
        },
        {
          "internalType": "bool",
          "name": "isPaid",
          "type": "bool"
        },
        {
          "internalType": "bool",
          "name": "isReleased",
          "type": "bool"
        },
        {
          "internalType": "uint256",
          "name": "deliveredAt",
          "type": "uint256"
        }
      ],
      "stateMutability": "view",
      "type": "function",
      "constant": true
    },
    {
      "inputs": [
        {
          "internalType": "uint256",
          "name": "_orderId",
          "type": "uint256"
        }
      ],
      "name": "getTrackingHistory",
      "outputs": [
        {
          "components": [
            {
              "internalType": "string",
              "name": "status",
              "type": "string"
            },
            {
              "internalType": "string",
              "name": "description",
              "type": "string"
            },
            {
              "internalType": "uint256",
              "name": "timestamp",
              "type": "uint256"
            }
          ],
          "internalType": "struct OrderContract.TrackingUpdate[]",
          "name": "",
          "type": "tuple[]"
        }
      ],
      "stateMutability": "view",
      "type": "function",
      "constant": true
    },
    {
      "inputs": [
        {
          "internalType": "address",
          "name": "_user",
          "type": "address"
        }
      ],
      "name": "getUserOrders",
      "outputs": [
        {
          "internalType": "uint256[]",
          "name": "",
          "type": "uint256[]"
        }
      ],
      "stateMutability": "view",
      "type": "function",
      "constant": true
    },
    {
      "inputs": [],
      "name": "getOrderCount",
      "outputs": [
        {
          "internalType": "uint256",
          "name": "",
          "type": "uint256"
        }
      ],
      "stateMutability": "view",
      "type": "function",
      "constant": true
    },
    {
      "inputs": [
        {
          "internalType": "uint256",
          "name": "_orderId",
          "type": "uint256"
        }
      ],
      "name": "getFullTrackingInfo",
      "outputs": [
        {
          "internalType": "uint256",
          "name": "orderId",
          "type": "uint256"
        },
        {
          "internalType": "string",
          "name": "productName",
          "type": "string"
        },
        {
          "internalType": "string",
          "name": "currentStatus",
          "type": "string"
        },
        {
          "components": [
            {
              "internalType": "string",
              "name": "status",
              "type": "string"
            },
            {
              "internalType": "string",
              "name": "description",
              "type": "string"
            },
            {
              "internalType": "uint256",
              "name": "timestamp",
              "type": "uint256"
            }
          ],
          "internalType": "struct OrderContract.TrackingUpdate[]",
          "name": "history",
          "type": "tuple[]"
        }
      ],
      "stateMutability": "view",
      "type": "function",
      "constant": true
    },
    {
      "inputs": [
        {
          "internalType": "uint256",
          "name": "_orderId",
          "type": "uint256"
        },
        {
          "internalType": "string",
          "name": "_trackingNumber",
          "type": "string"
        }
      ],
      "name": "updateTrackingNumber",
      "outputs": [],
      "stateMutability": "nonpayable",
      "type": "function"
    },
    {
      "inputs": [
        {
          "internalType": "uint256",
          "name": "_orderId",
          "type": "uint256"
        }
      ],
      "name": "getTrackingNumber",
      "outputs": [
        {
          "internalType": "string",
          "name": "",
          "type": "string"
        }
      ],
      "stateMutability": "view",
      "type": "function",
      "constant": true
    }
  ],
  "bytecode": "0x60808060405234620000c5576000600181815581548181811c91168015620000ba575b6020821014620000a657601f81116200007a575b50507f4c656769744c61680000000000000000000000000000000000000000000000109055600280546001600160a01b03191633179055612c6c9081620000cb8239f35b828052601f60208420910160051c8101905b8181106200009b575062000036565b83815582016200008c565b634e487b7160e01b83526022600452602483fd5b90607f169062000022565b600080fdfe6080604052600436101561001257600080fd5b60003560e01c806304ef078114611ef05780632453ffa814610bea578063345460cd14611de0578063534cc1b014611db457806355bfb5c4146113ee57806360e1102e146112b257806363c69f08146111fe5780636e31035b14610ef6578063738f376014610c60578063856652e914610c085780638d0a5fbb14610bea5780638da5cb5b14610bc15780639b023fec1461089d578063a1e1e6e11461087e578063a85c38ef14610733578063c36034e2146106d5578063d09ef241146104cb578063d9c2dcee14610266578063e097b6b1146101e05763f5ec2eed146100f857600080fd5b346101db5760003660031901126101db576040516000805461011981612314565b808452906001908181169081156101b4575060011461015b575b61015784610143818603826123bb565b604051918291602083526020830190612482565b0390f35b600080805292507f290decd9548b62a8d60345a988386fc84ba6bc95484008f6362f93160ef3e5635b82841061019c57505050810160200161014382610133565b80546020858701810191909152909301928101610184565b60ff191660208087019190915292151560051b850190920192506101439150839050610133565b600080fd5b346101db5760403660031901126101db576024356004356000526004602052604060002080548210156101db5761024e9161021a91612640565b50610224816123dc565b9061025c6002610236600184016123dc565b92015491604051948594606086526060860190612482565b908482036020860152612482565b9060408301520390f35b6020806003193601126101db5760043590811515806104bf575b610289906128f4565b6000828152600382526040902060018101546001600160a01b0316330361048557600c81019081549160ff831661044b576009820154341061040f5792600080516020612c1783398151915294926001600a81946040978360ff19809616179055019182541617905582600052600481526103968460002085519061030d8261234e565b8651610318816123a0565b601081526f14185e5b595b9d08149958d95a5d995960821b85820152825286516103418161234e565b603681527f5061796d656e7420686173206265656e20726563656976656420616e64206f72858201527519195c881a5cc818995a5b99c81c1c9bd8d95cdcd95960521b88820152848301524287830152612680565b83518381523360208201523460408201527fa4678e82fe7b97eb2133ead828ed5d14ebb0c83961617dc347b698964d070b6690606090a183518381523360208201523460408201527f614a638017b56c89c474f25edfe4c35af6a675fe98c78f962dc29c53f706046890606090a18351928352820152a1005b60405162461bcd60e51b8152600481018590526014602482015273125b9cdd59999a58da595b9d081c185e5b595b9d60621b6044820152606490fd5b60405162461bcd60e51b815260048101859052601260248201527113dc99195c88185b1c9958591e481c185a5960721b6044820152606490fd5b60405162461bcd60e51b81526004810183905260126024820152714f6e6c792062757965722063616e2070617960701b6044820152606490fd5b50600154821115610280565b346101db5760203660031901126101db57600435801515806106c9575b6104f1906128f4565b60005260036020526040600020600d6040519161050d83612369565b8054835260018101546001600160a01b039081166020850152600282015416604084015261053d600382016123dc565b606084015261054e600482016123dc565b608084015261055f600582016125ec565b60a0840152600981015460c084015261058260ff600a8301541660e0850161265c565b600b81015461010084015260ff600c820154818116151561012086015260081c1615156101408401520154610160820152805160018060a01b036020830151169160018060a01b0360408201511660608201519160808101519260a08201519384516040602087015196015160c08501519660e08601519260058410156106b357610100870151946101208801511515966101408901511515986101600151996040519d8e809e81526020015260408d01528b6101c06060819201528c0161064991612482565b8b810360808d015261065a91612482565b8a810360a08c015261066b91612482565b9060c08a015288810360e08a015261068291612482565b95610100880152610120870161069791612633565b6101408601526101608501526101808401526101a08301520390f35b634e487b7160e01b600052602160045260246000fd5b506001548111156104e8565b346101db5760203660031901126101db5760043580151580610727575b6106fb906128f4565b600052600460205261015761071360406000206129c6565b60405191829160208352602083019061253a565b506001548111156106f2565b346101db5760203660031901126101db57600435600052600360205260406000208054600160a01b600190039182600182015416926002820154166003820161077b906123dc565b91610788600482016123dc565b92610795600583016125ec565b93600983015494600a84015460ff1691600b85015493600c86015495600d0154966040519a8b9a8b5260208b015260408a01526101808060608b015289016107dc91612482565b88810360808a01526107ed91612482565b9087820360a08901528051608083526080830161080991612482565b60208201516020840152604082015190838103604085015261082a91612482565b906060015191808203906060015261084191612482565b9460c087015260e0860161085491612633565b61010085015260ff8116151561012085015260081c60ff1615156101408401526101608301520390f35b346101db5760203660031901126101db57610157610143600435612a50565b346101db5760803660031901126101db5760043560243560058110156101db576001600160401b036044358181116101db576108dd9036906004016124dd565b6064358281116101db576108f59036906004016124dd565b9084151580610bb5575b610908906128f4565b846000526020926003845260406000209261092686600a8601612668565b60028614918280610bab575b610a02575b50509261099b6109a89360409693600080516020612c178339815191529896606090600187146000146109ab57505090506109706129a0565b905b8660005260048452876000209088519261098b8461234e565b8352848301524288830152612680565b8451938452830190612633565ba1005b156109c2575090506109bb61297d565b905b610972565b600386036109ee5750600d6109d5612958565b92018054156109e5575b50610972565b429055896109df565b9150600485036109bd5790506109bb612933565b87600052600686526040600020908251908111610b9557610a238254612314565b601f8111610b4f575b5086601f8211600114610aba5793600080516020612bf7833981519152610a9f61099b956109a899958560409d9a96600080516020612c178339815191529f9d9a600091610aaf575b508160011b916000199060031b1c19161790555b8b519182918c83528d8a8401528d830190612482565b0390a19396985093965093610937565b905083015138610a75565b601f1982169083600052886000209160005b818110610b38575061099b956109a89995600186600080516020612c178339815191529f9d9a9660409f9c9896600080516020612bf783398151915297610a9f9710610b1f575b5050811b019055610a89565b85015160001960f88460031b161c191690553880610b13565b91928a60018192868a015181550194019201610acc565b8260005287600020601f830160051c810191898410610b8b575b601f0160051c01905b818110610b7f5750610a2c565b60008155600101610b72565b9091508190610b69565b634e487b7160e01b600052604160045260246000fd5b5081511515610932565b506001548511156108ff565b346101db5760003660031901126101db576002546040516001600160a01b039091168152602090f35b346101db5760003660031901126101db576020600154604051908152f35b346101db5760403660031901126101db57610c21612524565b6001600160a01b03166000908152600560205260409020805460243591908210156101db57602091610c52916125be565b90546040519160031b1c8152f35b346101db576020806003193601126101db576004359081151580610eea575b610c88906128f4565b8160005260038152604060002060405190610ca282612369565b8054825260018101546001600160a01b03908116848401908152600283015482166040850190815291908190610cda600386016123dc565b6060870152610ceb600486016123dc565b6080870152610cfc600586016125ec565b9560a08101968752600986015460c0820152610160600d60ff600a8901541697610d2a60e08501998a61265c565b600b81015461010085015260ff600c820154818116151561012087015260081c161515610140850152015491015251163314918215610edc575b505015610e7c57805160058110156106b357600103610de05750608092610dd261015792610d906129a0565b905b51519260005260048552610dc4610dac60406000206129c6565b93604051978897600089528801526080870190612482565b908582036040870152612482565b90838203606085015261253a565b805160058110156106b357600203610e0b5750608092610dd261015792610e0561297d565b90610d92565b805160058110156106b357600303610e305750608092610dd261015792610e05612958565b519260058410156106b357610dd261015792600460809614600014610e5757610e05612933565b604051610e63816123a0565b600781526650656e64696e6760c81b8682015290610d92565b60405162461bcd60e51b815260048101849052603260248201527f4f6e6c79206275796572206f722073656c6c65722063616e207669657720747260448201527130b1b5b4b7339034b73337b936b0ba34b7b760711b6064820152608490fd5b909150511633148580610d64565b50600154821115610c7f565b346101db5760403660031901126101db5760246001600160401b0360043582358281116101db57610f2b9036906004016124dd565b811515806111f2575b610f3d906128f4565b8051156111ae578160005260209260038452604060002060018060a01b038060028301541633149081156111a0575b501561114457600a015460ff16600581101561112f576002036110eb57826000526006845260406000209482519182116110d75750610fab8554612314565b601f8111611091575b5083601f821160011461101a57948161100a9392600080516020612bf78339815191529760009161100f575b508160011b916000199060031b1c19161790555b6040805194859485528401526040830190612482565b0390a1005b905083015188610fe0565b601f1982169086600052856000209160005b81811061107a575092600080516020612bf783398151915297926001928261100a979610611061575b5050811b019055610ff4565b85015160001960f88460031b161c191690558880611055565b91928760018192868901518155019401920161102c565b8560005284600020601f830160051c8101918684106110cd575b601f0160051c01905b8181106110c15750610fb4565b600081556001016110b4565b90915081906110ab565b634e487b7160e01b60009081526041600452fd5b60405162461bcd60e51b815260048101859052601b818701527f4f72646572206d757374206265207368697070656420666972737400000000006044820152606490fd5b85634e487b7160e01b60005260216004526000fd5b60405162461bcd60e51b815260048101869052602f818801527f4f6e6c792073656c6c6572206f72206f776e65722063616e207570646174652060448201526e3a3930b1b5b4b73390373ab6b132b960891b6064820152608490fd5b905060025416331487610f6c565b60405162461bcd60e51b815260206004820152601f818601527f547261636b696e67206e756d6265722063616e6e6f7420626520656d707479006044820152606490fd5b50600154821115610f34565b346101db576020806003193601126101db576001600160a01b03611220612524565b1660005260058152604060002060405190818382549182815201908192600052846000209060005b8682821061129e57868661125e828803836123bb565b604051928392818401908285525180915260408401929160005b82811061128757505050500390f35b835185528695509381019392810192600101611278565b835485529093019260019283019201611248565b346101db5760603660031901126101db5760043560243560058110156101db57604435916001600160401b0383116101db576109a860409261137961130a600080516020612c178339815191529636906004016124dd565b841515806113e2575b61131c906128f4565b846000526003602052856000209061133784600a8401612668565b6060600185036113885750905061134c6129a0565b905b85600052600460205286600020908751926113688461234e565b835260208301524287830152612680565b83519283526020830190612633565b600285036113a25750905061139b61297d565b905b61134e565b600385036113ce5750600d6113b5612958565b92018054156113c5575b5061134e565b429055886113bf565b91506004840361139d57905061139b612933565b50600154851115611313565b60c03660031901126101db576004356001600160401b0381116101db576114199036906004016124dd565b6024356001600160401b0381116101db576114389036906004016124dd565b6044356001600160401b0381116101db576114579036906004016124dd565b906084356001600160401b0381116101db576114779036906004016124dd565b9160a4356001600160401b0381116101db576114979036906004016124dd565b916064353410611d6f57600154926000198414611d59576001948585018655604051936114c385612385565b8452606435602085015260408401526060830152838060a01b036002541694604051956114ef87612369565b858501875233602088015260408701526060860152608085015260a084015260643560c0840152600060e0840152426101008401528161012084015260006101408401526000610160840152016000526003602052604060002090805182556001820160018060a01b03602083015116906bffffffffffffffffffffffff60a01b9182825416179055600283019060018060a01b036040840151169082541617905560608101519182516001600160401b038111610b95576115b46003830154612314565b601f8111611d12575b506020601f8211600114611ca45781929394600092611c99575b50508160011b916000199060031b1c19161760038201555b60808201519182516001600160401b038111610b95576116126004840154612314565b601f8111611c52575b506020601f8211600114611be45781929394600092611bd9575b50508160011b916000199060031b1c19161760048301555b60a08101519081519283516001600160401b038111610b95576116736005830154612314565b601f8111611b92575b506020601f8211600114611b23578192939495600092611b18575b50508160011b916000199060031b1c19161760058201555b6020830151600682015560408301519283516001600160401b038111610b95576116dc6007840154612314565b601f8111611ad1575b506020601f8211600114611a5e5781906060949596600092611a53575b50508160011b916000199060031b1c19161760078401555b01519182516001600160401b038111610b955761173a6008840154612314565b601f8111611a0c575b506020601f821160011461199e5781929394600092611993575b50508160011b916000199060031b1c19161760088301555b60c0810151600983015560e081015160058110156106b357600d916117a061016092600a8601612668565b610100810151600b850155600c84016101208201511515815460ff61ff00610140860151151560081b1692169061ffff19161717905501519101553360005260056020526040600020600154908054600160401b811015610b955761180a916001820181556125be565b819291549060031b91821b91600019901b191617905560015460005260046020526118c16040600020604051906118408261234e565b60405161184c816123a0565b600d81526c13dc99195c8810dc99585d1959609a1b602082015282526040516118748161234e565b602a81527f596f7572206f7264657220686173206265656e206372656174656420616e642060208201526969732070656e64696e6760b01b60408201526020830152426040830152612680565b60206001547f28eb86fd03c9bd96a8a83e4a46ab2ad257b70cea893d98ad6d482e96aa25fad0604051806119126064353386846040919493926060820195825260018060a01b031660208201520152565b0390a16040805182815233602082015234918101919091527fa4678e82fe7b97eb2133ead828ed5d14ebb0c83961617dc347b698964d070b6690606090a16040805182815233602082015234918101919091527f614a638017b56c89c474f25edfe4c35af6a675fe98c78f962dc29c53f706046890606090a1604051908152f35b01519050848061175d565b6008840160005260206000209060005b601f19841681106119f45750600193949583601f198116106119db575b505050811b016008830155611775565b015160001960f88460031b161c191690558480806119cb565b9091602060018192858a0151815501930191016119ae565b600884016000526020600020601f830160051c810160208410611a4c575b601f830160051c82018110611a40575050611743565b60008155600101611a2a565b5080611a2a565b015190508680611702565b6007840160005260206000209560005b601f1984168110611ab957509582916060959697600194601f19811610611aa0575b505050811b01600784015561171a565b015160001960f88460031b161c19169055868080611a90565b82820151885560019097019660209283019201611a6e565b600784016000526020600020601f830160051c810160208410611b11575b601f830160051c82018110611b055750506116e5565b60008155600101611aef565b5080611aef565b015190508580611697565b6005830160005260206000209060005b601f1984168110611b7a575060019394959683601f19811610611b61575b505050811b0160058201556116af565b015160001960f88460031b161c19169055858080611b51565b9091602060018192858b015181550193019101611b33565b600583016000526020600020601f830160051c810160208410611bd2575b601f830160051c82018110611bc657505061167c565b60008155600101611bb0565b5080611bb0565b015190508480611635565b6004840160005260206000209060005b601f1984168110611c3a5750600193949583601f19811610611c21575b505050811b01600483015561164d565b015160001960f88460031b161c19169055848080611c11565b9091602060018192858a015181550193019101611bf4565b600484016000526020600020601f830160051c810160208410611c92575b601f830160051c82018110611c8657505061161b565b60008155600101611c70565b5080611c70565b0151905084806115d7565b6003830160005260206000209060005b601f1984168110611cfa5750600193949583601f19811610611ce1575b505050811b0160038201556115ef565b015160001960f88460031b161c19169055848080611cd1565b9091602060018192858a015181550193019101611cb4565b600383016000526020600020601f830160051c810160208410611d52575b601f830160051c82018110611d465750506115bd565b60008155600101611d30565b5080611d30565b634e487b7160e01b600052601160045260246000fd5b60405162461bcd60e51b815260206004820152601e60248201527f496e73756666696369656e74207061796d656e7420666f72206f7264657200006044820152606490fd5b346101db5760203660031901126101db57600435600052600660205261015761014360406000206123dc565b346101db5760203660031901126101db5760043580151580611ee4575b611e06906128f4565b60005260036020526060604060002060405190611e2282612369565b8054825260018101546001600160a01b0390811660208401526002820154166040830152611e52600382016123dc565b83830152611e62600482016123dc565b6080830152611e73600582016125ec565b60a0830152600981015460c08301908152611e9860ff600a8401541660e0850161265c565b600b820154610100840152600c82015492610160600d60ff8087161515968761012086015260081c16151594856101408501520154910152519060405192835260208301526040820152f35b50600154811115611dfd565b346101db5760403660031901126101db576004356024803580151581036101db5782151580612308575b611f23906128f4565b826000526020916003835260406000209160018060a01b03908160018501541633036122c457600a84019060ff82541660058110156122af5760030361226b57156121ce57600c840190815460ff81161561218a5760ff8160081c1661214657815460ff19908116600417909255166001178155600d840180541561213d575b50856000526004855261200f604060002060405190611fc18261234e565b611fc9612933565b8252604051611fd7816123a0565b601e81527f44656c697665727920636f6e6669726d656420627920637573746f6d657200008982015288830152426040830152612680565b805460ff8160081c161580612130575b612099575b505050506009015460408051848152336020820152808201929092527f64a783c6150854ae756454311c7625a965c757996ba8cc1a8c6205380f33725093909290917fa4678e82fe7b97eb2133ead828ed5d14ebb0c83961617dc347b698964d070b6690606090a182519182523390820152a1005b600080938193610100839461ff0019161790556002870154166009870154905af13d1561212b573d6120ca816124c2565b906120d860405192836123bb565b81526000853d92013e5b156120ef57808080612024565b8260166064926040519262461bcd60e51b845260048401528201527514185e5b595b9d081c995b19585cd94819985a5b195960521b6044820152fd5b6120e2565b506009850154151561201f565b42905586611fa3565b60405162461bcd60e51b8152600481018890526018818701527f5061796d656e7420616c72656164792072656c656173656400000000000000006044820152606490fd5b60405162461bcd60e51b815260048101889052601a818701527f5061796d656e74206e6f742068656c6420696e20657363726f770000000000006044820152606490fd5b5050505061226991600052600481526040600020604051916121ef8361234e565b6040516121fb816123a0565b601081526f1499599d5b990814995c5d595cdd195960821b828201528352604051906122268261234e565b602382527f437573746f6d6572207265706f72746564206974656d206e6f7420726563656981830152621d995960ea1b6040830152830152426040830152612680565b005b60405162461bcd60e51b8152600481018790526017818601527f4f72646572206e6f74207965742064656c6976657265640000000000000000006044820152606490fd5b84634e487b7160e01b60005260216004526000fd5b60405162461bcd60e51b815260048101869052601f818501527f4f6e6c792062757965722063616e20636f6e6669726d2064656c6976657279006044820152606490fd5b50600154831115611f1a565b90600182811c92168015612344575b602083101461232e57565b634e487b7160e01b600052602260045260246000fd5b91607f1691612323565b606081019081106001600160401b03821117610b9557604052565b61018081019081106001600160401b03821117610b9557604052565b608081019081106001600160401b03821117610b9557604052565b604081019081106001600160401b03821117610b9557604052565b90601f801991011681019081106001600160401b03821117610b9557604052565b90604051918260008254926123f084612314565b90818452600194858116908160001461245f575060011461241c575b505061241a925003836123bb565b565b9093915060005260209081600020936000915b81831061244757505061241a9350820101388061240c565b8554888401850152948501948794509183019161242f565b91505061241a94506020925060ff191682840152151560051b820101388061240c565b919082519283825260005b8481106124ae575050826000602080949584010152601f8019910116010190565b60208183018101518483018201520161248d565b6001600160401b038111610b9557601f01601f191660200190565b81601f820112156101db578035906124f4826124c2565b9261250260405194856123bb565b828452602083830101116101db57816000926020809301838601378301015290565b600435906001600160a01b03821682036101db57565b908082519081815260208091019281808460051b8301019501936000915b8483106125685750505050505090565b9091929394958480600192601f198582030186528951906125a461259483516060808552840190612482565b8484015183820386850152612482565b916040809101519101529801930193019194939290612558565b80548210156125d65760005260206000200190600090565b634e487b7160e01b600052603260045260246000fd5b906040516125f981612385565b606061262e6003839561260b816123dc565b855260018101546020860152612623600282016123dc565b6040860152016123dc565b910152565b9060058210156106b35752565b80548210156125d6576000526003602060002091020190600090565b60058210156106b35752565b9060058110156106b35760ff80198354169116179055565b908154600160401b811015610b95576126a0906001938482018155612640565b9290926128de578151908151906001600160401b0391828111610b9557806126c88754612314565b94601f9586811161288a575b506020908683116001146128275760009261281c575b5050600019600383901b1c191690821b1785555b8085019260208501518051938411610b955761271a8554612314565b8281116127d4575b5060209184116001146127675792806040959381936002989660009461275c575b50501b916000199060031b1c19161790555b0151910155565b015192503880612743565b90601f9392931983169185600052816000209260005b8181106127be575091600297959391856040989694106127a5575b505050811b019055612755565b015160001960f88460031b161c19169055388080612798565b828401518555938601936020938401930161277d565b8560005260206000208380870160051c82019260208810612813575b0160051c019084905b828110612807575050612722565b600081550184906127f9565b925081926127f0565b0151905038806126ea565b90849350601f1983169189600052816000209260005b81811061287257508411612859575b505050811b0185556126fe565b015160001960f88460031b161c1916905538808061284c565b8284015185558796909401936020938401930161283d565b9091506000888152602081208780860160051c820193602087106128d5575b91879187969594930160051c01925b8381106128c7575050506126d4565b8281558695508791016128b8565b935081936128a9565b634e487b7160e01b600052600060045260246000fd5b156128fb57565b60405162461bcd60e51b815260206004820152601060248201526f125b9d985b1a59081bdc99195c88125160821b6044820152606490fd5b60405190612940826123a0565b600982526810dbdb999a5c9b595960ba1b6020830152565b60405190612965826123a0565b600982526811195b1a5d995c995960ba1b6020830152565b6040519061298a826123a0565b600782526614da1a5c1c195960ca1b6020830152565b604051906129ad826123a0565b600a82526950726f63657373696e6760b01b6020830152565b9081546001600160401b038111610b95576040928351936020906129ef828560051b01876123bb565b8386526000928352818320908287015b858510612a0e57505050505050565b6003846001928451612a1f8161234e565b612a28876123dc565b8152612a358588016123dc565b838201526002870154868201528152019301940193916129ff565b80151580612bea575b612a62906128f4565b6000818152600360205260409081812092825193612a7f85612369565b8054855260018101546001600160a01b03908116602087015260028201541684860152612aae600382016123dc565b6060860152600494612ac18683016123dc565b6080820152612ad2600583016125ec565b60a0820152600982015460c0820152610160600d60ff600a8501541693612afd60e08501958661265c565b600b81015461010085015260ff600c820154818116151561012087015260081c161515610140850152015491015280516005811015612bd757600214159081612bc0575b81612b98575b50612b6157612b5e935081526006602052206123dc565b90565b50909182519260208401918483106001600160401b03841117612b85575052815290565b634e487b7160e01b845260419052602483fd5b9050516005811015612bad5784141538612b47565b634e487b7160e01b835260218552602483fd5b809150516005811015612bd7576003141590612b41565b634e487b7160e01b845260218652602484fd5b50600154811115612a5956fe1d49be5728f719b9fe6aedbb47b4c99078229864890af28ad5d08fdaebb595dfd9a86b644eb5f5b43cc8a700849852481080361c7a4b00ba646d1b46c5585f95a2646970667358221220e9a13b8c6096c676a6d3fb0349642b03ab36275ba169a61e3c347dac8a20928864736f6c63430008130033",
  "immutableReferences": {},
  "source": "// SPDX-License-Identifier: MIT\r\npragma solidity ^0.8.19;\r\n\r\ncontract OrderContract {\r\n    enum OrderStatus { Pending, Processing, Shipped, Delivered, Confirmed }\r\n    \r\n    string public companyName;\r\n    uint public orderCount;\r\n    address payable public owner;\r\n\r\n    constructor() {\r\n        orderCount = 0;\r\n        companyName = \"LegitLah\";\r\n        owner = payable(msg.sender);\r\n    }\r\n\r\n    struct Product {\r\n        string name;\r\n        uint price;\r\n        string imageUrl;\r\n        string description;\r\n    }\r\n\r\n    struct Order {\r\n        uint orderId;\r\n        address payable buyer;\r\n        address payable seller;\r\n        string buyerName;\r\n        string deliveryAddress;\r\n        Product product;\r\n        uint totalAmount;\r\n        OrderStatus status;\r\n        uint timestamp;\r\n        bool isPaid;\r\n        bool isReleased;\r\n        uint deliveredAt; \r\n    }\r\n\r\n    struct TrackingUpdate {\r\n        string status;\r\n        string description;\r\n        uint timestamp;\r\n    }\r\n\r\n    mapping(uint => Order) public orders;\r\n    mapping(uint => TrackingUpdate[]) public trackingHistory;\r\n    mapping(address => uint[]) public userOrders;\r\n    mapping(uint => string) public trackingNumbers; // Store tracking numbers\r\n\r\n    event OrderCreated(uint orderId, address buyer, uint amount);\r\n    event OrderPaid(uint orderId, address buyer, uint amount);\r\n    event PaymentHeld(uint orderId, address payer, uint amount);\r\n    event OrderStatusUpdated(uint orderId, OrderStatus status);\r\n    event DeliveryConfirmed(uint orderId, address buyer);\r\n    event TrackingNumberUpdated(uint orderId, string trackingNumber);\r\n\r\n    // Create a new order\r\n    function createOrder(\r\n        string memory _buyerName,\r\n        string memory _deliveryAddress,\r\n        string memory _productName,\r\n        uint _price,\r\n        string memory _imageUrl,\r\n        string memory _description\r\n    ) public payable returns (uint) {\r\n        require(msg.value >= _price, \"Insufficient payment for order\");\r\n        \r\n        orderCount++;\r\n        \r\n        Product memory newProduct = Product({\r\n            name: _productName,\r\n            price: _price,\r\n            imageUrl: _imageUrl,\r\n            description: _description\r\n        });\r\n        \r\n        orders[orderCount] = Order({\r\n            orderId: orderCount,\r\n            buyer: payable(msg.sender),\r\n            seller: owner,\r\n            buyerName: _buyerName,\r\n            deliveryAddress: _deliveryAddress,\r\n            product: newProduct,\r\n            totalAmount: _price,\r\n            status: OrderStatus.Pending,\r\n            timestamp: block.timestamp,\r\n            isPaid: true,\r\n            isReleased: false,\r\n            deliveredAt: 0\r\n        });\r\n        \r\n        userOrders[msg.sender].push(orderCount);\r\n        \r\n        // Add initial tracking\r\n        trackingHistory[orderCount].push(TrackingUpdate({\r\n            status: \"Order Created\",\r\n            description: \"Your order has been created and is pending\",\r\n            timestamp: block.timestamp\r\n        }));\r\n        \r\n        emit OrderCreated(orderCount, msg.sender, _price);\r\n        emit OrderPaid(orderCount, msg.sender, msg.value);\r\n        emit PaymentHeld(orderCount, msg.sender, msg.value);\r\n        return orderCount;\r\n    }\r\n\r\n    // Pay for order (kept for backward compatibility)\r\n    function payForOrder(uint _orderId) public payable {\r\n        require(_orderId > 0 && _orderId <= orderCount, \"Invalid order ID\");\r\n        Order storage order = orders[_orderId];\r\n        require(msg.sender == order.buyer, \"Only buyer can pay\");\r\n        require(!order.isPaid, \"Order already paid\");\r\n        require(msg.value >= order.totalAmount, \"Insufficient payment\");\r\n        \r\n        order.isPaid = true;\r\n        order.status = OrderStatus.Processing;\r\n        \r\n        trackingHistory[_orderId].push(TrackingUpdate({\r\n            status: \"Payment Received\",\r\n            description: \"Payment has been received and order is being processed\",\r\n            timestamp: block.timestamp\r\n        }));\r\n        \r\n        emit OrderPaid(_orderId, msg.sender, msg.value);\r\n        emit PaymentHeld(_orderId, msg.sender, msg.value);\r\n        emit OrderStatusUpdated(_orderId, OrderStatus.Processing);\r\n    }\r\n\r\n    // Update order status (only contract owner or authorized parties)\r\n    function updateOrderStatus(uint _orderId, OrderStatus _status, string memory _description) public {\r\n        require(_orderId > 0 && _orderId <= orderCount, \"Invalid order ID\");\r\n        Order storage order = orders[_orderId];\r\n        \r\n        order.status = _status;\r\n        \r\n        string memory statusText;\r\n        if (_status == OrderStatus.Processing) {\r\n            statusText = \"Processing\";\r\n        } else if (_status == OrderStatus.Shipped) {\r\n            statusText = \"Shipped\";\r\n        } else if (_status == OrderStatus.Delivered) {\r\n            statusText = \"Delivered\";\r\n            if (order.deliveredAt == 0) {\r\n                order.deliveredAt = block.timestamp;\r\n            }\r\n        } else if (_status == OrderStatus.Confirmed) {\r\n            statusText = \"Confirmed\";\r\n        }\r\n        \r\n        trackingHistory[_orderId].push(TrackingUpdate({\r\n            status: statusText,\r\n            description: _description,\r\n            timestamp: block.timestamp\r\n        }));\r\n        \r\n        emit OrderStatusUpdated(_orderId, _status);\r\n    }\r\n\r\n    // Update order status with tracking number (for shipping)\r\n    function updateOrderStatusWithTracking(uint _orderId, OrderStatus _status, string memory _description, string memory _trackingNumber) public {\r\n        require(_orderId > 0 && _orderId <= orderCount, \"Invalid order ID\");\r\n        Order storage order = orders[_orderId];\r\n        \r\n        order.status = _status;\r\n        \r\n        // Store tracking number if status is Shipped\r\n        if (_status == OrderStatus.Shipped && bytes(_trackingNumber).length > 0) {\r\n            trackingNumbers[_orderId] = _trackingNumber;\r\n            emit TrackingNumberUpdated(_orderId, _trackingNumber);\r\n        }\r\n        \r\n        string memory statusText;\r\n        if (_status == OrderStatus.Processing) {\r\n            statusText = \"Processing\";\r\n        } else if (_status == OrderStatus.Shipped) {\r\n            statusText = \"Shipped\";\r\n        } else if (_status == OrderStatus.Delivered) {\r\n            statusText = \"Delivered\";\r\n            if (order.deliveredAt == 0) {\r\n                order.deliveredAt = block.timestamp;\r\n            }\r\n        } else if (_status == OrderStatus.Confirmed) {\r\n            statusText = \"Confirmed\";\r\n        }\r\n        \r\n        trackingHistory[_orderId].push(TrackingUpdate({\r\n            status: statusText,\r\n            description: _description,\r\n            timestamp: block.timestamp\r\n        }));\r\n        \r\n        emit OrderStatusUpdated(_orderId, _status);\r\n    }\r\n\r\n    // Confirm delivery by buyer\r\n    function confirmDelivery(uint _orderId, bool _received) public {\r\n        require(_orderId > 0 && _orderId <= orderCount, \"Invalid order ID\");\r\n        Order storage order = orders[_orderId];\r\n        require(msg.sender == order.buyer, \"Only buyer can confirm delivery\");\r\n        require(order.status == OrderStatus.Delivered, \"Order not yet delivered\");\r\n        \r\n        if (_received) {\r\n            require(order.isPaid, \"Payment not held in escrow\");\r\n            require(!order.isReleased, \"Payment already released\");\r\n            order.status = OrderStatus.Confirmed;\r\n            order.isPaid = true;\r\n            if (order.deliveredAt == 0) {\r\n                order.deliveredAt = block.timestamp;\r\n            }\r\n            \r\n            trackingHistory[_orderId].push(TrackingUpdate({\r\n                status: \"Confirmed\",\r\n                description: \"Delivery confirmed by customer\",\r\n                timestamp: block.timestamp\r\n            }));\r\n\r\n            // Release payment to seller only after buyer confirms delivery\r\n            if (!order.isReleased && order.totalAmount > 0) {\r\n                order.isReleased = true;\r\n                (bool success, ) = order.seller.call{value: order.totalAmount}(\"\");\r\n                require(success, \"Payment release failed\");\r\n            }\r\n            \r\n            emit OrderPaid(_orderId, msg.sender, order.totalAmount);\r\n            emit DeliveryConfirmed(_orderId, msg.sender);\r\n        } else {\r\n            trackingHistory[_orderId].push(TrackingUpdate({\r\n                status: \"Refund Requested\",\r\n                description: \"Customer reported item not received\",\r\n                timestamp: block.timestamp\r\n            }));\r\n        }\r\n    }\r\n\r\n    // View escrow/payment status for an order\r\n    function getEscrowStatus(uint _orderId) public view returns (bool isEscrowed, bool isReleased, uint amount) {\r\n        require(_orderId > 0 && _orderId <= orderCount, \"Invalid order ID\");\r\n        Order memory order = orders[_orderId];\r\n        return (order.isPaid, order.isReleased, order.totalAmount);\r\n    }\r\n\r\n    // Get order details\r\n    function getOrder(uint _orderId) public view returns (\r\n        uint orderId,\r\n        address buyer,\r\n        address seller,\r\n        string memory buyerName,\r\n        string memory deliveryAddress,\r\n        string memory productName,\r\n        uint price,\r\n        string memory imageUrl,\r\n        uint totalAmount,\r\n        OrderStatus status,\r\n        uint timestamp,\r\n        bool isPaid,\r\n        bool isReleased,\r\n        uint deliveredAt\r\n    ) {\r\n        require(_orderId > 0 && _orderId <= orderCount, \"Invalid order ID\");\r\n        Order memory order = orders[_orderId];\r\n        \r\n        return (\r\n            order.orderId,\r\n            order.buyer,\r\n            order.seller,\r\n            order.buyerName,\r\n            order.deliveryAddress,\r\n            order.product.name,\r\n            order.product.price,\r\n            order.product.imageUrl,\r\n            order.totalAmount,\r\n            order.status,\r\n            order.timestamp,\r\n            order.isPaid,\r\n            order.isReleased,\r\n            order.deliveredAt\r\n        );\r\n    }\r\n\r\n    // Get tracking history\r\n    function getTrackingHistory(uint _orderId) public view returns (TrackingUpdate[] memory) {\r\n        require(_orderId > 0 && _orderId <= orderCount, \"Invalid order ID\");\r\n        return trackingHistory[_orderId];\r\n    }\r\n\r\n    // Get user's orders\r\n    function getUserOrders(address _user) public view returns (uint[] memory) {\r\n        return userOrders[_user];\r\n    }\r\n\r\n    // Get order count\r\n    function getOrderCount() public view returns (uint) {\r\n        return orderCount;\r\n    }\r\n\r\n    // Get complete tracking info - accessible by both buyer and seller\r\n    function getFullTrackingInfo(uint _orderId) public view returns (\r\n        uint orderId,\r\n        string memory productName,\r\n        string memory currentStatus,\r\n        TrackingUpdate[] memory history\r\n    ) {\r\n        require(_orderId > 0 && _orderId <= orderCount, \"Invalid order ID\");\r\n        Order memory order = orders[_orderId];\r\n        require(\r\n            msg.sender == order.buyer || msg.sender == order.seller,\r\n            \"Only buyer or seller can view tracking information\"\r\n        );\r\n        \r\n        string memory statusText;\r\n        if (order.status == OrderStatus.Processing) {\r\n            statusText = \"Processing\";\r\n        } else if (order.status == OrderStatus.Shipped) {\r\n            statusText = \"Shipped\";\r\n        } else if (order.status == OrderStatus.Delivered) {\r\n            statusText = \"Delivered\";\r\n        } else if (order.status == OrderStatus.Confirmed) {\r\n            statusText = \"Confirmed\";\r\n        } else {\r\n            statusText = \"Pending\";\r\n        }\r\n        \r\n        return (\r\n            orderId,\r\n            order.product.name,\r\n            statusText,\r\n            trackingHistory[_orderId]\r\n        );\r\n    }\r\n\r\n    // Update tracking number - can be called by seller or admin\r\n    function updateTrackingNumber(uint _orderId, string memory _trackingNumber) public {\r\n        require(_orderId > 0 && _orderId <= orderCount, \"Invalid order ID\");\r\n        require(bytes(_trackingNumber).length > 0, \"Tracking number cannot be empty\");\r\n        \r\n        Order storage order = orders[_orderId];\r\n        require(msg.sender == order.seller || msg.sender == owner, \"Only seller or owner can update tracking number\");\r\n        require(order.status == OrderStatus.Shipped, \"Order must be shipped first\");\r\n        \r\n        trackingNumbers[_orderId] = _trackingNumber;\r\n        \r\n        emit TrackingNumberUpdated(_orderId, _trackingNumber);\r\n    }\r\n\r\n    // Get tracking number - accessible by both buyer and seller\r\n    function getTrackingNumber(uint _orderId) public view returns (string memory) {\r\n        require(_orderId > 0 && _orderId <= orderCount, \"Invalid order ID\");\r\n        Order memory order = orders[_orderId];\r\n        \r\n        // Allow any connected user to view if order exists - access control is lenient for tracking\r\n        // But still check that order is in proper status\r\n        if (order.status != OrderStatus.Shipped && order.status != OrderStatus.Delivered && order.status != OrderStatus.Confirmed) {\r\n            return \"\"; // Return empty string if not shipped yet\r\n        }\r\n        \r\n        return trackingNumbers[_orderId]; // Return tracking number (may be empty if not set)\r\n    }\r\n}\r\n",
  "sourcePath": "C:\\Users\\User\\C373Projects\\Fa_Team3\\contracts\\OrderContract.sol",
  "compiler": {
    "name": "solc",
    "version": "0.8.19+commit.7dd6d404.Emscripten.clang"
  },
  "schemaVersion": "3.4.16",
  "updatedAt": "2026-01-25T08:27:43.567Z",
  "networkType": "ethereum",
  "devdoc": {
    "kind": "dev",
    "methods": {},
    "version": 1
  },
  "userdoc": {
    "kind": "user",
    "methods": {},
    "version": 1
  }
}