{
  "contractName": "PetContract",
  "abi": [
    {
      "inputs": [],
      "stateMutability": "nonpayable",
      "type": "constructor"
    },
    {
      "anonymous": false,
      "inputs": [
        {
          "indexed": false,
          "internalType": "uint256",
          "name": "petId",
          "type": "uint256"
        },
        {
          "indexed": false,
          "internalType": "string",
          "name": "id",
          "type": "string"
        },
        {
          "indexed": false,
          "internalType": "string",
          "name": "name",
          "type": "string"
        },
        {
          "indexed": false,
          "internalType": "string",
          "name": "gender",
          "type": "string"
        },
        {
          "indexed": false,
          "internalType": "string",
          "name": "dateOfBirth",
          "type": "string"
        }
      ],
      "name": "PetCreated",
      "type": "event"
    },
    {
      "anonymous": false,
      "inputs": [
        {
          "indexed": false,
          "internalType": "uint256",
          "name": "id",
          "type": "uint256"
        },
        {
          "indexed": false,
          "internalType": "string",
          "name": "name",
          "type": "string"
        },
        {
          "indexed": false,
          "internalType": "uint256",
          "name": "price",
          "type": "uint256"
        },
        {
          "indexed": false,
          "internalType": "address payable",
          "name": "owner",
          "type": "address"
        },
        {
          "indexed": false,
          "internalType": "enum PetContract.PetStatus",
          "name": "status",
          "type": "uint8"
        }
      ],
      "name": "PetPurchased",
      "type": "event"
    },
    {
      "anonymous": false,
      "inputs": [
        {
          "indexed": false,
          "internalType": "uint256",
          "name": "petId",
          "type": "uint256"
        },
        {
          "indexed": false,
          "internalType": "address payable",
          "name": "ownerId",
          "type": "address"
        },
        {
          "indexed": false,
          "internalType": "string",
          "name": "ownerName",
          "type": "string"
        },
        {
          "indexed": false,
          "internalType": "string",
          "name": "transferDate",
          "type": "string"
        },
        {
          "indexed": false,
          "internalType": "string",
          "name": "phone",
          "type": "string"
        },
        {
          "indexed": false,
          "internalType": "string",
          "name": "email",
          "type": "string"
        }
      ],
      "name": "ownerCreated",
      "type": "event"
    },
    {
      "inputs": [],
      "name": "companyName",
      "outputs": [
        {
          "internalType": "string",
          "name": "",
          "type": "string"
        }
      ],
      "stateMutability": "view",
      "type": "function",
      "constant": true
    },
    {
      "inputs": [
        {
          "internalType": "uint256",
          "name": "",
          "type": "uint256"
        }
      ],
      "name": "pets",
      "outputs": [
        {
          "components": [
            {
              "internalType": "string",
              "name": "id",
              "type": "string"
            },
            {
              "internalType": "string",
              "name": "name",
              "type": "string"
            },
            {
              "internalType": "string",
              "name": "gender",
              "type": "string"
            },
            {
              "internalType": "string",
              "name": "dateOfBirth",
              "type": "string"
            },
            {
              "internalType": "uint256",
              "name": "price",
              "type": "uint256"
            },
            {
              "internalType": "enum PetContract.PetStatus",
              "name": "status",
              "type": "uint8"
            }
          ],
          "internalType": "struct PetContract.PetInformation",
          "name": "petInfo",
          "type": "tuple"
        }
      ],
      "stateMutability": "view",
      "type": "function",
      "constant": true
    },
    {
      "inputs": [],
      "name": "getCompanyName",
      "outputs": [
        {
          "internalType": "string",
          "name": "",
          "type": "string"
        }
      ],
      "stateMutability": "view",
      "type": "function",
      "constant": true
    },
    {
      "inputs": [],
      "name": "getNoOfPets",
      "outputs": [
        {
          "internalType": "uint256",
          "name": "",
          "type": "uint256"
        }
      ],
      "stateMutability": "view",
      "type": "function",
      "constant": true
    },
    {
      "inputs": [
        {
          "internalType": "uint256",
          "name": "petId",
          "type": "uint256"
        }
      ],
      "name": "getPetInfo",
      "outputs": [
        {
          "components": [
            {
              "internalType": "string",
              "name": "id",
              "type": "string"
            },
            {
              "internalType": "string",
              "name": "name",
              "type": "string"
            },
            {
              "internalType": "string",
              "name": "gender",
              "type": "string"
            },
            {
              "internalType": "string",
              "name": "dateOfBirth",
              "type": "string"
            },
            {
              "internalType": "uint256",
              "name": "price",
              "type": "uint256"
            },
            {
              "internalType": "enum PetContract.PetStatus",
              "name": "status",
              "type": "uint8"
            }
          ],
          "internalType": "struct PetContract.PetInformation",
          "name": "",
          "type": "tuple"
        }
      ],
      "stateMutability": "view",
      "type": "function",
      "constant": true
    },
    {
      "inputs": [
        {
          "internalType": "uint256",
          "name": "petId",
          "type": "uint256"
        }
      ],
      "name": "getOwnershipRecords",
      "outputs": [
        {
          "components": [
            {
              "internalType": "address payable",
              "name": "ownerId",
              "type": "address"
            },
            {
              "internalType": "string",
              "name": "ownerName",
              "type": "string"
            },
            {
              "internalType": "string",
              "name": "transferDate",
              "type": "string"
            },
            {
              "internalType": "string",
              "name": "phone",
              "type": "string"
            },
            {
              "internalType": "string",
              "name": "email",
              "type": "string"
            }
          ],
          "internalType": "struct PetContract.OwnershipRecord[]",
          "name": "",
          "type": "tuple[]"
        }
      ],
      "stateMutability": "view",
      "type": "function",
      "constant": true
    },
    {
      "inputs": [
        {
          "internalType": "uint256",
          "name": "petId",
          "type": "uint256"
        }
      ],
      "name": "getVaccinationRecords",
      "outputs": [
        {
          "components": [
            {
              "internalType": "string",
              "name": "vaccineName",
              "type": "string"
            },
            {
              "internalType": "string",
              "name": "dateAdministered",
              "type": "string"
            },
            {
              "internalType": "string",
              "name": "doctorname",
              "type": "string"
            },
            {
              "internalType": "string",
              "name": "clinic",
              "type": "string"
            },
            {
              "internalType": "string",
              "name": "phone",
              "type": "string"
            },
            {
              "internalType": "string",
              "name": "email",
              "type": "string"
            }
          ],
          "internalType": "struct PetContract.VaccinationRecord[]",
          "name": "",
          "type": "tuple[]"
        }
      ],
      "stateMutability": "view",
      "type": "function",
      "constant": true
    },
    {
      "inputs": [
        {
          "internalType": "uint256",
          "name": "petId",
          "type": "uint256"
        }
      ],
      "name": "getTrainingRecords",
      "outputs": [
        {
          "components": [
            {
              "internalType": "string",
              "name": "trainingType",
              "type": "string"
            },
            {
              "internalType": "string",
              "name": "traninerName",
              "type": "string"
            },
            {
              "internalType": "string",
              "name": "organization",
              "type": "string"
            },
            {
              "internalType": "string",
              "name": "phone",
              "type": "string"
            },
            {
              "internalType": "string",
              "name": "trainingDate",
              "type": "string"
            },
            {
              "internalType": "string",
              "name": "progress",
              "type": "string"
            }
          ],
          "internalType": "struct PetContract.TrainingRecord[]",
          "name": "",
          "type": "tuple[]"
        }
      ],
      "stateMutability": "view",
      "type": "function",
      "constant": true
    },
    {
      "inputs": [],
      "name": "registerPet",
      "outputs": [
        {
          "internalType": "uint256",
          "name": "",
          "type": "uint256"
        }
      ],
      "stateMutability": "nonpayable",
      "type": "function"
    },
    {
      "inputs": [
        {
          "internalType": "uint256",
          "name": "petId",
          "type": "uint256"
        },
        {
          "internalType": "string",
          "name": "_id",
          "type": "string"
        },
        {
          "internalType": "string",
          "name": "_name",
          "type": "string"
        },
        {
          "internalType": "string",
          "name": "_gender",
          "type": "string"
        },
        {
          "internalType": "string",
          "name": "_dateOfBirth",
          "type": "string"
        },
        {
          "internalType": "uint256",
          "name": "price",
          "type": "uint256"
        }
      ],
      "name": "addPetInfo",
      "outputs": [],
      "stateMutability": "nonpayable",
      "type": "function"
    },
    {
      "inputs": [
        {
          "internalType": "uint256",
          "name": "petId",
          "type": "uint256"
        },
        {
          "internalType": "string",
          "name": "_ownerName",
          "type": "string"
        },
        {
          "internalType": "string",
          "name": "_transferDate",
          "type": "string"
        },
        {
          "internalType": "string",
          "name": "_phone",
          "type": "string"
        },
        {
          "internalType": "string",
          "name": "_email",
          "type": "string"
        }
      ],
      "name": "addOwnerShipRecord",
      "outputs": [],
      "stateMutability": "nonpayable",
      "type": "function"
    },
    {
      "inputs": [
        {
          "internalType": "uint256",
          "name": "petId",
          "type": "uint256"
        },
        {
          "internalType": "string",
          "name": "_vaccineName",
          "type": "string"
        },
        {
          "internalType": "string",
          "name": "_dateAdministered",
          "type": "string"
        },
        {
          "internalType": "string",
          "name": "_doctorname",
          "type": "string"
        },
        {
          "internalType": "string",
          "name": "_clinic",
          "type": "string"
        },
        {
          "internalType": "string",
          "name": "_phone",
          "type": "string"
        },
        {
          "internalType": "string",
          "name": "_email",
          "type": "string"
        }
      ],
      "name": "addVaccinationRecord",
      "outputs": [],
      "stateMutability": "nonpayable",
      "type": "function"
    },
    {
      "inputs": [
        {
          "internalType": "uint256",
          "name": "petId",
          "type": "uint256"
        },
        {
          "internalType": "string",
          "name": "_trainingType",
          "type": "string"
        },
        {
          "internalType": "string",
          "name": "_trainerName",
          "type": "string"
        },
        {
          "internalType": "string",
          "name": "_organization",
          "type": "string"
        },
        {
          "internalType": "string",
          "name": "_phone",
          "type": "string"
        },
        {
          "internalType": "string",
          "name": "_trainingDate",
          "type": "string"
        },
        {
          "internalType": "string",
          "name": "_progress",
          "type": "string"
        }
      ],
      "name": "addTrainingRecord",
      "outputs": [],
      "stateMutability": "nonpayable",
      "type": "function"
    },
    {
      "inputs": [
        {
          "internalType": "uint256",
          "name": "_id",
          "type": "uint256"
        }
      ],
      "name": "purchasePet",
      "outputs": [],
      "stateMutability": "payable",
      "type": "function",
      "payable": true
    }
  ],
  "bytecode": "0x60806040523480156200001157600080fd5b5060006001819055506040518060400160405280600f81526020017f506574652773205065742053686f70000000000000000000000000000000000081525060009081620000609190620002e1565b50620003c8565b600081519050919050565b7f4e487b7100000000000000000000000000000000000000000000000000000000600052604160045260246000fd5b7f4e487b7100000000000000000000000000000000000000000000000000000000600052602260045260246000fd5b60006002820490506001821680620000e957607f821691505b602082108103620000ff57620000fe620000a1565b5b50919050565b60008190508160005260206000209050919050565b60006020601f8301049050919050565b600082821b905092915050565b600060088302620001697fffffffffffffffffffffffffffffffffffffffffffffffffffffffffffffffff826200012a565b6200017586836200012a565b95508019841693508086168417925050509392505050565b6000819050919050565b6000819050919050565b6000620001c2620001bc620001b6846200018d565b62000197565b6200018d565b9050919050565b6000819050919050565b620001de83620001a1565b620001f6620001ed82620001c9565b84845462000137565b825550505050565b600090565b6200020d620001fe565b6200021a818484620001d3565b505050565b5b8181101562000242576200023660008262000203565b60018101905062000220565b5050565b601f82111562000291576200025b8162000105565b62000266846200011a565b8101602085101562000276578190505b6200028e62000285856200011a565b8301826200021f565b50505b505050565b600082821c905092915050565b6000620002b66000198460080262000296565b1980831691505092915050565b6000620002d18383620002a3565b9150826002028217905092915050565b620002ec8262000067565b67ffffffffffffffff81111562000308576200030762000072565b5b620003148254620000d0565b6200032182828562000246565b600060209050601f83116001811462000359576000841562000344578287015190505b620003508582620002c3565b865550620003c0565b601f198416620003698662000105565b60005b8281101562000393578489015182556001820191506020850194506020810190506200036c565b86831015620003b35784890151620003af601f891682620002a3565b8355505b6001600288020188555050505b505050505050565b613c1780620003d86000396000f3fe6080604052600436106100dd5760003560e01c8063718bb4a41161007f578063c051b45f11610059578063c051b45f146102be578063ca7f9096146102fb578063cfb869bf14610317578063f5ec2eed14610354576100dd565b8063718bb4a41461023f5780637639b8301461026a578063a882c5d914610293576100dd565b806343cfbd65116100bb57806343cfbd651461018557806369c3f316146101b05780637070c173146101ed578063709efc5114610216576100dd565b806325a7b45e146100e2578063312222bd1461011f578063397877611461015c575b600080fd5b3480156100ee57600080fd5b5061010960048036038101906101049190612a89565b61037f565b6040516101169190612cd4565b60405180910390f35b34801561012b57600080fd5b5061014660048036038101906101419190612a89565b610692565b6040516101539190612e64565b60405180910390f35b34801561016857600080fd5b50610183600480360381019061017e9190612fbb565b610a73565b005b34801561019157600080fd5b5061019a610b6e565b6040516101a7919061314f565b60405180910390f35b3480156101bc57600080fd5b506101d760048036038101906101d29190612a89565b610c00565b6040516101e49190613295565b60405180910390f35b3480156101f957600080fd5b50610214600480360381019061020f91906132b7565b610ebd565b005b34801561022257600080fd5b5061023d600480360381019061023891906133a2565b611022565b005b34801561024b57600080fd5b50610254611153565b60405161026191906134ae565b60405180910390f35b34801561027657600080fd5b50610291600480360381019061028c9190612fbb565b611175565b005b34801561029f57600080fd5b506102a8611270565b6040516102b591906134ae565b60405180910390f35b3480156102ca57600080fd5b506102e560048036038101906102e09190612a89565b61127a565b6040516102f29190613637565b60405180910390f35b61031560048036038101906103109190612a89565b61165b565b005b34801561032357600080fd5b5061033e60048036038101906103399190612a89565b6126b4565b60405161034b9190613295565b60405180910390f35b34801561036057600080fd5b50610369612969565b604051610376919061314f565b60405180910390f35b606060026000838152602001908152602001600020600601805480602002602001604051908101604052809291908181526020016000905b8282101561068757838290600052602060002090600502016040518060a00160405290816000820160009054906101000a900473ffffffffffffffffffffffffffffffffffffffff1673ffffffffffffffffffffffffffffffffffffffff1673ffffffffffffffffffffffffffffffffffffffff16815260200160018201805461044090613688565b80601f016020809104026020016040519081016040528092919081815260200182805461046c90613688565b80156104b95780601f1061048e576101008083540402835291602001916104b9565b820191906000526020600020905b81548152906001019060200180831161049c57829003601f168201915b505050505081526020016002820180546104d290613688565b80601f01602080910402602001604051908101604052809291908181526020018280546104fe90613688565b801561054b5780601f106105205761010080835404028352916020019161054b565b820191906000526020600020905b81548152906001019060200180831161052e57829003601f168201915b5050505050815260200160038201805461056490613688565b80601f016020809104026020016040519081016040528092919081815260200182805461059090613688565b80156105dd5780601f106105b2576101008083540402835291602001916105dd565b820191906000526020600020905b8154815290600101906020018083116105c057829003601f168201915b505050505081526020016004820180546105f690613688565b80601f016020809104026020016040519081016040528092919081815260200182805461062290613688565b801561066f5780601f106106445761010080835404028352916020019161066f565b820191906000526020600020905b81548152906001019060200180831161065257829003601f168201915b505050505081525050815260200190600101906103b7565b505050509050919050565b606060026000838152602001908152602001600020600801805480602002602001604051908101604052809291908181526020016000905b82821015610a6857838290600052602060002090600602016040518060c00160405290816000820180546106fd90613688565b80601f016020809104026020016040519081016040528092919081815260200182805461072990613688565b80156107765780601f1061074b57610100808354040283529160200191610776565b820191906000526020600020905b81548152906001019060200180831161075957829003601f168201915b5050505050815260200160018201805461078f90613688565b80601f01602080910402602001604051908101604052809291908181526020018280546107bb90613688565b80156108085780601f106107dd57610100808354040283529160200191610808565b820191906000526020600020905b8154815290600101906020018083116107eb57829003601f168201915b5050505050815260200160028201805461082190613688565b80601f016020809104026020016040519081016040528092919081815260200182805461084d90613688565b801561089a5780601f1061086f5761010080835404028352916020019161089a565b820191906000526020600020905b81548152906001019060200180831161087d57829003601f168201915b505050505081526020016003820180546108b390613688565b80601f01602080910402602001604051908101604052809291908181526020018280546108df90613688565b801561092c5780601f106109015761010080835404028352916020019161092c565b820191906000526020600020905b81548152906001019060200180831161090f57829003601f168201915b5050505050815260200160048201805461094590613688565b80601f016020809104026020016040519081016040528092919081815260200182805461097190613688565b80156109be5780601f10610993576101008083540402835291602001916109be565b820191906000526020600020905b8154815290600101906020018083116109a157829003601f168201915b505050505081526020016005820180546109d790613688565b80601f0160208091040260200160405190810160405280929190818152602001828054610a0390613688565b8015610a505780601f10610a2557610100808354040283529160200191610a50565b820191906000526020600020905b815481529060010190602001808311610a3357829003601f168201915b505050505081525050815260200190600101906106ca565b505050509050919050565b600260008881526020019081526020016000206007016040518060c001604052808881526020018781526020018681526020018581526020018481526020018381525090806001815401808255809150506001900390600052602060002090600602016000909190919091506000820151816000019081610af49190613865565b506020820151816001019081610b0a9190613865565b506040820151816002019081610b209190613865565b506060820151816003019081610b369190613865565b506080820151816004019081610b4c9190613865565b5060a0820151816005019081610b629190613865565b50505050505050505050565b606060008054610b7d90613688565b80601f0160208091040260200160405190810160405280929190818152602001828054610ba990613688565b8015610bf65780601f10610bcb57610100808354040283529160200191610bf6565b820191906000526020600020905b815481529060010190602001808311610bd957829003601f168201915b5050505050905090565b610c086129f7565b600260008381526020019081526020016000206000016040518060c0016040529081600082018054610c3990613688565b80601f0160208091040260200160405190810160405280929190818152602001828054610c6590613688565b8015610cb25780601f10610c8757610100808354040283529160200191610cb2565b820191906000526020600020905b815481529060010190602001808311610c9557829003601f168201915b50505050508152602001600182018054610ccb90613688565b80601f0160208091040260200160405190810160405280929190818152602001828054610cf790613688565b8015610d445780601f10610d1957610100808354040283529160200191610d44565b820191906000526020600020905b815481529060010190602001808311610d2757829003601f168201915b50505050508152602001600282018054610d5d90613688565b80601f0160208091040260200160405190810160405280929190818152602001828054610d8990613688565b8015610dd65780601f10610dab57610100808354040283529160200191610dd6565b820191906000526020600020905b815481529060010190602001808311610db957829003601f168201915b50505050508152602001600382018054610def90613688565b80601f0160208091040260200160405190810160405280929190818152602001828054610e1b90613688565b8015610e685780601f10610e3d57610100808354040283529160200191610e68565b820191906000526020600020905b815481529060010190602001808311610e4b57829003601f168201915b50505050508152602001600482015481526020016005820160009054906101000a900460ff166001811115610ea057610e9f613180565b5b6001811115610eb257610eb1613180565b5b815250509050919050565b600260008681526020019081526020016000206006016040518060a001604052803373ffffffffffffffffffffffffffffffffffffffff16815260200186815260200185815260200184815260200183815250908060018154018082558091505060019003906000526020600020906005020160009091909190915060008201518160000160006101000a81548173ffffffffffffffffffffffffffffffffffffffff021916908373ffffffffffffffffffffffffffffffffffffffff1602179055506020820151816001019081610f959190613865565b506040820151816002019081610fab9190613865565b506060820151816003019081610fc19190613865565b506080820151816004019081610fd79190613865565b5050507f9c32b080747b4a19f4c23b3b2093d8c3e5e61274c2be34a840e19b108360248c85338686868660405161101396959493929190613946565b60405180910390a15050505050565b6040518060c0016040528086815260200185815260200184815260200183815260200182815260200160018081111561105e5761105d613180565b5b81525060026000888152602001908152602001600020600001600082015181600001908161108c9190613865565b5060208201518160010190816110a29190613865565b5060408201518160020190816110b89190613865565b5060608201518160030190816110ce9190613865565b506080820151816004015560a08201518160050160006101000a81548160ff0219169083600181111561110457611103613180565b5b02179055509050507f9d748ac4431e67dd00094d0aaf95fdedbdbc7e34463763447b24ccb462eed62986868686866040516111439594939291906139c3565b60405180910390a1505050505050565b60006001600081548092919061116890613a61565b9190505550600154905090565b600260008881526020019081526020016000206008016040518060c0016040528088815260200187815260200186815260200185815260200184815260200183815250908060018154018082558091505060019003906000526020600020906006020160009091909190915060008201518160000190816111f69190613865565b50602082015181600101908161120c9190613865565b5060408201518160020190816112229190613865565b5060608201518160030190816112389190613865565b50608082015181600401908161124e9190613865565b5060a08201518160050190816112649190613865565b50505050505050505050565b6000600154905090565b606060026000838152602001908152602001600020600701805480602002602001604051908101604052809291908181526020016000905b8282101561165057838290600052602060002090600602016040518060c00160405290816000820180546112e590613688565b80601f016020809104026020016040519081016040528092919081815260200182805461131190613688565b801561135e5780601f106113335761010080835404028352916020019161135e565b820191906000526020600020905b81548152906001019060200180831161134157829003601f168201915b5050505050815260200160018201805461137790613688565b80601f01602080910402602001604051908101604052809291908181526020018280546113a390613688565b80156113f05780601f106113c5576101008083540402835291602001916113f0565b820191906000526020600020905b8154815290600101906020018083116113d357829003601f168201915b5050505050815260200160028201805461140990613688565b80601f016020809104026020016040519081016040528092919081815260200182805461143590613688565b80156114825780601f1061145757610100808354040283529160200191611482565b820191906000526020600020905b81548152906001019060200180831161146557829003601f168201915b5050505050815260200160038201805461149b90613688565b80601f01602080910402602001604051908101604052809291908181526020018280546114c790613688565b80156115145780601f106114e957610100808354040283529160200191611514565b820191906000526020600020905b8154815290600101906020018083116114f757829003601f168201915b5050505050815260200160048201805461152d90613688565b80601f016020809104026020016040519081016040528092919081815260200182805461155990613688565b80156115a65780601f1061157b576101008083540402835291602001916115a6565b820191906000526020600020905b81548152906001019060200180831161158957829003601f168201915b505050505081526020016005820180546115bf90613688565b80601f01602080910402602001604051908101604052809291908181526020018280546115eb90613688565b80156116385780601f1061160d57610100808354040283529160200191611638565b820191906000526020600020905b81548152906001019060200180831161161b57829003601f168201915b505050505081525050815260200190600101906112b2565b505050509050919050565b600060026000838152602001908152602001600020604051806080016040529081600082016040518060c001604052908160008201805461169b90613688565b80601f01602080910402602001604051908101604052809291908181526020018280546116c790613688565b80156117145780601f106116e957610100808354040283529160200191611714565b820191906000526020600020905b8154815290600101906020018083116116f757829003601f168201915b5050505050815260200160018201805461172d90613688565b80601f016020809104026020016040519081016040528092919081815260200182805461175990613688565b80156117a65780601f1061177b576101008083540402835291602001916117a6565b820191906000526020600020905b81548152906001019060200180831161178957829003601f168201915b505050505081526020016002820180546117bf90613688565b80601f01602080910402602001604051908101604052809291908181526020018280546117eb90613688565b80156118385780601f1061180d57610100808354040283529160200191611838565b820191906000526020600020905b81548152906001019060200180831161181b57829003601f168201915b5050505050815260200160038201805461185190613688565b80601f016020809104026020016040519081016040528092919081815260200182805461187d90613688565b80156118ca5780601f1061189f576101008083540402835291602001916118ca565b820191906000526020600020905b8154815290600101906020018083116118ad57829003601f168201915b50505050508152602001600482015481526020016005820160009054906101000a900460ff16600181111561190257611901613180565b5b600181111561191457611913613180565b5b81525050815260200160068201805480602002602001604051908101604052809291908181526020016000905b82821015611c1157838290600052602060002090600502016040518060a00160405290816000820160009054906101000a900473ffffffffffffffffffffffffffffffffffffffff1673ffffffffffffffffffffffffffffffffffffffff1673ffffffffffffffffffffffffffffffffffffffff1681526020016001820180546119ca90613688565b80601f01602080910402602001604051908101604052809291908181526020018280546119f690613688565b8015611a435780601f10611a1857610100808354040283529160200191611a43565b820191906000526020600020905b815481529060010190602001808311611a2657829003601f168201915b50505050508152602001600282018054611a5c90613688565b80601f0160208091040260200160405190810160405280929190818152602001828054611a8890613688565b8015611ad55780601f10611aaa57610100808354040283529160200191611ad5565b820191906000526020600020905b815481529060010190602001808311611ab857829003601f168201915b50505050508152602001600382018054611aee90613688565b80601f0160208091040260200160405190810160405280929190818152602001828054611b1a90613688565b8015611b675780601f10611b3c57610100808354040283529160200191611b67565b820191906000526020600020905b815481529060010190602001808311611b4a57829003601f168201915b50505050508152602001600482018054611b8090613688565b80601f0160208091040260200160405190810160405280929190818152602001828054611bac90613688565b8015611bf95780601f10611bce57610100808354040283529160200191611bf9565b820191906000526020600020905b815481529060010190602001808311611bdc57829003601f168201915b50505050508152505081526020019060010190611941565b50505050815260200160078201805480602002602001604051908101604052809291908181526020016000905b82821015611fdc57838290600052602060002090600602016040518060c0016040529081600082018054611c7190613688565b80601f0160208091040260200160405190810160405280929190818152602001828054611c9d90613688565b8015611cea5780601f10611cbf57610100808354040283529160200191611cea565b820191906000526020600020905b815481529060010190602001808311611ccd57829003601f168201915b50505050508152602001600182018054611d0390613688565b80601f0160208091040260200160405190810160405280929190818152602001828054611d2f90613688565b8015611d7c5780601f10611d5157610100808354040283529160200191611d7c565b820191906000526020600020905b815481529060010190602001808311611d5f57829003601f168201915b50505050508152602001600282018054611d9590613688565b80601f0160208091040260200160405190810160405280929190818152602001828054611dc190613688565b8015611e0e5780601f10611de357610100808354040283529160200191611e0e565b820191906000526020600020905b815481529060010190602001808311611df157829003601f168201915b50505050508152602001600382018054611e2790613688565b80601f0160208091040260200160405190810160405280929190818152602001828054611e5390613688565b8015611ea05780601f10611e7557610100808354040283529160200191611ea0565b820191906000526020600020905b815481529060010190602001808311611e8357829003601f168201915b50505050508152602001600482018054611eb990613688565b80601f0160208091040260200160405190810160405280929190818152602001828054611ee590613688565b8015611f325780601f10611f0757610100808354040283529160200191611f32565b820191906000526020600020905b815481529060010190602001808311611f1557829003601f168201915b50505050508152602001600582018054611f4b90613688565b80601f0160208091040260200160405190810160405280929190818152602001828054611f7790613688565b8015611fc45780601f10611f9957610100808354040283529160200191611fc4565b820191906000526020600020905b815481529060010190602001808311611fa757829003601f168201915b50505050508152505081526020019060010190611c3e565b50505050815260200160088201805480602002602001604051908101604052809291908181526020016000905b828210156123a757838290600052602060002090600602016040518060c001604052908160008201805461203c90613688565b80601f016020809104026020016040519081016040528092919081815260200182805461206890613688565b80156120b55780601f1061208a576101008083540402835291602001916120b5565b820191906000526020600020905b81548152906001019060200180831161209857829003601f168201915b505050505081526020016001820180546120ce90613688565b80601f01602080910402602001604051908101604052809291908181526020018280546120fa90613688565b80156121475780601f1061211c57610100808354040283529160200191612147565b820191906000526020600020905b81548152906001019060200180831161212a57829003601f168201915b5050505050815260200160028201805461216090613688565b80601f016020809104026020016040519081016040528092919081815260200182805461218c90613688565b80156121d95780601f106121ae576101008083540402835291602001916121d9565b820191906000526020600020905b8154815290600101906020018083116121bc57829003601f168201915b505050505081526020016003820180546121f290613688565b80601f016020809104026020016040519081016040528092919081815260200182805461221e90613688565b801561226b5780601f106122405761010080835404028352916020019161226b565b820191906000526020600020905b81548152906001019060200180831161224e57829003601f168201915b5050505050815260200160048201805461228490613688565b80601f01602080910402602001604051908101604052809291908181526020018280546122b090613688565b80156122fd5780601f106122d2576101008083540402835291602001916122fd565b820191906000526020600020905b8154815290600101906020018083116122e057829003601f168201915b5050505050815260200160058201805461231690613688565b80601f016020809104026020016040519081016040528092919081815260200182805461234290613688565b801561238f5780601f106123645761010080835404028352916020019161238f565b820191906000526020600020905b81548152906001019060200180831161237257829003601f168201915b50505050508152505081526020019060010190612009565b5050505081525050905060008160200151519050600082602001516001836123cf9190613aa9565b815181106123e0576123df613add565b5b6020026020010151600001519050600060015411801561240a575060008360000151600001515114155b612449576040517f08c379a000000000000000000000000000000000000000000000000000000000815260040161244090613b58565b60405180910390fd5b82600001516080015134101561245e57600080fd5b60018081111561247157612470613180565b5b836000015160a00151600181111561248c5761248b613180565b5b1461249657600080fd5b3373ffffffffffffffffffffffffffffffffffffffff168173ffffffffffffffffffffffffffffffffffffffff16036124ce57600080fd5b33836020015183806124df90613a61565b9450815181106124f2576124f1613add565b5b60200260200101516000019073ffffffffffffffffffffffffffffffffffffffff16908173ffffffffffffffffffffffffffffffffffffffff16815250506000836000015160a00190600181111561254d5761254c613180565b5b9081600181111561256157612560613180565b5b8152505082600001516002600086815260200190815260200160002060000160008201518160000190816125959190613865565b5060208201518160010190816125ab9190613865565b5060408201518160020190816125c19190613865565b5060608201518160030190816125d79190613865565b506080820151816004015560a08201518160050160006101000a81548160ff0219169083600181111561260d5761260c613180565b5b02179055509050508073ffffffffffffffffffffffffffffffffffffffff166108fc349081150290604051600060405180830381858888f1935050505015801561265b573d6000803e3d6000fd5b507f9d04bde50a3c30051afb33010f89932d7b8f3b7e0b09c2b30bbee2f223f7b6a26001548460000151602001518560000151608001513360006040516126a6959493929190613b87565b60405180910390a150505050565b6002602052806000526040600020600091509050806000016040518060c00160405290816000820180546126e790613688565b80601f016020809104026020016040519081016040528092919081815260200182805461271390613688565b80156127605780601f1061273557610100808354040283529160200191612760565b820191906000526020600020905b81548152906001019060200180831161274357829003601f168201915b5050505050815260200160018201805461277990613688565b80601f01602080910402602001604051908101604052809291908181526020018280546127a590613688565b80156127f25780601f106127c7576101008083540402835291602001916127f2565b820191906000526020600020905b8154815290600101906020018083116127d557829003601f168201915b5050505050815260200160028201805461280b90613688565b80601f016020809104026020016040519081016040528092919081815260200182805461283790613688565b80156128845780601f1061285957610100808354040283529160200191612884565b820191906000526020600020905b81548152906001019060200180831161286757829003601f168201915b5050505050815260200160038201805461289d90613688565b80601f01602080910402602001604051908101604052809291908181526020018280546128c990613688565b80156129165780601f106128eb57610100808354040283529160200191612916565b820191906000526020600020905b8154815290600101906020018083116128f957829003601f168201915b50505050508152602001600482015481526020016005820160009054906101000a900460ff16600181111561294e5761294d613180565b5b60018111156129605761295f613180565b5b81525050905081565b6000805461297690613688565b80601f01602080910402602001604051908101604052809291908181526020018280546129a290613688565b80156129ef5780601f106129c4576101008083540402835291602001916129ef565b820191906000526020600020905b8154815290600101906020018083116129d257829003601f168201915b505050505081565b6040518060c00160405280606081526020016060815260200160608152602001606081526020016000815260200160006001811115612a3957612a38613180565b5b81525090565b6000604051905090565b600080fd5b600080fd5b6000819050919050565b612a6681612a53565b8114612a7157600080fd5b50565b600081359050612a8381612a5d565b92915050565b600060208284031215612a9f57612a9e612a49565b5b6000612aad84828501612a74565b91505092915050565b600081519050919050565b600082825260208201905092915050565b6000819050602082019050919050565b600073ffffffffffffffffffffffffffffffffffffffff82169050919050565b6000612b0d82612ae2565b9050919050565b612b1d81612b02565b82525050565b600081519050919050565b600082825260208201905092915050565b60005b83811015612b5d578082015181840152602081019050612b42565b60008484015250505050565b6000601f19601f8301169050919050565b6000612b8582612b23565b612b8f8185612b2e565b9350612b9f818560208601612b3f565b612ba881612b69565b840191505092915050565b600060a083016000830151612bcb6000860182612b14565b5060208301518482036020860152612be38282612b7a565b91505060408301518482036040860152612bfd8282612b7a565b91505060608301518482036060860152612c178282612b7a565b91505060808301518482036080860152612c318282612b7a565b9150508091505092915050565b6000612c4a8383612bb3565b905092915050565b6000602082019050919050565b6000612c6a82612ab6565b612c748185612ac1565b935083602082028501612c8685612ad2565b8060005b85811015612cc25784840389528151612ca38582612c3e565b9450612cae83612c52565b925060208a01995050600181019050612c8a565b50829750879550505050505092915050565b60006020820190508181036000830152612cee8184612c5f565b905092915050565b600081519050919050565b600082825260208201905092915050565b6000819050602082019050919050565b600060c0830160008301518482036000860152612d3f8282612b7a565b91505060208301518482036020860152612d598282612b7a565b91505060408301518482036040860152612d738282612b7a565b91505060608301518482036060860152612d8d8282612b7a565b91505060808301518482036080860152612da78282612b7a565b91505060a083015184820360a0860152612dc18282612b7a565b9150508091505092915050565b6000612dda8383612d22565b905092915050565b6000602082019050919050565b6000612dfa82612cf6565b612e048185612d01565b935083602082028501612e1685612d12565b8060005b85811015612e525784840389528151612e338582612dce565b9450612e3e83612de2565b925060208a01995050600181019050612e1a565b50829750879550505050505092915050565b60006020820190508181036000830152612e7e8184612def565b905092915050565b600080fd5b600080fd5b7f4e487b7100000000000000000000000000000000000000000000000000000000600052604160045260246000fd5b612ec882612b69565b810181811067ffffffffffffffff82111715612ee757612ee6612e90565b5b80604052505050565b6000612efa612a3f565b9050612f068282612ebf565b919050565b600067ffffffffffffffff821115612f2657612f25612e90565b5b612f2f82612b69565b9050602081019050919050565b82818337600083830152505050565b6000612f5e612f5984612f0b565b612ef0565b905082815260208101848484011115612f7a57612f79612e8b565b5b612f85848285612f3c565b509392505050565b600082601f830112612fa257612fa1612e86565b5b8135612fb2848260208601612f4b565b91505092915050565b600080600080600080600060e0888a031215612fda57612fd9612a49565b5b6000612fe88a828b01612a74565b975050602088013567ffffffffffffffff81111561300957613008612a4e565b5b6130158a828b01612f8d565b965050604088013567ffffffffffffffff81111561303657613035612a4e565b5b6130428a828b01612f8d565b955050606088013567ffffffffffffffff81111561306357613062612a4e565b5b61306f8a828b01612f8d565b945050608088013567ffffffffffffffff8111156130905761308f612a4e565b5b61309c8a828b01612f8d565b93505060a088013567ffffffffffffffff8111156130bd576130bc612a4e565b5b6130c98a828b01612f8d565b92505060c088013567ffffffffffffffff8111156130ea576130e9612a4e565b5b6130f68a828b01612f8d565b91505092959891949750929550565b600082825260208201905092915050565b600061312182612b23565b61312b8185613105565b935061313b818560208601612b3f565b61314481612b69565b840191505092915050565b600060208201905081810360008301526131698184613116565b905092915050565b61317a81612a53565b82525050565b7f4e487b7100000000000000000000000000000000000000000000000000000000600052602160045260246000fd5b600281106131c0576131bf613180565b5b50565b60008190506131d1826131af565b919050565b60006131e1826131c3565b9050919050565b6131f1816131d6565b82525050565b600060c08301600083015184820360008601526132148282612b7a565b9150506020830151848203602086015261322e8282612b7a565b915050604083015184820360408601526132488282612b7a565b915050606083015184820360608601526132628282612b7a565b91505060808301516132776080860182613171565b5060a083015161328a60a08601826131e8565b508091505092915050565b600060208201905081810360008301526132af81846131f7565b905092915050565b600080600080600060a086880312156132d3576132d2612a49565b5b60006132e188828901612a74565b955050602086013567ffffffffffffffff81111561330257613301612a4e565b5b61330e88828901612f8d565b945050604086013567ffffffffffffffff81111561332f5761332e612a4e565b5b61333b88828901612f8d565b935050606086013567ffffffffffffffff81111561335c5761335b612a4e565b5b61336888828901612f8d565b925050608086013567ffffffffffffffff81111561338957613388612a4e565b5b61339588828901612f8d565b9150509295509295909350565b60008060008060008060c087890312156133bf576133be612a49565b5b60006133cd89828a01612a74565b965050602087013567ffffffffffffffff8111156133ee576133ed612a4e565b5b6133fa89828a01612f8d565b955050604087013567ffffffffffffffff81111561341b5761341a612a4e565b5b61342789828a01612f8d565b945050606087013567ffffffffffffffff81111561344857613447612a4e565b5b61345489828a01612f8d565b935050608087013567ffffffffffffffff81111561347557613474612a4e565b5b61348189828a01612f8d565b92505060a061349289828a01612a74565b9150509295509295509295565b6134a881612a53565b82525050565b60006020820190506134c3600083018461349f565b92915050565b600081519050919050565b600082825260208201905092915050565b6000819050602082019050919050565b600060c08301600083015184820360008601526135128282612b7a565b9150506020830151848203602086015261352c8282612b7a565b915050604083015184820360408601526135468282612b7a565b915050606083015184820360608601526135608282612b7a565b9150506080830151848203608086015261357a8282612b7a565b91505060a083015184820360a08601526135948282612b7a565b9150508091505092915050565b60006135ad83836134f5565b905092915050565b6000602082019050919050565b60006135cd826134c9565b6135d781856134d4565b9350836020820285016135e9856134e5565b8060005b85811015613625578484038952815161360685826135a1565b9450613611836135b5565b925060208a019950506001810190506135ed565b50829750879550505050505092915050565b6000602082019050818103600083015261365181846135c2565b905092915050565b7f4e487b7100000000000000000000000000000000000000000000000000000000600052602260045260246000fd5b600060028204905060018216806136a057607f821691505b6020821081036136b3576136b2613659565b5b50919050565b60008190508160005260206000209050919050565b60006020601f8301049050919050565b600082821b905092915050565b60006008830261371b7fffffffffffffffffffffffffffffffffffffffffffffffffffffffffffffffff826136de565b61372586836136de565b95508019841693508086168417925050509392505050565b6000819050919050565b600061376261375d61375884612a53565b61373d565b612a53565b9050919050565b6000819050919050565b61377c83613747565b61379061378882613769565b8484546136eb565b825550505050565b600090565b6137a5613798565b6137b0818484613773565b505050565b5b818110156137d4576137c960008261379d565b6001810190506137b6565b5050565b601f821115613819576137ea816136b9565b6137f3846136ce565b81016020851015613802578190505b61381661380e856136ce565b8301826137b5565b50505b505050565b600082821c905092915050565b600061383c6000198460080261381e565b1980831691505092915050565b6000613855838361382b565b9150826002028217905092915050565b61386e82612b23565b67ffffffffffffffff81111561388757613886612e90565b5b6138918254613688565b61389c8282856137d8565b600060209050601f8311600181146138cf57600084156138bd578287015190505b6138c78582613849565b86555061392f565b601f1984166138dd866136b9565b60005b82811015613905578489015182556001820191506020850194506020810190506138e0565b86831015613922578489015161391e601f89168261382b565b8355505b6001600288020188555050505b505050505050565b61394081612b02565b82525050565b600060c08201905061395b600083018961349f565b6139686020830188613937565b818103604083015261397a8187613116565b9050818103606083015261398e8186613116565b905081810360808301526139a28185613116565b905081810360a08301526139b68184613116565b9050979650505050505050565b600060a0820190506139d8600083018861349f565b81810360208301526139ea8187613116565b905081810360408301526139fe8186613116565b90508181036060830152613a128185613116565b90508181036080830152613a268184613116565b90509695505050505050565b7f4e487b7100000000000000000000000000000000000000000000000000000000600052601160045260246000fd5b6000613a6c82612a53565b91507fffffffffffffffffffffffffffffffffffffffffffffffffffffffffffffffff8203613a9e57613a9d613a32565b5b600182019050919050565b6000613ab482612a53565b9150613abf83612a53565b9250828203905081811115613ad757613ad6613a32565b5b92915050565b7f4e487b7100000000000000000000000000000000000000000000000000000000600052603260045260246000fd5b7f5065742049642063616e6e6f7420626520656d70747900000000000000000000600082015250565b6000613b42601683613105565b9150613b4d82613b0c565b602082019050919050565b60006020820190508181036000830152613b7181613b35565b9050919050565b613b81816131d6565b82525050565b600060a082019050613b9c600083018861349f565b8181036020830152613bae8187613116565b9050613bbd604083018661349f565b613bca6060830185613937565b613bd76080830184613b78565b969550505050505056fea2646970667358221220b421a8be680e0351c7109b47108c797735ab7eae811cacca152dc89af127a71164736f6c63430008130033",
  "immutableReferences": {},
  "source": "// SPDX-License-Identifier: MIT\r\npragma solidity ^0.8.19;\r\n\r\ncontract PetContract {\r\n    enum PetStatus {Sold, Available}\r\n    \r\n    string public companyName;\r\n    uint petCount;\r\n\r\n    // Constructor code is only run when the contract is created\r\n    constructor() {\r\n        petCount=0;\r\n        companyName = \"Pete's Pet Shop\";\r\n    }\r\n\r\n    //declare the structure of the pet data\r\n   struct PetInformation {\r\n        string id;\r\n        string name;\r\n        string gender;\r\n        string dateOfBirth;\r\n        uint price;\r\n        PetStatus status;\r\n    }\r\n\r\n    //declare the structure for the owner data\r\n    struct OwnershipRecord {\r\n        address payable ownerId;\r\n        string ownerName;\r\n        string transferDate;\r\n        string phone;\r\n        string email;  \r\n    } \r\n\r\n    // declare the structure for the vaccination record\r\n    struct VaccinationRecord {\r\n        string vaccineName;\r\n        string dateAdministered;\r\n        string doctorname;\r\n        string clinic;\r\n        string phone;\r\n        string email;\r\n    }\r\n\r\n    // declare the structure of the training record\r\n    struct TrainingRecord {\r\n        string trainingType;\r\n        string traninerName;\r\n        string organization;\r\n        string phone;\r\n        string trainingDate;\r\n        string progress;\r\n    }\r\n\r\n    //declare the structure for the pet information - \r\n    //which consists of petInfo, ownership, vaccination and trainingrecord\r\n    struct Pet {\r\n        PetInformation petInfo;\r\n        OwnershipRecord[] ownershipRecords;\r\n        VaccinationRecord[] vaccinationHistory;\r\n        TrainingRecord[] trainingHistory;\r\n    }\r\n    //map the pet id to the Pet structure and hold them in the mapping variable pets\r\n    mapping(uint256 => Pet) public pets;\r\n\r\n    //write the getter functions\r\n    // function to get the company name getCompanyName() \r\n    function getCompanyName() public view returns(string memory){\r\n        return companyName;\r\n    }\r\n\r\n    //Write a function getNoOfPets to obtain the petCount\r\n    function getNoOfPets() public view returns (uint) {\r\n        return petCount;\r\n    }\r\n\r\n     // Function to retrieve pet  information\r\n    function getPetInfo(uint256 petId) public view returns (PetInformation memory) {\r\n        return pets[petId].petInfo;\r\n    }\r\n\r\n     // Function to retrieve ownership records\r\n    function getOwnershipRecords(uint256 petId) public view returns (OwnershipRecord[] memory) {\r\n        return pets[petId].ownershipRecords;\r\n    }\r\n\r\n    // Function to retrieve vaccination records\r\n    function getVaccinationRecords(uint256 petId) public view returns (VaccinationRecord[] memory) {\r\n        return pets[petId].vaccinationHistory;\r\n    }\r\n\r\n    // Function to retrieve training records\r\n    function getTrainingRecords(uint256 petId) public view returns (TrainingRecord[] memory) {\r\n        return pets[petId].trainingHistory;\r\n    }\r\n\r\n    //function to register the pet\r\n    function registerPet() public returns (uint256) {\r\n        petCount++;    \r\n        return petCount;\r\n    }\r\n\r\n    //create the event\r\n    event PetCreated(\r\n        uint256 petId,\r\n        string id,\r\n        string name,\r\n        string gender,\r\n        string dateOfBirth\r\n    );\r\n       \r\n    // Function to add pet  information\r\n    function addPetInfo(\r\n        uint256 petId,\r\n        string memory _id,\r\n        string memory _name,\r\n        string memory _gender,\r\n        string memory _dateOfBirth,\r\n        uint price\r\n    ) public {\r\n        pets[petId].petInfo = PetInformation(_id, _name, _gender, _dateOfBirth, price, PetStatus.Available);\r\n        emit PetCreated(petId, _id, _name, _gender, _dateOfBirth);\r\n\r\n    }\r\n\r\n    event ownerCreated(\r\n        uint256 petId,\r\n        address payable ownerId,\r\n        string ownerName,\r\n        string transferDate,\r\n        string phone,\r\n        string email\r\n    );\r\n    \r\n    // Function to add a new ownership record\r\n    function addOwnerShipRecord (uint256 petId, \r\n        string memory _ownerName,\r\n        string memory _transferDate,\r\n        string memory _phone,\r\n        string memory _email ) public {\r\n            pets[petId].ownershipRecords.push(OwnershipRecord(payable(msg.sender), _ownerName, _transferDate, _phone, _email));\r\n            emit ownerCreated(petId, payable(msg.sender), _ownerName, _transferDate, _phone, _email);\r\n    }\r\n\r\n    function addVaccinationRecord (uint256 petId, \r\n        string memory _vaccineName,\r\n        string memory _dateAdministered,\r\n        string memory _doctorname,\r\n        string memory _clinic,\r\n        string memory _phone,\r\n        string memory _email) public {\r\n            pets[petId].vaccinationHistory.push(VaccinationRecord(_vaccineName, _dateAdministered, _doctorname, _clinic, _phone, _email));\r\n    }\r\n\r\n    function addTrainingRecord (uint256 petId, \r\n         string memory _trainingType,\r\n        string memory _trainerName,\r\n        string memory _organization,\r\n        string memory _phone,\r\n        string memory _trainingDate,\r\n        string memory _progress) public {\r\n            pets[petId].trainingHistory.push(TrainingRecord(_trainingType, _trainerName, _organization, _phone,\r\n        _trainingDate, _progress));\r\n    }\r\n\r\n    //create the event to purchase the Pet\r\n    event PetPurchased(\r\n        uint id,\r\n        string name,\r\n        uint price,\r\n        address payable owner,\r\n        PetStatus status\r\n    );\r\n\r\n\r\n    //add a function to purchase pet with the pet id\r\n    function purchasePet(uint _id) public payable {\r\n        // Fetch the product\r\n        Pet memory petData = pets[_id];\r\n        // Fetch the owner\r\n        uint256 curOwnerId = petData.ownershipRecords.length;\r\n        address payable seller = petData.ownershipRecords[curOwnerId-1].ownerId;\r\n        // Make sure the product has a valid id\r\n        require(petCount > 0 && bytes(petData.petInfo.id).length != 0, \"Pet Id cannot be empty\" );\r\n        // Require that there is enough Ether in the transaction\r\n        require(msg.value >= petData.petInfo.price);\r\n        // Require that the product has not been purchased already\r\n        require(petData.petInfo.status == PetStatus.Available);\r\n        // Require that the buyer is not the seller\r\n        require(seller != msg.sender);\r\n        // Transfer ownership to the buyer\r\n        petData.ownershipRecords[curOwnerId ++].ownerId = payable(msg.sender);\r\n        // Mark as purchased\r\n        petData.petInfo.status = PetStatus.Sold;\r\n        // Update the pet information\r\n        pets[_id].petInfo = petData.petInfo;\r\n        // Pay the seller by sending them Ether\r\n        payable(seller).transfer(msg.value);\r\n        // Trigger an event\r\n        emit PetPurchased(petCount, petData.petInfo.name, petData.petInfo.price, payable(msg.sender), PetStatus.Sold);\r\n    }\r\n}\r\n",
  "sourcePath": "C:\\Users\\User\\C373Projects\\MetaPetProject\\contracts\\PetContract.sol",
  "compiler": {
    "name": "solc",
    "version": "0.8.19+commit.7dd6d404.Emscripten.clang"
  },
  "schemaVersion": "3.4.16",
  "updatedAt": "2026-01-13T02:12:53.231Z",
  "networkType": "ethereum",
  "devdoc": {
    "kind": "dev",
    "methods": {},
    "version": 1
  },
  "userdoc": {
    "kind": "user",
    "methods": {},
    "version": 1
  }
}