{
  "contractName": "SellerOrderContract",
  "abi": [
    {
      "inputs": [],
      "stateMutability": "nonpayable",
      "type": "constructor"
    },
    {
      "anonymous": false,
      "inputs": [
        {
          "indexed": false,
          "internalType": "uint256",
          "name": "orderId",
          "type": "uint256"
        },
        {
          "indexed": false,
          "internalType": "address",
          "name": "seller",
          "type": "address"
        }
      ],
      "name": "OrderAccepted",
      "type": "event"
    },
    {
      "anonymous": false,
      "inputs": [
        {
          "indexed": false,
          "internalType": "uint256",
          "name": "orderId",
          "type": "uint256"
        },
        {
          "indexed": false,
          "internalType": "address",
          "name": "seller",
          "type": "address"
        },
        {
          "indexed": false,
          "internalType": "string",
          "name": "trackingNumber",
          "type": "string"
        }
      ],
      "name": "OrderShipped",
      "type": "event"
    },
    {
      "anonymous": false,
      "inputs": [
        {
          "indexed": false,
          "internalType": "uint256",
          "name": "orderId",
          "type": "uint256"
        },
        {
          "indexed": false,
          "internalType": "address",
          "name": "seller",
          "type": "address"
        },
        {
          "indexed": false,
          "internalType": "uint256",
          "name": "amount",
          "type": "uint256"
        }
      ],
      "name": "PaymentReleased",
      "type": "event"
    },
    {
      "anonymous": false,
      "inputs": [
        {
          "indexed": false,
          "internalType": "uint256",
          "name": "orderId",
          "type": "uint256"
        },
        {
          "indexed": false,
          "internalType": "address",
          "name": "seller",
          "type": "address"
        },
        {
          "indexed": false,
          "internalType": "address",
          "name": "buyer",
          "type": "address"
        },
        {
          "indexed": false,
          "internalType": "uint256",
          "name": "amount",
          "type": "uint256"
        }
      ],
      "name": "SellerOrderCreated",
      "type": "event"
    },
    {
      "anonymous": false,
      "inputs": [
        {
          "indexed": false,
          "internalType": "address",
          "name": "seller",
          "type": "address"
        },
        {
          "indexed": false,
          "internalType": "string",
          "name": "sellerName",
          "type": "string"
        }
      ],
      "name": "SellerProfileCreated",
      "type": "event"
    },
    {
      "inputs": [],
      "name": "companyName",
      "outputs": [
        {
          "internalType": "string",
          "name": "",
          "type": "string"
        }
      ],
      "stateMutability": "view",
      "type": "function",
      "constant": true
    },
    {
      "inputs": [],
      "name": "contractOwner",
      "outputs": [
        {
          "internalType": "address",
          "name": "",
          "type": "address"
        }
      ],
      "stateMutability": "view",
      "type": "function",
      "constant": true
    },
    {
      "inputs": [
        {
          "internalType": "uint256",
          "name": "",
          "type": "uint256"
        }
      ],
      "name": "paymentRecords",
      "outputs": [
        {
          "internalType": "uint256",
          "name": "orderId",
          "type": "uint256"
        },
        {
          "internalType": "uint256",
          "name": "amount",
          "type": "uint256"
        },
        {
          "internalType": "uint256",
          "name": "timestamp",
          "type": "uint256"
        },
        {
          "internalType": "bool",
          "name": "isPaid",
          "type": "bool"
        }
      ],
      "stateMutability": "view",
      "type": "function",
      "constant": true
    },
    {
      "inputs": [
        {
          "internalType": "address",
          "name": "",
          "type": "address"
        }
      ],
      "name": "sellerBalance",
      "outputs": [
        {
          "internalType": "uint256",
          "name": "",
          "type": "uint256"
        }
      ],
      "stateMutability": "view",
      "type": "function",
      "constant": true
    },
    {
      "inputs": [],
      "name": "sellerOrderCount",
      "outputs": [
        {
          "internalType": "uint256",
          "name": "",
          "type": "uint256"
        }
      ],
      "stateMutability": "view",
      "type": "function",
      "constant": true
    },
    {
      "inputs": [
        {
          "internalType": "uint256",
          "name": "",
          "type": "uint256"
        }
      ],
      "name": "sellerOrders",
      "outputs": [
        {
          "internalType": "uint256",
          "name": "orderId",
          "type": "uint256"
        },
        {
          "internalType": "address payable",
          "name": "seller",
          "type": "address"
        },
        {
          "internalType": "address payable",
          "name": "buyer",
          "type": "address"
        },
        {
          "internalType": "string",
          "name": "buyerName",
          "type": "string"
        },
        {
          "internalType": "string",
          "name": "productName",
          "type": "string"
        },
        {
          "internalType": "uint256",
          "name": "price",
          "type": "uint256"
        },
        {
          "internalType": "uint256",
          "name": "totalAmount",
          "type": "uint256"
        },
        {
          "internalType": "enum SellerOrderContract.SellerOrderStatus",
          "name": "status",
          "type": "uint8"
        },
        {
          "internalType": "uint256",
          "name": "timestamp",
          "type": "uint256"
        },
        {
          "internalType": "bool",
          "name": "isAccepted",
          "type": "bool"
        },
        {
          "internalType": "bool",
          "name": "isShipped",
          "type": "bool"
        },
        {
          "internalType": "bool",
          "name": "isPaid",
          "type": "bool"
        },
        {
          "internalType": "string",
          "name": "trackingNumber",
          "type": "string"
        }
      ],
      "stateMutability": "view",
      "type": "function",
      "constant": true
    },
    {
      "inputs": [
        {
          "internalType": "address",
          "name": "",
          "type": "address"
        },
        {
          "internalType": "uint256",
          "name": "",
          "type": "uint256"
        }
      ],
      "name": "sellerOrdersList",
      "outputs": [
        {
          "internalType": "uint256",
          "name": "",
          "type": "uint256"
        }
      ],
      "stateMutability": "view",
      "type": "function",
      "constant": true
    },
    {
      "inputs": [
        {
          "internalType": "address",
          "name": "",
          "type": "address"
        }
      ],
      "name": "sellerProfiles",
      "outputs": [
        {
          "internalType": "address",
          "name": "seller",
          "type": "address"
        },
        {
          "internalType": "string",
          "name": "sellerName",
          "type": "string"
        },
        {
          "internalType": "uint256",
          "name": "totalOrdersAccepted",
          "type": "uint256"
        },
        {
          "internalType": "uint256",
          "name": "totalOrdersShipped",
          "type": "uint256"
        },
        {
          "internalType": "uint256",
          "name": "totalEarnings",
          "type": "uint256"
        },
        {
          "internalType": "bool",
          "name": "isActive",
          "type": "bool"
        }
      ],
      "stateMutability": "view",
      "type": "function",
      "constant": true
    },
    {
      "inputs": [
        {
          "internalType": "string",
          "name": "_sellerName",
          "type": "string"
        }
      ],
      "name": "createSellerProfile",
      "outputs": [],
      "stateMutability": "nonpayable",
      "type": "function"
    },
    {
      "inputs": [
        {
          "internalType": "address payable",
          "name": "_seller",
          "type": "address"
        },
        {
          "internalType": "address payable",
          "name": "_buyer",
          "type": "address"
        },
        {
          "internalType": "string",
          "name": "_buyerName",
          "type": "string"
        },
        {
          "internalType": "string",
          "name": "_productName",
          "type": "string"
        },
        {
          "internalType": "uint256",
          "name": "_price",
          "type": "uint256"
        }
      ],
      "name": "createSellerOrder",
      "outputs": [
        {
          "internalType": "uint256",
          "name": "",
          "type": "uint256"
        }
      ],
      "stateMutability": "nonpayable",
      "type": "function"
    },
    {
      "inputs": [
        {
          "internalType": "uint256",
          "name": "_orderId",
          "type": "uint256"
        }
      ],
      "name": "acceptOrder",
      "outputs": [],
      "stateMutability": "nonpayable",
      "type": "function"
    },
    {
      "inputs": [
        {
          "internalType": "uint256",
          "name": "_orderId",
          "type": "uint256"
        },
        {
          "internalType": "string",
          "name": "_trackingNumber",
          "type": "string"
        }
      ],
      "name": "shipOrder",
      "outputs": [],
      "stateMutability": "nonpayable",
      "type": "function"
    },
    {
      "inputs": [
        {
          "internalType": "uint256",
          "name": "_orderId",
          "type": "uint256"
        }
      ],
      "name": "releasePayment",
      "outputs": [],
      "stateMutability": "payable",
      "type": "function",
      "payable": true
    },
    {
      "inputs": [],
      "name": "withdrawBalance",
      "outputs": [],
      "stateMutability": "nonpayable",
      "type": "function"
    },
    {
      "inputs": [
        {
          "internalType": "uint256",
          "name": "_orderId",
          "type": "uint256"
        }
      ],
      "name": "cancelOrder",
      "outputs": [],
      "stateMutability": "nonpayable",
      "type": "function"
    },
    {
      "inputs": [
        {
          "internalType": "uint256",
          "name": "_orderId",
          "type": "uint256"
        }
      ],
      "name": "getSellerOrder",
      "outputs": [
        {
          "components": [
            {
              "internalType": "uint256",
              "name": "orderId",
              "type": "uint256"
            },
            {
              "internalType": "address payable",
              "name": "seller",
              "type": "address"
            },
            {
              "internalType": "address payable",
              "name": "buyer",
              "type": "address"
            },
            {
              "internalType": "string",
              "name": "buyerName",
              "type": "string"
            },
            {
              "internalType": "string",
              "name": "productName",
              "type": "string"
            },
            {
              "internalType": "uint256",
              "name": "price",
              "type": "uint256"
            },
            {
              "internalType": "uint256",
              "name": "totalAmount",
              "type": "uint256"
            },
            {
              "internalType": "enum SellerOrderContract.SellerOrderStatus",
              "name": "status",
              "type": "uint8"
            },
            {
              "internalType": "uint256",
              "name": "timestamp",
              "type": "uint256"
            },
            {
              "internalType": "bool",
              "name": "isAccepted",
              "type": "bool"
            },
            {
              "internalType": "bool",
              "name": "isShipped",
              "type": "bool"
            },
            {
              "internalType": "bool",
              "name": "isPaid",
              "type": "bool"
            },
            {
              "internalType": "string",
              "name": "trackingNumber",
              "type": "string"
            }
          ],
          "internalType": "struct SellerOrderContract.SellerOrder",
          "name": "",
          "type": "tuple"
        }
      ],
      "stateMutability": "view",
      "type": "function",
      "constant": true
    },
    {
      "inputs": [
        {
          "internalType": "address",
          "name": "_seller",
          "type": "address"
        }
      ],
      "name": "getSellerProfile",
      "outputs": [
        {
          "components": [
            {
              "internalType": "address",
              "name": "seller",
              "type": "address"
            },
            {
              "internalType": "string",
              "name": "sellerName",
              "type": "string"
            },
            {
              "internalType": "uint256",
              "name": "totalOrdersAccepted",
              "type": "uint256"
            },
            {
              "internalType": "uint256",
              "name": "totalOrdersShipped",
              "type": "uint256"
            },
            {
              "internalType": "uint256",
              "name": "totalEarnings",
              "type": "uint256"
            },
            {
              "internalType": "bool",
              "name": "isActive",
              "type": "bool"
            }
          ],
          "internalType": "struct SellerOrderContract.SellerProfile",
          "name": "",
          "type": "tuple"
        }
      ],
      "stateMutability": "view",
      "type": "function",
      "constant": true
    },
    {
      "inputs": [
        {
          "internalType": "address",
          "name": "_seller",
          "type": "address"
        }
      ],
      "name": "getSellerOrders",
      "outputs": [
        {
          "internalType": "uint256[]",
          "name": "",
          "type": "uint256[]"
        }
      ],
      "stateMutability": "view",
      "type": "function",
      "constant": true
    },
    {
      "inputs": [
        {
          "internalType": "address",
          "name": "_seller",
          "type": "address"
        }
      ],
      "name": "getSellerBalance",
      "outputs": [
        {
          "internalType": "uint256",
          "name": "",
          "type": "uint256"
        }
      ],
      "stateMutability": "view",
      "type": "function",
      "constant": true
    },
    {
      "inputs": [],
      "name": "getSellerOrderCount",
      "outputs": [
        {
          "internalType": "uint256",
          "name": "",
          "type": "uint256"
        }
      ],
      "stateMutability": "view",
      "type": "function",
      "constant": true
    }
  ],
  "bytecode": "0x60808060405234620000b2576000600181815581548181811c91168015620000a7575b60208210146200009357601f811162000067575b5050600e66098caced298c2d60cb1b019055600280546001600160a01b031916331790556120899081620000b88239f35b828052601f60208420910160051c8101905b81811062000088575062000036565b838155820162000079565b634e487b7160e01b83526022600452602483fd5b90607f169062000022565b600080fdfe608080604052600436101561001357600080fd5b60003560e01c9081632148893f14611d81575080634293e5ce14611c82578063514fcac714611b4f578063525ca07a146113e75780635691fe63146113945780635fd8c710146112a95780636621553b1461126f578063723616591461115b57806388685cd914610eb95780638a80a709146107ee5780639196dfcb14610e2757806398506fa314610bdd5780639d07a8e91461080c578063a3f268ff146107ee578063a97fac47146104e1578063ce606ee0146104b8578063db6711f014610460578063e4cbac40146103ac578063ef18e9ed146101e35763f5ec2eed146100fb57600080fd5b346101de5760003660031901126101de576040516000805461011c81611ec7565b808452906001908181169081156101b7575060011461015e575b61015a8461014681860382611e44565b604051918291602083526020830190611dcd565b0390f35b600080805292507f290decd9548b62a8d60345a988386fc84ba6bc95484008f6362f93160ef3e5635b82841061019f57505050810160200161014682610136565b80546020858701810191909152909301928101610187565b60ff191660208087019190915292151560051b850190920192506101469150839050610136565b600080fd5b346101de576020806003193601126101de5760043590811515806103a0575b61020b90612007565b6000828152600382526040902060018101546001600160a01b0316330361035d57600981019081549060ff821661031f576007019182549060ff82166006811015610309576102c4579260016004936102bf96937fa3a9d59445e437d97cac53692b666afef6c152b0642edd206bde8472f387e59a98968360ff1980941617905516179055336000525260026040600020016102a78154611fe2565b90556040805191825233602083015290918291820190565b0390a1005b60405162461bcd60e51b815260048101869052601c60248201527f4f7264657220737461747573206d7573742062652050656e64696e67000000006044820152606490fd5b634e487b7160e01b600052602160045260246000fd5b60405162461bcd60e51b815260048101859052601660248201527513dc99195c88185b1c9958591e481858d8d95c1d195960521b6044820152606490fd5b6064826040519062461bcd60e51b825280600483015260248201527f4f6e6c792073656c6c65722063616e2061636365707420746865206f726465726044820152fd5b50600154821115610202565b346101de576020806003193601126101de576001600160a01b036103ce611db7565b1660005260058152604060002060405190818382549182815201908192600052846000209060005b8682821061044c57868661040c82880383611e44565b604051928392818401908285525180915260408401929160005b82811061043557505050500390f35b835185528695509381019392810192600101610426565b8354855290930192600192830192016103f6565b346101de5760403660031901126101de57610479611db7565b6001600160a01b03166000908152600560205260409020805460243591908210156101de576020916104aa91611fb4565b90546040519160031b1c8152f35b346101de5760003660031901126101de576002546040516001600160a01b039091168152602090f35b346101de5760203660031901126101de576001600160401b036004358181116101de57610512903690600401611e80565b8051156107a95733600052600460205260ff6005604060002001541661076b5760405161053e81611e0d565b3381526020810190828252600060408201526000606082015260006080820152600160a082015233600052600460205260406000209160018060a01b038251166bffffffffffffffffffffffff60a01b84541617835551938451908111610755576105ac6001840154611ec7565b601f811161070a575b506020601f821160011461066f5760a061064a93836102bf9796946005947fb26f8ddf96907baed90da50ed9fbde17d4c1871c44e90011196f732fd055beea9a600092610664575b50508160011b916000199060031b1c19161760018501555b6040810151600285015560608101516003850155608081015160048501550151151591019060ff801983541691151516179055565b604051918291338352604060208401526040830190611dcd565b015190508a806105fd565b601f198216956001850160005260206000209660005b8181106106f25750936001847fb26f8ddf96907baed90da50ed9fbde17d4c1871c44e90011196f732fd055beea9960059560a0956102bf9b9a9861064a9a106106d9575b505050811b016001850155610615565b015160001960f88460031b161c191690558a80806106c9565b83830151895560019098019760209384019301610685565b600184016000526020600020601f830160051c8101916020841061074b575b601f0160051c01905b81811061073f57506105b5565b60008155600101610732565b9091508190610729565b634e487b7160e01b600052604160045260246000fd5b60405162461bcd60e51b815260206004820152601660248201527550726f66696c6520616c72656164792065786973747360501b6044820152606490fd5b60405162461bcd60e51b815260206004820152601b60248201527f53656c6c6572206e616d652063616e6e6f7420626520656d70747900000000006044820152606490fd5b346101de5760003660031901126101de576020600154604051908152f35b346101de5760403660031901126101de5760246004356001600160401b0382358181116101de57610841903690600401611e80565b9082151580610bd1575b61085490612007565b815115610b8d5782600052602093600385526040600020916001808060a01b0381850154163303610b4957600984019384549460ff861615610b055760ff8660081c16610ac957600782019560ff8754166006811015610ab4578403610a705790610100600a939261ff00191617905501928551928311610a5c57506108da8354611ec7565b601f8111610a13575b5086601f8311600114610987579180807fd58bce8a42d5f16d911da7a59887fb284aea98cddb81eba85d7e1aefb9d79a5899989795936102bf979560009361097c575b501b916000199060031b1c19161790555b600260ff198254161790553360005260048452600360406000200161095c8154611fe2565b905560405193849384523390840152606060408401526060830190611dcd565b87015192508b610926565b601f9291921982169084600052886000209160005b8181106109fe57509183917fd58bce8a42d5f16d911da7a59887fb284aea98cddb81eba85d7e1aefb9d79a589a999896946102bf989694106109e5575b5050811b019055610937565b86015160001960f88460031b161c1916905589806109d9565b88830151845592850192918a01918a0161099c565b8360005287600020601f840160051c810191898510610a52575b601f0160051c019082905b828110610a465750506108e3565b60008155018290610a38565b9091508190610a2d565b634e487b7160e01b60009081526041600452fd5b60405162461bcd60e51b8152600481018b9052601d818801527f4f7264657220737461747573206d7573742062652041636365707465640000006044820152606490fd5b86634e487b7160e01b60005260216004526000fd5b60405162461bcd60e51b8152600481018a90526015818701527413dc99195c88185b1c9958591e481cda1a5c1c1959605a1b6044820152606490fd5b60405162461bcd60e51b8152600481018a9052601c818701527f4f72646572206d757374206265206163636570746564206669727374000000006044820152606490fd5b60405162461bcd60e51b815260048101889052601e818501527f4f6e6c792073656c6c65722063616e207368697020746865206f7264657200006044820152606490fd5b60405162461bcd60e51b815260206004820152601f818601527f547261636b696e67206e756d6265722063616e6e6f7420626520656d707479006044820152606490fd5b5060015483111561084b565b346101de5760203660031901126101de576004356060610180604051610c0281611e28565b6000815260006020820152600060408201528280820152826080820152600060a0820152600060c0820152600060e08201526000610100820152600061012082015260006101408201526000610160820152015280151580610e1b575b610c6890612007565b60005260036020526040600020604051610c8181611e28565b8154815260018201546001600160a01b0390811660208301526002830154166040820152610cb160038301611f01565b6060820152610cc260048301611f01565b6080820152600582015460a0820152600682015460c082015260ff60078301541691600683101561030957600a610d399161015a9460e0850152600881015461010085015260ff60098201548181161515610120870152818160081c16151561014087015260101c16151561016085015201611f01565b610180820152604051918291602083528051602084015260018060a01b03602082015116604084015260018060a01b036040820151166060840152610180610dab610d9560608401516101a060808801526101c0870190611dcd565b6080840151868203601f190160a0880152611dcd565b9160a081015160c086015260c081015160e0860152610dd360e0820151610100870190611fa7565b610100810151610120860152610120810151151561014086015261014081015115156101608601526101608101511515828601520151601f19848303016101a0850152611dcd565b50600154811115610c5f565b346101de5760203660031901126101de576001600160a01b0380610e49611db7565b166000526004602052604060002090815416610e6760018301611f01565b9160028101549060038101549060ff600560048301549201541691610e9e604051968796875260c0602088015260c0870190611dcd565b93604086015260608501526080840152151560a08301520390f35b6020806003193601126101de57600435908115158061114f575b610edc90612007565b816000526003815260406000209160018060a01b039182600285015416330361110b576009840180549460ff8660081c16156110c65760ff8660101c1661108157600681019182549687341061103c5790620100006001939262ff0000191617905560078101600460ff1982541617905501948486541660005260078352610f6a6040600020918254612046565b90558054936040519560808701958787106001600160401b03881117610755577f21d71db5be59bb9fa133895586b7404307dd33fb93b16db09dc6f1d9d7d231b097600361100392606099604052888352878301908152604083014281528a840191600183528a60005260068a5260406000209451855551600185015551600284015551151591019060ff801983541691151516179055565b81815416600052600484526040600020611024600485549201918254612046565b905554169054916040519384528301526040820152a1005b60405162461bcd60e51b815260048101869052601b60248201527f496e73756666696369656e74207061796d656e7420616d6f756e7400000000006044820152606490fd5b60405162461bcd60e51b815260048101849052601860248201527f5061796d656e7420616c72656164792072656c656173656400000000000000006044820152606490fd5b60405162461bcd60e51b815260048101849052601b60248201527f4f72646572206d757374206265207368697070656420666972737400000000006044820152606490fd5b6064906040519062461bcd60e51b82526004820152601e60248201527f4f6e6c792062757965722063616e2072656c65617365207061796d656e7400006044820152fd5b50600154821115610ed3565b346101de5760203660031901126101de57600435600052600360205260406000208054600160a01b6001900391826001820154169260028201541690600381016111a490611f01565b906111b160048201611f01565b916005820154926006830154600784015460ff1691600885015493600986015495600a016111de90611f01565b976040519a8b9a8b5260208b015260408a01526101a08060608b0152890161120591611dcd565b88810360808a015261121691611dcd565b9460a088015260c087015260e0860161122e91611fa7565b61010085015260ff811615156101208501528060081c60ff16151561014085015260101c60ff16151561016084015282810361018084015261015a91611dcd565b346101de5760203660031901126101de576001600160a01b03611290611db7565b1660005260076020526020604060002054604051908152f35b346101de5760003660031901126101de5733600052600760205260406000205415611356573360005260076020526000808080604081208181549155335af13d15611351573d6112f881611e65565b906113066040519283611e44565b8152600060203d92013e5b1561131857005b60405162461bcd60e51b815260206004820152601160248201527015da5d1a191c985dd85b0819985a5b1959607a1b6044820152606490fd5b611311565b60405162461bcd60e51b81526020600482015260166024820152754e6f2062616c616e636520746f20776974686472617760501b6044820152606490fd5b346101de5760203660031901126101de5760043560005260066020526080604060002080549060018101549060ff6003600283015492015416916040519384526020840152604083015215156060820152f35b346101de5760a03660031901126101de57611400611db7565b6024356001600160a01b03811681036101de576044356001600160401b0381116101de57611432903690600401611e80565b6064356001600160401b0381116101de57611451903690600401611e80565b6001600160a01b03841615611b11576001600160a01b03831615611ad45760843515611a8f576001600160a01b03841660009081526004602052604090206005015460ff1615611a4a576114a6600154611fe2565b9081600155604051926114b884611e28565b82845260018060a01b038616602085015260018060a01b03851660408501526060840152608083015260843560a083015260843560c0830152600060e0830152426101008301526000610120830152600061014083015260006101608301526040518060208101106001600160401b036020830111176107555760208101604052600081526101808301526000526003602052604060002090805182556001820160018060a01b03602083015116906bffffffffffffffffffffffff60a01b9182825416179055600283019060018060a01b036040840151169082541617905560608101518051906001600160401b0382116107555781906115bd6003860154611ec7565b601f81116119f7575b50602090601f83116001146119855760009261197a575b50508160011b916000199060031b1c19161760038301555b60808101518051906001600160401b03821161075557819061161a6004860154611ec7565b601f8111611927575b50602090601f83116001146118b5576000926118aa575b50508160011b916000199060031b1c19161760048301555b60a0810151600583015560c08101516006830155600782019060e081015191600683101561030957805460ff93841660ff199182161790915561010082015160088501556101208201516009850180549115159094169116178255610180916101408201511515815461ff0062ff0000610160860151151560101b169260081b169062ffff0019161717905501518051906001600160401b038211610755576116fe600a840154611ec7565b601f8111611863575b50602090601f83116001146117f557600a9291600091836117ea575b50508160011b916000199060031b1c1916179101555b6001600160a01b038216600090815260056020526040902060015481549093680100000000000000008210156107555760209461179f837fbb86b72df0f9e5a26678856b8525ae201dffb3346cccb707914238a4127341a2956001608096018155611fb4565b819291549060031b91821b91600019901b1916179055600154936040519185835260018060a01b03168683015260018060a01b031660408201526084356060820152a1604051908152f35b015190508680611723565b90601f19831691600a850160005260206000209260005b81811061184b5750916001939185600a969410611832575b505050811b01910155611739565b015160001960f88460031b161c19169055868080611824565b9293602060018192878601518155019501930161180c565b600a84016000526020600020601f840160051c8101602085106118a3575b601f830160051c82018110611897575050611707565b60008155600101611881565b5080611881565b01519050868061163a565b9250600485016000526020600020906000935b601f198416851061190c576001945083601f198116106118f3575b505050811b016004830155611652565b015160001960f88460031b161c191690558680806118e3565b818101518355602094850194600190930192909101906118c8565b909150600485016000526020600020601f840160051c810160208510611973575b90849392915b601f830160051c82018110611964575050611623565b6000815585945060010161194e565b5080611948565b0151905086806115dd565b9250600385016000526020600020906000935b601f19841685106119dc576001945083601f198116106119c3575b505050811b0160038301556115f5565b015160001960f88460031b161c191690558680806119b3565b81810151835560209485019460019093019290910190611998565b909150600385016000526020600020601f840160051c810160208510611a43575b90849392915b601f830160051c82018110611a345750506115c6565b60008155859450600101611a1e565b5080611a18565b60405162461bcd60e51b815260206004820152601960248201527f53656c6c65722070726f66696c65206e6f7420616374697665000000000000006044820152606490fd5b60405162461bcd60e51b815260206004820152601c60248201527f5072696365206d7573742062652067726561746572207468616e2030000000006044820152606490fd5b60405162461bcd60e51b8152602060048201526015602482015274496e76616c6964206275796572206164647265737360581b6044820152606490fd5b60405162461bcd60e51b8152602060048201526016602482015275496e76616c69642073656c6c6572206164647265737360501b6044820152606490fd5b346101de5760203660031901126101de5760043580151580611c76575b611b7590612007565b600081815260036020526040902060018101546001600160a01b03163303611c325760ff600982015460081c16611bed57600701805460ff19166005179055604080519182523360208301527fa3a9d59445e437d97cac53692b666afef6c152b0642edd206bde8472f387e59a9190819081016102bf565b60405162461bcd60e51b815260206004820152601d60248201527f43616e6e6f742063616e63656c20612073686970706564206f726465720000006044820152606490fd5b606460405162461bcd60e51b815260206004820152602060248201527f4f6e6c792073656c6c65722063616e2063616e63656c20746865206f726465726044820152fd5b50600154811115611b6c565b346101de576020806003193601126101de57611c9c611db7565b90600060a0604051611cad81611e0d565b828152606084820152826040820152826060820152826080820152015260018060a01b0380921660005260048152604060002060405191611ced83611e0d565b838254168352611cff60018301611f01565b9181840192835260028101549260408501938452611d626003830154916060870192835260ff600560048601549560808a019687520154169460a088019515158652604051988998828a525116908801525160c0604088015260e0870190611dcd565b935160608601525160808501525160a084015251151560c08301520390f35b346101de5760203660031901126101de576020906001600160a01b03611da5611db7565b16600052600782526040600020548152f35b600435906001600160a01b03821682036101de57565b919082519283825260005b848110611df9575050826000602080949584010152601f8019910116010190565b602081830181015184830182015201611dd8565b60c081019081106001600160401b0382111761075557604052565b6101a081019081106001600160401b0382111761075557604052565b90601f801991011681019081106001600160401b0382111761075557604052565b6001600160401b03811161075557601f01601f191660200190565b81601f820112156101de57803590611e9782611e65565b92611ea56040519485611e44565b828452602083830101116101de57816000926020809301838601378301015290565b90600182811c92168015611ef7575b6020831014611ee157565b634e487b7160e01b600052602260045260246000fd5b91607f1691611ed6565b9060405191826000825492611f1584611ec7565b908184526001948581169081600014611f845750600114611f41575b5050611f3f92500383611e44565b565b9093915060005260209081600020936000915b818310611f6c575050611f3f93508201013880611f31565b85548884018501529485019487945091830191611f54565b915050611f3f94506020925060ff191682840152151560051b8201013880611f31565b9060068210156103095752565b8054821015611fcc5760005260206000200190600090565b634e487b7160e01b600052603260045260246000fd5b6000198114611ff15760010190565b634e487b7160e01b600052601160045260246000fd5b1561200e57565b60405162461bcd60e51b815260206004820152601060248201526f125b9d985b1a59081bdc99195c88125160821b6044820152606490fd5b91908201809211611ff15756fea264697066735822122062302fd14a6ad62edc88d5f2cb735a7cb0be303898e373f9baf1d90c441e48c764736f6c63430008130033",
  "immutableReferences": {},
  "source": "// SPDX-License-Identifier: MIT\r\npragma solidity ^0.8.19;\r\n\r\ncontract SellerOrderContract {\r\n    enum SellerOrderStatus { Pending, Accepted, Shipped, Delivered, Paid, Cancelled }\r\n    \r\n    string public companyName;\r\n    uint public sellerOrderCount;\r\n    address public contractOwner;\r\n\r\n    constructor() {\r\n        sellerOrderCount = 0;\r\n        companyName = \"LegiLah\";\r\n        contractOwner = msg.sender;\r\n    }\r\n\r\n    struct SellerOrder {\r\n        uint orderId;\r\n        address payable seller;\r\n        address payable buyer;\r\n        string buyerName;\r\n        string productName;\r\n        uint price;\r\n        uint totalAmount;\r\n        SellerOrderStatus status;\r\n        uint timestamp;\r\n        bool isAccepted;\r\n        bool isShipped;\r\n        bool isPaid;\r\n        string trackingNumber;\r\n    }\r\n\r\n    struct SellerProfile {\r\n        address seller;\r\n        string sellerName;\r\n        uint totalOrdersAccepted;\r\n        uint totalOrdersShipped;\r\n        uint totalEarnings;\r\n        bool isActive;\r\n    }\r\n\r\n    struct PaymentRecord {\r\n        uint orderId;\r\n        uint amount;\r\n        uint timestamp;\r\n        bool isPaid;\r\n    }\r\n\r\n    mapping(uint => SellerOrder) public sellerOrders;\r\n    mapping(address => SellerProfile) public sellerProfiles;\r\n    mapping(address => uint[]) public sellerOrdersList;\r\n    mapping(uint => PaymentRecord) public paymentRecords;\r\n    mapping(address => uint) public sellerBalance;\r\n\r\n    event SellerOrderCreated(uint orderId, address seller, address buyer, uint amount);\r\n    event OrderAccepted(uint orderId, address seller);\r\n    event OrderShipped(uint orderId, address seller, string trackingNumber);\r\n    event PaymentReleased(uint orderId, address seller, uint amount);\r\n    event SellerProfileCreated(address seller, string sellerName);\r\n\r\n    // Create seller profile\r\n    function createSellerProfile(string memory _sellerName) public {\r\n        require(bytes(_sellerName).length > 0, \"Seller name cannot be empty\");\r\n        require(!sellerProfiles[msg.sender].isActive, \"Profile already exists\");\r\n        \r\n        sellerProfiles[msg.sender] = SellerProfile({\r\n            seller: msg.sender,\r\n            sellerName: _sellerName,\r\n            totalOrdersAccepted: 0,\r\n            totalOrdersShipped: 0,\r\n            totalEarnings: 0,\r\n            isActive: true\r\n        });\r\n        \r\n        emit SellerProfileCreated(msg.sender, _sellerName);\r\n    }\r\n\r\n    // Create a new seller order\r\n    function createSellerOrder(\r\n        address payable _seller,\r\n        address payable _buyer,\r\n        string memory _buyerName,\r\n        string memory _productName,\r\n        uint _price\r\n    ) public returns (uint) {\r\n        require(_seller != address(0), \"Invalid seller address\");\r\n        require(_buyer != address(0), \"Invalid buyer address\");\r\n        require(_price > 0, \"Price must be greater than 0\");\r\n        require(sellerProfiles[_seller].isActive, \"Seller profile not active\");\r\n        \r\n        sellerOrderCount++;\r\n        \r\n        sellerOrders[sellerOrderCount] = SellerOrder({\r\n            orderId: sellerOrderCount,\r\n            seller: _seller,\r\n            buyer: _buyer,\r\n            buyerName: _buyerName,\r\n            productName: _productName,\r\n            price: _price,\r\n            totalAmount: _price,\r\n            status: SellerOrderStatus.Pending,\r\n            timestamp: block.timestamp,\r\n            isAccepted: false,\r\n            isShipped: false,\r\n            isPaid: false,\r\n            trackingNumber: \"\"\r\n        });\r\n        \r\n        sellerOrdersList[_seller].push(sellerOrderCount);\r\n        \r\n        emit SellerOrderCreated(sellerOrderCount, _seller, _buyer, _price);\r\n        return sellerOrderCount;\r\n    }\r\n\r\n    // Seller accepts the order\r\n    function acceptOrder(uint _orderId) public {\r\n        require(_orderId > 0 && _orderId <= sellerOrderCount, \"Invalid order ID\");\r\n        SellerOrder storage order = sellerOrders[_orderId];\r\n        require(msg.sender == order.seller, \"Only seller can accept the order\");\r\n        require(!order.isAccepted, \"Order already accepted\");\r\n        require(order.status == SellerOrderStatus.Pending, \"Order status must be Pending\");\r\n        \r\n        order.isAccepted = true;\r\n        order.status = SellerOrderStatus.Accepted;\r\n        \r\n        SellerProfile storage profile = sellerProfiles[msg.sender];\r\n        profile.totalOrdersAccepted++;\r\n        \r\n        emit OrderAccepted(_orderId, msg.sender);\r\n    }\r\n\r\n    // Seller ships the order\r\n    function shipOrder(uint _orderId, string memory _trackingNumber) public {\r\n        require(_orderId > 0 && _orderId <= sellerOrderCount, \"Invalid order ID\");\r\n        require(bytes(_trackingNumber).length > 0, \"Tracking number cannot be empty\");\r\n        \r\n        SellerOrder storage order = sellerOrders[_orderId];\r\n        require(msg.sender == order.seller, \"Only seller can ship the order\");\r\n        require(order.isAccepted, \"Order must be accepted first\");\r\n        require(!order.isShipped, \"Order already shipped\");\r\n        require(order.status == SellerOrderStatus.Accepted, \"Order status must be Accepted\");\r\n        \r\n        order.isShipped = true;\r\n        order.trackingNumber = _trackingNumber;\r\n        order.status = SellerOrderStatus.Shipped;\r\n        \r\n        SellerProfile storage profile = sellerProfiles[msg.sender];\r\n        profile.totalOrdersShipped++;\r\n        \r\n        emit OrderShipped(_orderId, msg.sender, _trackingNumber);\r\n    }\r\n\r\n    // Release payment to seller after delivery confirmation\r\n    function releasePayment(uint _orderId) public payable {\r\n        require(_orderId > 0 && _orderId <= sellerOrderCount, \"Invalid order ID\");\r\n        SellerOrder storage order = sellerOrders[_orderId];\r\n        require(msg.sender == order.buyer, \"Only buyer can release payment\");\r\n        require(order.isShipped, \"Order must be shipped first\");\r\n        require(!order.isPaid, \"Payment already released\");\r\n        require(msg.value >= order.totalAmount, \"Insufficient payment amount\");\r\n        \r\n        order.isPaid = true;\r\n        order.status = SellerOrderStatus.Paid;\r\n        \r\n        // Transfer payment to seller\r\n        sellerBalance[order.seller] += order.totalAmount;\r\n        \r\n        // Create payment record\r\n        paymentRecords[_orderId] = PaymentRecord({\r\n            orderId: _orderId,\r\n            amount: order.totalAmount,\r\n            timestamp: block.timestamp,\r\n            isPaid: true\r\n        });\r\n        \r\n        // Update seller profile\r\n        SellerProfile storage profile = sellerProfiles[order.seller];\r\n        profile.totalEarnings += order.totalAmount;\r\n        \r\n        emit PaymentReleased(_orderId, order.seller, order.totalAmount);\r\n    }\r\n\r\n    // Seller withdraws their balance\r\n    function withdrawBalance() public {\r\n        require(sellerBalance[msg.sender] > 0, \"No balance to withdraw\");\r\n        uint amount = sellerBalance[msg.sender];\r\n        sellerBalance[msg.sender] = 0;\r\n        \r\n        (bool success, ) = msg.sender.call{value: amount}(\"\");\r\n        require(success, \"Withdrawal failed\");\r\n    }\r\n\r\n    // Cancel order (seller can cancel if not yet shipped)\r\n    function cancelOrder(uint _orderId) public {\r\n        require(_orderId > 0 && _orderId <= sellerOrderCount, \"Invalid order ID\");\r\n        SellerOrder storage order = sellerOrders[_orderId];\r\n        require(msg.sender == order.seller, \"Only seller can cancel the order\");\r\n        require(!order.isShipped, \"Cannot cancel a shipped order\");\r\n        \r\n        order.status = SellerOrderStatus.Cancelled;\r\n        \r\n        emit OrderAccepted(_orderId, msg.sender);\r\n    }\r\n\r\n    // Get seller order details\r\n    function getSellerOrder(uint _orderId) public view returns (SellerOrder memory) {\r\n        require(_orderId > 0 && _orderId <= sellerOrderCount, \"Invalid order ID\");\r\n        return sellerOrders[_orderId];\r\n    }\r\n\r\n    // Get seller profile\r\n    function getSellerProfile(address _seller) public view returns (SellerProfile memory) {\r\n        return sellerProfiles[_seller];\r\n    }\r\n\r\n    // Get seller's orders\r\n    function getSellerOrders(address _seller) public view returns (uint[] memory) {\r\n        return sellerOrdersList[_seller];\r\n    }\r\n\r\n    // Get seller balance\r\n    function getSellerBalance(address _seller) public view returns (uint) {\r\n        return sellerBalance[_seller];\r\n    }\r\n\r\n    // Get order count\r\n    function getSellerOrderCount() public view returns (uint) {\r\n        return sellerOrderCount;\r\n    }\r\n}\r\n",
  "sourcePath": "C:\\Users\\User\\C373Projects\\Fa_Team3\\contracts\\SellerOrderContract.sol",
  "compiler": {
    "name": "solc",
    "version": "0.8.19+commit.7dd6d404.Emscripten.clang"
  },
  "schemaVersion": "3.4.16",
  "updatedAt": "2026-01-23T05:40:05.240Z",
  "networkType": "ethereum",
  "devdoc": {
    "kind": "dev",
    "methods": {},
    "version": 1
  },
  "userdoc": {
    "kind": "user",
    "methods": {},
    "version": 1
  }
}