{
  "contractName": "SellerOrderContract",
  "abi": [
    {
      "inputs": [],
      "stateMutability": "nonpayable",
      "type": "constructor"
    },
    {
      "anonymous": false,
      "inputs": [
        {
          "indexed": false,
          "internalType": "uint256",
          "name": "orderId",
          "type": "uint256"
        },
        {
          "indexed": false,
          "internalType": "address",
          "name": "seller",
          "type": "address"
        }
      ],
      "name": "OrderAccepted",
      "type": "event"
    },
    {
      "anonymous": false,
      "inputs": [
        {
          "indexed": false,
          "internalType": "uint256",
          "name": "orderId",
          "type": "uint256"
        },
        {
          "indexed": false,
          "internalType": "address",
          "name": "seller",
          "type": "address"
        },
        {
          "indexed": false,
          "internalType": "string",
          "name": "trackingNumber",
          "type": "string"
        }
      ],
      "name": "OrderShipped",
      "type": "event"
    },
    {
      "anonymous": false,
      "inputs": [
        {
          "indexed": false,
          "internalType": "uint256",
          "name": "orderId",
          "type": "uint256"
        },
        {
          "indexed": false,
          "internalType": "address",
          "name": "seller",
          "type": "address"
        },
        {
          "indexed": false,
          "internalType": "uint256",
          "name": "amount",
          "type": "uint256"
        }
      ],
      "name": "PaymentReleased",
      "type": "event"
    },
    {
      "anonymous": false,
      "inputs": [
        {
          "indexed": false,
          "internalType": "uint256",
          "name": "orderId",
          "type": "uint256"
        },
        {
          "indexed": false,
          "internalType": "address",
          "name": "seller",
          "type": "address"
        },
        {
          "indexed": false,
          "internalType": "address",
          "name": "buyer",
          "type": "address"
        },
        {
          "indexed": false,
          "internalType": "uint256",
          "name": "amount",
          "type": "uint256"
        }
      ],
      "name": "SellerOrderCreated",
      "type": "event"
    },
    {
      "anonymous": false,
      "inputs": [
        {
          "indexed": false,
          "internalType": "address",
          "name": "seller",
          "type": "address"
        },
        {
          "indexed": false,
          "internalType": "string",
          "name": "sellerName",
          "type": "string"
        }
      ],
      "name": "SellerProfileCreated",
      "type": "event"
    },
    {
      "inputs": [],
      "name": "companyName",
      "outputs": [
        {
          "internalType": "string",
          "name": "",
          "type": "string"
        }
      ],
      "stateMutability": "view",
      "type": "function",
      "constant": true
    },
    {
      "inputs": [],
      "name": "contractOwner",
      "outputs": [
        {
          "internalType": "address",
          "name": "",
          "type": "address"
        }
      ],
      "stateMutability": "view",
      "type": "function",
      "constant": true
    },
    {
      "inputs": [
        {
          "internalType": "uint256",
          "name": "",
          "type": "uint256"
        }
      ],
      "name": "paymentRecords",
      "outputs": [
        {
          "internalType": "uint256",
          "name": "orderId",
          "type": "uint256"
        },
        {
          "internalType": "uint256",
          "name": "amount",
          "type": "uint256"
        },
        {
          "internalType": "uint256",
          "name": "timestamp",
          "type": "uint256"
        },
        {
          "internalType": "bool",
          "name": "isPaid",
          "type": "bool"
        }
      ],
      "stateMutability": "view",
      "type": "function",
      "constant": true
    },
    {
      "inputs": [
        {
          "internalType": "address",
          "name": "",
          "type": "address"
        }
      ],
      "name": "sellerBalance",
      "outputs": [
        {
          "internalType": "uint256",
          "name": "",
          "type": "uint256"
        }
      ],
      "stateMutability": "view",
      "type": "function",
      "constant": true
    },
    {
      "inputs": [],
      "name": "sellerOrderCount",
      "outputs": [
        {
          "internalType": "uint256",
          "name": "",
          "type": "uint256"
        }
      ],
      "stateMutability": "view",
      "type": "function",
      "constant": true
    },
    {
      "inputs": [
        {
          "internalType": "uint256",
          "name": "",
          "type": "uint256"
        }
      ],
      "name": "sellerOrders",
      "outputs": [
        {
          "internalType": "uint256",
          "name": "orderId",
          "type": "uint256"
        },
        {
          "internalType": "address payable",
          "name": "seller",
          "type": "address"
        },
        {
          "internalType": "address payable",
          "name": "buyer",
          "type": "address"
        },
        {
          "internalType": "string",
          "name": "buyerName",
          "type": "string"
        },
        {
          "internalType": "string",
          "name": "productName",
          "type": "string"
        },
        {
          "internalType": "uint256",
          "name": "price",
          "type": "uint256"
        },
        {
          "internalType": "uint256",
          "name": "totalAmount",
          "type": "uint256"
        },
        {
          "internalType": "enum SellerOrderContract.SellerOrderStatus",
          "name": "status",
          "type": "uint8"
        },
        {
          "internalType": "uint256",
          "name": "timestamp",
          "type": "uint256"
        },
        {
          "internalType": "bool",
          "name": "isAccepted",
          "type": "bool"
        },
        {
          "internalType": "bool",
          "name": "isShipped",
          "type": "bool"
        },
        {
          "internalType": "bool",
          "name": "isPaid",
          "type": "bool"
        },
        {
          "internalType": "string",
          "name": "trackingNumber",
          "type": "string"
        }
      ],
      "stateMutability": "view",
      "type": "function",
      "constant": true
    },
    {
      "inputs": [
        {
          "internalType": "address",
          "name": "",
          "type": "address"
        },
        {
          "internalType": "uint256",
          "name": "",
          "type": "uint256"
        }
      ],
      "name": "sellerOrdersList",
      "outputs": [
        {
          "internalType": "uint256",
          "name": "",
          "type": "uint256"
        }
      ],
      "stateMutability": "view",
      "type": "function",
      "constant": true
    },
    {
      "inputs": [
        {
          "internalType": "address",
          "name": "",
          "type": "address"
        }
      ],
      "name": "sellerProfiles",
      "outputs": [
        {
          "internalType": "address",
          "name": "seller",
          "type": "address"
        },
        {
          "internalType": "string",
          "name": "sellerName",
          "type": "string"
        },
        {
          "internalType": "uint256",
          "name": "totalOrdersAccepted",
          "type": "uint256"
        },
        {
          "internalType": "uint256",
          "name": "totalOrdersShipped",
          "type": "uint256"
        },
        {
          "internalType": "uint256",
          "name": "totalEarnings",
          "type": "uint256"
        },
        {
          "internalType": "bool",
          "name": "isActive",
          "type": "bool"
        }
      ],
      "stateMutability": "view",
      "type": "function",
      "constant": true
    },
    {
      "inputs": [
        {
          "internalType": "string",
          "name": "_sellerName",
          "type": "string"
        }
      ],
      "name": "createSellerProfile",
      "outputs": [],
      "stateMutability": "nonpayable",
      "type": "function"
    },
    {
      "inputs": [
        {
          "internalType": "address payable",
          "name": "_seller",
          "type": "address"
        },
        {
          "internalType": "address payable",
          "name": "_buyer",
          "type": "address"
        },
        {
          "internalType": "string",
          "name": "_buyerName",
          "type": "string"
        },
        {
          "internalType": "string",
          "name": "_productName",
          "type": "string"
        },
        {
          "internalType": "uint256",
          "name": "_price",
          "type": "uint256"
        }
      ],
      "name": "createSellerOrder",
      "outputs": [
        {
          "internalType": "uint256",
          "name": "",
          "type": "uint256"
        }
      ],
      "stateMutability": "nonpayable",
      "type": "function"
    },
    {
      "inputs": [
        {
          "internalType": "uint256",
          "name": "_orderId",
          "type": "uint256"
        }
      ],
      "name": "acceptOrder",
      "outputs": [],
      "stateMutability": "nonpayable",
      "type": "function"
    },
    {
      "inputs": [
        {
          "internalType": "uint256",
          "name": "_orderId",
          "type": "uint256"
        },
        {
          "internalType": "string",
          "name": "_trackingNumber",
          "type": "string"
        }
      ],
      "name": "shipOrder",
      "outputs": [],
      "stateMutability": "nonpayable",
      "type": "function"
    },
    {
      "inputs": [
        {
          "internalType": "uint256",
          "name": "_orderId",
          "type": "uint256"
        }
      ],
      "name": "releasePayment",
      "outputs": [],
      "stateMutability": "payable",
      "type": "function",
      "payable": true
    },
    {
      "inputs": [],
      "name": "withdrawBalance",
      "outputs": [],
      "stateMutability": "nonpayable",
      "type": "function"
    },
    {
      "inputs": [
        {
          "internalType": "uint256",
          "name": "_orderId",
          "type": "uint256"
        }
      ],
      "name": "cancelOrder",
      "outputs": [],
      "stateMutability": "nonpayable",
      "type": "function"
    },
    {
      "inputs": [
        {
          "internalType": "uint256",
          "name": "_orderId",
          "type": "uint256"
        }
      ],
      "name": "getSellerOrder",
      "outputs": [
        {
          "components": [
            {
              "internalType": "uint256",
              "name": "orderId",
              "type": "uint256"
            },
            {
              "internalType": "address payable",
              "name": "seller",
              "type": "address"
            },
            {
              "internalType": "address payable",
              "name": "buyer",
              "type": "address"
            },
            {
              "internalType": "string",
              "name": "buyerName",
              "type": "string"
            },
            {
              "internalType": "string",
              "name": "productName",
              "type": "string"
            },
            {
              "internalType": "uint256",
              "name": "price",
              "type": "uint256"
            },
            {
              "internalType": "uint256",
              "name": "totalAmount",
              "type": "uint256"
            },
            {
              "internalType": "enum SellerOrderContract.SellerOrderStatus",
              "name": "status",
              "type": "uint8"
            },
            {
              "internalType": "uint256",
              "name": "timestamp",
              "type": "uint256"
            },
            {
              "internalType": "bool",
              "name": "isAccepted",
              "type": "bool"
            },
            {
              "internalType": "bool",
              "name": "isShipped",
              "type": "bool"
            },
            {
              "internalType": "bool",
              "name": "isPaid",
              "type": "bool"
            },
            {
              "internalType": "string",
              "name": "trackingNumber",
              "type": "string"
            }
          ],
          "internalType": "struct SellerOrderContract.SellerOrder",
          "name": "",
          "type": "tuple"
        }
      ],
      "stateMutability": "view",
      "type": "function",
      "constant": true
    },
    {
      "inputs": [
        {
          "internalType": "address",
          "name": "_seller",
          "type": "address"
        }
      ],
      "name": "getSellerProfile",
      "outputs": [
        {
          "components": [
            {
              "internalType": "address",
              "name": "seller",
              "type": "address"
            },
            {
              "internalType": "string",
              "name": "sellerName",
              "type": "string"
            },
            {
              "internalType": "uint256",
              "name": "totalOrdersAccepted",
              "type": "uint256"
            },
            {
              "internalType": "uint256",
              "name": "totalOrdersShipped",
              "type": "uint256"
            },
            {
              "internalType": "uint256",
              "name": "totalEarnings",
              "type": "uint256"
            },
            {
              "internalType": "bool",
              "name": "isActive",
              "type": "bool"
            }
          ],
          "internalType": "struct SellerOrderContract.SellerProfile",
          "name": "",
          "type": "tuple"
        }
      ],
      "stateMutability": "view",
      "type": "function",
      "constant": true
    },
    {
      "inputs": [
        {
          "internalType": "address",
          "name": "_seller",
          "type": "address"
        }
      ],
      "name": "getSellerOrders",
      "outputs": [
        {
          "internalType": "uint256[]",
          "name": "",
          "type": "uint256[]"
        }
      ],
      "stateMutability": "view",
      "type": "function",
      "constant": true
    },
    {
      "inputs": [
        {
          "internalType": "address",
          "name": "_seller",
          "type": "address"
        }
      ],
      "name": "getSellerBalance",
      "outputs": [
        {
          "internalType": "uint256",
          "name": "",
          "type": "uint256"
        }
      ],
      "stateMutability": "view",
      "type": "function",
      "constant": true
    },
    {
      "inputs": [],
      "name": "getSellerOrderCount",
      "outputs": [
        {
          "internalType": "uint256",
          "name": "",
          "type": "uint256"
        }
      ],
      "stateMutability": "view",
      "type": "function",
      "constant": true
    },
    {
      "inputs": [
        {
          "internalType": "uint256",
          "name": "_orderId",
          "type": "uint256"
        }
      ],
      "name": "getTrackingNumber",
      "outputs": [
        {
          "internalType": "string",
          "name": "",
          "type": "string"
        }
      ],
      "stateMutability": "view",
      "type": "function",
      "constant": true
    }
  ],
  "bytecode": "0x60808060405234620000c5576000600181815581548181811c91168015620000ba575b6020821014620000a657601f81116200007a575b50507f4c656769744c61680000000000000000000000000000000000000000000000109055600280546001600160a01b031916331790556122a69081620000cb8239f35b828052601f60208420910160051c8101905b8181106200009b575062000036565b83815582016200008c565b634e487b7160e01b83526022600452602483fd5b90607f169062000022565b600080fdfe608080604052600436101561001357600080fd5b60003560e01c9081632148893f14611f92575080634293e5ce14611e93578063514fcac714611d60578063525ca07a146115f85780635691fe63146115a55780635fd8c710146114ba5780636621553b14611480578063723616591461136c57806388685cd9146110ca5780638a80a709146107f95780639196dfcb1461103857806398506fa314610df25780639d07a8e914610a21578063a1e1e6e114610817578063a3f268ff146107f9578063a97fac47146104ec578063ce606ee0146104c3578063db6711f01461046b578063e4cbac40146103b7578063ef18e9ed146101ee5763f5ec2eed1461010657600080fd5b346101e95760003660031901126101e95760405160008054610127816120d8565b808452906001908181169081156101c25750600114610169575b6101658461015181860382612055565b604051918291602083526020830190611fde565b0390f35b600080805292507f290decd9548b62a8d60345a988386fc84ba6bc95484008f6362f93160ef3e5635b8284106101aa57505050810160200161015182610141565b80546020858701810191909152909301928101610192565b60ff191660208087019190915292151560051b850190920192506101519150839050610141565b600080fd5b346101e9576020806003193601126101e95760043590811515806103ab575b61021690612224565b6000828152600382526040902060018101546001600160a01b0316330361036857600981019081549060ff821661032a576007019182549060ff82166006811015610314576102cf579260016004936102ca96937fa3a9d59445e437d97cac53692b666afef6c152b0642edd206bde8472f387e59a98968360ff1980941617905516179055336000525260026040600020016102b281546121f3565b90556040805191825233602083015290918291820190565b0390a1005b60405162461bcd60e51b815260048101869052601c60248201527f4f7264657220737461747573206d7573742062652050656e64696e67000000006044820152606490fd5b634e487b7160e01b600052602160045260246000fd5b60405162461bcd60e51b815260048101859052601660248201527513dc99195c88185b1c9958591e481858d8d95c1d195960521b6044820152606490fd5b6064826040519062461bcd60e51b825280600483015260248201527f4f6e6c792073656c6c65722063616e2061636365707420746865206f726465726044820152fd5b5060015482111561020d565b346101e9576020806003193601126101e9576001600160a01b036103d9611fc8565b1660005260058152604060002060405190818382549182815201908192600052846000209060005b8682821061045757868661041782880383612055565b604051928392818401908285525180915260408401929160005b82811061044057505050500390f35b835185528695509381019392810192600101610431565b835485529093019260019283019201610401565b346101e95760403660031901126101e957610484611fc8565b6001600160a01b03166000908152600560205260409020805460243591908210156101e9576020916104b5916121c5565b90546040519160031b1c8152f35b346101e95760003660031901126101e9576002546040516001600160a01b039091168152602090f35b346101e95760203660031901126101e9576001600160401b036004358181116101e95761051d903690600401612091565b8051156107b45733600052600460205260ff60056040600020015416610776576040516105498161201e565b3381526020810190828252600060408201526000606082015260006080820152600160a082015233600052600460205260406000209160018060a01b038251166bffffffffffffffffffffffff60a01b84541617835551938451908111610760576105b760018401546120d8565b601f8111610715575b506020601f821160011461067a5760a061065593836102ca9796946005947fb26f8ddf96907baed90da50ed9fbde17d4c1871c44e90011196f732fd055beea9a60009261066f575b50508160011b916000199060031b1c19161760018501555b6040810151600285015560608101516003850155608081015160048501550151151591019060ff801983541691151516179055565b604051918291338352604060208401526040830190611fde565b015190508a80610608565b601f198216956001850160005260206000209660005b8181106106fd5750936001847fb26f8ddf96907baed90da50ed9fbde17d4c1871c44e90011196f732fd055beea9960059560a0956102ca9b9a986106559a106106e4575b505050811b016001850155610620565b015160001960f88460031b161c191690558a80806106d4565b83830151895560019098019760209384019301610690565b600184016000526020600020601f830160051c81019160208410610756575b601f0160051c01905b81811061074a57506105c0565b6000815560010161073d565b9091508190610734565b634e487b7160e01b600052604160045260246000fd5b60405162461bcd60e51b815260206004820152601660248201527550726f66696c6520616c72656164792065786973747360501b6044820152606490fd5b60405162461bcd60e51b815260206004820152601b60248201527f53656c6c6572206e616d652063616e6e6f7420626520656d70747900000000006044820152606490fd5b346101e95760003660031901126101e9576020600154604051908152f35b346101e9576020806003193601126101e95760043580151580610a15575b61083e90612224565b6000526003815260406000206040519061085782612039565b8054825260018101546001600160a01b0390811684840190815260028301548216604085019081529190819061088f60038601612112565b60608701526108a060048601612112565b6080870152600585015460a0870152600685015460c08701526108cd60ff60078701541660e08801612218565b6008850154610100870152610180610916600a60098801549760ff891615156101208b015260ff6101408b0199818160081c1615158b5260101c1615156101608b015201612112565b960195865251163314918215610a07575b5050156109ac57511561094a575190610165604051928284938452830190611fde565b60405162461bcd60e51b815260048101839052603460248201527f547261636b696e67206e756d626572206e6f7420617661696c61626c6520756e6044820152731d1a5b081bdc99195c881a5cc81cda1a5c1c195960621b6064820152608490fd5b60405162461bcd60e51b815260048101849052602d60248201527f4f6e6c792073656c6c6572206f722062757965722063616e207669657720747260448201526c30b1b5b4b73390373ab6b132b960991b6064820152608490fd5b909150511633148480610927565b50600154811115610835565b346101e95760403660031901126101e95760246004356001600160401b0382358181116101e957610a56903690600401612091565b9082151580610de6575b610a6990612224565b815115610da25782600052602093600385526040600020916001808060a01b0381850154163303610d5e57600984019384549460ff861615610d1a5760ff8660081c16610cde57600782019560ff8754166006811015610cc9578403610c855790610100600a939261ff00191617905501928551928311610c715750610aef83546120d8565b601f8111610c28575b5086601f8311600114610b9c579180807fd58bce8a42d5f16d911da7a59887fb284aea98cddb81eba85d7e1aefb9d79a5899989795936102ca9795600093610b91575b501b916000199060031b1c19161790555b600260ff1982541617905533600052600484526003604060002001610b7181546121f3565b905560405193849384523390840152606060408401526060830190611fde565b87015192508b610b3b565b601f9291921982169084600052886000209160005b818110610c1357509183917fd58bce8a42d5f16d911da7a59887fb284aea98cddb81eba85d7e1aefb9d79a589a999896946102ca98969410610bfa575b5050811b019055610b4c565b86015160001960f88460031b161c191690558980610bee565b88830151845592850192918a01918a01610bb1565b8360005287600020601f840160051c810191898510610c67575b601f0160051c019082905b828110610c5b575050610af8565b60008155018290610c4d565b9091508190610c42565b634e487b7160e01b60009081526041600452fd5b60405162461bcd60e51b8152600481018b9052601d818801527f4f7264657220737461747573206d7573742062652041636365707465640000006044820152606490fd5b86634e487b7160e01b60005260216004526000fd5b60405162461bcd60e51b8152600481018a90526015818701527413dc99195c88185b1c9958591e481cda1a5c1c1959605a1b6044820152606490fd5b60405162461bcd60e51b8152600481018a9052601c818701527f4f72646572206d757374206265206163636570746564206669727374000000006044820152606490fd5b60405162461bcd60e51b815260048101889052601e818501527f4f6e6c792073656c6c65722063616e207368697020746865206f7264657200006044820152606490fd5b60405162461bcd60e51b815260206004820152601f818601527f547261636b696e67206e756d6265722063616e6e6f7420626520656d707479006044820152606490fd5b50600154831115610a60565b346101e95760203660031901126101e9576004356060610180604051610e1781612039565b6000815260006020820152600060408201528280820152826080820152600060a0820152600060c0820152600060e0820152600061010082015260006101208201526000610140820152600061016082015201528015158061102c575b610e7d90612224565b60005260036020526101656040600020610f4a600a60405192610e9f84612039565b8054845260018101546001600160a01b0390811660208601526002820154166040850152610ecf60038201612112565b6060850152610ee060048201612112565b6080850152600581015460a0850152600681015460c0850152610f0d60ff60078301541660e08601612218565b600881015461010085015260ff60098201548181161515610120870152818160081c16151561014087015260101c16151561016085015201612112565b610180820152604051918291602083528051602084015260018060a01b03602082015116604084015260018060a01b036040820151166060840152610180610fbc610fa660608401516101a060808801526101c0870190611fde565b6080840151868203601f190160a0880152611fde565b9160a081015160c086015260c081015160e0860152610fe460e08201516101008701906121b8565b610100810151610120860152610120810151151561014086015261014081015115156101608601526101608101511515828601520151601f19848303016101a0850152611fde565b50600154811115610e74565b346101e95760203660031901126101e9576001600160a01b038061105a611fc8565b16600052600460205260406000209081541661107860018301612112565b9160028101549060038101549060ff6005600483015492015416916110af604051968796875260c0602088015260c0870190611fde565b93604086015260608501526080840152151560a08301520390f35b6020806003193601126101e9576004359081151580611360575b6110ed90612224565b816000526003815260406000209160018060a01b039182600285015416330361131c576009840180549460ff8660081c16156112d75760ff8660101c1661129257600681019182549687341061124d5790620100006001939262ff0000191617905560078101600460ff198254161790550194848654166000526007835261117b6040600020918254612263565b90558054936040519560808701958787106001600160401b03881117610760577f21d71db5be59bb9fa133895586b7404307dd33fb93b16db09dc6f1d9d7d231b097600361121492606099604052888352878301908152604083014281528a840191600183528a60005260068a5260406000209451855551600185015551600284015551151591019060ff801983541691151516179055565b81815416600052600484526040600020611235600485549201918254612263565b905554169054916040519384528301526040820152a1005b60405162461bcd60e51b815260048101869052601b60248201527f496e73756666696369656e74207061796d656e7420616d6f756e7400000000006044820152606490fd5b60405162461bcd60e51b815260048101849052601860248201527f5061796d656e7420616c72656164792072656c656173656400000000000000006044820152606490fd5b60405162461bcd60e51b815260048101849052601b60248201527f4f72646572206d757374206265207368697070656420666972737400000000006044820152606490fd5b6064906040519062461bcd60e51b82526004820152601e60248201527f4f6e6c792062757965722063616e2072656c65617365207061796d656e7400006044820152fd5b506001548211156110e4565b346101e95760203660031901126101e957600435600052600360205260406000208054600160a01b6001900391826001820154169260028201541690600381016113b590612112565b906113c260048201612112565b916005820154926006830154600784015460ff1691600885015493600986015495600a016113ef90612112565b976040519a8b9a8b5260208b015260408a01526101a08060608b0152890161141691611fde565b88810360808a015261142791611fde565b9460a088015260c087015260e0860161143f916121b8565b61010085015260ff811615156101208501528060081c60ff16151561014085015260101c60ff16151561016084015282810361018084015261016591611fde565b346101e95760203660031901126101e9576001600160a01b036114a1611fc8565b1660005260076020526020604060002054604051908152f35b346101e95760003660031901126101e95733600052600760205260406000205415611567573360005260076020526000808080604081208181549155335af13d15611562573d61150981612076565b906115176040519283612055565b8152600060203d92013e5b1561152957005b60405162461bcd60e51b815260206004820152601160248201527015da5d1a191c985dd85b0819985a5b1959607a1b6044820152606490fd5b611522565b60405162461bcd60e51b81526020600482015260166024820152754e6f2062616c616e636520746f20776974686472617760501b6044820152606490fd5b346101e95760203660031901126101e95760043560005260066020526080604060002080549060018101549060ff6003600283015492015416916040519384526020840152604083015215156060820152f35b346101e95760a03660031901126101e957611611611fc8565b6024356001600160a01b03811681036101e9576044356001600160401b0381116101e957611643903690600401612091565b6064356001600160401b0381116101e957611662903690600401612091565b6001600160a01b03841615611d22576001600160a01b03831615611ce55760843515611ca0576001600160a01b03841660009081526004602052604090206005015460ff1615611c5b576116b76001546121f3565b9081600155604051926116c984612039565b82845260018060a01b038616602085015260018060a01b03851660408501526060840152608083015260843560a083015260843560c0830152600060e0830152426101008301526000610120830152600061014083015260006101608301526040518060208101106001600160401b036020830111176107605760208101604052600081526101808301526000526003602052604060002090805182556001820160018060a01b03602083015116906bffffffffffffffffffffffff60a01b9182825416179055600283019060018060a01b036040840151169082541617905560608101518051906001600160401b0382116107605781906117ce60038601546120d8565b601f8111611c08575b50602090601f8311600114611b9657600092611b8b575b50508160011b916000199060031b1c19161760038301555b60808101518051906001600160401b03821161076057819061182b60048601546120d8565b601f8111611b38575b50602090601f8311600114611ac657600092611abb575b50508160011b916000199060031b1c19161760048301555b60a0810151600583015560c08101516006830155600782019060e081015191600683101561031457805460ff93841660ff199182161790915561010082015160088501556101208201516009850180549115159094169116178255610180916101408201511515815461ff0062ff0000610160860151151560101b169260081b169062ffff0019161717905501518051906001600160401b0382116107605761190f600a8401546120d8565b601f8111611a74575b50602090601f8311600114611a0657600a9291600091836119fb575b50508160011b916000199060031b1c1916179101555b6001600160a01b03821660009081526005602052604090206001548154909368010000000000000000821015610760576020946119b0837fbb86b72df0f9e5a26678856b8525ae201dffb3346cccb707914238a4127341a29560016080960181556121c5565b819291549060031b91821b91600019901b1916179055600154936040519185835260018060a01b03168683015260018060a01b031660408201526084356060820152a1604051908152f35b015190508680611934565b90601f19831691600a850160005260206000209260005b818110611a5c5750916001939185600a969410611a43575b505050811b0191015561194a565b015160001960f88460031b161c19169055868080611a35565b92936020600181928786015181550195019301611a1d565b600a84016000526020600020601f840160051c810160208510611ab4575b601f830160051c82018110611aa8575050611918565b60008155600101611a92565b5080611a92565b01519050868061184b565b9250600485016000526020600020906000935b601f1984168510611b1d576001945083601f19811610611b04575b505050811b016004830155611863565b015160001960f88460031b161c19169055868080611af4565b81810151835560209485019460019093019290910190611ad9565b909150600485016000526020600020601f840160051c810160208510611b84575b90849392915b601f830160051c82018110611b75575050611834565b60008155859450600101611b5f565b5080611b59565b0151905086806117ee565b9250600385016000526020600020906000935b601f1984168510611bed576001945083601f19811610611bd4575b505050811b016003830155611806565b015160001960f88460031b161c19169055868080611bc4565b81810151835560209485019460019093019290910190611ba9565b909150600385016000526020600020601f840160051c810160208510611c54575b90849392915b601f830160051c82018110611c455750506117d7565b60008155859450600101611c2f565b5080611c29565b60405162461bcd60e51b815260206004820152601960248201527f53656c6c65722070726f66696c65206e6f7420616374697665000000000000006044820152606490fd5b60405162461bcd60e51b815260206004820152601c60248201527f5072696365206d7573742062652067726561746572207468616e2030000000006044820152606490fd5b60405162461bcd60e51b8152602060048201526015602482015274496e76616c6964206275796572206164647265737360581b6044820152606490fd5b60405162461bcd60e51b8152602060048201526016602482015275496e76616c69642073656c6c6572206164647265737360501b6044820152606490fd5b346101e95760203660031901126101e95760043580151580611e87575b611d8690612224565b600081815260036020526040902060018101546001600160a01b03163303611e435760ff600982015460081c16611dfe57600701805460ff19166005179055604080519182523360208301527fa3a9d59445e437d97cac53692b666afef6c152b0642edd206bde8472f387e59a9190819081016102ca565b60405162461bcd60e51b815260206004820152601d60248201527f43616e6e6f742063616e63656c20612073686970706564206f726465720000006044820152606490fd5b606460405162461bcd60e51b815260206004820152602060248201527f4f6e6c792073656c6c65722063616e2063616e63656c20746865206f726465726044820152fd5b50600154811115611d7d565b346101e9576020806003193601126101e957611ead611fc8565b90600060a0604051611ebe8161201e565b828152606084820152826040820152826060820152826080820152015260018060a01b0380921660005260048152604060002060405191611efe8361201e565b838254168352611f1060018301612112565b9181840192835260028101549260408501938452611f736003830154916060870192835260ff600560048601549560808a019687520154169460a088019515158652604051988998828a525116908801525160c0604088015260e0870190611fde565b935160608601525160808501525160a084015251151560c08301520390f35b346101e95760203660031901126101e9576020906001600160a01b03611fb6611fc8565b16600052600782526040600020548152f35b600435906001600160a01b03821682036101e957565b919082519283825260005b84811061200a575050826000602080949584010152601f8019910116010190565b602081830181015184830182015201611fe9565b60c081019081106001600160401b0382111761076057604052565b6101a081019081106001600160401b0382111761076057604052565b90601f801991011681019081106001600160401b0382111761076057604052565b6001600160401b03811161076057601f01601f191660200190565b81601f820112156101e9578035906120a882612076565b926120b66040519485612055565b828452602083830101116101e957816000926020809301838601378301015290565b90600182811c92168015612108575b60208310146120f257565b634e487b7160e01b600052602260045260246000fd5b91607f16916120e7565b9060405191826000825492612126846120d8565b9081845260019485811690816000146121955750600114612152575b505061215092500383612055565b565b9093915060005260209081600020936000915b81831061217d57505061215093508201013880612142565b85548884018501529485019487945091830191612165565b91505061215094506020925060ff191682840152151560051b8201013880612142565b9060068210156103145752565b80548210156121dd5760005260206000200190600090565b634e487b7160e01b600052603260045260246000fd5b60001981146122025760010190565b634e487b7160e01b600052601160045260246000fd5b60068210156103145752565b1561222b57565b60405162461bcd60e51b815260206004820152601060248201526f125b9d985b1a59081bdc99195c88125160821b6044820152606490fd5b919082018092116122025756fea264697066735822122015f90ccda030719c5ddec48e8f5ac71c72b311433d95f6a287fe6fc1ee78cdca64736f6c63430008130033",
  "immutableReferences": {},
  "source": "// SPDX-License-Identifier: MIT\r\npragma solidity ^0.8.19;\r\n\r\ncontract SellerOrderContract {\r\n    enum SellerOrderStatus { Pending, Accepted, Shipped, Delivered, Paid, Cancelled }\r\n    \r\n    string public companyName;\r\n    uint public sellerOrderCount;\r\n    address public contractOwner;\r\n\r\n    constructor() {\r\n        sellerOrderCount = 0;\r\n        companyName = \"LegitLah\";\r\n        contractOwner = msg.sender;\r\n    }\r\n\r\n    struct SellerOrder {\r\n        uint orderId;\r\n        address payable seller;\r\n        address payable buyer;\r\n        string buyerName;\r\n        string productName;\r\n        uint price;\r\n        uint totalAmount;\r\n        SellerOrderStatus status;\r\n        uint timestamp;\r\n        bool isAccepted;\r\n        bool isShipped;\r\n        bool isPaid;\r\n        string trackingNumber;\r\n    }\r\n\r\n    struct SellerProfile {\r\n        address seller;\r\n        string sellerName;\r\n        uint totalOrdersAccepted;\r\n        uint totalOrdersShipped;\r\n        uint totalEarnings;\r\n        bool isActive;\r\n    }\r\n\r\n    struct PaymentRecord {\r\n        uint orderId;\r\n        uint amount;\r\n        uint timestamp;\r\n        bool isPaid;\r\n    }\r\n\r\n    mapping(uint => SellerOrder) public sellerOrders;\r\n    mapping(address => SellerProfile) public sellerProfiles;\r\n    mapping(address => uint[]) public sellerOrdersList;\r\n    mapping(uint => PaymentRecord) public paymentRecords;\r\n    mapping(address => uint) public sellerBalance;\r\n\r\n    event SellerOrderCreated(uint orderId, address seller, address buyer, uint amount);\r\n    event OrderAccepted(uint orderId, address seller);\r\n    event OrderShipped(uint orderId, address seller, string trackingNumber);\r\n    event PaymentReleased(uint orderId, address seller, uint amount);\r\n    event SellerProfileCreated(address seller, string sellerName);\r\n\r\n    // Create seller profile\r\n    function createSellerProfile(string memory _sellerName) public {\r\n        require(bytes(_sellerName).length > 0, \"Seller name cannot be empty\");\r\n        require(!sellerProfiles[msg.sender].isActive, \"Profile already exists\");\r\n        \r\n        sellerProfiles[msg.sender] = SellerProfile({\r\n            seller: msg.sender,\r\n            sellerName: _sellerName,\r\n            totalOrdersAccepted: 0,\r\n            totalOrdersShipped: 0,\r\n            totalEarnings: 0,\r\n            isActive: true\r\n        });\r\n        \r\n        emit SellerProfileCreated(msg.sender, _sellerName);\r\n    }\r\n\r\n    // Create a new seller order\r\n    function createSellerOrder(\r\n        address payable _seller,\r\n        address payable _buyer,\r\n        string memory _buyerName,\r\n        string memory _productName,\r\n        uint _price\r\n    ) public returns (uint) {\r\n        require(_seller != address(0), \"Invalid seller address\");\r\n        require(_buyer != address(0), \"Invalid buyer address\");\r\n        require(_price > 0, \"Price must be greater than 0\");\r\n        require(sellerProfiles[_seller].isActive, \"Seller profile not active\");\r\n        \r\n        sellerOrderCount++;\r\n        \r\n        sellerOrders[sellerOrderCount] = SellerOrder({\r\n            orderId: sellerOrderCount,\r\n            seller: _seller,\r\n            buyer: _buyer,\r\n            buyerName: _buyerName,\r\n            productName: _productName,\r\n            price: _price,\r\n            totalAmount: _price,\r\n            status: SellerOrderStatus.Pending,\r\n            timestamp: block.timestamp,\r\n            isAccepted: false,\r\n            isShipped: false,\r\n            isPaid: false,\r\n            trackingNumber: \"\"\r\n        });\r\n        \r\n        sellerOrdersList[_seller].push(sellerOrderCount);\r\n        \r\n        emit SellerOrderCreated(sellerOrderCount, _seller, _buyer, _price);\r\n        return sellerOrderCount;\r\n    }\r\n\r\n    // Seller accepts the order\r\n    function acceptOrder(uint _orderId) public {\r\n        require(_orderId > 0 && _orderId <= sellerOrderCount, \"Invalid order ID\");\r\n        SellerOrder storage order = sellerOrders[_orderId];\r\n        require(msg.sender == order.seller, \"Only seller can accept the order\");\r\n        require(!order.isAccepted, \"Order already accepted\");\r\n        require(order.status == SellerOrderStatus.Pending, \"Order status must be Pending\");\r\n        \r\n        order.isAccepted = true;\r\n        order.status = SellerOrderStatus.Accepted;\r\n        \r\n        SellerProfile storage profile = sellerProfiles[msg.sender];\r\n        profile.totalOrdersAccepted++;\r\n        \r\n        emit OrderAccepted(_orderId, msg.sender);\r\n    }\r\n\r\n    // Seller ships the order\r\n    function shipOrder(uint _orderId, string memory _trackingNumber) public {\r\n        require(_orderId > 0 && _orderId <= sellerOrderCount, \"Invalid order ID\");\r\n        require(bytes(_trackingNumber).length > 0, \"Tracking number cannot be empty\");\r\n        \r\n        SellerOrder storage order = sellerOrders[_orderId];\r\n        require(msg.sender == order.seller, \"Only seller can ship the order\");\r\n        require(order.isAccepted, \"Order must be accepted first\");\r\n        require(!order.isShipped, \"Order already shipped\");\r\n        require(order.status == SellerOrderStatus.Accepted, \"Order status must be Accepted\");\r\n        \r\n        order.isShipped = true;\r\n        order.trackingNumber = _trackingNumber;\r\n        order.status = SellerOrderStatus.Shipped;\r\n        \r\n        SellerProfile storage profile = sellerProfiles[msg.sender];\r\n        profile.totalOrdersShipped++;\r\n        \r\n        emit OrderShipped(_orderId, msg.sender, _trackingNumber);\r\n    }\r\n\r\n    // Release payment to seller after delivery confirmation\r\n    function releasePayment(uint _orderId) public payable {\r\n        require(_orderId > 0 && _orderId <= sellerOrderCount, \"Invalid order ID\");\r\n        SellerOrder storage order = sellerOrders[_orderId];\r\n        require(msg.sender == order.buyer, \"Only buyer can release payment\");\r\n        require(order.isShipped, \"Order must be shipped first\");\r\n        require(!order.isPaid, \"Payment already released\");\r\n        require(msg.value >= order.totalAmount, \"Insufficient payment amount\");\r\n        \r\n        order.isPaid = true;\r\n        order.status = SellerOrderStatus.Paid;\r\n        \r\n        // Transfer payment to seller\r\n        sellerBalance[order.seller] += order.totalAmount;\r\n        \r\n        // Create payment record\r\n        paymentRecords[_orderId] = PaymentRecord({\r\n            orderId: _orderId,\r\n            amount: order.totalAmount,\r\n            timestamp: block.timestamp,\r\n            isPaid: true\r\n        });\r\n        \r\n        // Update seller profile\r\n        SellerProfile storage profile = sellerProfiles[order.seller];\r\n        profile.totalEarnings += order.totalAmount;\r\n        \r\n        emit PaymentReleased(_orderId, order.seller, order.totalAmount);\r\n    }\r\n\r\n    // Seller withdraws their balance\r\n    function withdrawBalance() public {\r\n        require(sellerBalance[msg.sender] > 0, \"No balance to withdraw\");\r\n        uint amount = sellerBalance[msg.sender];\r\n        sellerBalance[msg.sender] = 0;\r\n        \r\n        (bool success, ) = msg.sender.call{value: amount}(\"\");\r\n        require(success, \"Withdrawal failed\");\r\n    }\r\n\r\n    // Cancel order (seller can cancel if not yet shipped)\r\n    function cancelOrder(uint _orderId) public {\r\n        require(_orderId > 0 && _orderId <= sellerOrderCount, \"Invalid order ID\");\r\n        SellerOrder storage order = sellerOrders[_orderId];\r\n        require(msg.sender == order.seller, \"Only seller can cancel the order\");\r\n        require(!order.isShipped, \"Cannot cancel a shipped order\");\r\n        \r\n        order.status = SellerOrderStatus.Cancelled;\r\n        \r\n        emit OrderAccepted(_orderId, msg.sender);\r\n    }\r\n\r\n    // Get seller order details\r\n    function getSellerOrder(uint _orderId) public view returns (SellerOrder memory) {\r\n        require(_orderId > 0 && _orderId <= sellerOrderCount, \"Invalid order ID\");\r\n        return sellerOrders[_orderId];\r\n    }\r\n\r\n    // Get seller profile\r\n    function getSellerProfile(address _seller) public view returns (SellerProfile memory) {\r\n        return sellerProfiles[_seller];\r\n    }\r\n\r\n    // Get seller's orders\r\n    function getSellerOrders(address _seller) public view returns (uint[] memory) {\r\n        return sellerOrdersList[_seller];\r\n    }\r\n\r\n    // Get seller balance\r\n    function getSellerBalance(address _seller) public view returns (uint) {\r\n        return sellerBalance[_seller];\r\n    }\r\n\r\n    // Get order count\r\n    function getSellerOrderCount() public view returns (uint) {\r\n        return sellerOrderCount;\r\n    }\r\n\r\n    // Get tracking number - accessible by both seller and buyer\r\n    function getTrackingNumber(uint _orderId) public view returns (string memory) {\r\n        require(_orderId > 0 && _orderId <= sellerOrderCount, \"Invalid order ID\");\r\n        SellerOrder memory order = sellerOrders[_orderId];\r\n        require(\r\n            msg.sender == order.seller || msg.sender == order.buyer,\r\n            \"Only seller or buyer can view tracking number\"\r\n        );\r\n        require(order.isShipped, \"Tracking number not available until order is shipped\");\r\n        return order.trackingNumber;\r\n    }\r\n}\r\n",
  "sourcePath": "C:\\Users\\User\\C373Projects\\Fa_Team3\\contracts\\SellerOrderContract.sol",
  "compiler": {
    "name": "solc",
    "version": "0.8.19+commit.7dd6d404.Emscripten.clang"
  },
  "schemaVersion": "3.4.16",
  "updatedAt": "2026-01-25T10:36:47.357Z",
  "networkType": "ethereum",
  "devdoc": {
    "kind": "dev",
    "methods": {},
    "version": 1
  },
  "userdoc": {
    "kind": "user",
    "methods": {},
    "version": 1
  }
}