{
  "contractName": "UserRegistry",
  "abi": [
    {
      "inputs": [],
      "stateMutability": "nonpayable",
      "type": "constructor"
    },
    {
      "anonymous": false,
      "inputs": [
        {
          "indexed": true,
          "internalType": "address",
          "name": "account",
          "type": "address"
        }
      ],
      "name": "AdminGranted",
      "type": "event"
    },
    {
      "anonymous": false,
      "inputs": [
        {
          "indexed": true,
          "internalType": "address",
          "name": "account",
          "type": "address"
        },
        {
          "indexed": true,
          "internalType": "bytes32",
          "name": "emailHash",
          "type": "bytes32"
        },
        {
          "indexed": false,
          "internalType": "enum UserRegistry.Role",
          "name": "role",
          "type": "uint8"
        }
      ],
      "name": "UserRegistered",
      "type": "event"
    },
    {
      "inputs": [
        {
          "internalType": "bytes32",
          "name": "emailHash",
          "type": "bytes32"
        },
        {
          "internalType": "bytes32",
          "name": "passwordHash",
          "type": "bytes32"
        }
      ],
      "name": "registerUser",
      "outputs": [],
      "stateMutability": "nonpayable",
      "type": "function"
    },
    {
      "inputs": [
        {
          "internalType": "bytes32",
          "name": "emailHash",
          "type": "bytes32"
        },
        {
          "internalType": "bytes32",
          "name": "passwordHash",
          "type": "bytes32"
        }
      ],
      "name": "registerUserByEmail",
      "outputs": [],
      "stateMutability": "nonpayable",
      "type": "function"
    },
    {
      "inputs": [
        {
          "internalType": "bytes32",
          "name": "emailHash",
          "type": "bytes32"
        },
        {
          "internalType": "bytes32",
          "name": "passwordHash",
          "type": "bytes32"
        },
        {
          "internalType": "enum UserRegistry.Role",
          "name": "role",
          "type": "uint8"
        }
      ],
      "name": "registerUserByEmailWithRole",
      "outputs": [],
      "stateMutability": "nonpayable",
      "type": "function"
    },
    {
      "inputs": [
        {
          "internalType": "bytes32",
          "name": "emailHash",
          "type": "bytes32"
        }
      ],
      "name": "setAdminByEmailHash",
      "outputs": [],
      "stateMutability": "nonpayable",
      "type": "function"
    },
    {
      "inputs": [
        {
          "internalType": "address",
          "name": "account",
          "type": "address"
        }
      ],
      "name": "isRegistered",
      "outputs": [
        {
          "internalType": "bool",
          "name": "",
          "type": "bool"
        }
      ],
      "stateMutability": "view",
      "type": "function"
    },
    {
      "inputs": [
        {
          "internalType": "address",
          "name": "account",
          "type": "address"
        }
      ],
      "name": "getRole",
      "outputs": [
        {
          "internalType": "enum UserRegistry.Role",
          "name": "",
          "type": "uint8"
        }
      ],
      "stateMutability": "view",
      "type": "function"
    },
    {
      "inputs": [
        {
          "internalType": "bytes32",
          "name": "emailHash",
          "type": "bytes32"
        }
      ],
      "name": "getAccountByEmailHash",
      "outputs": [
        {
          "internalType": "address",
          "name": "",
          "type": "address"
        }
      ],
      "stateMutability": "view",
      "type": "function"
    },
    {
      "inputs": [],
      "name": "getUserCount",
      "outputs": [
        {
          "internalType": "uint256",
          "name": "",
          "type": "uint256"
        }
      ],
      "stateMutability": "view",
      "type": "function"
    },
    {
      "inputs": [
        {
          "internalType": "uint256",
          "name": "index",
          "type": "uint256"
        }
      ],
      "name": "getUserByIndex",
      "outputs": [
        {
          "internalType": "bytes32",
          "name": "emailHash",
          "type": "bytes32"
        },
        {
          "internalType": "enum UserRegistry.Role",
          "name": "role",
          "type": "uint8"
        },
        {
          "internalType": "address",
          "name": "wallet",
          "type": "address"
        }
      ],
      "stateMutability": "view",
      "type": "function"
    },
    {
      "inputs": [
        {
          "internalType": "bytes32",
          "name": "emailHash",
          "type": "bytes32"
        },
        {
          "internalType": "bytes32",
          "name": "passwordHash",
          "type": "bytes32"
        }
      ],
      "name": "verifyCredentials",
      "outputs": [
        {
          "internalType": "bool",
          "name": "isValid",
          "type": "bool"
        },
        {
          "internalType": "enum UserRegistry.Role",
          "name": "role",
          "type": "uint8"
        },
        {
          "internalType": "address",
          "name": "account",
          "type": "address"
        }
      ],
      "stateMutability": "view",
      "type": "function"
    }
  ],
  "bytecode": "0x6080346100cc57608081016001600160401b038111828210176100b65760405260009081815260208101828152600260408301926003845260608101923384523386528560205260408620915182555160018201550191519060048210156100a25760ff835491610100600160a81b03905160081b1692169060018060a81b031916171790553381526001602052604033912055604051610b4390816100d28239f35b634e487b7160e01b84526021600452602484fd5b634e487b7160e01b600052604160045260246000fd5b600080fdfe60406080815260048036101561001457600080fd5b600090813560e01c80631c3840aa1461083f57806342c40bb81461072457806344276733146106e15780639578853514610574578063b198c2fa146103e7578063b5cb15f7146103c8578063b8d07d391461020c578063c3c5a54714610184578063cb3b8e3c146101475763ff5d32fe1461008e57600080fd5b346101435760203660031901126101435780359060025482101561010b576060848085857f405787fa12a823e0f2b7631cc41b3ba8828b3321ca811111fa75cd3aa3bb5ace015481528060205220906002825492015481519283526100f96020840160ff831661089c565b60081c6001600160a01b031690820152f35b606490602085519162461bcd60e51b83528201526012602482015271496e646578206f7574206f662072616e676560701b6044820152fd5b5080fd5b508290346101805760203660031901126101805735825260208281529181902060020154905160089190911c6001600160a01b03168152f35b8280fd5b5091346101435760203660031901126101435782356001600160a01b038116908190036101805782526001602052808220549182151592836101cd575b60208484519015158152f35b9080929350528060205260ff600283832001541690838210156101f957506020925015159038806101c1565b634e487b7160e01b815260218452602490fd5b508234610180576060366003190112610180578135916024359160443591808310156103c457338652602093600185528287205461024b811515610a2e565b875286855260ff60028489200154168281101561037657600361026e9114610a2e565b6102798615156108bf565b6102848115156108fc565b6001841480156103ba575b156103895785875286855260ff600284892001541682811015610376576102b6901561093c565b6102be61097d565b9186835285830191825260028484019386855260608101938a8552898b528a8952868b209151825551600182015501925190808210156103635750928261035f9261032d8a98967f588eda97f6b0c5a4314b4c594222e466f18e2a9a7cf12ca42dc5eee7a263773298966109b3565b518154610100600160a81b03191660089190911b610100600160a81b0316179055610357876109cb565b51809261089c565ba380f35b634e487b7160e01b895260219052602488fd5b634e487b7160e01b885260218352602488fd5b5083606492519162461bcd60e51b8352820152600c60248201526b496e76616c696420726f6c6560a01b6044820152fd5b506002841461028f565b8580fd5b8284346101435781600319360112610143576020906002549051908152f35b508234610180576103f736610881565b9190923385526020926001845282862054610413811515610a2e565b865285845260ff6002848820015416828110156105615760036104369114610a2e565b338652600184528286205461044c811515610a2e565b865285845260ff60028488200154168281101561056157600361046f9114610a2e565b61047a8515156108bf565b6104858115156108fc565b84865285845260ff600284882001541682811015610561576104a7901561093c565b6104af61097d565b91858352848301918252600284840193600185526060810193898552888a52898852868a2091518255516001820155019251908082101561054e5750917f588eda97f6b0c5a4314b4c594222e466f18e2a9a7cf12ca42dc5eee7a2637732939161051b889694836109b3565b518154610100600160a81b03191660089190911b610100600160a81b0316179055610545856109cb565b5160018152a380f35b634e487b7160e01b885260219052602487fd5b634e487b7160e01b875260218352602487fd5b5091346101435761058436610881565b90916105918315156108bf565b61059c8215156108fc565b33845260209160018352818520546106a95783855284835260ff600283872001541686811015610696576105d0901561093c565b6105d861097d565b908482528382019081526002838301926001845260608101923384528789528887528589209151825551600182015501915187811015610683579061064083927f588eda97f6b0c5a4314b4c594222e466f18e2a9a7cf12ca42dc5eee7a263773295946109b3565b518154610100600160a81b03191660089190911b610100600160a81b031617905533855260018352808520849055610677846109cb565b5191600183523392a380f35b634e487b7160e01b875260218852602487fd5b634e487b7160e01b865260218752602486fd5b815162461bcd60e51b81528087018490526012602482015271105b1c9958591e481c9959da5cdd195c995960721b6044820152606490fd5b508290346101805760203660031901126101805735916001600160a01b0383168303610721575061071f610716602093610a67565b9151809261089c565bf35b80fd5b508234610180576020366003190112610180578135338452600160205281842054610750811515610a2e565b84528360205260ff60028386200154168381101561082c5760036107749114610a2e565b61077f8115156108bf565b8352826020526002818420019182549160ff83168281101561081957156107e057505060ff19166003179081905560081c6001600160a01b03167f1c4e23de8d72c94b22992bd4d7b6786b215ba876af214ff63e6a0ca38fc97af48280a280f35b906020606492519162461bcd60e51b83528201526013602482015272155cd95c881b9bdd081c9959da5cdd195c9959606a1b6044820152fd5b634e487b7160e01b865260218352602486fd5b634e487b7160e01b855260218452602485fd5b5050346107215760606108728361085e61085836610881565b90610a9e565b91939083519415158552602085019061089c565b6001600160a01b031690820152f35b6040906003190112610897576004359060243590565b600080fd5b9060048210156108a95752565b634e487b7160e01b600052602160045260246000fd5b156108c657565b60405162461bcd60e51b815260206004820152600e60248201526d115b585a5b081c995c5d5a5c995960921b6044820152606490fd5b1561090357565b60405162461bcd60e51b815260206004820152601160248201527014185cdcdddbdc99081c995c5d5a5c9959607a1b6044820152606490fd5b1561094357565b60405162461bcd60e51b8152602060048201526012602482015271115b585a5b08185b1c9958591e481d5cd95960721b6044820152606490fd5b604051906080820182811067ffffffffffffffff82111761099d57604052565b634e487b7160e01b600052604160045260246000fd5b9060048110156108a95760ff80198354169116179055565b6002546801000000000000000081101561099d576001810180600255811015610a185760026000527f405787fa12a823e0f2b7631cc41b3ba8828b3321ca811111fa75cd3aa3bb5ace0155565b634e487b7160e01b600052603260045260246000fd5b15610a3557565b60405162461bcd60e51b815260206004820152600a60248201526927b7363c9030b236b4b760b11b6044820152606490fd5b6001600160a01b03166000908152600160205260408120548015610a9a5760408260029260ff9452806020522001541690565b5090565b91600092835282602052604083209260028401549260ff8416946004861015610af9578515610aed576001015403610ae457506001929160081c6001600160a01b031690565b92508291508190565b50509150915080918190565b634e487b7160e01b83526021600452602483fdfea2646970667358221220042594ee10bfa3f18b8ca9b63b59df9fe39b291c78b729e35f1214d152ef6f6f64736f6c63430008130033",
  "immutableReferences": {},
  "source": "// SPDX-License-Identifier: MIT\npragma solidity ^0.8.19;\n\ncontract UserRegistry {\n    enum Role { None, User, Seller, Admin }\n\n    struct User {\n        bytes32 emailHash;\n        bytes32 passwordHash;\n        Role role;\n        address wallet;\n    }\n\n    mapping(bytes32 => User) private usersByEmailHash;\n    mapping(address => bytes32) private emailHashByAddress;\n    bytes32[] private emailHashes;\n\n    event UserRegistered(address indexed account, bytes32 indexed emailHash, Role role);\n    event AdminGranted(address indexed account);\n\n    modifier onlyAdmin() {\n        bytes32 emailHash = emailHashByAddress[msg.sender];\n        require(emailHash != bytes32(0), \"Only admin\");\n        require(usersByEmailHash[emailHash].role == Role.Admin, \"Only admin\");\n        _;\n    }\n\n    constructor() {\n        bytes32 adminHash = bytes32(uint256(uint160(msg.sender)));\n        usersByEmailHash[adminHash] = User({\n            emailHash: bytes32(0),\n            passwordHash: bytes32(0),\n            role: Role.Admin,\n            wallet: msg.sender\n        });\n        emailHashByAddress[msg.sender] = adminHash;\n    }\n\n    function registerUser(bytes32 emailHash, bytes32 passwordHash) external {\n        require(emailHash != bytes32(0), \"Email required\");\n        require(passwordHash != bytes32(0), \"Password required\");\n        require(emailHashByAddress[msg.sender] == bytes32(0), \"Already registered\");\n        require(usersByEmailHash[emailHash].role == Role.None, \"Email already used\");\n\n        usersByEmailHash[emailHash] = User({\n            emailHash: emailHash,\n            passwordHash: passwordHash,\n            role: Role.User,\n            wallet: msg.sender\n        });\n        emailHashByAddress[msg.sender] = emailHash;\n        emailHashes.push(emailHash);\n\n        emit UserRegistered(msg.sender, emailHash, Role.User);\n    }\n\n    function registerUserByEmail(bytes32 emailHash, bytes32 passwordHash) external onlyAdmin {\n        registerUserByEmailWithRole(emailHash, passwordHash, Role.User);\n    }\n\n    function registerUserByEmailWithRole(\n        bytes32 emailHash,\n        bytes32 passwordHash,\n        Role role\n    ) public onlyAdmin {\n        require(emailHash != bytes32(0), \"Email required\");\n        require(passwordHash != bytes32(0), \"Password required\");\n        require(role == Role.User || role == Role.Seller, \"Invalid role\");\n        require(usersByEmailHash[emailHash].role == Role.None, \"Email already used\");\n\n        usersByEmailHash[emailHash] = User({\n            emailHash: emailHash,\n            passwordHash: passwordHash,\n            role: role,\n            wallet: address(0)\n        });\n        emailHashes.push(emailHash);\n\n        emit UserRegistered(address(0), emailHash, role);\n    }\n\n    function setAdminByEmailHash(bytes32 emailHash) external onlyAdmin {\n        require(emailHash != bytes32(0), \"Email required\");\n        User storage user = usersByEmailHash[emailHash];\n        require(user.role != Role.None, \"User not registered\");\n\n        user.role = Role.Admin;\n        emit AdminGranted(user.wallet);\n    }\n\n    function isRegistered(address account) external view returns (bool) {\n        bytes32 emailHash = emailHashByAddress[account];\n        return emailHash != bytes32(0) && usersByEmailHash[emailHash].role != Role.None;\n    }\n\n    function getRole(address account) external view returns (Role) {\n        bytes32 emailHash = emailHashByAddress[account];\n        if (emailHash == bytes32(0)) {\n            return Role.None;\n        }\n        return usersByEmailHash[emailHash].role;\n    }\n\n    function getAccountByEmailHash(bytes32 emailHash) external view returns (address) {\n        return usersByEmailHash[emailHash].wallet;\n    }\n\n    function getUserCount() external view returns (uint) {\n        return emailHashes.length;\n    }\n\n    function getUserByIndex(uint index)\n        external\n        view\n        returns (bytes32 emailHash, Role role, address wallet)\n    {\n        require(index < emailHashes.length, \"Index out of range\");\n        bytes32 hash = emailHashes[index];\n        User storage user = usersByEmailHash[hash];\n        return (user.emailHash, user.role, user.wallet);\n    }\n\n    function verifyCredentials(bytes32 emailHash, bytes32 passwordHash)\n        external\n        view\n        returns (bool isValid, Role role, address account)\n    {\n        User storage user = usersByEmailHash[emailHash];\n        if (user.role == Role.None) {\n            return (false, Role.None, address(0));\n        }\n\n        if (user.passwordHash != passwordHash) {\n            return (false, Role.None, address(0));\n        }\n\n        return (true, user.role, user.wallet);\n    }\n}\n",
  "sourcePath": "C:\\Users\\24027209\\OneDrive - Republic Polytechnic\\Documents\\Y2\\SEM 2\\c373 DLT solutioning\\C373-FA-main\\C373-FA-main\\contracts\\UserRegistry.sol",
  "compiler": {
    "name": "solc",
    "version": "0.8.19+commit.7dd6d404.Emscripten.clang"
  },
  "schemaVersion": "3.4.16",
  "updatedAt": "2026-01-25T09:22:43.865Z",
  "devdoc": {
    "kind": "dev",
    "methods": {},
    "version": 1
  },
  "userdoc": {
    "kind": "user",
    "methods": {},
    "version": 1
  }
}