{
  "contractName": "ReturnRequestContract",
  "abi": [
    {
      "anonymous": false,
      "inputs": [
        {
          "indexed": true,
          "internalType": "uint256",
          "name": "orderId",
          "type": "uint256"
        },
        {
          "indexed": true,
          "internalType": "address",
          "name": "seller",
          "type": "address"
        },
        {
          "indexed": false,
          "internalType": "string",
          "name": "note",
          "type": "string"
        }
      ],
      "name": "ReturnApproved",
      "type": "event"
    },
    {
      "anonymous": false,
      "inputs": [
        {
          "indexed": true,
          "internalType": "uint256",
          "name": "orderId",
          "type": "uint256"
        },
        {
          "indexed": true,
          "internalType": "address",
          "name": "seller",
          "type": "address"
        },
        {
          "indexed": false,
          "internalType": "string",
          "name": "note",
          "type": "string"
        }
      ],
      "name": "ReturnRejected",
      "type": "event"
    },
    {
      "anonymous": false,
      "inputs": [
        {
          "indexed": true,
          "internalType": "uint256",
          "name": "orderId",
          "type": "uint256"
        },
        {
          "indexed": true,
          "internalType": "address",
          "name": "buyer",
          "type": "address"
        },
        {
          "indexed": true,
          "internalType": "address",
          "name": "seller",
          "type": "address"
        },
        {
          "indexed": false,
          "internalType": "enum ReturnRequestContract.RequestType",
          "name": "requestType",
          "type": "uint8"
        },
        {
          "indexed": false,
          "internalType": "string",
          "name": "reason",
          "type": "string"
        }
      ],
      "name": "ReturnRequested",
      "type": "event"
    },
    {
      "inputs": [],
      "name": "requestCount",
      "outputs": [
        {
          "internalType": "uint256",
          "name": "",
          "type": "uint256"
        }
      ],
      "stateMutability": "view",
      "type": "function",
      "constant": true
    },
    {
      "inputs": [
        {
          "internalType": "uint256",
          "name": "_orderId",
          "type": "uint256"
        },
        {
          "internalType": "address",
          "name": "_seller",
          "type": "address"
        },
        {
          "internalType": "enum ReturnRequestContract.RequestType",
          "name": "_type",
          "type": "uint8"
        },
        {
          "internalType": "string",
          "name": "_reason",
          "type": "string"
        }
      ],
      "name": "requestReturnOrRefund",
      "outputs": [],
      "stateMutability": "nonpayable",
      "type": "function"
    },
    {
      "inputs": [
        {
          "internalType": "uint256",
          "name": "_orderId",
          "type": "uint256"
        },
        {
          "internalType": "string",
          "name": "_note",
          "type": "string"
        }
      ],
      "name": "approve",
      "outputs": [],
      "stateMutability": "nonpayable",
      "type": "function"
    },
    {
      "inputs": [
        {
          "internalType": "uint256",
          "name": "_orderId",
          "type": "uint256"
        },
        {
          "internalType": "string",
          "name": "_note",
          "type": "string"
        }
      ],
      "name": "reject",
      "outputs": [],
      "stateMutability": "nonpayable",
      "type": "function"
    },
    {
      "inputs": [
        {
          "internalType": "uint256",
          "name": "_orderId",
          "type": "uint256"
        }
      ],
      "name": "getRequest",
      "outputs": [
        {
          "internalType": "uint256",
          "name": "orderId",
          "type": "uint256"
        },
        {
          "internalType": "address",
          "name": "buyer",
          "type": "address"
        },
        {
          "internalType": "address",
          "name": "seller",
          "type": "address"
        },
        {
          "internalType": "enum ReturnRequestContract.RequestType",
          "name": "requestType",
          "type": "uint8"
        },
        {
          "internalType": "string",
          "name": "reason",
          "type": "string"
        },
        {
          "internalType": "enum ReturnRequestContract.ReturnStatus",
          "name": "status",
          "type": "uint8"
        },
        {
          "internalType": "uint256",
          "name": "requestedAt",
          "type": "uint256"
        },
        {
          "internalType": "string",
          "name": "sellerNote",
          "type": "string"
        }
      ],
      "stateMutability": "view",
      "type": "function",
      "constant": true
    },
    {
      "inputs": [
        {
          "internalType": "uint256",
          "name": "_orderId",
          "type": "uint256"
        }
      ],
      "name": "getStatus",
      "outputs": [
        {
          "internalType": "enum ReturnRequestContract.ReturnStatus",
          "name": "",
          "type": "uint8"
        }
      ],
      "stateMutability": "view",
      "type": "function",
      "constant": true
    },
    {
      "inputs": [],
      "name": "getAllRequestOrderIds",
      "outputs": [
        {
          "internalType": "uint256[]",
          "name": "",
          "type": "uint256[]"
        }
      ],
      "stateMutability": "view",
      "type": "function",
      "constant": true
    },
    {
      "inputs": [
        {
          "internalType": "uint256",
          "name": "index",
          "type": "uint256"
        }
      ],
      "name": "getRequestOrderIdAt",
      "outputs": [
        {
          "internalType": "uint256",
          "name": "",
          "type": "uint256"
        }
      ],
      "stateMutability": "view",
      "type": "function",
      "constant": true
    }
  ],
  "bytecode": "0x608080604052346100165761100c908161001c8239f35b600080fdfe608080604052600436101561001357600080fd5b60003560e01c9081631ac6e0a614610c8557508063375aba58146106ef5780635badbe4c146106d15780635c622a0e1461069857806371d68a971461046957806372405ab01461023d578063c58343ef146100ed5763e85648681461007757600080fd5b346100e85760203660031901126100e8576004356002548110156100ae576100a0602091610ea2565b90546040519160031b1c8152f35b60405162461bcd60e51b8152602060048201526012602482015271496e646578206f7574206f662072616e676560701b6044820152606490fd5b600080fd5b346100e85760203660031901126100e857600435600052600060205260406000206040519061011b82610d39565b8054825260018060a01b0380600183015416916020840192835260028101546040850194838216865261015860ff606083019360a01c1683610e5c565b61016460038401610f30565b926080820193845260ff6004820154169460a083019560048110156102275786528061019e600660058501549460c0870195865201610f30565b9360e081019485525197511697511692519360028510156102275751945193600485101561022757610223956101f56102069261021194519551966040519b8c9b8c5260208c015260408b015260608a0190610e0f565b6101008060808a0152880190610e1c565b9360a0870190610dcf565b60c085015283820360e0850152610e1c565b0390f35b634e487b7160e01b600052602160045260246000fd5b346100e85761024b36610ddc565b9080600052602091600083526040600020600481019081549160ff83169260048410156102275761027f6001809514610eef565b60028301546001600160a01b031633036104245760ff1916600217905582516006919091019167ffffffffffffffff821161040e576102be8354610e68565b601f81116103c5575b5085601f831160011461033b5791808061032b95937f3bd2db820763affa005bf354c4fe03c19adadca841811c7fa1e6fc6ee5d02adc9795600093610330575b501b916000199060031b1c19161790555b6040519182918683523396830190610e1c565b0390a3005b86015192508a610307565b601f9291921982169084600052876000209160005b898282106103b157505091839161032b96947f3bd2db820763affa005bf354c4fe03c19adadca841811c7fa1e6fc6ee5d02adc98969410610398575b5050811b019055610318565b85015160001960f88460031b161c19169055888061038c565b888401518555938601939283019201610350565b8360005286600020601f840160051c810191888510610404575b601f0160051c019082905b8281106103f85750506102c7565b600081550182906103ea565b90915081906103df565b634e487b7160e01b600052604160045260246000fd5b60405162461bcd60e51b815260048101889052601760248201527f4f6e6c792073656c6c65722063616e20617070726f76650000000000000000006044820152606490fd5b346100e85761047736610ddc565b9080600052602091600083526040600020600481019081549160ff8316926004841015610227576104ab6001809514610eef565b60028301546001600160a01b0316330361065a578451156106155760ff1916600317905582516006919091019167ffffffffffffffff821161040e576104f18354610e68565b601f81116105cc575b5085601f831160011461055c5791808061032b95937fb3db303a3929d0edd0f50170c75f8692c7b333dc9ad53ecbcf1360683f773406979560009361033057501b916000199060031b1c19161790556040519182918683523396830190610e1c565b601f9291921982169084600052876000209160005b898282106105b857505091839161032b96947fb3db303a3929d0edd0f50170c75f8692c7b333dc9ad53ecbcf1360683f77340698969410610398575050811b019055610318565b888401518555938601939283019201610571565b8360005286600020601f840160051c81019188851061060b575b601f0160051c019082905b8281106105ff5750506104fa565b600081550182906105f1565b90915081906105e6565b60405162461bcd60e51b815260048101889052601760248201527f52656a656374696f6e206e6f74652072657175697265640000000000000000006044820152606490fd5b60405162461bcd60e51b815260048101889052601660248201527513db9b1e481cd95b1b195c8818d85b881c995a9958dd60521b6044820152606490fd5b346100e85760203660031901126100e8576004356000526000602052602060ff600460406000200154166106cf6040518092610dcf565bf35b346100e85760003660031901126100e8576020600154604051908152f35b346100e85760803660031901126100e8576024356001600160a01b03811681036100e857600260443510156100e85760643567ffffffffffffffff81116100e85761073e903690600401610d78565b9060043515610c4e576001600160a01b03811615610c1857815115610be157600435600052600060205260ff60046040600020015416600481101561022757610ba35760405161078d81610d39565b60043581523360208201526001600160a01b03821660408201526107b660443560608301610e5c565b826080820152600160a08201524260c082015260405180602081011067ffffffffffffffff60208301111761040e57602081016040526000815260e08201526004356000526000602052604060002090805182556001820160018060a01b036020830151166bffffffffffffffffffffffff60a01b8254161790556002820160018060a01b0360408301511681549060608401516002811015610227576001600160a81b03199092161760a09190911b60ff60a01b16179055608081015180519067ffffffffffffffff821161040e5781906108956003860154610e68565b601f8111610b50575b50602090601f8311600114610ade57600092610ad3575b50508160011b916000199060031b1c19161760038301555b600482019060a08101519160048310156102275760e09260ff8019835416911617905560c08101516005840155015180519067ffffffffffffffff821161040e5761091b6006840154610e68565b601f8111610a8c575b50602090601f8311600114610a1e576006929160009183610a13575b50508160011b916000199060031b1c1916179101555b600154600019908181146109fd576001016001556002546801000000000000000081101561040e5780600161098e9201600255610ea2565b819291549060031b91600435831b921b1916179055604051906109b382604435610e0f565b6040602083015260018060a01b0316917f54dd1bfa97ee467e681a32da83218d70d337cf098e4a8bd6266199e09c08dde53392806109f8600435946040830190610e1c565b0390a4005b634e487b7160e01b600052601160045260246000fd5b015190508680610940565b90601f198316916006850160005260206000209260005b818110610a7457509160019391856006969410610a5b575b505050811b01910155610956565b015160001960f88460031b161c19169055868080610a4d565b92936020600181928786015181550195019301610a35565b600684016000526020600020601f840160051c810160208510610acc575b601f830160051c82018110610ac0575050610924565b60008155600101610aaa565b5080610aaa565b0151905086806108b5565b9250600385016000526020600020906000935b601f1984168510610b35576001945083601f19811610610b1c575b505050811b0160038301556108cd565b015160001960f88460031b161c19169055868080610b0c565b81810151835560209485019460019093019290910190610af1565b909150600385016000526020600020601f840160051c810160208510610b9c575b90849392915b601f830160051c82018110610b8d57505061089e565b60008155859450600101610b77565b5080610b71565b60405162461bcd60e51b81526020600482015260166024820152755265717565737420616c72656164792065786973747360501b6044820152606490fd5b60405162461bcd60e51b815260206004820152600f60248201526e1499585cdbdb881c995c5d5a5c9959608a1b6044820152606490fd5b60405162461bcd60e51b815260206004820152600e60248201526d24b73b30b634b21039b2b63632b960911b6044820152606490fd5b60405162461bcd60e51b815260206004820152600f60248201526e125b9d985b1a59081bdc99195c9259608a1b6044820152606490fd5b346100e85760003660031901126100e85760025490818152602091828201809160026000527f405787fa12a823e0f2b7631cc41b3ba8828b3321ca811111fa75cd3aa3bb5ace9060005b86828210610d25578686610ce582880383610d56565b604051928392818401908285525180915260408401929160005b828110610d0e57505050500390f35b835185528695509381019392810192600101610cff565b835485529093019260019283019201610ccf565b610100810190811067ffffffffffffffff82111761040e57604052565b90601f8019910116810190811067ffffffffffffffff82111761040e57604052565b81601f820112156100e85780359067ffffffffffffffff821161040e5760405192610dad601f8401601f191660200185610d56565b828452602083830101116100e857816000926020809301838601378301015290565b9060048210156102275752565b9060406003198301126100e857600435916024359067ffffffffffffffff82116100e857610e0c91600401610d78565b90565b9060028210156102275752565b919082519283825260005b848110610e48575050826000602080949584010152601f8019910116010190565b602081830181015184830182015201610e27565b60028210156102275752565b90600182811c92168015610e98575b6020831014610e8257565b634e487b7160e01b600052602260045260246000fd5b91607f1691610e77565b600254811015610ed95760026000527f405787fa12a823e0f2b7631cc41b3ba8828b3321ca811111fa75cd3aa3bb5ace0190600090565b634e487b7160e01b600052603260045260246000fd5b15610ef657565b60405162461bcd60e51b8152602060048201526012602482015271139bc81c195b991a5b99c81c995c5d595cdd60721b6044820152606490fd5b9060405191826000825492610f4484610e68565b908184526001948581169081600014610fb35750600114610f70575b5050610f6e92500383610d56565b565b9093915060005260209081600020936000915b818310610f9b575050610f6e93508201013880610f60565b85548884018501529485019487945091830191610f83565b915050610f6e94506020925060ff191682840152151560051b8201013880610f6056fea26469706673582212201f98247b9a57edd77da96eace7640695a2c2fb12495097b9e216885c9967232e64736f6c63430008130033",
  "immutableReferences": {},
  "source": "// SPDX-License-Identifier: MIT\r\npragma solidity ^0.8.19;\r\n\r\ncontract ReturnRequestContract {\r\n\r\n    enum RequestType { Return, Refund }\r\n    enum ReturnStatus { None, Requested, Approved, Rejected }\r\n\r\n    struct ReturnRequest {\r\n        uint orderId;\r\n        address buyer;\r\n        address seller;\r\n        RequestType requestType;\r\n        string reason;\r\n        ReturnStatus status;\r\n        uint requestedAt;\r\n        string sellerNote;\r\n    }\r\n\r\n    mapping(uint => ReturnRequest) private requests;\r\n\r\n    // ✅ NEW: allow listing requests\r\n    uint public requestCount;\r\n    uint[] private requestOrderIds;\r\n\r\n    event ReturnRequested(uint indexed orderId, address indexed buyer, address indexed seller, RequestType requestType, string reason);\r\n    event ReturnApproved(uint indexed orderId, address indexed seller, string note);\r\n    event ReturnRejected(uint indexed orderId, address indexed seller, string note);\r\n\r\n    function requestReturnOrRefund(\r\n        uint _orderId,\r\n        address _seller,\r\n        RequestType _type,\r\n        string memory _reason\r\n    ) public {\r\n        require(_orderId > 0, \"Invalid orderId\");\r\n        require(_seller != address(0), \"Invalid seller\");\r\n        require(bytes(_reason).length > 0, \"Reason required\");\r\n        require(requests[_orderId].status == ReturnStatus.None, \"Request already exists\");\r\n\r\n        requests[_orderId] = ReturnRequest({\r\n            orderId: _orderId,\r\n            buyer: msg.sender,\r\n            seller: _seller,\r\n            requestType: _type,\r\n            reason: _reason,\r\n            status: ReturnStatus.Requested,\r\n            requestedAt: block.timestamp,\r\n            sellerNote: \"\"\r\n        });\r\n\r\n        // ✅ NEW\r\n        requestCount++;\r\n        requestOrderIds.push(_orderId);\r\n\r\n        emit ReturnRequested(_orderId, msg.sender, _seller, _type, _reason);\r\n    }\r\n\r\n    function approve(uint _orderId, string memory _note) public {\r\n        ReturnRequest storage r = requests[_orderId];\r\n        require(r.status == ReturnStatus.Requested, \"No pending request\");\r\n        require(msg.sender == r.seller, \"Only seller can approve\");\r\n\r\n        r.status = ReturnStatus.Approved;\r\n        r.sellerNote = _note;\r\n\r\n        emit ReturnApproved(_orderId, msg.sender, _note);\r\n    }\r\n\r\n    function reject(uint _orderId, string memory _note) public {\r\n        ReturnRequest storage r = requests[_orderId];\r\n        require(r.status == ReturnStatus.Requested, \"No pending request\");\r\n        require(msg.sender == r.seller, \"Only seller can reject\");\r\n        require(bytes(_note).length > 0, \"Rejection note required\");\r\n\r\n        r.status = ReturnStatus.Rejected;\r\n        r.sellerNote = _note;\r\n\r\n        emit ReturnRejected(_orderId, msg.sender, _note);\r\n    }\r\n\r\n    function getRequest(uint _orderId) public view returns (\r\n        uint orderId,\r\n        address buyer,\r\n        address seller,\r\n        RequestType requestType,\r\n        string memory reason,\r\n        ReturnStatus status,\r\n        uint requestedAt,\r\n        string memory sellerNote\r\n    ) {\r\n        ReturnRequest memory r = requests[_orderId];\r\n        return (r.orderId, r.buyer, r.seller, r.requestType, r.reason, r.status, r.requestedAt, r.sellerNote);\r\n    }\r\n\r\n    function getStatus(uint _orderId) public view returns (ReturnStatus) {\r\n        return requests[_orderId].status;\r\n    }\r\n\r\n    // ✅ NEW getters for pages\r\n    function getAllRequestOrderIds() public view returns (uint[] memory) {\r\n        return requestOrderIds;\r\n    }\r\n\r\n    function getRequestOrderIdAt(uint index) public view returns (uint) {\r\n        require(index < requestOrderIds.length, \"Index out of range\");\r\n        return requestOrderIds[index];\r\n    }\r\n}\r\n",
  "sourcePath": "C:\\Users\\Sharmaine\\OneDrive - Republic Polytechnic\\Attachments\\Desktop\\FAApp\\contracts\\ReturnRequestContract.sol",
  "compiler": {
    "name": "solc",
    "version": "0.8.19+commit.7dd6d404.Emscripten.clang"
  },
  "schemaVersion": "3.4.16",
  "updatedAt": "2026-01-25T13:03:02.427Z",
  "networkType": "ethereum",
  "devdoc": {
    "kind": "dev",
    "methods": {},
    "version": 1
  },
  "userdoc": {
    "kind": "user",
    "methods": {},
    "version": 1
  }
}